:0400000080312628FD
:100008007E1480310B1F24282100911C24282000F5
:10001800911C24289110FD140530E00AE10A6002C1
:10002800031C1828E0017D1532306102031C1E28CC
:10003800E101FD150130CC070030CD3DCE3DCF3D6F
:100048007E100900883111280430AB01AA009330D2
:10005800A900E030A8005408F0005508F100F201AA
:10006800F3012B08F7002A08F6002908F5002808EC
:10007800F4008D31A425803173082000AB0072088C
:10008800AA007108A9007008A8005208AC0053081B
:10009800AD000C30AE01AF01F301F201F1004430C4
:1000A800F0002F08F7002E08F6002D08F5002C08A0
:1000B800F4008D31A425803173082000AF00720848
:1000C800AE007108AD007008AC006430F000F101BA
:1000D800F201F3012F08F7002E08F6002D08F500AD
:1000E8002C08F4008E31A9268031CA205408A400B7
:1000F8005508A500A601A7012408AC022508AD3BB8
:100108002608AE3B2708AF3B2F08F3002E08F20065
:100118002D08F1002C08F0002B08F7002A08F6003B
:100128002908F5002808F4008E31A9268031CA2054
:1001380080312F08031DAF282E08031DAF28D030AB
:100148002C0207302D3B0318AF280730AF01AE0152
:10015800AD00D030AC002F08031DBB282E08031DAE
:10016800BB28A9302C0261302D3B031CC12861300B
:10017800AF01AE01AD00A830AC002F08A3002E08D7
:10018800A2002D08A1002C08A00008007308AF00E9
:100198007208AE007108AD007008AC000800F901E3
:1001A800F71FE0282D2180310319F50A0319F60AF3
:1001B8000319F70AF901F90AF31FED28F009F10903
:1001C800F209F309F00A0319F10A0319F20A0319EB
:1001D800F30A730872047104700403191A29F801E8
:1001E800F80AF31BFC28F035F10DF20DF30DF42895
:1001F80073087702031D0A2972087602031D0A296B
:1002080071087502031D0A2970087402031C142959
:100218007008F4027108F53B7208F63B7308F73B67
:10022800F336F20CF10CF00CF80BFC2879080319E2
:1002380024292D210319F50A0319F60A0319F70AC7
:100248007708F3007608F2007508F1007408F000EA
:100258000800F409F509F609F709F40A0800093451
:10026800723465347334523473343D340034093491
:10027800703477346D3431343D340034093470349B
:1002880077346D3432343D34003472346534733429
:10029800523463343D34003409346934443472349C
:1002A80076343D3400340D340A340034F1007008DB
:1002B80086008701010803196B29710886007008F8
:1002C8008400850100088100F00AF10A5B297108A1
:1002D800860087018101080014340034003400349A
:1002E80010342734003400341034273400340034F8
:1002F800103400348B317B2B8B317B2B8B31842B4F
:100308008B319A2B8B31C92B8D31372DC034F23478
:10031800FC34FF3440340D3403340034640080016D
:100328000131890B93290034FE0012001E00FE0BD8
:0403380099290034CB
:101022004430FD018400003085001E308131922160
:101032008831A03084000030850034308131922123
:101042008831203084000130850040308131922186
:101052008831A030840001308500403081319221F6
:101062008831703084008130850062308600003023
:1010720087000E308131982188318A308400813096
:101082008500D430860000308700083081319821F5
:1010920088317E1020004D280000AA303F00FF005A
:1010A200142288318B170B17112288317D1DBF281E
:1010B2007D114030F201F20AF3000630D921883165
:1010C20073082000D9007208D8000330D936D80C32
:1010D200F2004030F3000530D92188317308200036
:1010E200D7007208D6000330D736D60CF200103083
:1010F200F3000430D921883173082000D50072082A
:10110200D4000330F2001030F3000230D92173080A
:101112002000D3007208D2008031282088312308B1
:10112200E9002208E8002108E7002008E600ED2691
:1011320088312308ED002208EC002108EB0020088A
:10114200EA00E82688317108DB007008DA00000046
:10115200053020005E02031CBD286B228831302638
:1011620088312108EF002008EE006F08F3006E08B6
:10117200F20078278831BF286A238831FD1D29298A
:10118200FD114930F0008130F1002B2188316908CE
:10119200B1006808B0006708AF006608C32788314D
:1011A2005E218831D62788312B2188313330F000F7
:1011B2008130F1002B2188316D08B1006C08B0003C
:1011C2006B08AF006A08C32788315E218831D627B1
:1011D20088312B2188315030F0008130F1002B21F1
:1011E20088315808AE005908B32788315E2188310A
:1011F200D62788312B2188313B30F0008130F10035
:101202002B2188316508B1006408B0006308AF0083
:101212006208C32788315E218831D62788312B2185
:1012220088314230F0008130F1002B2188316E0884
:10123200AE006F08B32788315E218831D627883106
:101242002B2188315730F0008130F1002B21883179
:101252000000572823009E1E9E162000111A5329B3
:101262002E292000111E3229700884007108850081
:10127200000823009A00F00A0319F10A0000000096
:10128200000000000000000000000000000000005C
:10129200000000000000000000000000000000004C
:1012A2000000000070088400710885001200031D10
:1012B20032292000111A08005A29BE00BC01B11FB0
:1012C2007829BC01BC0AB401B501B601B7012E08E8
:1012D200B4022F08B53B3008B63B3108B73B37089C
:1012E200B1003608B0003508AF003408AE00F00196
:1012F2003308F2003208F1003E08602788313208D4
:10130200FE3EBD003D080319C5290A30F000F10177
:10131200F201F3013108F7003008F6002F08F5005A
:101322002E08F4008031D32088317308BB00720884
:10133200BA007108B9007008B8003D083E07B40051
:10134200860087013808303E81000A30A000A101E2
:10135200A201A3013108A7003008A6002F08A500AA
:101362002E08A400382588312308B1002208B000D5
:101372002108AF002008AE00310830042F042E04EB
:101382000319C529BD0383293C080319D3293D0844
:101392000319D2293D083E07B40086002D3087018B
:1013A2008100BD033E083D07F0003E0881315A2905
:1013B200F500F601F70172081F268831750810261C
:1013C20088310D30F400F40BE42941307302031C20
:1013D200EC294030F300F8017308780203180C2A54
:1013E20021009D149D18F329000021001C08F9001A
:1013F200FA01F935FA0DF935FA0D1B08F400063039
:10140200F436890B012A7408F9047908F6077A0878
:10141200F73DF80AED297708F3007608F200080094
:101422003B009B170800322288312D2288310D267D
:10143200883129228831DE258831F6258831252216
:101442008831ED278831E12F013021009D00D02F16
:10145200813022009700080078302100990098011D
:10146200080022008C018E010F3021008C001F30F9
:101472008E000F3023008E0017308C003B3024008A
:101482008C0030308E002100951325008C018E01D6
:1014920000308B1B0130F0008B13DB2788310F10DB
:1014A2001508E039143895003D001408F039043865
:1014B20094001508F039033895002508F0390938E9
:1014C200A500DB2788310F14701C692A8B170800CE
:1014D2008B1308006D08C3006C08C2006B08C100C2
:1014E2006A08C0006608C0026708C13B6808C23BC0
:1014F2006908C33BD030AE000730AF00B001B10184
:101502004008AE024108AF3B4208B03B4308B13B42
:101512003108BB278831A43086008701403F210073
:10152200A800413FA900423FAA00433FAB00230865
:10153200A7002208A6002108A5002008A400200078
:1015420043082100A300200042082100A20020003D
:1015520041082100A100200040082100A000240829
:1015620020022000AE0021002508213B2000AF0010
:1015720021002608223B2000B00021002708233B3F
:101582002000B100F3003008F2002F08F1002E080D
:10159200F000AA278831A425883173082000B500FD
:1015A2007208B4007108B3007008B20021002F085D
:1015B2002000A30021002E082000A20021002D08F7
:1015C2002000A10021002C082000A00021002308F7
:1015D200F3002208F2002108F1002008F0002000A8
:1015E200AA278831A4258831942788313825883163
:1015F2002308B9002208B8002108B7002008B60065
:1016020032083607AE003308373DAF003408383DA4
:10161200B0003508393DB100BB2788312730A3011E
:10162200A201A1001030A0004308A7004208A600B2
:101632004108A5004008A400382588312308C300CA
:101642002208C2002108C1002008C0006208C007A9
:101652006308C13D6408C23D6508C33D0000200027
:10166200C31B452B4308031D3F2B4208031D3F2B81
:10167200B13040020430413B031C452B0430C3010E
:10168200C201C100B030C000C31B542B4308031D6C
:10169200592B4208031D592B4108031D592B0230B7
:1016A20040020318592B0230C000C101C201C3011C
:1016B2004308E5004208E4004108E3004008E20074
:1016C2006308BF006208BE003F08F3003E08F20054
:1016D200C92D6D08B1006C08B0006B08AF006A0834
:1016E200AE006608AE026708AF3B6808B03B690807
:1016F200B13BD02CDF01B030F2000430F300C92539
:1017020088310230982BB11BDA2C3108031D922B41
:101712003008031D922BAD302E020D302F3B031CDF
:10172200DA2C0230F200F301C9258831033020009F
:10173200CE2CB11BA82B3108031DDA2C3008031D57
:10174200DA2CF4302E0201302F3B0318DA2C210060
:101752003B08B7003A08B6003908B5003808B400AB
:1017620020004F082100BB0020004E082100BA00D3
:1017720020004D082100B90020004C082100B800CB
:1017820020000630DF0A5F02031C7C2B0430CE2CC3
:1017920021003B082000CB0021003A082000CA00AB
:1017A200210039082000C900210038082000C800A3
:1017B200210034082000C802210035082000C93B5E
:1017C200210036082000CA3B210037082000CB3B0D
:1017D2000530A0009E278831382588312308CB00A8
:1017E2002208CA002108C9002008C80021005708A1
:1017F2002000A700210056082000A600210055085D
:101802002000A500210054082000A400210058084F
:101812002000A402210059082000A53B21005A08FB
:101822002000A63B21005B082000A73B0230A0005D
:10183200A101A201A3013825883123082100BF009C
:10184200200022082100BE00200021082100BD0046
:10185200200020082100BC000230C301C201C100E7
:101862005730C0003F08F3003E08F2003D08F10087
:101872003C08F0000130F701F601F5003A30F400BF
:10188200A425883173082000A3007208A200710801
:10189200A1007008A0000230F301F201F1005730FC
:1018A200F0009C30F701F601F5004030F400A42569
:1018B2008831942788313825883123082100B300E4
:1018C200200022082100B200200021082100B100DE
:1018D200200020082100B0006430F000F101F20184
:1018E200F3013308F7003208F6003108F50030083A
:1018F200F400A425883173082100B3007208B200F5
:101902007108B1007008B00011302000A000A101E0
:10191200A201A30121003308F3003208F2003108CA
:10192200F1003008C9278831A425883194278831ED
:10193200382588312308C7002208C6002108C500BF
:101942002008C4001430A000A101A201A3014B0889
:10195200F3004A08F2004908F1004808C927883113
:10196200A42588319427883138258831230821001D
:10197200AF00200022082100AE0020002108210033
:10198200AD00200020082100AC0008302000A0009B
:101992009E278831382588310530DE00DA2C5E0832
:1019A2008400063004020318DA2C813104357E3EAD
:1019B200820003305F02031C080021005708803AAE
:1019C200FC0020003108803A7C022100031DF92C22
:1019D2002000300821005602031DF92C20002F0898
:1019E20021005502031DF92C20002E08210054026B
:1019F20003180B2D200031082100D70020003008E9
:101A02002100D60020002F082100D50020002E083A
:101A12002100D40020003108803AFC0021005B083C
:101A2200803A7C022000031D262D21005A08200046
:101A32003002031D262D2100590820002F02031D0C
:101A4200262D2100580820002E0203180800310814
:101A52002100DB00200030082100DA0020002F08DE
:101A62002100D90020002E082100D8000800A90179
:101A7200A31F482DA009A109A209A309A00A0319BD
:101A8200A10A0319A20A0319A30AA901A90AA71FF5
:101A9200572DA409A509A609A709A40A0319A50A8D
:101AA2000319A60A0319A70A0130A906AA01AB0164
:101AB200AC01AD01230822042104200403198D2D59
:101AC200A801A80AA31B6A2DA035A10DA20DA30D82
:101AD200622DAA35AB0DAC0DAD0D23082702031DF7
:101AE2007C2D22082602031D7C2D21082502031DC0
:101AF2007C2D20082402031C872D2008A402210823
:101B0200A53B2208A63B2308A73B2A14A336A20C16
:101B1200A10CA00CA80B6A2D290803199B2DAA0958
:101B2200AB09AC09AD09AA0A0319AB0A0319AC0A3D
:101B32000319AD0A2D08A3002C08A2002B08A1004E
:101B42002A08A0000800F801F901FA01FB01701C43
:101B5200B22D7408F8077508F93D7608FA3D770842
:101B6200FB3DF435F50DF60DF70DF336F20CF10CE5
:101B7200F00C7308720471047004031DA82D7B0815
:101B8200F3007A08F2007908F1007808F000080002
:101B9200712788317108F5007008F4007308750622
:101BA200031DD52D72087406031908009B137208D1
:101BB2009300730894009B1708003B009C019D0151
:101BC2009E0180309F00A001920191019401A030FA
:101BD2009300063096003F3095009801013097003F
:101BE2009A01990190309B000800AC01AD01AE0151
:101BF2008030AF00B001A201A101A401A030A30076
:101C02000630A6003F30A500A8010130A700AA01B6
:101C1200A9019030AB000800163097000800F100CF
:101C220021009D18112E7108F000F00DF00D1D0815
:101C32007006833970069D001D14D02FF10080308C
:101C4200F00004307102031C282E0330F1007108E9
:101C5200F004700822009700171B08002D2E2000A8
:101C62005A08A2005B08A300A401A5012508031DD0
:101C7200432E2408031D432E213022021C30233B15
:101C8200031C4B2E2030A2021C30A33B0030A43B8D
:101C9200A53B4F2EA201A301A401A5010630F30129
:101CA200F201F1004030F0002508F7002408F600A8
:101CB2002308F5002208F400A425883173082000C7
:101CC200A5007208A4007108A3007008A2003230B7
:101CD200F301F201F100C830F0002508F7002408F2
:101CE200F6002308F5002208F400A92688317308BB
:101CF200A5007208A4007108A3007008A2002508BC
:101D0200031D8C2E2408031D8C2E2D30220206303A
:101D1200233B031C922E0630A501A401A3002C3004
:101D2200A2002508031DA42E2408031DA42E2308A7
:101D3200031DA42E143022020318A42E1430A20074
:101D4200A301A401A5012308A1002208A000080004
:101D5200F801F901FA01FB017308720471047004BD
:101D62000319DF2EFC01FC0AF31BBC2EF035F10D2A
:101D7200F20DF30DB42EF835F90DFA0DFB0D7308C3
:101D82007702031DCE2E72087602031DCE2E710835
:101D92007502031DCE2E70087402031CD92E700822
:101DA200F4027108F53B7208F63B7308F73B7814AE
:101DB200F336F20CF10CF00CFC0BBC2E7B08F3009A
:101DC2007A08F2007908F1007808F0000800590852
:101DD200F1005808F00008002E30AB01AA01A9005A
:101DE200E030A8005608F0005708F100F201F301B4
:101DF2002B08F7002A08F6002908F5002808F40045
:101E0200A425883173082000AB007208AA0071086B
:101E1200A9007008A8005808A4005908A500A60146
:101E2200A7012708F3002608F2002508F10024087C
:101E3200F0002B08F7002A08F6002908F500280808
:101E4200F400A92688317308AB007208AA00710851
:101E5200A9007008A8002B08031D3E2F2A08031DA5
:101E62003E2FD03028020730293B03183E2F07307F
:101E7200AB01AA01A900D030A8002B08031D4A2FEC
:101E82002A08031D4A2FA93028026130293B031C6E
:101E9200502F6130AB01AA01A900A830A800183068
:101EA200A807FC30A93DFF30AA3DAB3D2B08A3009B
:101EB2002A08A2002908A1002808A0000800F300AF
:101EC2000130F1020030F23B710F6A2F720A0319DE
:101ED200080073088600870170088100F30A612FE9
:101EE2003B001408F100F0011308F00408008D27EC
:101EF20088317108F5007008F40073087506031D37
:101F0200842F7208740603190800AB137208A30029
:101F12007308A400AB1708003B002408F100F0018D
:101F22002308F004080073082000A7007208A60026
:101F32007108A5007008A4000800A101A201A30174
:101F42004B08A7004A08A6004908A5004808A400B3
:101F520008004708F7004608F6004508F50044085F
:101F6200F4000800AF001030B001B101B200C4307B
:101F7200B3010800C3003008C2002F08C1002E08B8
:101F8200C0000800AE001030B200C430B301080037
:101F9200F0000A30F400F501F601F70108006330A1
:101FA2009E009F019B019C010800C430F00000309C
:101FB200F100080055303C008F00AA308F00080065
:101FC200083023009F0090309D0024309E00A030F6
:101FD2009B0001309C0008004B3020009C007C30AC
:101FE2009B009A019110210091140030F001F1013F
:0E1FF200FC278831FD2F080020001C15080078
:020000040001F9
:04000E00E4FFFFFE0E
:00000001FF
