:020000040000FA
:0410000088318B2880
:1010060008007E1488310B1F36282100911C3628D3
:101016002000911C36289110EB140130F000700866
:10102600E9070130F0007008E80705306902031C83
:101036001E28E9016B1532306802031C2428E801DA
:10104600EB157C08031931280130F0007008FC0705
:1010560006307C02031C31286B14FC010130210090
:10106600CE070030CF3D0B1F5E282100911E5E2863
:101076002000911E5E28911223009D1C44281D12FB
:101086001D161908F00070082000E70020306A02DB
:1010960003185A286708F0006A08403E86000130A7
:1010A6008700700881000130F0007008EA070130FF
:1010B600F0007008FC002000111A0B1F8428210084
:1010C600111E842823009D1C6C281D121D169D12BE
:1010D6009D1620006608031980286508A03E860034
:1010E60001308700010823009A0001302000E60243
:1010F6000130F0007008E5078428E601E5012100CB
:1011060011122000931A9312131A13127E1009005B
:1011160088318D288D3084009C3085006C308600A7
:10112600003087000030FF00043090310220883103
:10113600973084009C308500D030860000308700D0
:101146000030FF0008309031022088315C30840086
:10115600233085008430FE000030FF009C31A82437
:101166008831FC0147308400003085002530FE00C0
:101176000030FF009C31A8248831A0308400003064
:1011860085003030FE000030FF009C31A8248831F5
:1011960020308400013085004030FE000030FF0022
:1011A6009C31A8248831A03084000130850040306D
:1011B600FE000030FF009C31A8247E1020008D31F7
:1011C600A22D2000C6011D304602031847294608F5
:1011D600B400B501B435B50D3408023EB600003092
:1011E600353DB7006630B8002330B90036083807F9
:1011F60086003708393D8700403FBA00413FBB00B3
:101206004608BC00BD01BC35BD0D6630BE002330AE
:10121600BF003C083E0786003D083F3D8700403F33
:10122600C000413FC1003B084102031D1C293A088A
:101236004002031847294608B400B501B435B50D78
:101246003408023EB6000030353DB7006630B800BF
:101256002330B9003608380786003708393D87003D
:10126600403FBA00413FBB0033083B02031D3D2906
:1012760032083A02031847290130B4003408C60779
:101286001D304602031CEA281D304602031C4F2966
:101296001C30B4003408C6004608B400B501B435A5
:1012A600B50D3408023EB6000030353DB700A23019
:1012B600B8002330B9003608380786003708393DAC
:1012C6008700403FBA00413FBB003A082100C000FA
:1012D60020003B082100C100C201C30120004608CE
:1012E600B400B501B435B50DA230B6002330B70051
:1012F6003408360786003508373D8700403FB8007A
:10130600413FB9003808CF003908D000D101D201D9
:101316004608B400B501B435B50D3408023EB60032
:101326000030353DB7006630B8002330B9003608C6
:10133600380786003708393D8700403FBA00413FED
:10134600BB003A082100BC0020003B082100BD007C
:10135600BE01BF0120004608B400B501B435B50D85
:101366006630B6002330B7003408360786003508E5
:10137600373D8700403FB800413FB9003808CB00F1
:101386003908CC00CD01CE013208B4003308B500CF
:10139600B601B7014E08803AB8003708803A3802DD
:1013A600031DDF2936084D02031DDF2935084C02CF
:1013B600031DDF2934084B02031CE9294608031DD7
:1013C600E9295008B3004F08B20008004E08803AD9
:1013D600B40021003F08803A20003402031D032A8E
:1013E60021003E0820004D02031D032A21003D086E
:1013F60020004C02031D032A21003C0820004B025A
:10140600031C0A2A5008B3004F08B20008004B0913
:10141600B4004C09B5004D09B6004E09B700B40A30
:101426000319B50A0319B60A0319B70A3208B80030
:101436003308B900BA01BB013808B4073908B53D0D
:101446003A08B63D3B08B73D3708C5003608C40024
:101456003508C3003408C200210040082000B4004B
:10146600210041082000B500210042082000B600F6
:10147600210043082000B7004F09B8005009B90001
:101486005109BA005209BB00B80A0319B90A03196F
:10149600BA0A0319BB0A3808B4073908B53D3A0831
:1014A600B63D3B08B73D3708F4003608F30035086B
:1014B600F2003408F1004508F8004408F700430834
:1014C600F6004208F5009E31642688317408200033
:1014D600C5007308C4007208C3007108C200210069
:1014E6003C082000B40021003D082000B500210082
:1014F6003E082000B60021003F082000B7004B0937
:10150600B8004C09B9004D09BA004E09BB00B80A2B
:101516000319B90A0319BA0A0319BB0A3808B4072A
:101526003908B53D3A08B63D3B08B73D3708A70030
:101536003608A6003508A5003408A4004508AB0007
:101546004408AA004308A9004208A800933163236F
:10155600883120002708C5002608C4002508C300D6
:101566002408C20042084F07B4004308503DB500A6
:101576004408513DB6004508523DB7003708C5003E
:101586003608C4003508C3003408C200C51FD32A74
:101596000030C5000030C4000030C3000030C20077
:1015A6004308B3004208B200080020006E08B200EB
:1015B6006F08B300B401B501B209B309B409B5099E
:1015C600B20A0319B30A0319B40A0319B50A6C0857
:1015D600B6006D08B700B801B9013608B20737087A
:1015E600B33D3808B43D3908B53D3508BD0034086B
:1015F600BC003308BB003208BA00D030B200073056
:10160600B3000030B4000030B5003A09B6003B091B
:10161600B7003C09B8003D09B900B60A0319B70A74
:101626000319B80A0319B90A3608B2073708B33DD1
:101636003808B43D3908B53D3508BD003408BC004E
:101646003308BB003208BA000430A03E860087018A
:10165600403F2100A800413FA900423FAA00433F66
:10166600AB002308A7002208A6002108A500200831
:10167600A40020003D082100A30020003C08210012
:10168600A20020003B082100A10020003A0821000A
:10169600A00020082000B200210021082000B3008D
:1016A600210022082000B400210023082000B500F4
:1016B600210024092000B600210025092000B700DA
:1016C600210026092000B800210027092000B900C2
:1016D600B60A0319B70A0319B80A0319B90A36086C
:1016E600B2073708B33D3808B43D3908B53D35086B
:1016F600F4003408F3003308F2003208F100210048
:101706004C08F5004D08F600F701F8019E316426F5
:101716008A3174082000CE007308CD007208CC0010
:101726007108CB0021004A082000A40021004B08C4
:101736002000A500A601A70121004C08F1004D08D4
:10174600F200F301F4012308F8002208F70021084B
:10175600F6002008F5009E3164268A3174082000C0
:10176600AB007308AA007208A9007108A80093319B
:1017760063238A31200027082100BF0020002608A5
:101786002100BE00200025082100BD0020002408FD
:101796002100BC0020004B0821003C072000B200BD
:1017A6004C0821003D3D2000B3004D0821003E3D80
:1017B6002000B4004E0821003F3D2000B50035084A
:1017C600BD003408BC003308BB003208BA00003044
:1017D600A7000030A6002730A5001030A4003D0861
:1017E600AB003C08AA003B08A9003A08A8009331C0
:1017F60063238A3120002708BD002608BC0025087F
:10180600BB002408BA00210050082000BA072100B6
:1018160051082000BB3D0030BC3DBD3D000020000E
:10182600BD1B292C3D08031D212C3C08031D212C22
:10183600B1303A0204303B3B031C292C0030BD007A
:101846000030BC000430BB00B030BA00BD1B382CE1
:101856003D08031D402C3C08031D402C3B08031D7E
:10186600402C05303A020318402C0030BD000030F1
:10187600BC000030BB000530BA003B082100D10097
:1018860020003A082100D0005108F8005008F7005F
:101896009D31BB2508002000B500B601B701B00197
:1018A6003508AC002C08B4005C3086002330870075
:1018B600423134088400013085000008010603190E
:1018C6006B2C34088600013087000108031D0800D0
:1018D6005C308600233087004231FD300106031D4F
:1018E6007B2C3408860001308700010803190800A4
:1018F6003408023E8600013087000108AC00AD01C5
:101906002C08B6002D08B7000830B635B70D890B80
:10191600882C3408033E8600013087000108AC009D
:10192600AD012C08B6042D08B704FF303605B60005
:1019360000303705B700023036063704031DB12CD8
:101946003508053E8600013087000108AC005E3090
:101956008600233087002C088100712D033036065F
:101966003704031DCF2C3508043E8600013087005E
:101976000108AC005D308600233087002C0881000A
:101986005C308600233087003508053E8400013030
:1019960085000008C03F712D003037021030031952
:1019A6003602031C0800003037024C300319360299
:1019B600031808001030B6020030B73B361C732DF2
:1019C6003508043E8600013087000108AC00AD01F1
:1019D6002C08B1002D08B2000830B135B20D890BC4
:1019E600F02C3508053E8600013087000108AC0062
:1019F600AD012C08B1042D08B2043708AD00360835
:101A0600AC00AD36AC0CAC35AD0DA230AE0023301B
:101A1600AF002C082E0786002D082F3D87003108C1
:101A2600C03F3208C13F3708AD003608AC00AD36BE
:101A3600AC0CAC35AD0D6630AE002330AF002C08D3
:101A46002E0786002D082F3D87005308C03F5408F7
:101A5600C13F350A86000130870026300106031D86
:101A6600712D3708AD003608AC00AD36AC0C2C082D
:101A7600013EAE002E08B3001E3033020318712D4E
:101A86003308AC00AD01AC35AD0DA230AE0023304D
:101A9600AF002C082E0786002D082F3D8700310841
:101AA600C03F3208C13F3308AC00AD01AC35AD0DC7
:101AB6006630AE002330AF002C082E0786002D08B6
:101AC6002F3D87005308C03F5408C13F0130AC008A
:101AD6002C08B3071E303302031C432DB001B00A95
:101AE60030080319792D9E31CA268C31200034081E
:101AF6008600013087000108031908005C30860063
:101B06002330870042310108AC00350886000130D9
:101B160087002C0881003508A6000130A700063092
:101B2600A8000030A9009E3133268C3108302000F1
:101B3600AC002C08F800350890317D200800000024
:101B4600AA302100D80058083F00FF007F08210076
:101B5600D80058083F00FF009D3169258D318B174D
:101B66000B1723009E12963153268D3155302100D6
:101B7600D80058082200A000AA302100D800580832
:101B86002200A10002302100D8005808F8002030B9
:101B960090317D208D3120006B1D772EFB3021008A
:101BA600D80058082000EB05F401F40A2030210083
:101BB600D8005808F5000630923133228D31750869
:101BC6002000E0007408DF0003302100D800580828
:101BD600F4002030D9005908F5000530923133223F
:101BE6008D3175082000DE007408DD000330210009
:101BF600D8005808F4002030D9005908F500043000
:101C0600923133228D3175082000DC007408DB0028
:101C16000130DC36DB0C890B0C2E03302100D8009A
:101C26005808F4002030D9005908F50002309231E6
:101C360033228D3175082000DA007408D90001308E
:101C4600DA36D90C890B232E03302100D800580828
:101C5600F4002030D9005908F500073092313322BC
:101C66008D3175082000D8007408D7000130D836A9
:101C7600D70C890B3A2E973127278D31200026085D
:101C8600EF002508EE00943173248D3120002608DC
:101C9600ED002508EC008A31D8228D31200060083D
:101CA600A6005F08A500923190228D3120002608FB
:101CB600D4002508D3005408B3005308B200883175
:101CC600E4208D31200033082100C70020003208AF
:101CD6002100C60046352000D5002100470D200012
:101CE600D600953103258D312000EB1D802EF7306F
:101CF6002100D80058082000EB056B1CB12EFE30E1
:101D06002100D80058082000EB056A080319AE2EFA
:101D16002030F1000130F2004030F3000130F400D1
:101D26006A082100D800D9015808F5005908F600BC
:101D36009D31F3258D3120006A082100D800D90194
:101D460058082000B800210059082000B9002030AA
:101D56008F31AC278D319C3189248D310000CE2DF9
:101D6600F801F9017108F4007408FA00652F730888
:101D7600860087014030C03F0030C13F722F5C3083
:101D860086002330870042310108F400F50173080C
:101D9600860087017408C03F7508C13F722F5C300A
:101DA60084002330850001310008F4005C30840093
:101DB600233085007308860087010008C03F740839
:101DC600C13F722F5C308600233087004431730890
:101DD60084008501403F803F413F813F722F5C3048
:101DE6008600233087004631730884008501403F12
:101DF600803F413F813F722F5C3086002330870051
:101E06004831730884008501403F803F413F813F50
:101E1600722F73088600870120005F08C03F6008A4
:101E2600C13F722F73088600870120005D08C03FFE
:101E36005E08C13F722F73088600870120005B0889
:101E4600C03F5C08C13F722F7308860087012000DF
:101E56005908C03F5A08C13F722F73088600870190
:101E660020006E08C03F6F08C13F722F73088600BE
:101E7600870120006C08C03F6D08C13F722F7308B0
:101E86008600870120005708C03F5808C13F722FBF
:101E960073088600870121004608C03F4708C13FF6
:101EA600722F73088600870120005508C03F560828
:101EB600C13F722F730886008701AA30C03F553094
:101EC600C13F722F7A08FF3E031C5D2F84000F303E
:101ED600040203185D2F98310435003E820010304D
:101EE6007A02031C08004C307A02031808001030EE
:101EF600FA027A1C952F7A36F400F501F435F50DC1
:101F0600A230F6002330F7007408760786007508BD
:101F1600773D8700730884008501403F803F413F3D
:101F2600813F08007A36F400F501F435F50D663088
:101F3600F6002330F7007408760786007508773DAB
:101F46008700730884008501403F803F413F813F01
:101F560008002000BD00BB013D08BA003A08BC00DD
:101F66005C3086002330870042313C088400013013
:101F76008500000801060319C72F3C0886000130BA
:101F860087000108031D08003D08A6000130A700D0
:101F96003908A9003808A80090310E208F31003A80
:101FA60003190800EC2F20003D0895319425080000
:101FB60020003D088C314E24080020003D08923157
:101FC600F12208002000AC01AC0A3D089031F72050
:101FD600080020003C0A8600013087000108033A09
:101FE6000319D62F053A0319DB2F163A0319E02FEA
:0A1FF600363A0319DB2FE52F08002F
:10200400FE0012001E000130FE020030FF3B7F087C
:102014007E040319003403282C30F1000030F20050
:10202400200028082607F8002908273DF900780829
:10203400FE3EF300FF30793DF4000230F50000303D
:10204400F6009D31F325903120002708F200260880
:10205400F1002808FE3EF300FF30293DF4009131E1
:10206400DD21903172082000AB007108AA002B0812
:102074002D06031D3F282A082C0603194328003087
:102084000800013008000030F8001F30F90000306B
:102094008B1B0130F7008B13FA01FB0174087B02E0
:1020A400031D562873087A0203187728780823003A
:1020B40091007908920015131514000000007A08A5
:1020C4007107F5007B08723DF600750886007608F6
:1020D40087002300130881000130F8070030F93D20
:1020E4000130FA070030FB3D5028770C031C8B139A
:1020F40003188B170800FB0023009E1E9E16200069
:102104006608031D080041307802031C8D28403006
:10211400F9007908F800A030F1000130F2007B08E2
:10212400F3000130F4007808F900FA017908F500A9
:102134007A08F6009D31F3259031780803190800D8
:102144002000111EA228230020089A007808F90014
:1021540079082000E6000130E6020130F900790830
:10216400E5072100111A08001116080022008C014D
:102174008E010F3021008C001F308E000F302300A1
:102184008E0017308C003B3024008C0030308E00E1
:102194002100951325008C018E0100308B1B01302A
:1021A400F1008B1355303C008F00AA308F000F10C4
:1021B4001508E039143895003D001408F039043846
:1021C40094001508F039033895002508F0390938CA
:1021D400A50055303C008F00AA308F000F14711CED
:1021E400F5288B1708008B1308002000AE002E087A
:1021F400AD002D08AF002F088600013087000108CC
:10220400031908005C30860023308700423101083E
:10221400AD002F088600013087002D0881002C08AE
:1022240003191C298030AD002F0A86000130870075
:102234002D0881072C08AD002F08023E86000130CE
:1022440087002D0881002E08A6000130A700033066
:10225400A8000030A9009E313326903105302000BB
:10226400AD002D08F8002E0890317D200800F701FC
:10227400F21F4329F109F209F10A0319F20AF701DD
:10228400F70AF41F4E29F309F409F30A0319F40AAF
:102294000130F5007508F706F801F90171087204B8
:1022A40003197D29F601F60AF21B62290130F13582
:1022B400F20D890B59290130F5007508F6075629E6
:1022C4000130F835F90D890B632972087402031D76
:1022D4006D2971087302031C74297108F3027208D2
:1022E400F43B78140130F236F10C890B7529013076
:1022F400F602031D6229770803198529F809F909EB
:10230400F80A0319F90A7908F2007808F1000800BC
:1023140000302000A3000030A2000030A1000030F3
:10232400A00074087304720471040319D429A4016D
:10233400A40AF41BA9290130F135F20DF30DF40DB3
:10234400890B9E290130F9007908A4079B290130E3
:10235400A035A10DA20DA30D890BAA29740878023A
:10236400031DBE2973087702031DBE297208760275
:10237400031DBE2971087502031CC9297108F502E1
:102384007208F63B7308F73B7408F83B20140130DD
:10239400F436F30CF20CF10C890BCA290130A402B7
:1023A400031DA9292308F4002208F3002108F200E0
:1023B4002008F1000800FF302000A400FF30A50031
:1023C400A001A10174082102031DEA297308200257
:1023D40003182E2A71088600720887002408010653
:1023E400A4002508A5000130F1070030F23DA20148
:1023F400A301003023020830031922020318292AFA
:10240400241C142A2508F6002408F500F636F50CD9
:102414007508A4007608A50001302406A400A030A5
:1024240025061D2A2508F6002408F500F636F50CC5
:102434007508A4007608A5000130A2070030A33D6A
:1024440000302302083003192202031C022A01303F
:10245400A0070030A13DE4292508F2002408F1007A
:1024640008002000A000A301A401A501A60174088E
:102474009C31EE249231200020089C31DA249231E0
:102484004230890B432A003221009D149D18482AAA
:1024940041307502031C522A4030F6007608F500DC
:1024A4002000A101A2017508F600F70177082202B5
:1024B400031D5E2A7608210203188B2A21009D142D
:1024C4009D18622A000021001C08F600F701760816
:1024D4002000A5007708A6000230A535A60D890BBB
:1024E4006F2A21001B08F6000630F636890B772A7E
:1024F4007608F700F80177082000A5047808A604F8
:102504002508A3072608A43D0130A1070030A23DF9
:10251400552A2408F5002308F400080000302000A0
:10252400AA000030A9000030A8000030A700AB01C9
:1025340005302B020318C22A2B35023EAC3E86001E
:1025440087012B35AC3E84008501403F803F413FED
:10255400813F2B35AC3E86008701403FFA00413F66
:10256400FB007A08A7077B08A83D0030A93DAA3DD7
:102574000130FA007A08AB0705302B02031C9E2AAF
:102584002B35AC3E860087012508C03F2608C13F95
:102594002508A7072608A83D0030A93DAA3D00301C
:1025A400F4000030F3000030F2000630F1002A0895
:1025B400F8002908F7002808F6002708F5009131EB
:1025C4008A2174082000AA007308A9007208A800D0
:1025D4007108A7002808A6002708A5000800200005
:1025E400AF002F08AC002C08B0005C30860023300C
:1025F400870042313008840001308500000801065C
:10260400031D080030088600013087000108031903
:10261400080030088600013087000130433FAD00D8
:1026240030088600013087000130453FAE0003309A
:102634002E06031D080004302D06031D0800300873
:10264400063E8400013085000008AC003008073ED7
:102654008400013085005C308600233087004431DB
:102664000008C03F2C08C13F3008083E84000130F8
:1026740085000008AC003008093E84000130850064
:102684005C3086002330870046310008C03F2C08A8
:10269400C13F9E31CA26923120002F08A600013086
:1026A400A7000630A8000030A9009E3133269231DD
:1026B40008302000AC002C08F8002F0890317D2051
:1026C40008002000AD01A71F742BA409A509A609C1
:1026D400A709A40A0319A50A0319A60A0319A70A34
:1026E400AD01AD0AAB1F852BA809A909AA09AB093D
:1026F400A80A0319A90A0319AA0A0319AB0A013083
:10270400F9007908AD060030B1000030B0000030A7
:10271400AF000030AE002708260425042404031962
:10272400CE2BAC01AC0AA71BA32B0130A435A50DFD
:10273400A60DA70D890B982B0130F9007908AC0779
:10274400952B0130AE35AF0DB00DB10D890BA42B17
:1027540027082B02031DB82B26082A02031DB82BB9
:1027640025082902031DB82B24082802031CC32BA7
:102774002408A8022508A93B2608AA3B2708AB3B46
:102784002E140130A736A60CA50CA40C890BC42B5F
:102794000130AC02031DA32B2D080319DC2BAE0959
:1027A400AF09B009B109AE0A0319AF0A0319B00A97
:1027B4000319B10A3108A7003008A6002F08A500A4
:1027C4002E08A40008002000A301A4010030A700E3
:1027D4001F30A80000308B1B0130A200A90174082F
:1027E400F6007308F5000530F636F50C890BF62B68
:1027F4007508A3007608A4001F307305F5000030A7
:102804007405F6007508760403190C2C0130A3072F
:102814000030A43D8B13A501A601A001A101240849
:102824002102031D172C2308200203186D2C2300FA
:102834001513151595162000A90120302902031837
:10284400652C27082300910020002808230092000B
:10285400740820002602031D312C73082502031876
:102864003D2C2508710786002608723D8700010863
:10287400230093003F2C2300930101302000A5077F
:102884000030A63D230094011F3020002905F500E7
:102894001F307506031D502C23009512553023005C
:1028A4009600AA3096009514000000000130200024
:1028B400A7070030A83D0130F5007508A9072030AE
:1028C4002902031C232C2300151101302000A0072A
:1028D4000030A13D112C220C031C8B1303188B1701
:1028E400080000302000CA000030C9002E30C800A3
:1028F400E030C7005D08F1005E08F200F301F40166
:102904004A08F8004908F7004808F6004708F500A7
:102914009E316426943174082000CA007308C900EB
:102924007208C8007108C7005F082100B8002000C1
:1029340060082100B900BA01BB013B08F4003A0861
:10294400F3003908F2003808F10020004A08F800C2
:102954004908F7004808F6004708F50091318A2134
:10296400943174082000CA007308C9007208C800B2
:102974007108C7004A08031DD02C4908031DD02C38
:10298400D03047020730483B0318D02C0030CA002F
:102994000030C9000730C800D030C7004A08031D02
:1029A400DC2C4908031DDC2CA93047026130483B6C
:1029B400031CE42C0030CA000030C9006130C80098
:1029C400A830C7001830A900FC30AA00FF30AB00C3
:1029D400FF30AC004708A9074808AA3D4908AB3DA9
:1029E4004A08AC3D2C08CA002B08C9002A08C800B4
:1029F4002908C7004708A5004808A600A701A801A0
:102A0400080020005709A0005809A100A00A0319D2
:102A1400A10A55082007A4005608213DA5009630B8
:102A2400F1000030F2002508F4002408F30091318D
:102A34003921953172082000A3007108A2002208F0
:102A44002304031D462D2508803AA000803020026F
:102A5400031D2E2D11302402031C352D01302000BE
:102A6400A2000030A30020002508803AA0007F3097
:102A74002002031D3F2DF03024020318462DFF30A1
:102A84002000A200FF30A3002000220821004407F8
:102A9400C400200023082100453DC5000A30F10090
:102AA4000030F20020005608F4005508F3009E316F
:102AB4009626953172082000A5007108A400210013
:102AC400440820002407A400210045082000253DD7
:102AD400A5002508803AA00086302002031D742D2D
:102AE4002D302402031C7B2D2C302000A400063042
:102AF400A50020002508803AA00080302002031D94
:102B0400852D0530240203188C2D05302000A400E7
:102B14000030A50020002508F8002408F7009D31A6
:102B2400D72508002000B500B001B101B401350873
:102B3400AC002C08B3005C3086002330870042319F
:102B4400330884000130850000080106031D0800D5
:102B54003308860001308700010803190800330890
:102B6400023E8600013087000108AC00AD012C084C
:102B7400B0002D08B1000830B035B10D890BBE2D61
:102B84003308033E8600013087000108AC00AD0124
:102B94002C08B0042D08B1043108AF003008AE0091
:102BA40033088600013087000130453FB40003102C
:102BB400B40D21303402031CE32D2030AC002C086A
:102BC400B400B201340832020318162E2F08F200A2
:102BD4002E08F1003630AC002C08F3008E31B326F9
:102BE400953120003708AC003208033E3507AD00AC
:102BF4002D088600013087002C0881003608AC00BF
:102C04003208043E3507AD002D08860001308700E8
:102C14002C0881003208023EAC002C08B2000130BE
:102C2400AE070030AF3DE42D5C30860023308700D2
:102C340042310108AC0035088600013087002C08B9
:102C440081000330AC00350A8600013087002C086F
:102C540081003408AC003508023E8600013087004C
:102C64002C0881000330AC002C08B4073508A600FA
:102C74000130A7003408AC00AD012C08A8002D08D1
:102C8400A9009E313326953102302000AC002C0877
:102C9400B4073408AC002C08F800350890317D20C6
:102CA40008005C30F1002330F2008430F30000307F
:102CB400F4009031452096315C302000A60023308A
:102CC400A7008430A8000030A90090310E2096316E
:102CD4002000AE00AF012E08B4002F08B500340860
:102CE4003504031D0A2F5C308600233087005530DD
:102CF400C03F5D30860023308700AA3081005E30FB
:102D040086002330870001308100B601B70100300E
:102D140037021E30031936020318E12E3708F20079
:102D24003608F100D030F3000230F4009D318425E0
:102D340096317108B83E2000AE002430723DAF00D9
:102D44003708B1003608B000B035B10D6630B200B6
:102D54002330B3003008320786003108333D870042
:102D64002E08C03F2F08C13F3708F2003608F10093
:102D74004D30F3000130F4009D318425963120005C
:102D84003708AF003608AE00AE35AF0DA230B00044
:102D94002330B1002E08300786002F08313D87000C
:102DA4007108C03F7208C13F0130B6070030B73D1B
:102DB400003037021E3003193602031C902E803077
:102DC400AE000C30AF005C30860023308700443105
:102DD4002E08C03F2F08C13F1430AE000030AF00B2
:102DE4005C3086002330870046312E08C03F2F0810
:102DF400C13F0530AE000030AF005C3086002330A8
:102E0400870048312E08C03F2F08C13F9E31CA2693
:102E14005C308600233087004431403F2100CC00E1
:102E2400413FCD005C308600233087004631403F6F
:102E3400CA00413FCB005C30860023308700483114
:102E4400403FC800413FC900080000302100BB00DA
:102E54000430BA009330B900E030B80020005B08B9
:102E6400F1005C08F200F301F40121003B08F800D2
:102E74003A08F7003908F6003808F5009E31642650
:102E8400973174082100BB007308BA007208B900B6
:102E94007108B80020005908C7005A08C800C901C1
:102EA400CA014A08F4004908F3004808F200470838
:102EB400F1000030F8000030F7000C30F6001C3050
:102EC400F5009E316426973174082000CA00730807
:102ED400C9007208C8007108C7000030F40000304F
:102EE400F3000030F2006430F1004A08F8004908A9
:102EF400F7004808F6004708F50091318A21973118
:102F040074082000CA007308C9007208C800710858
:102F1400C7004708A9004808AA004908AB004A08A6
:102F2400AC005B08AD005C08AE00AF01B001AD09B8
:102F3400AE09AF09B009AD0A0319AE0A0319AF0A05
:102F44000319B00A2D08A9072E08AA3D2F08AB3D86
:102F54003008AC3D2C08CA002B08C9002A08C80058
:102F64002908C7004A08F4004908F3004808F20099
:102F74004708F10021003B08F8003A08F700390837
:102F8400F6003808F50091318A2197317408200041
:102F9400CA007308C9007208C8007108C7004A084B
:102FA400031DE52F4908031DE52FD03047020730E4
:102FB400483B0318E52F0030CA000030C900073031
:102FC400C800D030C7004A08031DF12F4908031D6B
:102FD400F12FA93047026130483B031CF92F003020
:102FE400CA000030C9006130C800A830C7004708D3
:102FF400A5004808A600A701A80108008E31BA2E32
:103004008E31C22E8E31D22E8E31E52E8E31F22E9D
:103014008E31FF2E8F310C2F8F31152F8F311E2FB4
:103024008F31272F8F31302F8F31392F8F31422F0E
:103034008F314B2F8F31542F303431343234333479
:103044003434353436343734383439344134423412
:0A305400433444344534463400345C
:1038FC0020001C15080081302200970008001630AB
:10390C002100970008002000EA01FC010800103497
:10391C0027341034273472082000E2007108E100CB
:10392C0008001434003414340034053400340534E5
:10393C000034013021009D0063309E009F019B01EB
:10394C009C0108006400800101310130FE0200304E
:10395C00FF3B7F087E0403190034A92C210091122F
:10396C001112083023009F0090309D0024309E00DF
:10397C00A0309B0001309C002100911620001112F8
:10398C0008004B3020009C007C309B009A01911069
:10399C00210091140030F1000030F2009C31912490
:1039AC009C319C317E240800F20021009D18DB2CF8
:1039BC007208F100F10DF10D1D08710683397106C5
:1039CC009D001D1463309E009F019B019C0108000B
:1039DC00F3008030F1007108F20004307302031C14
:1039EC00FB2C0330F1007108F3007308F10071082F
:1039FC00F204720822009700171B0800022D0130F8
:103A0C003B009C009D019E019F01A0019201023090
:103A1C0091009401A0309300063096003F30950041
:103A2C009801013097009A01990190309B00080091
:103A3C0001303B00AC00AD01AE01AF01B001A20101
:103A4C000230A100A401A030A3000630A6003F3034
:103A5C00A500A8010130A700AA01A9019030AB0074
:103A6C0008003B001408F300F4017308F500740817
:103A7C00F6000830F535F60D890B402D1308F300D0
:103A8C00F4017308F5047408F6047608F20075085E
:103A9C00F10008003B002408F300F4017308F50062
:103AAC007408F6000830F535F60D890B592D2308EE
:103ABC00F300F4017308F5047408F6047608F200B8
:103ACC007508F10008009031B8209D318831032031
:103ADC009D319C3185249D319C3181249D319D31BA
:103AEC0005259D319D311E259D319C319F249D3195
:103AFC009C31C7249D319C31B4240800F501F6019A
:103B0C00711C8C2D7308F5077408F63D0130F335E4
:103B1C00F40D890B8D2D0130F236F10C890B922DA1
:103B2C0071087204031D862D7608F2007508F100E9
:103B3C00080000308B1B0130F3008B13710823003D
:103B4C009100720892001513151615155530960034
:103B5C00AA30960095140000000023001511730C78
:103B6C00031C8B1303188B17080078082100D50051
:103B7C007708D4009D3137259D317208FA00710801
:103B8C00F90078087A06031DCD2D770879060319FC
:103B9C0008003B009B1377089300780894009B1750
:103BAC00080078082100D7007708D6009D315025F1
:103BBC009D317208FA007108F90078087A06031D25
:103BCC00E92D77087906031908003B00AB13770839
:103BDC00A3007808A400AB17080075087604031935
:103BEC00080073088600740887000108F700710844
:103BFC00860072088700770881000130F3070030D7
:103C0C00F43D0130F1070030F23D0130F502003097
:103C1C00F63BF32D0030F1001F30F2009D319F2553
:103C2C009E312030F1001F30F2009D319F259E31D6
:103C3C004030F1001F30F2009D319F259E316030E5
:103C4C00F1001F30F2009D319F259E318030F10034
:103C5C001F30F2009D319F25080020002708F2003C
:103C6C002608F1002908F4002808F3009131DD2121
:103C7C0072082000AB007108AA0028082607F7007C
:103C8C002908273DF80077088600780887002A085D
:103C9C0081002B08F7002808013EF8000030293D70
:103CAC00F90078082607FA007908273DFB007A0806
:103CBC0086007B0887007708810008000030200010
:103CCC00A3000030A2000030A1000030A000711C45
:103CDC00782E75082000A0077608A13D7708A23D34
:103CEC007808A33D0130F535F60DF70DF80D890B6D
:103CFC00792E0130F436F30CF20CF10C890B802E7A
:103D0C007408730472047104031D6D2E20002308C3
:103D1C00F4002208F3002108F2002008F10008004A
:103D2C00F601F701710872040319C52EF801F80A9F
:103D3C00F21BAA2E0130F135F20D890BA12E0130A8
:103D4C00F5007508F8079E2E0130F635F70D890B36
:103D5C00AB2E72087402031DB52E71087302031C7E
:103D6C00BC2E7108F3027208F43B76140130F23663
:103D7C00F10C890BBD2E0130F802031DAA2E770819
:103D8C00F2007608F10008005C302000A600233019
:103D9C00A7008230A8000030A9009E3133269E3146
:103DAC009E3110269E315C30F1002330F2008430BD
:103DBC00F3000030F4009331E5235C3086002330AF
:103DCC0087004431403F2100CC00413FCD005C30A6
:103DDC008600233087004631403FCA00413FCB006C
:103DEC005C308600233087004831403FC800413F9B
:043DFC00C9000800F2
:00000001FF
