:0400000080314728DC
:100008007E14803120007F08F300AA303F007F066D
:10001800031D1028883104280B1F1B282100111EDE
:100028001B282000111E1B288431D92480310B1F66
:1000380026282100911E26282000911E262884317A
:10004800982480310B1F42282100911C422820004F
:10005800911C4228911021003608370403193828CA
:100068000130B6070030B73D0030370215300319AC
:100078003602031C4228B601B70179147308200020
:10008800FF007E1009008031492821008531DC25D8
:100098008031C1008531DD258031C2008531DE2502
:1000A8008031C3004030840023308500A030FE003A
:1000B8000030FF008531BB258031F601F701F801DA
:1000C800F901A0308400003085001E30FE000030A9
:1000D800FF008531BB258031203084000130850048
:1000E8003030FE000030FF008531BB258031A03064
:1000F8008400013085005030FE000030FF0085315B
:10010800BB257E1020008131882900002130200085
:10011800B1003108A20021003A08FD3E2000A300EA
:10012800FF3003180030A400203083313C23803195
:1001380020002208B2003208B5000000220023087F
:10014800031D7E2921082000B100B2013108B30047
:100158003208B4000830B335B40D890BAF2822003B
:1001680022082000B100B2013108B3043208B404F7
:100178000130B436B30C890BBD2834082100B50012
:10018800200033082100B400083035063404031D6C
:10019800DF280130B4070030B53D3935A03E860070
:1001A800013087000030C03FC13F01302000B1005E
:1001B80031082100B907220020082000B1003108C9
:1001C8002100BB003B0803197E293908410720009C
:1001D800B100210042080318420A2000B2002100A1
:1001E800350820003202031DFD28210034082000B4
:1001F80031020318292921003935A03E8600013033
:100208008700FF30C03F0330C13F01302000B100FC
:1002180031082100B90720303902031CE9284208B7
:100228002000AA00210041082000A900A030B10048
:100238003108AB008231E522803120302100C1072E
:100248000030C23D2030B902E928B50121003B0841
:100258002000350203187E293508053E203E860019
:10026800013087000108B100B2013108B30032083B
:10027800B4000830B335B40D890B3E293508043E67
:10028800203E8600013087000108B100B201310824
:10029800B3043208B40421003935A03E8600013089
:1002A800870020003308C03F3408C13F0130B10047
:1002B80031082100B90720303902031C7829420887
:1002C8002000AA00210041082000A900A030B100A8
:1002D8003108AB008231E522803120302100C1078E
:1002E8000030C23D2030B90202302000B100310890
:1002F800B5072A292000A0013030A1000030A20053
:10030800203085312A2508002000BE01BF01C00128
:100318005530BC003C083F00FF0085319E258131E7
:100328008B170B170230F4001F30F5008431F524C9
:10033800813175082000C0007408BF00FF303F05F8
:10034800BC0000304005BD003C0A3D04031D182ACE
:100358008531C72581318E30F4008530F500843130
:100368007224813103302000BD000830BC00773092
:10037800890BBC29BC0BBC29BD0BBC294330F4003C
:100388008530F50084317224813115302000BD009C
:100398004B30BC00BE30890BCF29BC0BCF29BD0B1D
:1003A800CF290000C8302000BF000030C000F8018D
:1003B8003F08400403190A2A02302000BD00043017
:1003C800BC00BA30890BE629BC0BE629BD0BE6292F
:1003D8000000791C042AFE302000BC003C08F90506
:1003E80040308600233087007930010603190A2A35
:1003F80040308600233087005930010603190A2A45
:1004080001302000BF020030C03BDC293F08400417
:100418000319182A82311D2281312000BC003C08B2
:10042800BE003E080319172A0000883100288031D1
:1004380047285730F4008530F50084317224823122
:1004480005302000BA000F30B900F130890B2A2A94
:10045800B90B2A2ABA0B2A2A2100C301C30A003081
:10046800C1000830C200BB01B401B501BA01B9012D
:10047800462A1530432A833192238231063085314A
:10048800AD2582318431172482312000B900390822
:10049800BB003B080319462A2100C3018430200011
:1004A8003B0603193F2A403086002330870004307A
:1004B8000106031D3D2A06308531AD258231210014
:1004C80039080319832A083042020030031941020F
:1004D800031C832A1F30420200300319410203180B
:1004E800832A42082000A200210041082000A10020
:1004F800A030B9003908A300823188228231063041
:100508008531AD250130080000308B1B01302000FB
:10051800A7008B132208F5002108F4008431BB24BE
:10052800823123001513151595162000A8012030D7
:1005380028020318DC2A2108230091002000220841
:1005480023009200200028352307A40024088600F1
:100558000130870001082300930020002835230775
:10056800A4002408860001308700403FA500413FD1
:10057800A6002608230094001F3020002806031D2B
:10058800C72A23009512553023009600AA309600FA
:1005980095140000000001302000A1070030A23DA2
:1005A8000130A4002408A80720302802031C9F2A31
:1005B800230015112000270C031C8B1303188B171D
:1005C800080020002A08F5002908F4008431BB241B
:1005D800823120002A08A2002908A1002B08AC00BB
:1005E8002C08A3008231882282312400E0012030C7
:1005F800600203180800600820002907F4002A0890
:1006080003182A0AF5008431F52482312400603564
:10061800203E8600023087007408C03F7508C13F3D
:10062800603520002B07AC002C08860001308700BD
:10063800403FAD00413FAE0024006035203E8600BB
:1006480002308700403F2000AF00413FB0002E0835
:100658003006031D312B2D082F060319352B0000FA
:10066800000001302000AC002C082400E007FB2A21
:100678002000A9002408A8002308A70000302802A9
:10068800023003192702031C872BAB0122088600BE
:10069800013087000108A5002508AA000130A5003F
:1006A8002508A2072A0884314A2483312000A5009E
:1006B8002508AB00AB0EF030AB05220886000130F0
:1006C80087000108A5002508AA000130A500250813
:1006D800A2072A0884314A24833120002B07A50069
:1006E8002508AB002B08A5002908860001308700E3
:1006F800250881000130A5002508A9070230A702B6
:100708000030A83B422B2408A6002308A500A636E3
:10071800A50C2508A2002608A30008002000B8019F
:100728000330B6003608B8007808FF3EB600FF3040
:1007380003180030B7003708803A803C031DA62B09
:10074800360838020318D62B20003808403E8600A9
:1007580087012330873D0108B60021003A08203E72
:100768008600013087002000360881003808403EA6
:10077800860087012330873D0A300106031DCA2BF6
:100788008031892083312100BA01D02B013020002B
:10079800B60036082100BA0701302000B600360836
:1007A800B807982B0000080022008C018E010F303A
:1007B80021008C001F308E000F3023008E00173070
:1007C8008C003B3024008C0030308E0021009513C3
:1007D80025008C018E0100308B1B0130F4008B1337
:1007E80055303C008F00AA308F000F101508E039F3
:1007F800143895003D001408F039043894001508A1
:10080800F039033895002508F0390938A500553026
:100818003C008F00AA308F000F14741C152C8B1706
:1008280008008B130800C830F50075082000A000E8
:100838008531C7258431FE30F5007508F90521009A
:10084800430803192B2C15308531AD2584313430FC
:10085800F500F230890B2E2CF50B2E2C20002008E9
:10086800031D7918432C0B30F5006230890B3A2CA4
:10087800F50B3A2C003201302000A002322C20085F
:100888000319482C78080800003008002000A1004F
:10089800A00130302102031C582C3A3021020318E1
:1008A800582C2108D03E6D2C41302102031C632CAA
:1008B800473021020318632C2108C93E6D2C613092
:1008C8002102031C702C673021020318702C2108A8
:1008D800A93EF4007408A0042008080023009E1E06
:1008E8009E16740884007508850012000319942C5C
:1008F8002000111E7C2C74088400750885000008EF
:1009080023009A000130F4070030F53D0000000094
:100918000000000000000000000000000000752C2E
:100928002000111A0800942C23009D1C9D2C1D12D8
:100938001D161908F0007008F200A030780203189C
:1009480008007808403EF000F1012330F13D7008BE
:10095800860071088700720881000130F000700875
:10096800F8070A302100B6000030B7000800003050
:100978008B1B01302000A0008B137408230091000A
:100988007508920015131516151555309600AA30DE
:100998009600951400000000230015112000200C7B
:1009A800031C8B1303188B1708001030210040021A
:1009B8000318F32C7608A03E86008701010823005F
:1009C8009A000130F0007008F6071030760203181C
:1009D800F6010130F00070082100C007080011126C
:1009E800080000308B1B01302000A0008B13740816
:1009F80023009100750892001513151400000000DB
:100A08002000200C031C8B1303188B1723001408D9
:100A1800F5001308F40008002100911211120830A3
:100A280023009F0090309D0024309E00A0309B0042
:100A380001309C00F701F6011030F4007408210021
:100A4800C000BD01BC01F80191160800F500013095
:100A58002000A1020030A23B210A0319220A03192F
:100A6800080020002008F40075088600013087007F
:100A7800740881000130F4007408F5072B2D7534D3
:100A880070346434613474346534203461347034BF
:100A980070342034663477343F3479342F346E34EC
:100AA8000D340A340034733465346E3464342034BD
:100AB8002A342E3468346534783420346634693402
:100AC8006C3465342E340D340A3400344A30200036
:100AD8009C0018309B009A0191102100911400305D
:100AE800F4000030F5008531CD2585318531DF25CD
:100AF8000800303431343234333434343534363415
:100B08003734383439344134423443344434453446
:100B18004634003462346F346F3474346C34613466
:100B28006F346434653472342E342E342E340D34DC
:100B38000A3400348331D82385318531D325853172
:100B48008531D825853185316A258531853110254E
:100B58000800F40023009E1E9E162000111EB12DD1
:100B6800740823009A002000111A0800B72D6400A9
:100B7800800101310130FE020030FF3B7F087E0416
:100B880003190034BC2DF80121009116B601B701F4
:100B9800080075082100BF007408BE0008007A30FC
:100BA80021009900980108001630210097000800DC
:0C0BB80000340834013420001C15080033
:0410000088317D288E
:101008007E1488310B1F2F282100911C2F282000C7
:10101800911C2F289110DC140530E00AE10A6002C7
:10102800031C1828E0015C1532306102031C1E28DD
:10103800E101DC155D0803192828DD0A06305D0288
:10104800031C28285C14DD0101302100D007003082
:10105800D13DD23DD33D0B1F4E282100911E4E2875
:101068002000911E4E28911223009D1C3D281D1220
:101078001D161908F00040307C0203184B287C0824
:10108800A03E86000130870070088100FC0A01300C
:101098002000DD002000111A11120B1F6628210004
:1010A800931E66282000931E662893123B002D1C71
:1010B80066282D10200065083B00A4002000640865
:1010C8003B00A3000B1F7B282100131E7B28200058
:1010D800131E7B2813123B001D1C7B281D102000AB
:1010E80063083B009400200062083B0093007E10D8
:1010F800090088317F285C308400233085008430E3
:10110800FE00FF018F319C2788314A30FC018400A2
:10111800003085001830FE000030FF008F319C271A
:101128008831A0308400003085003430FE00003063
:10113800FF008F319C2788312030840001308500E2
:101148001C30FE000030FF008F319C278831A03012
:101158008400013085004030FE000030FF008F31F0
:101168009C27883120308400023085004030FE0002
:101178000030FF008F319C278831C03084008F30C9
:10118800850062308600003087000030FF000430A0
:101198008F31A8278831883084008F308500D4307B
:1011A8008600003087000030FF0014308F31A827F8
:1011B80088317E102000E0280000AA303F00FF00A0
:1011C80043228B170B1723009E129D311E25883151
:1011D8000030F1009830F2002C30932688312C3002
:1011E800E3268831332788310106031D02295C3044
:1011F8008600AA304131010603190429DE012D2990
:101208000530DE009731B5278831403FC800413F9F
:10121800C90048082100AC00200049089731A627DA
:10122800883148311E278831B00020004908210044
:10123800B1005C30B201B30186002330870046312B
:101248001E278831B400200049082100B500B601E6
:10125800B70120005C1DEB295C112030F301F30A73
:10126800F40006300B22883174082000D50073087A
:10127800D4000330F3002030F40005300B2288310D
:1012880074082000D3007308D2000330F300203024
:10129800F40004300B22883174082000D100730850
:1012A800D0000330D136D00CF3002030F4000230E7
:1012B8000B22883174082000CF007308CE00033059
:1012C800CF36CE0CF3002030F40007300B22740820
:1012D8002000D7007308D600D736D60C90313E20B0
:1012E800883128082100E300200027082100E200B7
:1012F800200026082100E100200025082100E00048
:101308003A23883128082100E70020002708210017
:10131800E600200026082100E5002000250821001D
:10132800E4000000053020005E02031CBB29903158
:10133800E720883120005508FA005408F900EB220C
:101348007A08CD007908CC004D08B3004C08B200EB
:101358009331602388313308DB003208DA005A35CC
:10136800D8005B0DD9009E3108268831EB29C823A7
:101378008831053020005E02031CEB293327C03F6B
:101388005D308600AA3081005C308600443121003F
:101398002C08C03F2D08C13F9731C9278831300834
:1013A800C03F3108C13F9731D42788313408C03F46
:1013B8003508C13F96311926883155302400A000E0
:1013C800AA30A1000230F1002030B0268831200078
:1013D800DC19DC115C1C092A5C107C080319072A3B
:1013E8002030F1000230F200A030F3000130F400A8
:1013F8007C08F500F601AD237C08BA002030BB015B
:101408009431C3248831D526883100002D29F6006F
:10141800F701F8017308DA2288317608CB2288317F
:101428000D30F500F50B162A41307402031C1E2AF4
:101438004030F400F9017408790203183E2A2100AB
:101448009D149D18252A000021001C08FA00FB01A4
:10145800FA35FB0DFA35FB0D1B08F5000630F5369D
:10146800890B332A7508FA047A08F7077B08F83DD0
:10147800F90A1F2A7808F4007708F30008005D22AB
:1014880088315C228831C7228831582288319622D7
:101498008831AF2288315422883157278831442F28
:1014A800013021009D00262F81302200970008007E
:1014B800080022008C018E010F3021008C001F30A3
:1014C8008E000F3023008E0017308C003B30240034
:1014D8008C0030308E002100951325008C018E0180
:1014E80000308B1B0130F1008B13382788310F1027
:1014F8001508E039143895003D001408F03904380F
:1015080094001508F039033895002508F039093892
:10151800A500382788310F14711C942A8B170800EE
:101528008B13080001303B009C009D019E019F0128
:10153800A0019201023091009401A030930006307E
:1015480096003F3095009801013097009A01990163
:1015580090309B0008000130AC00AD01AE01AF0136
:10156800B001A2010230A100A401A030A3000630FE
:10157800A6003F30A500A8010130A700AA01A901D3
:101588009030AB0008001630210097000800F200E8
:1015980021009D18CC2A7208F100F10DF10D1D08EB
:1015A8007106833971069D001D14262FF2008030C4
:1015B800F10004307202031CE32A0330F2007208BF
:1015C800F104710822009700171B0800E82AA701F8
:1015D800A801A901AA01AB012B35223E86000130E2
:1015E80087002B35203E840001308500403F803F36
:1015F800413F813F2B35203E8600403FA500413FBB
:10160800A6002508A7072608A83D0030A93DAA3D41
:101618000530AB0A2B02031CF02A2B35203E86002E
:101628007908C03F7A08C13F7908A7077A08A83D1A
:101638000030A93DAA3D0630F100F201F301F401A2
:101648002A08F8002908F7002808F6002708F500F6
:1016580054267408AA007308A9007208A800710823
:10166800A7002808FA002708F900080020002E30F3
:10167800B001AF01AE00E030AD005208F1005308F0
:10168800F200F301F4013008F8002F08F7002E08E3
:10169800F6002D08F500132688317408B000730889
:1016A800AF007208AE007108AD005408A9005508D3
:1016B800AA00AB01AC012C08F4002B08F3002A089F
:1016C800F2002908F1003008F8002F08F7002E086A
:1016D800F6002D08F500542688317408B000730808
:1016E800AF007208AE007108AD003008031D8B2BE7
:1016F8002F08031D8B2BD0302D0207302E3B0318EB
:101708008B2B0730B001AF01AE00D030AD003008F0
:10171800031D972B2F08031D972BA9302D0261302D
:101728002E3B031C9D2B6130B001AF01AE00A830E9
:10173800AD001830AD07FC30AE3DFF30AF3DB03DD9
:101748003008A8002F08A7002E08A6002D08A5001D
:1017580008007508760403190800730886007408E1
:1017680087000108F700710886007208870077086B
:101778008100F30A0319F40AF10A0319F20A013085
:10178800F5020030F63BAD2B210067082000B500BC
:10179800210066082000B400210065082000B3007D
:1017A800210064082000B200210060082000B20275
:1017B800210061082000B33B210062082000B43BEF
:1017C800210063082000B53B3F2DDF01B030F30056
:1017D8000430F4003B26883102303C2DB51B492DDE
:1017E8003508031D002C3408031D002C95303202E7
:1017F8001130333B031C492D0530F300F4013B261F
:10180800883103303C2DB51B152C3508031D492D97
:101818003408031D492DDC3032020530333B0318F0
:10182800492D21004308BF004208BE004108BD0001
:101838004008BC005308C3005208C2005108C10048
:101848005008C00020000530DF0A5F02031CEA2BA5
:1018580004303D2D21004308CB004208CA0041084E
:10186800C9004008C8003C08C8023D08C93B3E08FA
:10187800CA3B3F08CB3B05302000A400A501FB264E
:101888008831A725883127082100CB0020002608A9
:101898002100CA00200025082100C90020002408D2
:1018A8002100C80057082000AB002100560820007E
:1018B800AA00210055082000A90021005408200092
:1018C800A800210058082000A8022100590820007B
:1018D800A93B21005A082000AA3B21005B082000F0
:1018E800AB3B0230A400A501A601A701A7258831BA
:1018F80027082100C700200026082100C600200074
:1019080025082100C500200024082100C400023059
:10191800CF01CE01CD005530CC004708F400460871
:10192800F3004508F2004408F1000130F801F7011E
:10193800F6003A30F500132688317408A7007308BA
:10194800A6007208A5007108A4000230F401F30192
:10195800F2005530F1009C30F801F701F6004030F4
:10196800F500132688310E278831A72588312708E6
:101978002100BB00200026082100BA00200025080D
:101988002100B900200024082100B8006430F100CB
:10199800F201F301F4013B08F8003A08F7003908AE
:1019A800F6003808F5001326883174082100BB00BA
:1019B8007308BA007208B9007108B8000E3017270A
:1019C80088313B08F4003A08F3003908F200380877
:1019D8002C278831132688310E278831A72588318E
:1019E80027082100AF00200026082100AE002000B3
:1019F80025082100AD00200024082100AC00143087
:101A0800172788314B08F4004A08F3004908F20008
:101A180048082C278831132688310E278831A725B6
:101A2800883127082100B700200026082100B600C9
:101A3800200025082100B500200024082100B4005A
:101A480008302000A400A501FB268831A72588318D
:101A580027082100B300200026082100B20020003A
:101A680025082100B100200024082100B00005301D
:101A78002000DE00492D5E088400063004020318A9
:101A8800492D8F310435B43E820003305F02031CB8
:101A9800080021005708803AF90020003508803AEC
:101AA80079022100031D682D200034082100560208
:101AB800031D682D2000330821005502031D682DE1
:101AC800200032082100540203187A2D200035081E
:101AD8002100D700200034082100D6002000330858
:101AE8002100D500200032082100D400200035084C
:101AF800803AF90021005B08803A79022000031D32
:101B0800952D21005A0820003402031D952D21002F
:101B1800590820003302031D952D21005808200084
:101B280032020318080035082100DB0020003408C1
:101B38002100DA00200033082100D90020003208F3
:101B48002100D8000800AD01A71FB72DA409A509D9
:101B5800A609A709A40A0319A50A0319A60A0319BD
:101B6800A70AAD01AD0AAB1FC62DA809A909AA0984
:101B7800AB09A80A0319A90A0319AA0A0319AB0A87
:101B88000130AD06AE01AF01B001B101270826044E
:101B9800250424040319FC2DAC01AC0AA71BD92D7C
:101BA800A435A50DA60DA70DD12DAE35AF0DB00DE1
:101BB800B10D27082B02031DEB2D26082A02031D51
:101BC800EB2D25082902031DEB2D24082802031CF0
:101BD800F62D2408A8022508A93B2608AA3B2708B1
:101BE800AB3B2E14A736A60CA50CA40CAC0BD92D18
:101BF8002D0803190A2EAE09AF09B009B109AE0ABA
:101C08000319AF0A0319B00A0319B10A3108A7006A
:101C18003008A6002F08A5002E08A4000800200000
:101C2800A001A101A201A301711C232E75082000A7
:101C3800A0077608A13D7708A23D7808A33DF535B1
:101C4800F60DF70DF80DF436F30CF20CF10C7408E0
:101C5800730472047104031D182E20002308F40075
:101C68002208F3002108F2002008F1000800740897
:101C7800E3007308E200CE2688317208F600710886
:101C8800F50074087606031D4B2E730875060319B4
:101C980008009B1373089300740894009B170800AE
:101CA800A001A101A201A3017408730472047104C4
:101CB80003198A2EA401A40AF41B672EF135F20D2C
:101CC800F30DF40D5F2EA035A10DA20DA30D740820
:101CD8007802031D792E73087702031D792E720886
:101CE8007602031D792E71087502031C842E710873
:101CF800F5027208F63B7308F73B7408F83B2014AA
:101D0800F436F30CF20CF10CA40B672E2308F40044
:101D18002208F3002108F2002008F1000800F4006E
:101D2800710884007208850012000319AA2E74082D
:101D38008600013087007108840072088500000859
:101D48008100F10A0319F20AF40A942E7408860035
:101D58000130870081010800F40023009E1E9E16B2
:101D68002000111EB42EF301710873020318CA2E45
:101D78002000111EBC2E73087407F2008600023082
:101D88008700010823009A00F30AB82E2000111AD0
:101D98000800CA2E3B001408F200F1011308F104F0
:101DA8000800FC0123001D1221009112200091124D
:101DB80023001D16210091162000DD010800F10006
:101DC80023009E1E9E162000111AF32EE72E2000D7
:101DD800111EEB2E3E27883123009A00F10A3E2778
:101DE8008831031DEB2E2000111A0800F72EA601DA
:101DF800A70121004B082000AB0021004A08200061
:101E0800AA00210049082000A90021004808200054
:101E1800A80008007408AB007308AA007208A9009B
:101E28007108A80008002000A400A501A601A701C8
:101E380021000800403F2000C800413FC900480871
:101E48002100080063309E009F019B019C0108004F
:101E5800F1000A30F500F601F701F80108005C30DE
:101E6800860023308700553455303C008F00AA3057
:101E78008F000800710886000130870001080800FB
:101E8800210091121112083023009F0090309D000C
:101E980024309E00A0309B0001309C002100911648
:101EA8002000111208004B3020009C007C309B0061
:101EB8009A019110210091140030F101F201662776
:101EC8008831672F080020001C1508009231962AD7
:101ED80092319E2A9231AC2A9231BF2A9231C52A78
:101EE8009231CB2A9231D12A9231D92A9231E12AE0
:101EF8009231E92A9231F12A9231FA2A9331032B4D
:101F080093310B2B9331132BC034F234FC34FF3450
:101F180040340D34033400341434003400340034B5
:101F2800103427340034003410342734003400349B
:101F38006400013080010131FE020030FF3B7F0860
:101F48007E04031900349D2FFE0012001E0001308C
:101F5800FE020030FF3B7F087E0403190034A92FDE
:101F68008B31E92B8B31E92B8B31F22B8C31072C00
:101F78008C312E2C8D31A62D0534003405340034D7
:10207C000430B001AF009330AE00E030AD0050083A
:10208C00F1005108F200F301F4013008F8002F08B8
:10209C00F7002E08F6002D08F5008E31132690312E
:1020AC007408B0007308AF007208AE007108AD0080
:1020BC004E08B1004F08B2000C30B301B401F4016A
:1020CC00F301F2004430F1003408F8003308F70053
:1020DC003208F6003108F5008E3113269031740861
:1020EC00B4007308B3007208B2007108B100643018
:1020FC00F100F201F301F4013408F8003308F700A1
:10210C003208F6003108F5008E3154269031DE206D
:10211C005008A9005108AA00AB01AC012908B10272
:10212C002A08B23B2B08B33B2C08B43B3408F40010
:10213C003308F3003208F2003108F1003008F800DF
:10214C002F08F7002E08F6002D08F5008E315426C6
:10215C009031DE2090313408031DC3283308031D51
:10216C00C328D03031020730323B0318C328073064
:10217C00B401B301B200D030B1003408031DCF2834
:10218C003308031DCF28A93031026130323B031CC8
:10219C00D5286130B401B301B200A830B1003408C5
:1021AC00A8003308A7003208A6003108A5000800D3
:1021BC007408B4007308B3007208B2007108B1005F
:1021CC000800210067082000C700210066082000D5
:1021DC00C600210065082000C5002100640820000D
:1021EC00C400210060082000C40221006108200006
:1021FC00C53B210062082000C63B2100630820007B
:10220C00C73BD030B2000730B300B401B50144086D
:10221C00B2024508B33B4608B43B4708B53B35080A
:10222C0013229031A43086008701403F2100A80082
:10223C00413FA900423FAA00433FAB002308A7003F
:10224C002208A6002108A5002008A40020004708A9
:10225C002100A300200046082100A2002000450810
:10226C002100A100200044082100A0002408200225
:10227C002000B20021002508213B2000B3002100E2
:10228C002608223B2000B40021002708233B200015
:10229C00B500F4003408F3003308F2003208F10002
:1022AC0021000A228E31132690317408B90073086C
:1022BC00B8007208B7007108B6002100370820007A
:1022CC00A700210036082000A600210035082000B8
:1022DC00A500210034082000A40021002308F400EC
:1022EC002208F3002108F2002008F1000A228E31A6
:1022FC00132690318F310E2790318D31A7259031D7
:10230C002708BD002608BC002508BB002408BA001D
:10231C0036083A07B20037083B3DB30038083C3D5D
:10232C00B40039083D3DB50013222730A701A601A2
:10233C00A5001030A4004708AB004608AA004508C9
:10234C00A9004408A8008D31A72590312708C700A3
:10235C002608C6002508C5002408C40021005C0816
:10236C002000C40721005D082000C53D21005E0847
:10237C002000C63D21005F082000C73D0000200062
:10238C00C71BDA294708031DD4294608031DD42985
:10239C00B13044020430453B031CDA290430C70138
:1023AC00C601C500B030C400C71BE9294708031D8E
:1023BC00EE294608031DEE294508031DEE290530BC
:1023CC0044020318EE290530C400C501C601C7013B
:1023DC0047082100DF00200046082100DE00200015
:1023EC0045082100DD00200044082100DC005D08C8
:1023FC002000C30021005C082000C2004308F40048
:10240C004208F3008E313B2E2F08F8002E08F700FF
:10241C002D08F6002C08F5000800C7003408C6008B
:10242C003308C5003208C4000800B200B101B00086
:10243C009731A027923130089731AF279231031D85
:10244C0008003008860002308700010803190800D4
:10245C003008023E86000108AD00AE01AE00AD01B1
:10246C003008033E86000108AD042E08AC002D0890
:10247C00AB0030088600453FB1002130B135310248
:10248C00031C4A2A2030B100AF0131082F02031877
:10249C006E2A2C08F2002B08F1003330F300932243
:1024AC00923120002F083207FB00033E86000230D9
:1024BC008700340881002F083207FB00043E860099
:1024CC0033088100AF0AAF0AAB0A0319AC0A4B2AD6
:1024DC003208860002308700973198279231320AF1
:1024EC00860002308700033081003208023E8600ED
:1024FC00310881000330B1073208A0000230A1007E
:10250C003108A200A301963153269231B10AB10AC7
:10251C003108F10032088E31B02E7108FA00232BED
:10252C007308860040308701C03F0030C13F302B1C
:10253C009731A02792310108F400F5017308860049
:10254C0087017408C03F7508C13F302B5C30840094
:10255C002330850001310008F4005C308400233006
:10256C0085007308860087010008C03F7408C13FCE
:10257C00302B9731B527923158239231302B97312C
:10258C00D427923158239231302B9731C92792316D
:10259C0058239231302B7308860087015408C03FB2
:1025AC005508C13F302B7308860087015208C03F85
:1025BC005308C13F302B7308860087015008C03F79
:1025CC005108C13F302B7308860087014E08C03F6D
:1025DC004F08C13F302B730886008701210060082B
:1025EC00C03F6108C13F302B730886008701210072
:1025FC006408C03F6508C13F302B73088600870113
:10260C005608C03F5708C13F302B7308860087011E
:10261C005A08C03F5B08C13F302B73088600870106
:10262C005808C03F5908C13F302B73088600AA30A8
:10263C008701C03F5530C13F302B7A08FF3E031C49
:10264C001B2B84000F30040203181B2B8F31043515
:10265C006A3E820010307A02031C08004C307A0269
:10266C00031808001030FA027A1C402B7A36F4005A
:10267C00A230442B7A36F4006630442BF501F43545
:10268C00F50DF6002330F700740876078600750800
:10269C00773D8700730884008501403F803F413FB0
:1026AC00813F0800730884008501403F803F413F13
:1026BC00813F08002200D001BF249331AE24933116
:1026CC00220050082000BA006630BB01BA35BB0DA1
:1026DC00BC002330BD003A083C0786003B083D3D5A
:1026EC008700403FBE00413FBF0039083F02031D39
:1026FC00812B38083E0203188F2B2200BF24933104
:10270C00AE24933133083902031D992B3208380259
:10271C00992B2200BF249331AE2493313302031D35
:10272C00992B380832020318A12B22001D30D00A35
:10273C005002031C622B1D3022005002031CA82BDC
:10274C001C30D00050082000B400A430AE249331CB
:10275C0038082200BC00200039082200BD00BE0150
:10276C00BF0150082000B400A230AE2493313808C9
:10277C002200C400200039082200C500C601C70190
:10278C00BF249331AE24933138082200C0002000BE
:10279C0039082200C100C201C30150082000B40056
:1027AC006630AE24933138082200C8002000390866
:1027BC002200C900CA01CB0120003208B400330842
:1027CC00B500B601B70122004B08803A2000B800D2
:1027DC003708803A38022200031D042C20003608EA
:1027EC0022004A02031D042C200035082200490255
:1027FC00031D042C2000340822004802031C112C59
:10280C005008031D112C45082000B3002200440879
:10281C002000B20008004B084306031D1F2C4A0879
:10282C004206031D1F2C49084106031D1F2C480896
:10283C0040060319092C200032082200CC0020008D
:10284C0033082200CD00CE01CF014808CC02490844
:10285C00CD3B4A08CE3B4B08CF3B3F08F4003E082B
:10286C00F3003D08F2003C08F1004408F102450871
:10287C00F23B4608F33B4708F43B4F08F8004E0880
:10288C00F7004D08F6004C08F5008E3113269331F5
:10289C0074082200CF007308CE007208CD007108B6
:1028AC00CC0043082000A700220042082000A6000C
:1028BC00220041082000A500220040082000A400AE
:1028CC00220048082000A402220049082000A53B51
:1028DC0022004A082000A63B22004B082000A73B00
:1028EC0022004F082000AB0022004E082000AA0056
:1028FC0022004D082000A90022004C082000A8004E
:10290C008D31A725933127082200CF0020002608FF
:10291C002200CE00200025082200CD002000240833
:10292C002200CC004408CC074508CD3D4608CE3DDE
:10293C004708CF3DCF1FA62CCC01CD01CE01CF0136
:10294C004D082000B30022004C082000B200080003
:10295C00B501B435B50DB6002330B70034083607D1
:10296C0086003508373D8700403FB800413FB9002D
:10297C00080050082000B4006834BD00BC00A0273B
:10298C0094313C08AF2794310319D12C3C08EF2724
:10299C009431031D08003D08A0000230A1003B0843
:1029AC00A3003A08A2009D31A9259431003A0319DD
:1029BC0008003C0AEF279431033A0319F02C053A2E
:1029CC000319F32C163A0319F52C363A0319F32C88
:1029DC00F72C08003D0892311B2A3D08462D3D0876
:1029EC00FB2CAB01AB0A3D08632FAF00B000A02756
:1029FC0094313008AF279431031D0800300886004D
:102A0C000230870001080319080030088600433F94
:102A1C00AD0030088600453FAE00033A031D0800A8
:102A2C0004302D06031D08003008063E8400000803
:102A3C00FB003008073E8400B5279431FA27943107
:102A4C00083EE8279431093E8400D4279431FA27B4
:102A5C0094310A3EE82794310B3E8400C927943107
:102A6C000008C03F7B08C13F1926943120002F0875
:102A7C00E127943153260830F1002F088E31B02E07
:102A8C00B900B101B600A02794313608AF279431B4
:102A9C000319542DC3279431031D08005C308600A4
:102AAC0023308700FD3042310106031D612DC32701
:102ABC009431031908003608023E86000230870064
:102ACC000108B700B801B800B7013608033E86000C
:102ADC000108B7040230B80137063804031D7F2DF6
:102AEC003908053E86000108AD005E30F4279431AC
:102AFC00002E033037063804031D942DDA27943149
:102B0C00AD005D30F42794315C3086003908053E09
:102B1C008400023085000008C03F002E00303802CF
:102B2C00103003193702031C0800003038024C30F7
:102B3C0003193702031808001030B7020030B83BF5
:102B4C00371C022EDA279431B200B301B300B20164
:102B5C003908053E86000108B2043808AE00370873
:102B6C00AD00A230AE36AD0C8C2794313208C03F8C
:102B7C003308C13F3808AE003708AD006630AE36BA
:102B8C00AD0C8C2794314C08C03F4D08C13F390A1D
:102B9C0086000230870026300106031D002E3808FF
:102BAC00AE003708AD00AE36AD0C2D08B4002E08C3
:102BBC00B500B40A0319B50A003035021E300319EA
:102BCC0034020318002E3508AE003408AD00A230D4
:102BDC008C2794313208C03F3308C13F3508AE0012
:102BEC003408AD0066308C2794314C08C03F4D083A
:102BFC00C13FDF2DB101B10A31080319072E192687
:102C0C0094312000C3279431031908003908860039
:102C1C00982794313908E127943153260830F10074
:102C2C0039088E31B02E5C302000A0002330A1007A
:102C3C008230A200A30153269431812694315C305A
:102C4C00F1002330F2008430F300F401B526943106
:102C5C00B5279431403FAB00413FAC002B0821001D
:102C6C00AC0020002C08A62794314631BB279431A8
:102C7C00B40020002C082100B5005C30B601B7016F
:102C8C008600233087004831BB27B00020002C0879
:102C9C002100B100B201B30108002108F2002008A4
:102CAC00F1002308F4002208F3002D277208AA0073
:102CBC007108A90022082007A4002308213DA500C3
:102CCC002408860025088700290881002A08A4000A
:102CDC0022082007A5002308213DA6002508013E57
:102CEC00A7000030263DA80027088600280887008A
:102CFC002408810008001F30F101F2009D26943158
:102D0C002030F1001F30F2009D2694314030F1004C
:102D1C001F30F2009D2694316030F1001F30F2001C
:102D2C009D2694318030F1001F30F2009D2E003032
:102D3C008B1B0130F3008B13710823009100720878
:102D4C00920015131516151555309600AA309600DD
:102D5C0095140000000023001511730CCF2F2000D8
:102D6C001F30A901AA01A701A80000308B1B01305C
:102D7C00A2007408A4007308A3000530A436A30CA9
:102D8C00890BC42E73081F390319CF2EA30A0319FC
:102D9C00A40A8B13A501A601A001A10124082102FC
:102DAC00031DDA2E2308200203182B2F23001513E2
:102DBC00151595162000A901AA01270823009100DA
:102DCC002000280823009200740820002602031D0E
:102DDC00F12E730825020318FD2E250871078600B5
:102DEC002608723D8700010823009300FF2E230064
:102DFC0093012000A50A0319A60A230094011F3091
:102E0C0020002905F5001F3A031D0E2F23009512F3
:102E1C00553023009600AA3096009514000000004F
:102E2C002000A70A0319A80AA90A0319AA0A003044
:102E3C002A02203003192902031CE32E230015114A
:102E4C002000A00A0319A10AD42E220CCF2FFF3088
:102E5C00F900FA00F501F60174087602031D382F0B
:102E6C007308750203185E2F7108860072088700BC
:102E7C000108F906F10A0319F20AF701F801791CA5
:102E8C004E2F0130FA36F90CF906A030FA06502F05
:102E9C00FA36F90CF70A0319F80A003078020830F0
:102EAC0003197702031C452FF50A0319F60A322F72
:102EBC007A08F2007908F1000800AC00AD00860039
:102ECC00023087000108031908002D088600982796
:102EDC0094312B080319782F2D0A860002308700B5
:102EEC00803081072D08023E8600023087002B08B7
:102EFC0081002C08A0000230A1000330A200A30125
:102F0C0053260530F1002C088E31B02EAD35AE0DA8
:102F1C00AF002330B0002D082F0786002E08303D5F
:102F2C00870008005C3084002330850002310008E3
:102F3C00810008005C308600233087004231080095
:102F4C002100AD005C30AE01AF018600233087005C
:102F5C0008008400023085000008010608005C307F
:102F6C0086002330870044310800403F2000AB002E
:102F7C00413FAC002B0821000800360886000230C7
:102F8C008700010808005C30860023308700483138
:102F9C000800031C8B1303188B1708005C30860089
:102FAC0023308700463108003908043E8600023081
:102FBC00870001080800A0000230A1000630A20022
:102FCC00A30108008400023085000008FB003008D3
:102FDC0008008600023087000108080086002330B4
:102FEC0087002D08810008000008C03F7B08C13F06
:102FFC003008080056344534523431342E343034D1
:08300C0030340D340A340034A5
:103A3C005C30F1002330F2008430F300F401D72520
:103A4C009D315C302000A0002330A1008430A20006
:103A5C00A301A9259D31B300B4013404031D080052
:103A6C005C30860023308700FF30C03F5D3086001D
:103A7C00FF3081005E308600FF308100B501B60159
:103A8C003608F2003508F100D030F3000230F400B3
:103A9C0094259D317108003EAD001930723DAE0089
:103AAC003608B0003508AF006630AF35B00DB10048
:103ABC002330B2002F08310786003008323D8700D2
:103ACC002D08C03F2E08C13F3608F2003508F10022
:103ADC004D30F3000130F40094259D313608AE00D2
:103AEC003508AD00A230AD35AE0DAF002330B000BF
:103AFC002D082F0786002E08303D87007108C03F27
:103B0C007208C13FB50A0319B60A003036021E30DE
:103B1C0003193502031C462D9631192EF501F601B9
:103B2C00711C9C2D7308F5077408F63DF335F40DE4
:103B3C00F236F10C71087204031D962D7608F20012
:103B4C007508F100080022082007F3002308213D26
:103B5C00F400FE30F307031CF4032630F1000030B0
:103B6C00F2000230F500F6018B31AD239D312108B6
:103B7C00F2002008F1002208FE3EF300FF30233D46
:103B8C00F40097312D279D317208A5007108A4000F
:103B9C0025082706031DD42D24082606031D0034F2
:103BAC0001341F30FA01FB0000308B1B0130F70091
:103BBC008B13F801F90174087902031DE72D7308C2
:103BCC0078020318052E7A0891007B0892001513D1
:103BDC0015140000000078087107F5007908723D93
:103BEC00F60075088600760887002300130881000C
:103BFC00FA0A0319FB0AF80A0319F90AE12D770CE2
:103C0C009731CF2F5908A3005808A2005608A202DA
:103C1C005708A33B9630F100F2012308F400220868
:103C2C00F30075269E317208A1007108A0002104D2
:103C3C00031D3C2EFA269E31031D262E1130220226
:103C4C00031C2C2E2000A001A00AA1012000230897
:103C5C00803AF9007F307902031D362EF0302202B3
:103C6C0003183C2EFF302000A000A10020002008EB
:103C7C00CA072108CB3D0A30F100F2015908F400C3
:103C8C005808F300B5269E317208A3007108A200F3
:103C9C004A08A2074B08A33D2308803AF900863056
:103CAC007902031D5B2E2D302202031C622E2C3058
:103CBC002000A2000630A3002000FA269E31031D2E
:103CCC00692E0530220203186F2E05302000A20049
:103CDC00A30120002308F4002208F300DA2EF601D9
:103CEC00F21F7F2EF109F209F10A0319F20AF6010B
:103CFC00F60AF41F882EF309F409F30A0319F40ADF
:103D0C000130F606F701F801710872040319A82EA8
:103D1C00F501F50AF21B952EF135F20D8F2EF735C4
:103D2C00F80D72087402031D9D2E71087302031C9A
:103D3C00A42E7108F3027208F43B7714F236F10CDE
:103D4C00F50B952E76080319B02EF709F809F70A2A
:103D5C000319F80A7808F2007708F1000800F50159
:103D6C00F601710872040319D52EF701F70AF21B3C
:103D7C00C22EF135F20DBC2EF535F60D720874021B
:103D8C00031DCA2E71087302031CD12E7108F30295
:103D9C007208F43B7514F236F10CF70BC22E760850
:103DAC00F2007508F10008007408E5007308E400DF
:103DBC00F3269E317208F6007108F5007408760639
:103DCC00031DEA2E7308750603190800AB1373085C
:103DDC00A3007408A400AB1708003B002408F200F1
:103DEC00F1012308F10408002308803AF90080301F
:043DFC007902080040
:020000040001F9
:04000E00E4FFFBFE12
:00000001FF
