:0400000080315028D3
:100008007E1480310B1F2F282100911C2F282000DF
:10001800911C2F289110FC140530E20AE30A6202B1
:10002800031C1828E2017C1532306302031C1E28C9
:10003800E301FC155F0803192828DF0A10305F0266
:10004800031C28287C14DF0101302100C807003078
:10005800C93DCA3DCB3D0B1F4E282100911E4E289D
:100068002000911E4E28911223009D1C3D281D1230
:100078001D161908F000203020005E0203184C28D5
:100088005E08A03E86000130870070088100DE0A05
:100098000130DF007E100900803152284830FC0111
:1000A8008400003085001C308931FB218031A0306C
:1000B8008400003085003E308931FB2180312030BA
:1000C80084000130850034308931FB218031A03033
:1000D80084000130850020308931FB2180310130D6
:1000E80084008A30850064308600003087000A303A
:1000F8008931F5218031E630840087308500DE3093
:100108008600003087000C308931F52180317E105F
:1001180020008E280000AA303F00FF00BA2280315C
:100128008B170B17B7228E310B26803155302200E2
:100138002006031DA328AA3021060319A62820009B
:10014800E001C72805302000E00022002408200034
:10015800C800220025082000C900CA01CB012200DE
:1001680028082100AC00220029082100AD00AE01BA
:10017800AF01220026082100B00022002708210034
:10018800B100B201B3017C1D58297C112030F30164
:10019800F30AF40006307F22803174082000D90069
:1001A8007308D8000330F3002030F40005307F22B4
:1001B800803174082000D7007308D6000330F3009C
:1001C8001030F40004307F22803174082000D500FC
:1001D8007308D4000330F3001030F40002307F229B
:1001E80074082000D3007308D2008D31182580319F
:1001F8002808E7002708E6002608E5002508E400A7
:100208008C31A52480312808EB002708EA0026084D
:10021800E9002508E8000000053020006002031C02
:10022800312991258031F72625082100CD002000AD
:1002380024082100CC004D082000B30021004C0800
:100248002000B2008B31822380313308DD00320870
:10025800DC008A316B22803158292923803105300E
:1002680020006002031C582955302200A000AA3043
:10027800A100200049082200A5002000480822000B
:10028800A40021002D082200A90021002C0822002A
:10029800A800210031082200A70021003008220010
:1002A800A6008D31FF258031FC1DE3291030F301B4
:1002B800F30AF40007307F22803174082000DB0045
:1002C8007308DA00FC111630F1009030F200E521D5
:1002D80080316708B5006608B4006508B300640893
:1002E80092278031042280318D278031E5218031A9
:1002F8001130F1009030F200E52180316B08B50033
:100308006A08B4006908B30068089227803104229B
:1003180080318D278031E52180311A30F10090300D
:10032800F200E52180315808B2005908672780316A
:10033800042280318D278031E52180310630F1009B
:100348009030F200E52180315C08B2005D08672733
:100358008031042280318D278031E52180310C30B5
:10036800F1009030F200E52180315A08B2005B08B4
:1003780067278031042280318D278031E521803143
:100388000030F1009030F200E52180316C08B200B5
:100398006D08B300890D893B8909B400B500103098
:1003A800B600CE30B701042280318D278031E52197
:1003B80080311E30F1009030F200E52180310000DC
:1003C800C72823009E1E9E162000111AF929E82925
:1003D8002000111EEC2971088400720885000008AD
:1003E80023009A00F10A0319F20A710884007208BE
:1003F80085001200031DEC292000111A0800002AAC
:10040800C100C001B51F1E2AC001C00AB801B90148
:10041800BA01BB013208B8023308B93B3408BA3B09
:100428003508BB3B3B08B5003A08B4003908B300AF
:100438003808B200F1013708F3003608F200410825
:100448009E2780313608FE3EC200420803196B2AF7
:100458000A30F100F201F301F4013508F80034081C
:10046800F7003308F6003208F5008A310B22803194
:100478007408BF007308BE007208BD007108BC0094
:1004880042084107B800860087013C08303E8100D9
:100498000A30A400A501A601A7013508AB0034085D
:1004A800AA003308A9003208A800FD2480312708D3
:1004B800B5002608B4002508B3002408B2003508A2
:1004C80034043304320403196B2AC203292A40086E
:1004D8000319792A42080319782A42084107B80003
:1004E80086002D3087018100C20341084207F100D0
:1004F80041088731D02FF600F701F8017308E62686
:1005080080317608D72680310D30F500F50B8A2A20
:1005180021307402031C922A2030F400F901740877
:1005280079020318B22A21009D149D18992A000007
:1005380021001C08FA00FB01FA35FB0DFA35FB0D0A
:100548001B08F5000630F536890BA72A7508FA044A
:100558007A08F7077B08F83DF90A932A7808F40027
:100568007708F30008003B009B170800D822803169
:10057800D3228031D4268031CF228031112380319B
:10058800BD268031CB228031BD278031AF2F01308D
:1005980021009D00872F81302200970008007830C5
:1005A800210099009801080022008C018E010F306B
:1005B80021008C001F308E000F3023008E00173072
:1005C8008C003B3024008C0030308E0021009513C5
:1005D80025008C018E0100308B1B0130F1008B133C
:1005E800982780310F101508E039143895003D0020
:1005F8001408F039043894001508F03903389500C8
:100608002508F0390938A500982780310F14711C86
:100618000F2B8B1708008B1308003B009C019D01D2
:100628009E0180309F00A001920191019401A030A9
:100638009300063096003F309500980101309700EE
:100648009A01990190309B0008006B08B5006A0870
:10065800B4006908B3006808B2006408B20265080B
:10066800B33B6608B43B6708B53B952CE101B03055
:10067800F3000430F400A12680310230922CB51B1F
:100688009F2C3508031D512B3408031D512BAD3009
:1006980032020D30333B031C9F2C0230F300F4016F
:1006A800A12680310330922CB51B662B3508031D1B
:1006B8009F2C3408031D9F2CF43032020130333B49
:1006C80003189F2C21003F08BB003E08BA003D08D4
:1006D800B9003C08B8004B08BF004A08BE004908EA
:1006E800BD004808BC0020000630E10A6102031C76
:1006F8003B2B0430932C21003F082000CF00210021
:100708003E082000CE0021003D082000CD00210039
:100718003C082000CC00210038082000CC02210031
:1007280039082000CD3B21003A082000CE3B2100AB
:100738003B082000CF3B0530A4005B278031FD2417
:1007480080312708CF002608CE002508CD002408D0
:10075800CC00210061082000AB00210060082000C7
:10076800AA0021005F082000A90021005E082000DF
:10077800A800210062082000A802210063082000C8
:10078800A93B210064082000AA3B2100650820003D
:10079800AB3B0230A400A501A601A701FD248031CE
:1007A80027082100C300200026082100C2002000DD
:1007B80025082100C100200024082100C0000230C3
:1007C800C701C601C5005730C4004308F4004208F9
:1007D800F3004108F2004008F1000130F801F70188
:1007E800F6003A30F500692580317408A7007308CF
:1007F800A6007208A5007108A4000230F401F301F4
:10080800F2005730F1009C30F801F701F600403053
:10081800F5006925803152278031FD248031270871
:100828002100B700200026082100B6002000250876
:100838002100B500200024082100B4006430F10034
:10084800F201F301F4013708F8003608F70035081B
:10085800F6003408F5006925803174082100B700D6
:100868007308B6007208B5007108B4001130200092
:10087800A400A501A601A70121003708F400360845
:10088800F3003508F200340880278031692580316B
:1008980052278031FD2480312708CB002608CA0062
:1008A8002508C9002408C8001430A400A501A60121
:1008B800A7014F08F4004E08F3004D08F2004C0859
:1008C800802780316925803152278031FD2480318D
:1008D80027082100B300200026082100B2002000CC
:1008E80025082100B100200024082100B0000A30AA
:1008F8002000A4005B278031FD24803127082100D7
:10090800AF00200026082100AE00200025082100A5
:10091800AD00200024082100AC0005302000E000D4
:100928009F2C600884000630040203189F2C87312E
:100938000435F23E820003306102031C08002100E6
:100948006108803AF90020003508803A79022100D0
:10095800031DBE2C2000340821006002031DBE2C9C
:100968002000330821005F02031DBE2C200032083E
:1009780021005E020318D02C200035082100E10078
:10098800200034082100E000200033082100DF00A7
:10099800200032082100DE0020003508803AF900E6
:1009A80021006508803A79022000031DEB2C210004
:1009B800640820003402031DEB2C2100630820008A
:1009C8003302031DEB2C21006208200032020318B9
:1009D800080035082100E500200034082100E40063
:1009E800200033082100E300200032082100E20043
:1009F8000800AD01A71F0D2DA409A509A609A7097F
:100A0800A40A0319A50A0319A60A0319A70AAD011E
:100A1800AD0AAB1F1C2DA809A909AA09AB09A80A88
:100A28000319A90A0319AA0A0319AB0A0130AD066A
:100A3800AE01AF01B001B101270826042504240442
:100A48000319522DAC01AC0AA71B2F2DA435A50DF7
:100A5800A60DA70D272DAE35AF0DB00DB10D27088A
:100A68002B02031D412D26082A02031D412D2508AE
:100A78002902031D412D24082802031C4C2D24089B
:100A8800A8022508A93B2608AA3B2708AB3B2E1439
:100A9800A736A60CA50CA40CAC0B2F2D2D080319FA
:100AA800602DAE09AF09B009B109AE0A0319AF0A42
:100AB8000319B00A0319B10A3108A7003008A600C3
:100AC8002F08A5002E08A40008002000A001A101FD
:100AD800A201A301711C792D75082000A0077608D2
:100AE800A13D7708A23D7808A33DF535F60DF70D31
:100AF800F80DF436F30CF20CF10C7408730472045C
:100B08007104031D6E2D20002308F4002208F30051
:100B18002108F2002008F10008006B08C7006A08E5
:100B2800C6006908C5006808C4006408C4026508EE
:100B3800C53B6608C63B6708C73BD030B2000730E4
:100B4800B300B401B5014408B2024508B33B4608F6
:100B5800B43B4708B53B350878278031A430860078
:100B68008701403F2100A800413FA900423FAA0059
:100B7800433FAB002308A7002208A6002108A500D0
:100B88002008A400200047082100A30020004608F0
:100B98002100A200200045082100A10020004408EF
:100BA8002100A000240820022000B200210025080E
:100BB800213B2000B30021002608223B2000B4007E
:100BC80021002708233B2000B500F4003408F30077
:100BD8003308F2003208F1006F278031692580312F
:100BE8007408B9007308B8007208B7007108B60035
:100BF800210033082000A700210032082000A600A9
:100C0800210031082000A500210030082000A400A0
:100C180021002308F4002208F3002108F20020082C
:100C2800F10020006F2780316925803152278031FB
:100C3800FD2480312708BD002608BC002508BB001C
:100C48002408BA0036083A07B20037083B3DB3001B
:100C580038083C3DB40039083D3DB500782780315F
:100C68002730A701A601A5001030A4004708AB0053
:100C78004608AA004508A9004408A800FD248031B8
:100C88002708C7002608C6002508C5002408C40090
:100C9800210066082000C407210067082000C53D20
:100CA800210068082000C63D210069082000C73DD2
:100CB80000002000C71B722E4708031D6C2E460833
:100CC800031D6C2EB13044020430453B031C722EC8
:100CD8000430C701C601C500B030C400C71B812E4F
:100CE8004708031D862E4608031D862E4508031D4A
:100CF800862E023044020318862E0230C400C50135
:100D0800C601C70147082100E90020004608210064
:100D1800E800200045082100E700200044082100E1
:100D2800E60067082000C300210066082000C20012
:100D38004308F4004208F300A12EB6268031720859
:100D4800F6007108F50074087606031DAD2E7308C9
:100D58007506031908009B13730893007408940020
:100D68009B1708003B001408F200F1011308F10476
:100D78000800AC01AD01AE018030AF00B001A201A6
:100D8800A101A401A030A3000630A6003F30A500B1
:100D9800A8010130A700AA01A9019030AB00080002
:100DA800163097000800F20021009D18D82E72080E
:100DB800F100F10DF10D1D087106833971069D00D2
:100DC8001D14872FF2008030F10004307202031CDA
:100DD800EF2E0330F2007208F10471082200970028
:100DE800171B0800F42E20005908AB005808AA0069
:100DF8005D302B02C13003192A02031C072FC030B3
:100E0800AA005D30AB0019302B02003003192A020A
:100E18000318112F1930AA01AB002A08A6002B08C5
:100E2800A700A801A9012A08F1002B08F200F30184
:100E3800F4012908F8002808F7002708F600260812
:100E4800F500692580317408A9007308A8007208A4
:100E5800A7007108A6000030A602A73B7130A83B86
:100E68000230A93B0D30A936A80CA70CA60C890B9B
:100E7800372F2908031D442F01302802031C492F4E
:100E8800FF30A901A801A700A6002708AB00260883
:100E9800AA002B08A5002A08A40008007408AB00C3
:100EA8007308AA007208A9007108A8000800A50123
:100EB800A601A7014F08AB004E08AA004D08A900DB
:100EC8004C08A8000800B3001030B401B501B60002
:100ED800CE30B70108004B08F8004A08F700490867
:100EE800F6004808F5000800C7003408C6003308B3
:100EF800C5003208C4000800F1000A30F500F60108
:100F0800F701F801080063309E009F019B019C01D6
:100F18000800CE30F1000030F2000800B2001030B6
:100F2800B600CE30B701080055303C008F00AA301B
:100F38008F000800F4000130F2020030F33B720F1A
:100F4800A82F730A0319080074088600870171081E
:100F58008100F40A9F2F083023009F0090309D00E5
:100F680024309E00A0309B0001309C002100911687
:100F780008004B3020009C007C309B009A019110A7
:100F8800210091140030F101F201CC278031CD2FDE
:100F9800080020001C150800F2007108860087016F
:100FA80001080319E12F7208860071088400850181
:100FB80000088100F10AF20AD12F72088600870121
:100FC80081010800C034F234FC34FF3440340D345D
:100FD80003340034143400340034003483313A2BA1
:100FE80083313A2B8331432B8331582B83317F2B29
:040FF8008431FC2C18
:1013EA00FE0012001E00FE0BF62900346400800184
:1013FA000131890BFC2900341034273400340034BD
:10140A00103427340034003410340034FA01F81F41
:10141A00182A65228A310319F60A0319F70A0319E9
:10142A00F80AFA01FA0AF41F252AF109F209F3095E
:10143A00F409F10A0319F20A0319F30A0319F40A5F
:10144A0074087304720471040319522AF901F90A1F
:10145A00F41B342AF135F20DF30DF40D2C2A74081D
:10146A007802031D422A73087702031D422A720872
:10147A007602031D422A71087502031C4C2A710860
:10148A00F5027208F63B7308F73B7408F83BF4362A
:10149A00F30CF20CF10CF90B342A7A0803195C2AC2
:1014AA0065220319F60A0319F70A0319F80A7808D4
:1014BA00F4007708F3007608F2007508F1000800D6
:1014CA00F509F609F709F809F50A08005D08A30005
:1014DA005C08A2005A08A2025B08A33B5030F10044
:1014EA00F2012308F4002208F30001238A3172086A
:1014FA00A1007108A0002104031DA22A2308803A32
:10150A00F90080307902031D8C2A11302202031C53
:10151A00922A2000A001A00AA10120002308803AF3
:10152A00F9007F307902031D9C2AF0302202031849
:10153A00A22AFF302000A000A10020002008D00726
:10154A002108D13D5108803AF90081307902031D02
:10155A00B02A2D305002031CB72A2C302000D000AC
:10156A000130D10020005108803AF9007E3079021A
:10157A00031DC12AD43050020318C82AD4302000CF
:10158A00D000FE30D1000A30F100F20120005D08DF
:10159A00F4005C08F30041238A317208A300710841
:1015AA00A20050082207EC005108233DED00803AC2
:1015BA00F90086307902031DE42A2D306C02031CDF
:1015CA00EB2A2C302000EC000630ED0020006D08DC
:1015DA00803AF90080307902031DF52A02306C0244
:1015EA000318FB2A02302000EC00ED0120006D08F0
:1015FA00F4006C08F300662BF601F21F0B2BF109BD
:10160A00F209F10A0319F20AF601F60AF41F142B79
:10161A00F309F409F30A0319F40A0130F606F7018B
:10162A00F801710872040319342BF501F50AF21B4B
:10163A00212BF135F20D1B2BF735F80D72087402C8
:10164A00031D292B71087302031C302B7108F30246
:10165A007208F43B7714F236F10CF50B212B76085D
:10166A0003193C2BF709F809F70A0319F80A78084D
:10167A00F2007708F1000800F501F601710872041A
:10168A000319612BF701F70AF21B4E2BF135F20D04
:10169A00482BF535F60D72087402031D562B710896
:1016AA007302031C5D2B7108F3027208F43B751474
:1016BA00F236F10CF70B4E2B7608F2007508F100A2
:1016CA0008007B238A317208F6007108F500740855
:1016DA007606031D722B7308750603190800AB13EF
:1016EA007308A3007408A400AB1708003B00240881
:1016FA00F200F1012308F10408002200E80168352C
:10170A002C3E93248B31220068352A3E8600403FC6
:10171A002000B600413FB70035083702031D972B5A
:10172A00340836020318A42B220068352A3E932473
:10173A008B313302031DAF2B34083202AF2B220048
:10174A0068352A3E93248B3133083502031DAF2BAB
:10175A0032083402031CB72B22000830E80A680258
:10176A00031C842B22006808031DE8030930680261
:10177A0008300318E8006835403E93248B3134085A
:10178A002200D400200035082200D500D601D70156
:10179A0068353E3E9C248B31DC002000350822004F
:1017AA00DD00DE01DF0168352C3E9C248B31D80038
:1017BA00200035082200D900DA01DB0168352A3E0B
:1017CA009C248B31E000200035082200E100E20170
:1017DA00E30163085B06031DFC2B62085A06031D1E
:1017EA00FC2B61085906031DFC2B60085806031DD3
:1017FA00062C5D082000B30022005C082000B2001D
:10180A000800200032082200E400200033082200E9
:10181A00E500E601E7016008E4026108E53B6208C9
:10182A00E63B6308E73B5708F4005608F3005508FF
:10183A00F2005408F1005C08F1025D08F23B5E0810
:10184A00F33B5F08F43B6708F8006608F700650891
:10185A00F6006408F500853169258B317408220089
:10186A00E7007308E6007208E5007108E4005B0807
:10187A002000A70022005A082000A60022005908CA
:10188A002000A500220058082000A40022006008B9
:10189A002000A402220061082000A53B2200620861
:1018AA002000A63B220063082000A73B220067080D
:1018BA002000AB00220066082000AA00220065086A
:1018CA002000A900220064082000A8008431FD2419
:1018DA008B3127082200E700200026082200E600B4
:1018EA00200025082200E500200024082200E40048
:1018FA005C08E4075D08E53D5E08E63D5F08E73DF4
:10190A00E71F8B2CE401E501E601E70165082000E9
:10191A00B300220064082000B200080086000130EB
:10192A008700403F2000B400413FB5000800860010
:10193A00403F2000B400413FB500340822000800AF
:10194A002E30B001AF01AE00E030AD005608F10014
:10195A005708F200F301F4013008F8002F08F700E5
:10196A002E08F6002D08F500853169258C3174089A
:10197A00B0007308AF007208AE007108AD005808D5
:10198A00A9005908AA00AB01AC012C08F4002B08E5
:10199A00F3002A08F2002908F1003008F8002F089D
:1019AA00F7002E08F6002D08F500B7258C317408CB
:1019BA00B0007308AF007208AE007108AD003008BD
:1019CA00031DF62C2F08031DF62CD0302D020730EC
:1019DA002E3B0318F62C0730B001AF01AE00D03011
:1019EA00AD003008031D022D2F08031D022DA9305A
:1019FA002D0261302E3B031C082D6130B001AF016E
:101A0A00AE00A830AD001830AD07FC30AE3DFF3057
:101A1A00AF3DB03D3008A8002F08A7002E08A60049
:101A2A002D08A50008000430B001AF009330AE00C5
:101A3A00E030AD005408F1005508F200F301F4015A
:101A4A003008F8002F08F7002E08F6002D08F500D8
:101A5A00853169258C317408B0007308AF007208AB
:101A6A00AE007108AD005208B1005308B2000C3044
:101A7A00B301B401F401F301F2004430F100340877
:101A8A00F8003308F7003208F6003108F50085310E
:101A9A0069258C317408B4007308B3007208B20067
:101AAA007108B1006430F100F201F301F401340865
:101ABA00F8003308F7003208F6003108F500B725B8
:101ACA008C31F6258C315408A9005508AA00AB01BF
:101ADA00AC012908B1022A08B23B2B08B33B2C08F7
:101AEA00B43B3408F4003308F3003208F20031083A
:101AFA00F1003008F8002F08F7002E08F6002D082C
:101B0A00F500B7258C31F6258C313408031D9C2D40
:101B1A003308031D9C2DD03031020730323B0318A5
:101B2A009C2D0730B401B301B200D030B1003408A3
:101B3A00031DA82D3308031DA82DA93031026130D9
:101B4A00323B031CAE2D6130B401B301B200A830A0
:101B5A00B1003408A8003308A7003208A6003108EB
:101B6A00A5000800A001A101A201A3017408730441
:101B7A00720471040319ED2DA401A40AF41BCA2DE1
:101B8A00F135F20DF30DF40DC22DA035A10DA20D04
:101B9A00A30D74087802031DDC2D73087702031D58
:101BAA00DC2D72087602031DDC2D71087502031CF8
:101BBA00E72D7108F5027208F63B7308F73B7408C3
:101BCA00F83B2014F436F30CF20CF10CA40BCA2DDA
:101BDA002308F4002208F3002108F2002008F1008B
:101BEA0008007408B4007308B3007208B2007108E0
:101BFA00B100080032302000AB002030AC016B2667
:101C0A008D3151278D31FB278D31742F3430F100FE
:101C1A002030F20122278D3134302000AB002030F1
:101C2A00AC0186268D31B200B3013304031D0800CE
:101C3A00FF302200A000A100A2012000B401B501DA
:101C4A003508F2003408F1009930F3001930F40035
:101C5A0056268D3134352A3EEE278D313508F2006D
:101C6A003408F100B030F3000430F40056268D3108
:101C7A0034353E3EEE278D31B40A0319B50A0030D9
:101C8A0035020A3003193402031C252E3230AB0008
:101C9A002030AC016B268D3151278D31FB278D31D8
:101CAA00742FF501F601711C5E2E7308F50774088E
:101CBA00F63DF335F40DF236F10C71087204031D8A
:101CCA00582E7608F2007508F1000800AF002C08BB
:101CDA00FA002B08F9002F08A6267A08AE00790820
:101CEA00AD002B082F07FB008600013087002D0866
:101CFA0081002B082F07FB007B0A86002E08810033
:101D0A000800B1002B07FE3EF1000230F2002F302E
:101D1A00F3010D278D312B08FE3EF900FF302C3DD3
:101D2A00FA003108A6268D317A08AE007908AD008E
:101D3A002E083006031DA32E2D082F06031D00347E
:101D4A000134A4000130A200A030A300FF30A90092
:101D5A00AA00A701A8017A082802031DB62E79084D
:101D6A0027020318D22E2A08F2002908F1002708B0
:101D7A002407A0008600013087000108F300230829
:101D8A00F5002208F400EE268D317208AA007108C7
:101D9A00A900A70A0319A80AB02EA5012908A100BB
:101DAA00A00120040319DB2EA501A50A2508A70016
:101DBA00A801A6012A080319E42EA601A60A2608E4
:101DCA00A900AA0127082907F90028082A3DFA00CC
:101DDA000800F701F80180307305F60072088039AF
:101DEA0076060319FF2EF135F20D7408F10675080F
:101DFA00F206012FF135F20DF335F70A0319F80A45
:101E0A000030780208300319770203180800F02E10
:101E1A00F400720873040319080074088600870125
:101E2A007108840001308500000881000130F10A40
:101E3A00F40AF2020030F33B0E2FF5008030F8006E
:101E4A001F30F90000308B1B0130F4008B13F601B0
:101E5A00F70172087702031D342F710876020318FE
:101E6A004F2F780823009100790892001513151452
:101E7A000000000076087507F3008600013087002D
:101E8A00230013088100F80A0319F90AF60A03194C
:101E9A00F70A2E2F740CF62F8030F1001F30F20053
:101EAA005C278D31A030F1001F30F2005C2F00302A
:101EBA008B1B0130F3008B13710823009100720809
:101ECA00920015131516151555309600AA3096006E
:101EDA0095140000000023001511730CF62F200042
:101EEA00A5008030AA01AB01A8001F30A90000306C
:101EFA008B1B0130A2007208A4007108A3000530F0
:101F0A00A436A30C890B852F71081F390319902F4A
:101F1A00A30A0319A40A8B13A601A701A001A10110
:101F2A0024082102031D9B2F230820020318EC2FEB
:101F3A0023001513151595162000AA01AB012808D0
:101F4A002300910020002908230092007208200033
:101F5A002702031DB22F710826020318BE2F260876
:101F6A002507F3008600013087000108230093004B
:101F7A00C02F230093012000A60A0319A70A2300F1
:101F8A0094011F3020002A05F3001F3A031DCF2FAA
:101F9A0023009512553023009600AA309600951416
:101FAA00000000002000A80A0319A90AAA0A0319B6
:101FBA00AB0A00302B02203003192A02031CA42F7B
:101FCA00230015112000A00A0319A10A952F220C3B
:101FDA00F62F8600013087007108C03F7208C13FA2
:101FEA000800031C8B1303188B1708003430F10008
:101FFA002030F20108000934703477346D343D34EE
:10200A00003409346534783470343D34003409348A
:10201A0076346F343D3400340934523473343D34E9
:10202A000034523463343D340034093469343D3465
:08203A0000340D340A340034B7
:020000040001F9
:04000E00E4FFFFFE0E
:00000001FF
