:0400000080315028D3
:100008007E1480310B1F2F282100911C2F282000DF
:10001800911C2F289110FC140530E40AE50A6402AB
:10002800031C1828E4017C1532306502031C1E28C5
:10003800E501FC15610803192828E10A0630610268
:10004800031C28287C14E10101302100D607003068
:10005800D73DD83DD93D0B1F4E282100911E4E2873
:100068002000911E4E28911223009D1C3D281D1230
:100078001D161908F00040302000600203184C28B3
:100088006008203E86000130870070088100E00A81
:100098000130E1007E10090080315228843084004C
:1000A800233085005C30FE00FF018731D227803184
:1000B8005430FC018400003085001230FE0000300E
:1000C800FF008731D2278031A030840000308500BE
:1000D8004430FE000030FF008731D22780312030C5
:1000E8008400013085005030FE000030FF00873169
:1000F800D2278031F630840087308500663086004C
:10010800003087000030FF000A308731DE27803159
:10011800C630840087308500E430860000308700D0
:100128000030FF000C308731DE2780317E10200040
:100138009D280000DA228B170B170A30F300F40110
:100148008A31AD2280318D31DB2580319527803190
:100158000106031DB62884308600AA304131010605
:100168000319B828E201E7280530E2008430860048
:10017800233087004431542780312000D4002300E5
:1001880036082000D5008430D601D70186002330F8
:1001980087004831542780312100B60023003608F3
:1001A8002100B7008430B801B901860023308700E8
:1001B8004631542780312100BA0023003608210037
:1001C800BB00BC01BD017C1D8E297C112030F301D0
:1001D800F30AF4000630A222803174082000DB0004
:1001E8007308DA000330F3002030F4000530A2224F
:1001F800803174082100E1007308E0000330F30047
:100208002030F4000430A222803174082000D90084
:100218007308D8000330D936D80CF3002030F40026
:100228000230A222803174082100DF007308DE004A
:100238000330DF36DE0CF3002030F4000730A22252
:10024800803174082100E3007308E200E336E20C11
:100258002F262808E9002708E8002608E7002508CF
:10026800E6008931522180312808ED002708EC008A
:100278002608EB002508EA0000000530200062028D
:10028800031C6A298C310A24803120005B08FA009B
:100298005A08F900E2257A082100DD007908DC0017
:1002A8005D082000B30021005C082000B2008A31FC
:1002B800C92280313308DF003208DE005E35DC00F9
:1002C8005F0DDD008931C82180318E2931238031CD
:1002D800053020006202031C8E2995278031C03F1B
:1002E80085308600AA308100843086004431540865
:1002F800C03F550889278031483121003608C03F62
:100308003708892746313A08C03F3B08C13F8D313D
:10031800D0258031FC1D0D2AFC111630F1009030DB
:10032800F2000F2280316908B5006808B400670838
:10033800B3006608832780312E2280317E278031E2
:100348000F2280311130F1009030F2000F228031FD
:100358006D08B5006C08B4006B08B3006A08832701
:1003680080312E2280317E2780310F2280311A3051
:10037800F1009030F2000F2280315A08B2005B0879
:100388004C2780312E2280317E2780310F22803108
:100398000630F1009030F2000F2280315C08B20084
:1003A8005D084C2780312E2280317E2780310F2234
:1003B80080310C30F1009030F2000F2280315E085D
:1003C800B2005F084C2780312E2280317E27803191
:1003D8000F2280310030F1009030F2000F2280317E
:1003E8006E08B2006F08B300890D893B8909B40013
:1003F800B5001030B6006030B7012E2280317E275C
:1004080080310F2280311E30F1009030F2000F222F
:1004180080310000E72823009E1E9E162000111A36
:10042800232A122A2000111E162A71088400720835
:100438008500000823009A00F10A0319F20A7108DE
:100448008400720885001200031D162A2000111A64
:1004580008002A2AC100C001B51F482AC001C00AE5
:10046800B801B901BA01BB013208B8023308B93B77
:100478003408BA3B3508BB3B3B08B5003A08B40022
:100488003908B3003808B200F1013708F30036081C
:10049800F2004108102780313608FE3EC2004208AB
:1004A8000319922A0A30F100F201F301F401350828
:1004B800F8003408F7003308F6003208F5008831F0
:1004C800F22080317408BF007308BE007208BD00B6
:1004D8007108BC00712780313C08303E81000A3029
:1004E800A400A501A601A7013508AB003408AA009D
:1004F8003308A9003208A800FC2480312708B50079
:100508002608B4002508B3002408B20035083404CE
:10051800330432040319922AC203532A40080319E8
:100528009D2A420803199C2A712780312D308100A9
:10053800C20341084207F1004108AD2FF600F70158
:10054800F8017308D12580317608C22580310D3035
:10055800F500F50BAD2A41307402031CB52A403072
:10056800F400F901740879020318D52A21009D14B2
:100578009D18BC2A000021001C08FA00FB01FA356E
:10058800FB0DFA35FB0D1B08F5000630F536890B17
:10059800CA2A7508FA047A08F7077B08F83DF90AA9
:1005A800B62A7808F4007708F3000800F8228031AA
:1005B800F3228031BF258031EF22803190258031B0
:1005C800A8258031EB2280319A278031222F0130F3
:1005D80021009D00782F8130220097000800783094
:1005E800210099009801080022008C018E010F302B
:1005F80021008C001F308E000F3023008E00173032
:100608008C003B3024008C0030308E002100951384
:1006180025008C018E0100308B1B0130F1008B13FB
:100628008F2780310F101508E039143895003D00E8
:100638001408F039043894001508F0390338950087
:100648002508F0390938A5008F2780310F14711C4F
:100658002F2B8B1708008B1308006D08B5006C084A
:10066800B4006B08B3006A08B2006608B2026708F3
:10067800B33B6808B43B6908B53B942CE301B03040
:10068800F3000430F4008D319C2580310230912C28
:10069800B51B9E2C3508031D5A2B3408031D5A2BF5
:1006A800953032021130333B031C9E2C0530F30089
:1006B800F4018D319C2580310330912CB51B702BB2
:1006C8003508031D9E2C3408031D9E2CDC30320295
:1006D8000530333B03189E2C21004908C500480803
:1006E800C4004708C3004608C2005908C900580892
:1006F800C8005708C7005608C60020000530E30A9E
:100708006302031C432B0430922C21004908D100BA
:100718004808D0004708CF004608CE004208CE025D
:100728004308CF3B4408D03B4508D13B0530200067
:10073800A400A50139278031FC2480312708210035
:10074800D100200026082100D00020002508210023
:10075800CF00200024082100CE0067082000AB004D
:10076800210066082000AA00210065082000A900D1
:10077800210064082000A800210068082000A802C1
:10078800210069082000A93B21006A082000AA3B33
:1007980021006B082000AB3B0230A400A501A60194
:1007A800A701FC24803127082100CD00200026085D
:1007B8002100CC00200025082100CB0020002408BF
:1007C8002100CA000230D501D401D3005530D2002F
:1007D8004D08F4004C08F3004B08F2004A08F100F9
:1007E8000130F801F701F6003A30F500682580314C
:1007F8007408A7007308A6007208A5007108A40071
:100808000230F401F301F2005530F1009C30F80198
:10081800F701F6004030F500682580313027803137
:10082800FC24803127082100C1002000260821006F
:10083800C000200025082100BF0020002408210056
:10084800BE006430F100F201F301F4014108F80040
:100858004008F7003F08F6003E08F500682580319B
:1008680074082100C1007308C0007208BF00710835
:10087800BE000E3020005B2780314108F40040089C
:10088800F3003F08F2003E086A278031682580316E
:1008980030278031FC2480312708D7002608D6006D
:1008A8002508D5002408D40014305B27803151086E
:1008B800F4005008F3004F08F2004E086A27803110
:1008C8006825803130278031FC24803127082100B9
:1008D800BD00200026082100BC00200025082100BA
:1008E800BB00200024082100BA0008302000A40022
:1008F800A50139278031FC24803127082100B9005F
:10090800200026082100B800200025082100B70093
:10091800200024082100B60005302000E2009E2CAB
:10092800620884000630040203189E2C87310435BF
:10093800EA3E820003306302031C080021006708B6
:10094800803AF90020003508803A79022100031D19
:10095800BD2C2000340821006602031DBD2C200098
:10096800330821006502031DBD2C20003208210038
:1009780064020318CF2C200035082100E70020006E
:1009880034082100E600200033082100E50020009B
:1009980032082100E40020003508803AF9002100DF
:1009A8006B08803A79022000031DEA2C21006A08AE
:1009B80020003402031DEA2C2100690820003302BC
:1009C800031DEA2C210068082000320203180800E1
:1009D80035082100EB00200034082100EA0020003F
:1009E80033082100E900200032082100E80008004F
:1009F800AD01A71F0C2DA409A509A609A709A40ADA
:100A08000319A50A0319A60A0319A70AAD01AD0A15
:100A1800AB1F1B2DA809A909AA09AB09A80A031924
:100A2800A90A0319AA0A0319AB0A0130AD06AE01D7
:100A3800AF01B001B10127082604250424040319D5
:100A4800512DAC01AC0AA71B2E2DA435A50DA60D62
:100A5800A70D262DAE35AF0DB00DB10D27082B0211
:100A6800031D402D26082A02031D402D25082902B2
:100A7800031D402D24082802031C4B2D2408A8021E
:100A88002508A93B2608AA3B2708AB3B2E14A73606
:100A9800A60CA50CA40CAC0B2E2D2D0803195F2D4C
:100AA800AE09AF09B009B109AE0A0319AF0A0319B3
:100AB800B00A0319B10A3108A7003008A6002F08A8
:100AC800A5002E08A40008002000A001A101A20191
:100AD800A301711C782D75082000A0077608A13D98
:100AE8007708A23D7808A33DF535F60DF70DF80D0A
:100AF800F436F30CF20CF10C7408730472047104EC
:100B0800031D6D2D20002308F4002208F30021089E
:100B1800F2002008F10008003B009C019D019E01A5
:100B280080309F00A001920191019401A0309300B0
:100B3800063096003F3095009801013097009A01E1
:100B4800990190309B000800AC01AD01AE018030E6
:100B5800AF00B001A201A101A401A030A30006309A
:100B6800A6003F30A500A8010130A700AA01A901ED
:100B78009030AB000800163097000800F200210002
:100B88009D18C32D7208F100F10DF10D1D087106B5
:100B9800833971069D001D14782FF2008030F10012
:100BA80004307202031CDA2D0330F2007208F104DB
:100BB800710822009700171B0800DF2DA701A80164
:100BC800A901AA01AB012B35AE3E860087012B3562
:100BD800AC3E84008501403F803F413F813F2B353B
:100BE800AC3E8600403FA500413FA6002508A70768
:100BF8002608A83D0030A93DAA3D0430AB0A2B02C7
:100C0800031CE72D2B35AC3E86007908C03F7A08D7
:100C1800C13F7908A7077A08A83D0030A93DAA3D39
:100C28000530F100F201F301F4012A08F80029085F
:100C3800F7002808F6002708F500D1267408AA004E
:100C48007308A9007208A8007108A7002808FA000C
:100C58002708F900080020000430B001AF009330E5
:100C6800AE00E030AD005808F1005908F200F30179
:100C7800F4013008F8002F08F7002E08F6002D08B8
:100C8800F500682580317408B0007308AF00720859
:100C9800AE007108AD0021005E082000B1002100FF
:100CA8005F082000B2000C30B301B401F401F30175
:100CB800F2004430F1003408F8003308F700320835
:100CC800F6003108F500682580317408B40073080F
:100CD800B3007208B2007108B1006430F100F2018B
:100CE800F301F4013408F8003308F7003208F6007D
:100CF8003108F500D1268031612780315808A900D4
:100D08005908AA00AB01AC012908B1022A08B23B74
:100D18002B08B33B2C08B43B3408F4003308F30029
:100D28003208F2003108F1003008F8002F08F70007
:100D38002E08F6002D08F500D12680316127803174
:100D48003408031DB62E3308031DB62ED0303102E9
:100D58000730323B0318B62E0730B401B301B20096
:100D6800D030B1003408031DC22E3308031DC22E33
:100D7800A93031026130323B031CC82E6130B40106
:100D8800B301B200A830B1003408A8003308A700A6
:100D98003208A6003108A5000800A001A101A2019F
:100DA800A30174087304720471040319072FA401C2
:100DB800A40AF41BE42EF135F20DF30DF40DDC2E2C
:100DC800A035A10DA20DA30D74087802031DF62EFF
:100DD80073087702031DF62E72087602031DF62E9D
:100DE80071087502031C012F7108F5027208F63BA1
:100DF8007308F73B7408F83B2014F436F30CF20C34
:100E0800F10CA40BE42E2308F4002208F3002108B7
:100E1800F2002008F1000800F4000130F20200306E
:100E2800F33B720F1A2F730A03190800740886001F
:100E38000130870071088100F40A112F083023005F
:100E48009F0090309D0024309E00A0309B00013010
:100E58009C002100911608007408AB007308AA00D2
:100E68007208A9007108A8000800A601A7012100BE
:100E780051082000AB00210050082000AA002100E2
:100E88004F082000A90021004E082000A8000800F3
:100E9800B3001030B401B501B6006030B7010800E6
:100EA800403F2300B500413FB60035080800A400C4
:100EB800A501A601A701210008007408B400730861
:100EC800B3007208B2007108B1000800F1000A30DE
:100ED800F500F601F701F801080042084107B800DB
:100EE800860001308700080063309E009F019B0147
:100EF8009C0108006030F1000130F2000800B200E7
:100F08001030B6006030B7010800C13F8430860059
:100F180023308700080055303C008F00AA308F002E
:100F28000800843086002330870055344B30200079
:100F38009C007C309B009A01911021009114003094
:100F4800F101F201A9278031AA2F080020001C1501
:100F58000800F200710886000130870001080319B3
:100F6800C02F7208860071088400013085000008CF
:100F78008100F10AF20AAE2F72088600013087005C
:100F880081010800C034F234FC34FF3440340D349D
:100F98000334003414340034003400346400013065
:100FA80080010131FE020030FF3B7F087E040319F7
:100FB8000034D32FFE0012001E000130FE02003064
:100FC800FF3B7F087E0403190034DF2F8331422B57
:100FD8008331422B83314C2B8331622B8331892B14
:100FE8008431FB2C10342734003400341034273477
:080FF800003400341034003411
:1011E400FA01F81FFF284C2188310319F60A031964
:1011F400F70A0319F80AFA01FA0AF41F0C29F1098B
:10120400F209F309F409F10A0319F20A0319F30ABA
:101214000319F40A74087304720471040319392954
:10122400F901F90AF41B1B29F135F20DF30DF40D44
:10123400132974087802031D292973087702031DF2
:10124400292972087602031D292971087502031CD5
:1012540033297108F5027208F63B7308F73B7408EA
:10126400F83BF436F30CF20CF10CF90B1B297A0859
:10127400031943294C210319F60A0319F70A031920
:10128400F80A7808F4007708F3007608F200750885
:10129400F1000800F509F609F709F809F50A08004C
:1012A4002E30B001AF01AE00E030AD002100600887
:1012B400F1006108F200F301F40120003008F800A5
:1012C4002F08F7002E08F6002D08F5008531682553
:1012D40089317408B0007308AF007208AE00710859
:1012E400AD005A08A9005B08AA00AB01AC012C08A8
:1012F400F4002B08F3002A08F2002908F100300852
:10130400F8002F08F7002E08F6002D08F5008631A6
:10131400D12689317408B0007308AF007208AE009A
:101324007108AD003008031DA6292F08031DA62946
:10133400D0302D0207302E3B0318A6290730B00108
:10134400AF01AE00D030AD003008031DB2292F0824
:10135400031DB229A9302D0261302E3B031CB8298C
:101364006130B001AF01AE00A830AD001830AD0758
:10137400FC30AE3DFF30AF3DB03D3008A8002F0833
:10138400A7002E08A6002D08A50008005D08A300EC
:101394005C08A200210062082000A2022100630868
:1013A4002000A33B9630F100F2012308F400220848
:1013B400F300482289317208A1007108A0002104B9
:1013C400031D032A2308803AF90080307902031DA3
:1013D400ED2921302202031CF3292000A001A00AD8
:1013E400A10120002308803AF9007F307902031D0F
:1013F400FD29E03022020318032AFF302000A00058
:10140400A100200020082100DA0720002108210083
:10141400DB3D0A30F100F20120005D08F4005C08B5
:10142400F300882289317208A3007108A200210008
:101434005A0820002207EE0021005B082000233D0B
:10144400EF00803AF90086307902031D2B2A2D30F3
:101454006E02031C322A2C302000EE000630EF000E
:1014640020006F08803AF90080307902031D3C2A7D
:1014740005306E020318422A05302000EE00EF0109
:1014840020006F08F4006E08F300AD2AF601F21F85
:10149400522AF109F209F10A0319F20AF601F60ACD
:1014A400F41F5B2AF309F409F30A0319F40A01305F
:1014B400F606F701F8017108720403197B2AF50195
:1014C400F50AF21B682AF135F20D622AF735F80D98
:1014D40072087402031D702A71087302031C772AB0
:1014E4007108F3027208F43B7714F236F10CF50B31
:1014F400682A76080319832AF709F809F70A0319F1
:10150400F80A7808F2007708F1000800F501F601FE
:10151400710872040319A82AF701F70AF21B952A25
:10152400F135F20D8F2AF535F60D72087402031D9C
:101534009D2A71087302031CA42A7108F30272081D
:10154400F43B7514F236F10CF70B952A7608F20089
:101554007508F1000800C22289317208F60071088A
:10156400F50074087606031DB92A73087506031975
:101574000800AB137308A3007408A400AB17080099
:101584003B002408F200F1012308F10408002300C1
:10159400B40106248A31F1238A312300340820005F
:1015A400BA008E30BB01BA35BB0DBC002330BD0080
:1015B4003A083C0786003B083D3D8700403FBE009B
:1015C400413FBF0039083F02031DEA2A38083E02A2
:1015D4000318F82A230002248A31F1238A313308BC
:1015E4003902031D022B32083802022B2300022485
:1015F4008A31F1238A313302031D022B3808320267
:1016040003180A2B23001230B40A3402031CCB2A19
:1016140023003408031DB40313303402031C142BB9
:101624001230B40034082000B400B830F1238A31F9
:1016340038082300A000200039082300A100A201DB
:10164400A30134082000B400B630F1238A313808ED
:101654002300A800200039082300A900AA01AB0137
:1016640006248A31F1238A3138082300A40020009B
:1016740039082300A500A601A70102248A31F12319
:101684008A3138082300AC00200039082300AD005B
:10169400AE01AF012F082706031D5A2B2E0826067C
:1016A400031D5A2B2D082506031D5A2B2C0824062E
:1016B400031D642B29082000B30023002808200000
:1016C400B2000800200032082300B00020003308D4
:1016D4002300B100B201B3012C08B0022D08B13BC4
:1016E4002E08B23B2F08B33B2308F4002208F30072
:1016F4002108F2002008F1002808F1022908F23B31
:101704002A08F33B2B08F43B3308F8003208F700AF
:101714003108F6003008F500853168258A317408EF
:101724002300B3007308B2007208B1007108B0005E
:1017340027082000A700230026082000A600230075
:1017440025082000A500230024082000A40023006D
:101754002C082000A40223002D082000A53B230010
:101764002E082000A63B23002F082000A73B2300BF
:1017740033082000AB00230032082000AA00230015
:1017840031082000A900230030082000A80084317B
:10179400FC248A3127082300B300200026082300F4
:1017A400B200200025082300B100200024082300F3
:1017B400B0002808B0072908B13D2A08B23D2B081B
:1017C400B33DB31FE92BB001B101B201B30131083C
:1017D4002000B300230030082000B2000800B50147
:1017E400B435B50DB6002330B7003408360786008B
:1017F4003508373D8700403FB800413FB900080035
:1018040034082000B4008E3434082000B40090342E
:101814006D08D3006C08D2006B08D1006A08D000B0
:101824006608D0026708D13B6808D23B6908D33BFD
:10183400D030B2000730B300B401B5015008B20291
:101844005108B33B5208B43B5308B53B3508C8258F
:101854008C31A43086008701403F2100A800413F1D
:10186400A900423FAA00433FAB002308A700220877
:10187400A6002108A5002008A40020005308210088
:10188400A300200052082100A200200051082100DA
:10189400A100200050082100A000240820022000FC
:1018A400B20021002508213B2000B30021002608B6
:1018B400223B2000B40021002708233B2000B50070
:1018C400B825853168258C317408C1007308C000BF
:1018D4007208BF007108BE0021003D082000A70067
:1018E40021003C082000A60021003B082000A500A0
:1018F40021003A082000A40021002308F400220853
:10190400F3002108F2002008F10020005708F80035
:101914005608F7005508F6005408F5008531682587
:101924008C31873130278C318431FC248C31270869
:10193400C5002608C4002508C3002408C2002100ED
:1019440020082000B200210021082000B30021005B
:1019540022082000B400210023082000B500210043
:1019640024082000B600210025082000B70021002B
:1019740026082000B800210027082000B900B63549
:10198400B70DB80DB90D210028082000BA002100B8
:1019940029082000BB0021002A082000BC002100E7
:1019A4002B082000BD003608BA023708BB3B3808B4
:1019B400BC3B3908BD3B3A08B2073B08B33D3C0881
:1019C400B43D3D08B53D3508B825853168258C31D1
:1019D4007408CD007308CC007208CB007108CA00EB
:1019E400A030A400A501A601A7014D08F4004C08ED
:1019F400F3004B08F2004A08F10021003908F8000E
:101A04003808F7003708F6003608F50085316825F0
:101A14008C31873130278C318431FC248C31270878
:101A2400C9002608C8002508C7002408C6003E08C7
:101A34004207B2003F08433DB3004008443DB400B0
:101A44004108453DB500C8254608D0074708D13DA3
:101A54004808D23D4908D33D2730A701A601A50077
:101A64001030A4005308AB005208AA005108A90082
:101A74005008A8008431FC248C312708D3002608A0
:101A8400D2002508D1002408D00021006C082000D1
:101A9400D00721006D082000D13D21006E082000F0
:101AA400D23D21006F082000D33D00002000D31B4D
:101AB4006D2D5308031D672D5208031D672DB1308A
:101AC40050020430513B031C6D2D0430D301D2016C
:101AD400D100B030D000D31B7C2D5308031D812DC1
:101AE4005208031D812D5108031D812D053050021C
:101AF4000318812D0530D000D101D201D301530840
:101B04002100EF00200052082100EE0020005108BF
:101B14002100ED00200050082100EC006D08200099
:101B2400CF0021006C082000CE004F08F4004E08BE
:101B3400F3009C2DB1258C317208F6007108F50074
:101B440074087606031DA82D73087506031908008A
:101B54009B1373089300740894009B1708003B00C0
:101B64001408F200F1011308F1040800F400340829
:101B7400F3003308F2003208F1005708F800560861
:101B8400F7005508F6005408F5000800D30034089F
:101B9400D2003308D1003208D0000800843020007D
:101BA400F9278D316E268D3144278D31EC278D3107
:101BB400732F8430F1002330F2005C30F300F40121
:101BC40012278D3184302000A0002330A1005C3026
:101BD400A200A3019C268D31B100B2013204031D81
:101BE40008008430860023308700FF30C03F8530F2
:101BF4008600FF30810086308600FF308100B3010B
:101C0400B4013408F2003308F100D030F30002309C
:101C1400F40059268D317108803EAB002530723DA9
:101C2400AC003408AE003308AD008E30AD35AE0DD7
:101C3400AF002330B0002D082F0786002E08303D5A
:101C440087002B08C03F2C08C13F3408F20033083A
:101C5400F1004D30F3000130F40059268D31340881
:101C6400AC003308AB00B630AB35AC0DAD0023305F
:101C7400AE002B082D0786002C082E3D8700710826
:101C8400C03F7208C13FB30A0319B40A00303402DA
:101C9400143003193302031C032E8430F9278D31C9
:101CA4006E268D3144278D31EC278D31732FF5014C
:101CB400F601711C612E7308F5077408F63DF335BF
:101CC400F40DF236F10C71087204031D5B2E7608D4
:101CD400F2007508F10008002108F2002008F10064
:101CE4002308F4002208F300C5267208AA0071082C
:101CF400A90022082007A4002308213DA5002408E8
:101D0400860025088700290881002A08A4002208E3
:101D14002007A5002308213DA6002508013EA700B1
:101D24000030263DA80027088600280887002408DC
:101D34008100080022082007F1002308213DF20059
:101D4400FE30F107031CF2030230F3002630F401E5
:101D5400FB268D312108F2002008F1002208FE3E06
:101D6400F300FF30233DF400C5268D317208A50031
:101D74007108A40025082706031DC22E2408260680
:101D8400031D00340134FF30F900FA00F501F601B7
:101D940074087602031DD02E730875020318F62EFC
:101DA40071088600720887000108F906F10A031910
:101DB400F20AF701F801791CE62E0130FA36F90C23
:101DC400F906A030FA06E82EFA36F90CF70A0319D8
:101DD400F80A00307802083003197702031CDD2E5C
:101DE400F50A0319F60ACA2E7A08F2007908F100F6
:101DF4000800F500730874040319080075088600C8
:101E04008701710884007208850000088100F10AC6
:101E14000319F20A0130F50AF3020030F43BFC2EF8
:101E24008030FA001F30FB0000308B1B0130F700BC
:101E34008B13F801F90174087902031D232F730829
:101E440078020318422F7A08230091007B0892003D
:101E5400151315140000000078087107F5007908BF
:101E6400723DF60075088600760887002300130883
:101E74008100FA0A0319FB0AF80A0319F90A1D2F4B
:101E8400770CF42F8030F1001F30F2005B278D3186
:101E9400A030F1001F30F2005B278D31C030F1001B
:101EA4001F30F2005B278D31E030F1001F30F2006B
:101EB4005B2F00308B1B0130F3008B137108230060
:101EC40091007208920015131516151555309600D9
:101ED400AA30960095140000000023001511730C1D
:101EE400F42F20008030A901AA01A7001F30A80008
:101EF40000308B1B0130A2007408A4007308A300F7
:101F04000530A436A30C890B832F73081F390319DA
:101F14008E2FA30A0319A40A8B13A501A601A001FD
:101F2400A10124082102031D992F2308200203186C
:101F3400EA2F23001513151595162000A901AA01EF
:101F44002708230091002000280823009200740829
:101F540020002602031DB02F730825020318BC2F8E
:101F64002508710786002608723D870001082300B2
:101F74009300BE2F230093012000A50A0319A60A8B
:101F8400230094011F3020002905F5001F3A031D8A
:101F9400CD2F23009512553023009600AA309600C9
:101FA4009514000000002000A70A0319A80AA90A32
:101FB4000319AA0A00302A02203003192902031C3B
:101FC400A22F230015112000A00A0319A10A932FA0
:101FD400220CF42F8430F1002330F2005C30F30043
:101FE400F4010800031C8B1303188B170800A000CE
:101FF4002330A1005A30A200A30108000934703430
:1020040077346D343D3400340934653478347034B5
:102014003D340034093476346F343D3400340934AB
:10202400523473343D340034523463343D34003418
:0E203400093469343D3400340D340A3400346C
:020000040001F9
:04000E00E4FFFFFE0E
:00000001FF
