:041000008831922879
:1010060008007E14883120007F08F1000B1F392864
:101016002100911C39282000911C39289110EB14CD
:101026000130F0007008F8070130F0007008EA0798
:1010360005307802031C2128F8016B1532306A024C
:10104600031C2728EA01EB157A0803193428013016
:10105600F0007008FA0706307A02031C34286B1475
:10106600FA0101302100D6070030D73D0B1F60285A
:101076002100911E60282000911E602891122300F5
:101086009D1C47281D121D161908F0007008F20055
:101096003C30790203185C287208F0007908203E7B
:1010A600860001308700700881000130F00070086A
:1010B600F9070130F0007008FA002000111A111229
:1010C6000B1F78282100931E78282000931E78286D
:1010D60093123B002D1C78282D10210069083B0037
:1010E600A400210068083B00A3000B1F8D282100E7
:1010F600131E8D282000131E8D2813123B001D1C65
:101106008D281D10210067083B0094002100660809
:101116003B00930071082000FF007E100900883113
:10112600942888308400993085006C308600003021
:1011360087000030FF0004308F31F4278831B43047
:10114600840099308500DA30860000308700003050
:10115600FF0010308F31F42788315C308400233053
:1011660085008430FE000030FF0099319B218831D4
:10117600F801F901FA015C30840000308500103076
:10118600FE000030FF0099319B218831A030840099
:10119600003085003A30FE000030FF0099319B2177
:1011A600883120308400013085004C30FE0000304C
:1011B600FF0099319B218831A030840001308500E1
:1011C6003C30FE000030FF0099319B217E1020004C
:1011D6008D310A2D20006E09B6006F09B700B60AD8
:1011E6000319B70A6C083607BE006D08373DBF0005
:1011F600C001C101BB2AE8013929C11BC52A410822
:10120600031D0E294008031D0E2995303E0211309C
:101216003F3B031CC52A0530A2000030A3009B31CA
:10122600392388310330B62AC11B25294108031DFD
:10123600C52A4008031DC52ADC303E0205303F3B67
:101246000318C52A21004708C9004608C8005708E0
:10125600C7005608C60001302000B6003608E80769
:1012660005306802031C39290430B72AB030A200C1
:101276000430A3009B31392388310230B62A21007D
:1012860048092000B600210049092000B700B60A27
:101296000319B70A2100460820003607DC002100A2
:1012A60047082000373DDD000530A2000030A300CE
:1012B6005D08A5005C08A4009C312F24883120001D
:1012C6002308DD002208DC000030AB000030AA0055
:1012D6000030A9000230A80021005E082000B600F8
:1012E60021005F082000B700210060082000B80038
:1012F600210061082000B90021005A092000BA0027
:1013060021005B092000BB0021005C092000BC0015
:1013160021005D092000BD00BA0A0319BB0A0319A2
:10132600BC0A0319BD0A3A08B6073B08B73D3C0894
:10133600B83D3D08B93D3908AF003808AE0037085A
:10134600AD003608AC0090319F20883120002B0874
:101356002100C30020002A082100C200200029081D
:101366002100C100200028082100C0000030BF0075
:101376000030BE000230BD005530BC0043082000DE
:10138600A300210042082000A200210041082000FD
:10139600A100210040082000A0000030A700003076
:1013A600A6000130A5003A30A4009B31CE23883137
:1013B60020002308AB002208AA002108A900200863
:1013C600A80021003F082000A30021003E082000BD
:1013D600A20021003D082000A10021003C082000B9
:1013E600A0000030A7000030A6009C30A5004030C9
:1013F600A4009B31CE23883120002308AF002208A9
:10140600AE002108AD002008AC0090319F20883145
:1014160020002B082100BB0020002A082100BA006A
:10142600200029082100B900200028082100B80062
:1014360000302000A3000030A2000030A10064307C
:10144600A00021003B082000A70021003A08200048
:10145600A600210039082000A50021003808200038
:10146600A4009B31CE238831200023082100BB0035
:10147600200022082100BA00200021082100B9001E
:10148600200020082100B80000302000AB0000300A
:10149600AA000030A9000E30A80021003B08200059
:1014A600A30021003A082000A200210039082000EC
:1014B600A100210038082000A0000030A70000305D
:1014C600A6000030A5000A30A4009B31CE23883147
:1014D60020002308AF002208AE002108AD00200836
:1014E600AC0090319F20883120002B08C1002A08CB
:1014F600C0002908BF002808BE003F08E3003E08D8
:10150600E2001430A2000030A3005D08F4005C087D
:10151600F3000A30F5000030F6009A31B622883121
:1015260074082000A5007308A4009C312F2488317C
:10153600200023082100CF00200022082100CE0031
:1015460020005D08B7005C08B600B736B60CB736A3
:10155600B60CB736B60C36082100CC00200037088A
:101566002100CD0005302000B6003608E900C52A66
:1015760069088400063004020318C52A9831043528
:10158600393E820003306802031C0800210061080E
:10159600803A2000B6004108803A36022100031D39
:1015A600E42A2000400821006002031DE42A2000EE
:1015B6003F0821005F02031DE42A20003E082100A7
:1015C6005E020318F62A200041082100E1002000EF
:1015D60040082100E00020003F082100DF00200035
:1015E6003E082100DE0020004108803AB6002100B6
:1015F6005D08803A20003602031D112B21005C088D
:1016060020004002031D112B21005B0820003F0231
:10161600031D112B21005A0820003E020318080062
:1016260041082100DD00200040082100DC002000E8
:101636003F082100DB0020003E082100DA000800F8
:1016460008002000DA01DB0100305B021D300319BF
:101656005A020318912B5B08B9005A08B800B8352E
:10166600B90D3808023EBA000030393DBB0066307D
:10167600BC002330BD003A083C0786003B083D3DD0
:101686008700403FBE00413FBF005B08C1005A08CB
:10169600C000C035C10D6630C2002330C30040080B
:1016A600420786004108433D8700403FC400413F52
:1016B600C5003F084502031D622B3E08440203187D
:1016C600912B5B08B9005A08B800B835B90D38082F
:1016D600023EBA000030393DBB006630BC00233004
:1016E600BD003A083C0786003B083D3D8700403F69
:1016F600BE00413FBF0037083F02031D842B36085A
:101706003E020318912B0130DA070030DB3D003032
:101716005B021D3003195A02031C2E2B00305B029C
:101726001D3003195A02031C9C2B1C30DA000030B2
:10173600DB005B08B9005A08B800B835B90D38089F
:10174600023EBA000030393DBB00A230BC00233057
:10175600BD003A083C0786003B083D3D8700403FF8
:10176600BE00413FBF003E08C6003F08C700C80193
:10177600C9015B08B9005A08B800B835B90DA230DE
:10178600BA002330BB0038083A07860039083B3DCB
:101796008700403FBC00413FBD003C08CE003D08ED
:1017A600CF00D001D1015B08B9005A08B800B8359E
:1017B600B90D3808023EBA000030393DBB0066302C
:1017C600BC002330BD003A083C0786003B083D3D7F
:1017D6008700403FBE00413FBF003E08CA003F08A9
:1017E600CB00CC01CD015B08B9005A08B800B8356A
:1017F600B90D6630BA002330BB0038083A078600B8
:1018060039083B3D8700403FBC00413FBD003C08D6
:10181600D2003D08D300D401D5013608B8003708F8
:10182600B900BA01BB015508803ABC003B08803AB2
:101836003C02031D282C3A085402031D282C3908A3
:101846005302031D282C38085202031C332C5A0855
:101856005B04031D332C4F08B7004E08B600080082
:101866005508803AB8004D08803A3802031D452CC9
:101876004C085402031D452C4B085302031D452CEE
:101886004A085202031C4C2C4F08B7004E08B600FB
:1018960008005209B8005309B9005409BA0055099D
:1018A600BB00B80A0319B90A0319BA0A0319BB0A15
:1018B6003608BC003708BD00BE01BF013C08B807AA
:1018C6003D08B93D3E08BA3D3F08BB3D3B08D9003F
:1018D6003A08D8003908D7003808D6004608B800B4
:1018E6004708B9004808BA004908BB004E09BC00C1
:1018F6004F09BD005009BE005109BF00BC0A0319BB
:10190600BD0A0319BE0A0319BF0A3C08B8073D08F9
:10191600B93D3E08BA3D3F08BB3D3B08A3003A0827
:10192600A2003908A1003808A0005908A7005808E5
:10193600A6005708A5005608A4009B31CE238B317C
:1019460020002308D9002208D8002108D700200843
:10195600D6004A08B8004B08B9004C08BA004D0832
:10196600BB005209BC005309BD005409BE0055090D
:10197600BF00BC0A0319BD0A0319BE0A0319BF0A30
:101986003C08B8073D08B93D3E08BA3D3F08BB3D97
:101996003B08AB003A08AA003908A9003808A80095
:1019A6005908AF005808AE005708AD005608AC00FD
:1019B60090319F208B3120002B08D9002A08D800AF
:1019C6002908D7002808D60056084E07B800570839
:1019D6004F3DB9005808503DBA005908513DBB006B
:1019E6003B08D9003A08D8003908D7003808D6008D
:1019F600D91F052D0030D9000030D8000030D7009F
:101A06000030D6005708B7005608B6000800000098
:101A1600AA302100EA006A083F00FF007F08210083
:101A2600EA006A083F00FF009A3147228D318B1782
:101A36000B1723009E12923138228D312F30F3007E
:101A46009830F4005C309A31F3228D315C309B3152
:101A560081238D315C3086002330870055300106A6
:101A6600031D3E2D5C308600233087004131AA30AD
:101A760001060319412D2000E901632D05302100DF
:101A8600EA006A082000E9005C30860023308700FF
:101A96004431403FE200413FE3005C3086002330A2
:101AA60087004831403F2100CC00413FCD005C30EB
:101AB6008600233087004631403FCE00413FCF00AD
:101AC60020006B1D592EFB302100EA006A08200019
:101AD600EB05F601F60A20302100EA006A08F70055
:101AE60006309E31A2268D3177082000E700760861
:101AF600E60003302100EA006A08F6002030EB0019
:101B06006B08F70005309E31A2268D31770821003B
:101B1600D5007608D4000330EA006A08F6002030C3
:101B2600EB006B08F70004309E31A2268D31770852
:101B36002000E5007608E4000130E536E40C890B68
:101B4600A02D03302100EA006A08F6002030EB00E1
:101B56006B08F70002309E31A2268D3177082100EE
:101B6600D3007608D2000130D336D20C890BB72DBC
:101B76000330EA006A08F6002030EB006B08F70035
:101B860007309E31A2268D3177082100D1007608D4
:101B9600D0000130D136D00C890BCD2D9431BF2425
:101BA6008D3120002E08EF002D08EE009131A8217E
:101BB6008D3120002E08ED002D08EC0000000530C8
:101BC60020006902031C112E963191268D312000CA
:101BD6006708AE006608AD0090313E208D312000CA
:101BE6002E08DF002D08DE005F08B7005E08B6008D
:101BF6008B3124238D31200037082100CB002000B3
:101C060036082100CA004A352000E00021004B0DAD
:101C16002000E1009231C9228D31592E8831ED2004
:101C26008D31053020006902031C592E5C30860078
:101C3600233087005530C03F5D3086002330870053
:101C4600AA3081005C308600233087004431620868
:101C5600C03F6308C13F5C308600233087004831AF
:101C660021004C08C03F4D08C13F5C308600233040
:101C7600870046314E08C03F4F08C13F9C319B2428
:101C86008D3155302100EA006A082300A000AA30F1
:101C96002100EA006A082300A10002302100EA00C0
:101CA6006A08F300A0309B31A7238D312000EB1D7D
:101CB600622EF7302100EA006A082000EB056B1C53
:101CC600952EFE302100EA006A082000EB0579080F
:101CD6000319922EA030A0000130A1002030A200EE
:101CE6000130A30079082100EA00EB016A08200010
:101CF600A40021006B082000A5009A31D4228D3162
:101D060079082100EA00EB016A082000C0002100E2
:101D16006B082000C100A0309D31F8258D31993126
:101D2600A7218D310000632D2000BD00BE01BF013B
:101D3600B7013D08B3003308BC005C308600233091
:101D4600870042313C088400013085000008010606
:101D56000319B42E3C088600013087000108031DD4
:101D660008005C308600233087004231FD300106D2
:101D7600031DC42E3C0886000130870001080319A4
:101D860008003C08023E8600013087000108B300C7
:101D9600B4013308BE003408BF000830BE35BF0D9D
:101DA600890BD12E3C08033E8600013087000108CE
:101DB600B300B4013308BE043408BF04FF303E0547
:101DC600BE0000303F05BF0002303E063F04031D43
:101DD600FA2E3D08053E8600013087000108B30053
:101DE6005E3086002330870033088100C32F03301E
:101DF6003E063F04031D182F3D08043E86000130B1
:101E060087000108B3005D30860023308700330861
:101E160081005C308600233087003D08053E840043
:101E2600013085000008C03FC32F00303F0210304C
:101E360003193E02031C080000303F024C30031910
:101E46003E02031808001030BE020030BF3B3E1CA5
:101E5600C52F3D08043E8600013087000108B30007
:101E6600B4013308B8003408B9000830B835B90DE4
:101E7600890B392F3D08053E860001308700010891
:101E8600B300B4013308B8043408B9043F08B400F9
:101E96003E08B300B436B30CB335B40DA230B5006A
:101EA6002330B6003308350786003408363D8700F0
:101EB6003808C03F3908C13F3F08B4003E08B300A8
:101EC600B436B30CB335B40D6630B5002330B60066
:101ED6003308350786003408363D87005E08C03F64
:101EE6005F08C13F3D0A86000130870026300106A3
:101EF600031DC32F3F08B4003E08B300B436B30C2D
:101F06003308013EBA000030343DBB0000303B02CE
:101F16001E3003193A020318C32F3B08B4003A08CF
:101F2600B300B335B40DA230B5002330B600330884
:101F3600350786003408363D87003808C03F390823
:101F4600C13F3B08B4003A08B300B335B40D663060
:101F5600B5002330B6003308350786003408363D11
:101F660087005E08C03F5F08C13F0130BA070030F6
:101F7600BB3D00303B021E3003193A02031C902F72
:101F8600B701B70A37080319CB2F9C319B248E3132
:101F960020003C088600013087000108031908006C
:101FA6005C3086002330870042310108B3003D08CB
:101FB600860001308700330881003D08A800013003
:101FC600A9000630AA000030AB009B31FE238E31FB
:101FD60008302000B3003308F3003D089B31A723E7
:101FE6000800FE0012001E000130FE020030FF3B1A
:0A1FF6007F087E0403190034F52F64
:1020020000302000A3001F30A40000308B1B0130E1
:10201200A2008B13A501A60176082602031D132830
:102022007508250203183828230823009100200090
:10203200240823009200151315140000000020004C
:1020420025087307A0002608743DA1002008860019
:102052002108870023001308810001302000A30714
:102062000030A43D0130A5070030A63D0D28220C0A
:10207200031C8B1303188B17080000302000B200DA
:102082000030B1000030B0000030AF00B3010530C5
:102092003302031870283335023EAC3E86008701B6
:1020A2003335AC3E84008501403F803F413F813F54
:1020B2003335AC3E86008701403FF400413FF500D6
:1020C2007408AF077508B03D0030B13DB23D013034
:1020D200F4007408B30705303302031C4C2833356F
:1020E200AC3E860087012D08C03F2E08C13F2D0857
:1020F200AF072E08B03D0030B13DB23D0030A30025
:102102000030A2000030A1000630A0003208A70073
:102112003108A6003008A5002F08A4009D31A5258E
:1021220020002308B2002208B1002108B0002008D4
:10213200AF003008AE002F08AD0008002000B1014A
:10214200AB1FB028A809A909AA09AB09A80A031953
:10215200A90A0319AA0A0319AB0AB101B10AAF1FEE
:10216200C128AC09AD09AE09AF09AC0A0319AD0A21
:102172000319AE0A0319AF0A0130F7007708B10656
:102182000030B5000030B4000030B3000030B200BF
:102192002B082A042904280403190A29B001B00AC9
:1021A200AB1BDF280130A835A90DAA0DAB0D890B99
:1021B200D4280130F7007708B007D1280130B235B2
:1021C200B30DB40DB50D890BE0282B082F02031DAA
:1021D200F4282A082E02031DF42829082D02031DC3
:1021E200F42828082C02031CFF282808AC0229081E
:1021F200AD3B2A08AE3B2B08AF3B32140130AB3665
:10220200AA0CA90CA80C890B00290130B002031DED
:10221200DF28310803191829B209B309B409B5092D
:10222200B20A0319B30A0319B40A0319B50A350825
:10223200AB003408AA003308A9003208A80008003D
:102242002000B5003508F7007708B6005C3086003C
:1022520023308700423136088400013085000008AF
:102262000106031D080036088600013087000108B8
:102272000319080036088600013087000130433F09
:10228200B30036088600013087000130453FB400B4
:1022920003303406031D080004303306031D080012
:1022A2003608063E8400013085000008F700360833
:1022B200073E8400013085005C30860023308700B1
:1022C20044310008C03F7708C13F3608083E840009
:1022D200013085000008F7003608093E840001300D
:1022E20085005C3086002330870046310008C03FFD
:1022F2007708C13F36080A3E840001308500000895
:10230200F70036080B3E8400013085005C30860001
:102312002330870048310008C03F7708C13F9C3115
:102322009B24913120003508A8000130A900063015
:10233200AA000030AB009B31FE2391310830F70038
:102342007708F300200035089B31A72308000030EE
:102352002000BC000030BB002E30BA00E030B900D3
:10236200210054082000A000210055082000A100EF
:10237200A201A3013C08A7003B08A6003A08A50059
:102382003908A4009B31CE23913120002308BC00E0
:102392002208BB002108BA002008B9006608B5006F
:1023A2006708B600B701B8013808A3003708A200D1
:1023B2003608A1003508A0003C08A7003B08A6008B
:1023C2003A08A5003908A4009D31A52591312000C5
:1023D2002308BC002208BB002108BA002008B9006B
:1023E2003C08031D052A3B08031D052AD03039028B
:1023F20007303A3B0318052A0030BC000030BB000E
:102402000730BA00D030B9003C08031D112A3B083E
:10241200031D112AA930390261303A3B031C192AE3
:102422000030BC000030BB006130BA00A830B900F7
:102432001830B100FC30B200FF30B300FF30B400FE
:102442003908B1073A08B23D3B08B33D3C08B43DF8
:102452003408BC003308BB003208BA003108B900A6
:102462003908AD003A08AE00AF01B00108005C3097
:10247200F3002330F4008430F5000030F600903190
:10248200012092315C302000A8002330A900843062
:10249200AA000030AB009C31642492312000B300CA
:1024A200B4013308B9003408BA0039083A04031DEC
:1024B20008005C30860023308700FF30C03F5D306B
:1024C200860023308700FF3081005E308600233093
:1024D2008700FF308100BB01BC0100303C021E308E
:1024E20003193B020318C62A3C08F4003B08F30018
:1024F200D030F5000230F6009A31B62292317308DC
:10250200003E2000B3001930743DB4003C08B60010
:102512003B08B500B535B60D6630B7002330B800BC
:102522003508370786003608383D87003308C03F34
:102532003408C13F3C08F4003B08F3004D30F5007D
:102542000130F6009A31B622923120003C08B400E4
:102552003B08B300B335B40DA230B5002330B6004A
:102562003308350786003408363D87007308C03FBC
:102572007408C13F0130BB070030BC3D00303C0253
:102582001E3003193B02031C752A9C319B24080050
:10259200210050092000A900210051092000AA00B1
:1025A200A90A0319AA0A60082907AD0061082A3D91
:1025B200AE009630F3000030F4002E08F6002D082D
:1025C200F5009D315325923174082000AC00730848
:1025D200AB002B082C04031D0F2B2E08803AA900F8
:1025E20080302902031DF72A11302D02031CFE2A16
:1025F20001302000AB000030AC0020002E08803AF1
:10260200A9007F302902031D082BF0302D02031888
:102612000F2BFF302000AB00FF30AC0020002B0856
:1026220021004407C40020002C082100453DC500BC
:102632000A302000A2000030A3006108A500600853
:10264200A4009C312F24923120002308AE002208DE
:10265200AD002100440820002D07AD0021004508EF
:1026620020002E3DAE002E08803AA90086302902B5
:10267200031D3D2B2D302D02031C442B2C3020003A
:10268200AD000630AE0020002E08803AA90080304E
:102692002902031D4E2B05302D020318552B053040
:1026A2002000AD000030AE0020002E08A3002D084F
:1026B200A2009B315D2308002000A501A601AB0109
:1026C200AC010030A9001F30AA0000308B1B013082
:1026D200A2007608A1007508A0000530A136A00C62
:1026E200890B6F2B2008A5002108A6001F30750555
:1026F200A00000307605A100200821040319852BD3
:102702000130A5070030A63D8B13A701A801A30144
:10271200A40126082402031D902B25082302031876
:10272200F12B23001513151595162000AB01AC01F2
:1027320000302C02203003192B020318E92B290840
:102742002300910020002A0823009200760820002E
:102752002802031DAE2B750827020318BA2B27087F
:10276200730786002808743D870001082300930040
:10277200BC2B2300930101302000A7070030A83DA5
:10278200230094011F3020002B05A00000302C05EF
:10279200A1001F3020062104031DD12B2300951216
:1027A200553023009600AA309600951400000000D0
:1027B20001302000A9070030AA3D0130AB070030EC
:1027C200AC3D00302C02203003192B02031CA02B3D
:1027D2002300151101302000A3070030A43D8A2BED
:1027E200220C031C8B1303188B1708002000BD005A
:1027F200B701B801BC013D08B3003308BB005C302F
:1028020086002330870042313B0884000130850076
:1028120000080106031D08003B08860001308700FE
:102822000108031908003B08023E860001308700B8
:102832000108B300B4013308B7003408B800083007
:10284200B735B80D890B212C3B08033E86000130B9
:1028520087000108B300B4013308B7043408B80490
:102862003808B6003708B5003B08860001308700FB
:102872000130453FBC000310BC0D21303C02031C5B
:10288200462C2030B3003308BC00B901BA013C0821
:10289200B300B40134083A02031D512C3308390243
:1028A2000318822C3608F4003508F3003E30B300DA
:1028B2003308F50095319825933120003F08B30085
:1028C2003908033E3D07B400340886000130870012
:1028D200330881003E08B3003908043E3D07B400C6
:1028E2003408860001308700330881003908023E2F
:1028F200B90000303A3DBA000130B5070030B63DAC
:10290200482C5C3086002330870042310108B30036
:102912003D08860001308700330881000330B30090
:102922003D0A860001308700330881003C08B3006D
:102932003D08023E860001308700330881000330E3
:10294200B3003308BC073D08A8000130A9003C08C9
:10295200B300B4013308AA003408AB009B31FE2354
:10296200933102302000B3003308BC073C08B300A7
:102972003308F3003D089B31A723080000302000F4
:10298200BC000430BB009330BA00E030B9006408E8
:10299200A0006508A100A201A3013C08A7003B0812
:1029A200A6003A08A5003908A4009B31CE23943131
:1029B20020002308BC002208BB002108BA0020081E
:1029C200B900210052082000BD0021005308200058
:1029D200BE00BF01C0014008A3003F08A2003E089C
:1029E200A1003D08A0000030A7000030A6000C3076
:1029F200A5001C30A4009B31CE2394312000230873
:102A0200C0002208BF002108BE002008BD0000301F
:102A1200A3000030A2000030A1006430A0004008F2
:102A2200A7003F08A6003E08A5003D08A4009D316E
:102A3200A525943120002308C0002208BF002108E8
:102A4200BE002008BD003D08B1003E08B2003F08AC
:102A5200B3004008B4006408B5006508B600B701C9
:102A6200B801B509B609B709B809B50A0319B60A12
:102A72000319B70A0319B80A3508B1073608B23D77
:102A82003708B33D3808B43D3408C0003308BF00EE
:102A92003208BE003108BD004008A3003F08A20072
:102AA2003E08A1003D08A0003C08A7003B08A60084
:102AB2003A08A5003908A4009D31A52594312000CB
:102AC2002308C0002208BF002108BE002008BD0064
:102AD2004008031D7D2D3F08031D7D2DD0303D0292
:102AE20007303E3B03187D2D0030C0000030BF0090
:102AF2000730BE00D030BD004008031D892D3F08BD
:102B0200031D892DA9303D0261303E3B031C912DEE
:102B12000030C0000030BF006130BE00A830BD00F0
:102B22003D08AD003E08AE00AF01B0010800200034
:102B3200A401A5017308A0002008A600492E75086B
:102B4200860087014030C03F0030C13F562E5C30C6
:102B520086002330870042310108A000A1017508D8
:102B6200860087012008C03F2108C13F562E5C30F5
:102B720084002330850001310008A0005C3084000D
:102B8200233085007508860087010008C03F2008B1
:102B9200C13F562E5C3086002330870044317508D1
:102BA20084008501403F803F413F813F562E5C308B
:102BB2008600233087004631750884008501403F36
:102BC200803F413F813F562E5C3086002330870094
:102BD2004831750884008501403F803F413F813F75
:102BE200562E7508860087016608C03F6708C13FF8
:102BF200562E75088600870121005408C03F5508EB
:102C0200C13F562E75088600870120006408C03F28
:102C12006508C13F562E75088600870121005208BB
:102C2200C03F5308C13F562E750886008701200019
:102C32006E08C03F6F08C13F562E75088600870197
:102C42006C08C03F6D08C13F562E7508860087018B
:102C520021005008C03F5108C13F562E750886001A
:102C6200870121004A08C03F4B08C13F562E750814
:102C72008600870120006008C03F6108C13F562ED0
:102C8200750886008701AA30C03F5530C13F562ED5
:102C92002608FF3E031C412E84000F300402031855
:102CA200412E98310435003E820010302000260269
:102CB200031C08004C302602031808001030A6023C
:102CC200261C7A2E2636A000A101A035A10DA23025
:102CD200A2002330A3002008220786002108233DFA
:102CE2008700750884008501403F803F413F813F56
:102CF20008002636A000A101A035A10D6630A20071
:102D02002330A3002008220786002108233D8700E4
:102D1200750884008501403F803F413F813F0800A4
:102D220020006E08B6006F08B700B801B901B609F5
:102D3200B709B809B909B60A0319B70A0319B80AD3
:102D42000319B90A6C08BA006D08BB00BC01BD01C9
:102D52003A08B6073B08B73D3C08B83D3D08B93DC7
:102D62003908C9003808C8003708C7003608C60045
:102D7200D030B6000730B7000030B8000030B900DC
:102D82004609BA004709BB004809BC004909BD0011
:102D9200BA0A0319BB0A0319BC0A0319BD0A3A0885
:102DA200B6073B08B73D3C08B83D3D08B93D390878
:102DB200C9003808C8003708C7003608C600043002
:102DC200A03E86008701403F2100A800413FA900A4
:102DD200423FAA00433FAB002308A7002208A600F7
:102DE2002108A5002008A400200049082100A30012
:102DF200200048082100A200200047082100A1006D
:102E0200200046082100A00020082000B600210072
:102E120021082000B700210022082000B80021006C
:102E220023082000B900210024092000BA00210053
:102E320025092000BB00210026092000BC0021003A
:102E420027092000BD00BA0A0319BB0A0319BC0AEC
:102E52000319BD0A3A08B6073B08B73D3C08B83D1E
:102E62003D08B93D3908A3003808A2003708A1007F
:102E72003608A0006208A4006308A500A601A70105
:102E82009B31CE23963120002308C1002208C000C6
:102E92002108BF002008BE0021004E082000A80023
:102EA20021004F082000A900AA01AB016208A0007E
:102EB2006308A100A201A301210023082000A700AA
:102EC200210022082000A600210021082000A500E0
:102ED200210020082000A4009B31CE23963120003F
:102EE2002308AF002208AE002108AD002008AC0084
:102EF20090319F20963120002B08C5002A08C4007B
:102F02002908C3002808C2003E084207B6003F084D
:102F1200433DB7004008443DB8004108453DB90073
:102F22003908C9003808C8003708C7003608C60083
:102F32000030AB000030AA002730A9001030A800F2
:102F42004908AF004808AE004708AD004608AC008B
:102F520090319F20963120002B08C9002A08C80012
:102F62002908C7002808C600210062082000C607F9
:102F7200210063082000C73D0030C83DC93D000064
:102F82002000C91BD82F4908031DD02F4808031D54
:102F9200D02FB13046020430473B031CD82F0030FB
:102FA200C9000030C8000430C700B030C600C91BD9
:102FB200E72F4908031DEF2F4808031DEF2F47088D
:102FC200031DEF2F053046020318EF2F0030C90012
:102FD2000030C8000030C7000530C6004708210095
:102FE200E300200046082100E20063082000A3005D
:102FF200210062082000A2009B313923080095318C
:10300200A02D9531A82D9531B82D9531CB2D953127
:10301200D82D9531E52D9531F22D9531FA2D963138
:10302200032E96310C2E9631152E96311E2E963188
:10303200262E96312F2E9631382E303431343234BA
:103042003334343435343634373438343934413423
:1030520042344334443445344634003456344534DF
:10306200523431342E34303430340D340A34003496
:103072008831FE288831FE288931002989311729B3
:08308200893142298B31232B17
:1032FA0020001C15080081302200970008001630B3
:10330A002100970008001034273410342734740839
:10331A002100D9007308D8000800013021009D005F
:10332A0063309E009F019B019C010800640080019C
:10333A0001310130FE020030FF3B7F087E04031991
:10334A0000349C29F90123001D122100911220004A
:10335A00911223001D1621009116FA01080040342B
:10336A000D3403340034C034F234FC34FF341434E2
:10337A000034143400340534003405340034210098
:10338A0091121112083023009F0090309D002430C2
:10339A009E00A0309B0001309C0021009116200065
:1033AA00111208004B3020009C007C309B009A01CF
:1033BA009110210091140030F3000030F40099318B
:1033CA008C21993199317D210800F40021009D1842
:1033DA00EB297408F300F30DF30D1D087306833906
:1033EA0073069D001D1463309E009F019B019C0182
:1033FA000800F5008030F3007308F4000430750209
:10340A00031C0B2A0330F3007308F5007508F30058
:10341A007308F404740822009700171B0800122A84
:10342A0001303B009C009D019E019F01A001920179
:10343A00023091009401A0309300063096003F308C
:10344A0095009801013097009A01990190309B00EC
:10345A00080001303B00AC00AD01AE01AF01B00184
:10346A00A2010230A100A401A030A3000630A600E8
:10347A003F30A500A8010130A700AA01A901903098
:10348A00AB0008009C31D2249A31883103209A314A
:10349A00993184219A31993180219A319A311522B0
:1034AA009A319A312E229A31993192219A3199314F
:1034BA00D7219A319931C421080000308B1B013081
:1034CA00F5008B13730823009100740892001513FA
:1034DA001516151555309600AA3096009514000059
:1034EA00000023001511750C031C8B1303188B178E
:1034FA0008003B001408F500F60175082000A0003A
:10350A007608A1000830A035A10D890B882A3B0056
:10351A001308F500F60175082000A0047608A10436
:10352A002108F4002008F30008003B002408F500F5
:10353A00F60175082000A0007608A1000830A03521
:10354A00A10D890BA42A3B002308F500F601750892
:10355A002000A0047608A1042108F4002008F30042
:10356A0008002000A001A101731CC02A75082000D0
:10357A00A0077608A13D0130F535F60D890BC12A61
:10358A000130F436F30C890BC62A73087404031D40
:10359A00B92A20002108F4002008F30008002000BE
:1035AA00240825040319080020002208860023089D
:1035BA0087000108F30020088600210887007308A5
:1035CA0081000130A2070030A33D0130A00700307E
:1035DA00A13D0130A4020030A53BD42AF6007308AD
:1035EA0084007408850012000319102B73088400E4
:1035FA00740885000008F500760886000130870007
:10360A00750881000130F3070030F43D0130F50000
:10361A007508F607F42A76088600013087008101CA
:10362A0008000030F3001F30F4009A3162229B3107
:10363A002030F3001F30F4009A3162229B3140306F
:10364A00F3001F30F4009A3162229B316030F3009C
:10365A001F30F4009A3162229B318030F3001F3010
:10366A00F4009A3162220800200023082100E700B2
:10367A00200022082100E6009A317E229B3174083C
:10368A002000A5007308A40023082506031D4F2B5C
:10369A0022082406031908003B009B132000220875
:1036AA003B009300200023083B0094009B1708006E
:1036BA00200023082100E900200022082100E80058
:1036CA009A319A229B3174082000A5007308A4003D
:1036DA0023082506031D732B220824060319080054
:1036EA003B00AB13200022083B00A3002000230864
:1036FA003B00A400AB170800F40023009E1E9E1690
:10370A00740886000130870001080319A32B2000E2
:10371A00111E8C2B000000000000000074088600B7
:10372A0001308700010823009A000130F300730872
:10373A00F4070000000000000000852B2000111A89
:10374A000800A32BF60023009E1E9E16F50173089F
:10375A0075020318CA2B2000111EB02B00000000AE
:10376A000000000075087607F4007408860001302E
:10377A008700010823009A000000000000000000F2
:10378A000130F4007408F507AC2B2000111A080068
:10379A00CA2B0030F6000030F5000030F40000308B
:1037AA00F3002000201CE12B2408F3072508F43D30
:1037BA002608F53D2708F63D0130A435A50DA60DCE
:1037CA00A70D890BE22B0130A336A20CA10CA00C89
:1037DA00890BE92B2308220421042004031DD62B7C
:1037EA007608A3007508A2007408A1007308A00057
:1037FA00080020002908F4002808F3002B08F60026
:10380A002A08F5009E314C2674082000B20073087D
:10381A00B1002A082807AC002B08293DAD002C0866
:10382A0086002D088700310881003208AC002A087A
:10383A00013EAD0000302B3DAE002D082807AF0039
:10384A002E08293DB0002F088600300887002C0872
:10385A00810008002000A601A701220823040319F9
:10386A005F2CA801A80AA31B442C0130A235A30D82
:10387A00890B3B2C0130F7007708A807382C013058
:10388A00A635A70D890B452C23082502031D4F2CAD
:10389A0022082402031C562C2208A4022308A53B52
:1038AA0026140130A336A20C890B572C0130A8022A
:1038BA00031D442C2708A3002608A2000800303064
:1038CA002000A0000030A1002A082807AC002B081D
:1038DA00293DAD002C08FE3EA200FF302D3DA3007D
:1038EA000230A4000030A5009A31D4229C31200075
:1038FA002908F4002808F3002A08FE3EF500FF30E4
:10390A002B3DF6009E314C269C3174082000AF00F6
:10391A007308AE002F083106031D952C2E083006B9
:10392A000319992C00300800013008005C3020008F
:10393A00A8002330A9008230AA000030AB009B31D6
:10394A00FE239C319B3116239C315C30F3002330DB
:10395A00F4008430F5000030F60093315D235C30CA
:10396A008600233087004431403F2000E200413F77
:10397A00E3005C308600233087004631403F210057
:10398A00CE00413FCF005C308600233087004831AB
:10399A00403FCC00413FCD00080022008C018E013F
:1039AA000F3021008C001F308E000F3023008E0054
:1039BA0017308C003B3024008C0030308E00210000
:1039CA00951325008C018E0100308B1B0130F3000A
:1039DA008B1355303C008F00AA308F000F1015084A
:1039EA00E039143895003D001408F0390438940081
:1039FA001508F039033895002508F0390938A5006B
:103A0A0055303C008F00AA308F000F14731C0F2D05
:103A1A008B1708008B1308002000B4003408F70045
:103A2A007708B500350886000130870001080319B8
:103A3A0008005C3086002330870042310108F70015
:103A4A00350886000130870077088100330803199A
:103A5A00362D8030F700350A860001308700770856
:103A6A0081073308F7003508023E860001308700D7
:103A7A00770881003408A8000130A9000330AA00A1
:103A8A000030AB009B31FE239D310530F7007708EB
:103A9A00F300200034089B31A72308002000A1016D
:103AAA00F41F5E2DF309F409F30A0319F40AA101BC
:103ABA00A10AF61F692DF509F609F50A0319F60A8E
:103ACA000130F7007708A106A201A3017308740464
:103ADA000319982DA001A00AF41B7D2D0130F3359E
:103AEA00F40D890B742D0130F7007708A007712DAA
:103AFA000130A235A30D890B7E2D74087602031DB1
:103B0A00882D73087502031C8F2D7308F50274083B
:103B1A00F63B22140130F436F30C890B902D013058
:103B2A00A002031D7D2D21080319A02DA209A309B6
:103B3A00A20A0319A30A2308F4002208F3000800C2
:103B4A0000302000AB000030AA000030A90000308D
:103B5A00A80023082204210420040319EF2DAC0134
:103B6A00AC0AA31BC42D0130A035A10DA20DA30DD3
:103B7A00890BB92D0130F3007308AC07B62D01305B
:103B8A00A835A90DAA0DAB0D890BC52D230827024F
:103B9A00031DD92D22082602031DD92D210825022D
:103BAA00031DD92D20082402031CE42D2008A40299
:103BBA002108A53B2208A63B2308A73B281401306D
:103BCA00A336A20CA10CA00C890BE52D0130AC0286
:103BDA00031DC42D2B08A3002A08A2002908A1004E
:103BEA002808A00008002000C500C3014508C2003B
:103BFA004208C4005C308600233087004231440802
:103C0A00840001308500000801060319132E4408B8
:103C1A008600013087000108031D08004508A80036
:103C2A000130A9004108AB004008AA009C31642475
:103C3A009D31003A03190800382E200045089331B7
:103C4A00F7230800200045088E3197260800200037
:103C5A0045089131212108002000B301B30A450823
:103C6A009D31112508002000440A86000130870092
:103C7A000108033A0319222E053A0319272E163A88
:103C8A0003192C2E363A0319272E312E0800FF303D
:103C9A002000A600FF30A700A201A3017608230294
:103CAA00031D592E7508220203189D2E73088600DB
:103CBA007408870026080106A6002708A700013015
:103CCA00F3070030F43DA401A501003025020830B5
:103CDA00031924020318982E261C832E2708A100F4
:103CEA002608A000A136A00C2008A6002108A700DB
:103CFA0001302606A600A03027068C2E2708A10030
:103D0A002608A000A136A00C2008A6002108A700BA
:103D1A000130A4070030A53D003025020830031900
:103D2A002402031C712E0130A2070030A33D532E3A
:103D3A002708F4002608F30008002000A300A601C3
:103D4A00A701A801A90176089931FE219E31200018
:103D5A0023089931EA219E314230890BB22E003272
:103D6A0021009D149D18B72E41307702031CC22EE4
:103D7A0040302000A0002008F7002000A401A5017F
:103D8A007708A000A10121082502031DCE2E2008D4
:103D9A0024020318FB2E21009D149D18D22E000028
:103DAA0021001C082000A000A1012008A800210869
:103DBA00A9000230A835A90D890BDF2E21001B08A6
:103DCA002000A0000630A036890BE82E2008A100AA
:103DDA00A2012108A8042208A9042808A60729087C
:103DEA00A73D0130A4070030A53DC52E2708F700DE
:063DFA002608F600080097
:00000001FF
