:020000040000FA
:0410000088316728A4
:101008007E1488310B1F36282100911C36282000B9
:10101800911C36289110EB140130F0007008E90794
:101028000130F0007008E80705306902031C1E282B
:10103800E9016B1532306802031C2428E801EB151E
:101048007C08031931280130F0007008FC070630CD
:101058007C02031C31286B14FC0101302100CC07F1
:101068000030CD3D0B1F5E282100911E5E28200018
:10107800911E5E28911223009D1C44281D121D16E6
:101088001908F00070082000E70020306A020318F1
:101098005A286708F0006A08403E86000130870039
:1010A800700881000130F0007008EA070130F00094
:1010B8007008FC002000111A1112931A9312131AC7
:1010C80013127E100900883169280130840090309D
:1010D80085006C308600003087000030FF00043047
:1010E8009D3112258831F53084009C308500CE3042
:1010F8008600003087000030FF0008309D3112253F
:1011080088315C308400233085008430FE00003054
:10111800FF009D3106258831FC01473084000030EE
:1011280085002530FE000030FF009D3106258831FE
:10113800A0308400003085002E30FE000030FF0013
:101148009D310625883120308400013085004030EB
:10115800FE000030FF009D3106257E1020008D31F5
:10116800722D2000C6011D304602031818294608B2
:10117800B400B501B435B50D3408023EB6000030F0
:10118800353DB7006630B8002330B9003608380757
:1011980086003708393D8700403FBA00413FBB0011
:1011A8004608BC00BD01BC35BD0D6630BE0023300D
:1011B800BF003C083E0786003D083F3D8700403F92
:1011C800C000413FC1003B084102031DED283A0819
:1011D8004002031818294608B400B501B435B50D06
:1011E8003408023EB6000030353DB7006630B8001E
:1011F8002330B9003608380786003708393D87009C
:10120800403FBA00413FBB0033083B02031D0E2993
:1012180032083A02031818290130B4003408C60706
:101228001D304602031CBB281D304602031C202922
:101238001C30B4003408C6004608B400B501B43503
:10124800B50D3408023EB6000030353DB700A23077
:10125800B8002330B9003608380786003708393D0A
:101268008700403FBA00413FBB003A082100C00058
:1012780020003B082100C100C201C301200046082C
:10128800B400B501B435B50DA230B6002330B700AF
:101298003408360786003508373D8700403FB800D8
:1012A800413FB9003808CF003908D000D101D20138
:1012B8004608B400B501B435B50D3408023EB60091
:1012C8000030353DB7006630B8002330B900360825
:1012D800380786003708393D8700403FBA00413F4C
:1012E800BB003A082100BC0020003B082100BD00DB
:1012F800BE01BF0120004608B400B501B435B50DE4
:101308006630B6002330B700340836078600350843
:10131800373D8700403FB800413FB9003808CB004F
:101328003908CC00CD01CE013208B4003308B5002D
:10133800B601B7014E08803AB8003708803A38023B
:10134800031DB02936084D02031DB02935084C028B
:10135800031DB02934084B02031CBA294608031D93
:10136800BA295008B3004F08B20008004E08803A66
:10137800B40021003F08803A20003402031DD4291C
:1013880021003E0820004D02031DD42921003D08FC
:1013980020004C02031DD42921003C0820004B02E8
:1013A800031CDB295008B3004F08B20008004B09A2
:1013B800B4004C09B5004D09B6004E09B700B40A8F
:1013C8000319B50A0319B60A0319B70A3208B8008F
:1013D8003308B900BA01BB013808B4073908B53D6C
:1013E8003A08B63D3B08B73D3708C5003608C40083
:1013F8003508C3003408C200210040082000B400AA
:10140800210041082000B500210042082000B60054
:10141800210043082000B7004F09B8005009B9005F
:101428005109BA005209BB00B80A0319B90A0319CD
:10143800BA0A0319BB0A3808B4073908B53D3A088F
:10144800B63D3B08B73D3708F4003608F3003508C9
:10145800F2003408F1004508F8004408F700430892
:10146800F6004208F5009E31CE2688317408200027
:10147800C5007308C4007208C3007108C2002100C7
:101488003C082000B40021003D082000B5002100E0
:101498003E082000B60021003F082000B7004B0995
:1014A800B8004C09B9004D09BA004E09BB00B80A8A
:1014B8000319B90A0319BA0A0319BB0A3808B40789
:1014C8003908B53D3A08B63D3B08B73D3708A7008F
:1014D8003608A6003508A5003408A4004508AB0066
:1014E8004408AA004308A9004208A8008F317C27B5
:1014F800883120002708C5002608C4002508C30035
:101508002408C20042084F07B4004308503DB50004
:101518004408513DB6004508523DB7003708C5009C
:101528003608C4003508C3003408C200C51FA42A01
:101538000030C5000030C4000030C3000030C200D5
:101548004308B3004208B200080020006E08B20049
:101558006F08B300B401B501B209B309B409B509FC
:10156800B20A0319B30A0319B40A0319B50A6C08B5
:10157800B6006D08B700B801B9013608B2073708D8
:10158800B33D3808B43D3908B53D3508BD003408C9
:10159800BC003308BB003208BA00D030B2000730B4
:1015A800B3000030B4000030B5003A09B6003B097A
:1015B800B7003C09B8003D09B900B60A0319B70AD3
:1015C8000319B80A0319B90A3608B2073708B33D30
:1015D8003808B43D3908B53D3508BD003408BC00AD
:1015E8003308BB003208BA000430A03E86008701E9
:1015F800403F2100A800413FA900423FAA00433FC5
:10160800AB002308A7002208A6002108A50020088F
:10161800A40020003D082100A30020003C08210070
:10162800A20020003B082100A10020003A08210068
:10163800A00020082000B200210021082000B300EB
:10164800210022082000B400210023082000B50052
:10165800210024092000B600210025092000B70038
:10166800210026092000B800210027092000B90020
:10167800B60A0319B70A0319B80A0319B90A3608CA
:10168800B2073708B33D3808B43D3908B53D3508C9
:10169800F4003408F3003308F2003208F100570868
:1016A800F5005808F600F701F8019E31CE268A3178
:1016B80074082000CE007308CD007208CC007108B1
:1016C800CB0021004A082000A40021004B0820007C
:1016D800A500A601A7015708F1005808F200F30178
:1016E800F40121002308F8002208F7002108F60079
:1016F8002008F5009E31CE268A3174082000AB0000
:101708007308AA007208A9007108A8008F317C2705
:101718008A31200027082100BF0020002608210068
:10172800BE00200025082100BD002000240821005B
:10173800BC0020004B0821003C072000B2004C08E8
:1017480021003D3D2000B3004D0821003E3D200012
:10175800B4004E0821003F3D2000B5003508BD000B
:101768003408BC003308BB003208BA000030A700B8
:101778000030A6002730A5001030A4003D08AB00BB
:101788003C08AA003B08A9003A08A8008F317C272A
:101798008A3120002708BD002608BC002508BB00A8
:1017A8002408BA0021004E082000BA0721004F087B
:1017B8002000BB3D0030BC3DBD3D00002000BD1BEE
:1017C800F92B3D08031DF12B3C08031DF12BB1300B
:1017D8003A0204303B3B031CF92B0030BD000030BB
:1017E800BC000430BB00B030BA00BD1B082C3D085B
:1017F800031D102C3C08031D102C3B08031D102C46
:1018080005303A020318102C0030BD000030BC002F
:101818000030BB000530BA003B082100CF00200093
:101828003A082100CE004F08F8004E08F7009E3114
:10183800252608002000B500B601B701B00135081B
:10184800AC002C08B4005C3086002330870042319D
:1018580034088400013085000008010603193B2C78
:1018680034088600013087000108031D08005C3039
:101878008600233087004231FD300106031D4B2CC2
:10188800340886000130870001080319080034086D
:10189800023E8600013087000108AC00AD012C082B
:1018A800B6002D08B7000830B635B70D890B582C8F
:1018B8003408033E8600013087000108AC00AD0102
:1018C8002C08B6042D08B704FF303605B6000030E2
:1018D8003705B700023036063704031D812C35085A
:1018E800053E8600013087000108AC005E308600A6
:1018F800233087002C088100412D03303606370439
:10190800031D9F2C3508043E86000130870001081E
:10191800AC005D308600233087002C0881005C30E5
:101928008600233087003508053E84000130850095
:101938000008C03F412D003037021030031936022D
:10194800031C0800003037024C3003193602031814
:1019580008001030B6020030B73B361C432D35085E
:10196800043E8600013087000108AC00AD012C0858
:10197800B1002D08B2000830B135B20D890BC02C6A
:101988003508053E8600013087000108AC00AD012E
:101998002C08B1042D08B2043708AD003608AC0095
:1019A800AD36AC0CAC35AD0DA230AE002330AF0077
:1019B8002C082E0786002D082F3D87003108C03FD0
:1019C8003208C13F3708AD003608AC00AD36AC0C64
:1019D800AC35AD0D6630AE002330AF002C082E07B5
:1019E80086002D082F3D87005308C03F5408C13F8B
:1019F800350A86000130870026300106031D412D77
:101A08003708AD003608AC00AD36AC0C2C08013EEA
:101A1800AE002E08B3001E3033020318412D3308E0
:101A2800AC00AD01AC35AD0DA230AE002330AF0037
:101A38002C082E0786002D082F3D87003108C03F4F
:101A48003208C13F3308AC00AD01AC35AD0D66308E
:101A5800AE002330AF002C082E0786002D082F3D3E
:101A680087005308C03F5408C13F0130AC002C0820
:101A7800B3071E303302031C132DB001B00A30081F
:101A88000319492D903193208C31200034088600A9
:101A9800013087000108031908005C3086002330F4
:101AA800870042310108AC00350886000130870004
:101AB8002C0881003508A6000130A7000630A800D0
:101AC8000030A9009E319D268C3108302000AC00E2
:101AD8002C08F10035089E317A2608000000AA304B
:101AE8002100D60056083F00FF007F082100D600DD
:101AF80056083F00FF009D31D3258D318B170B17FA
:101B080023009E129531B0258D3155302100D60025
:101B180056082200A000AA302100D600560822004C
:101B2800A10002302100D6005608F10020309E3175
:101B38007A268D3120006B1D472EFB302100D60000
:101B480056082000EB05F401F40A20302100D600E5
:101B58005608F50006309231D1228D3175082000E3
:101B6800E2007408E10003302100D6005608F400B2
:101B78002030D7005708F50005309231D1228D3139
:101B880075082000E0007408DF0003302100D6004B
:101B98005608F4002030D7005708F5000430923179
:101BA800D1228D3175082000DE007408DD00013077
:101BB800DE36DD0C890BDC2D03302100D6005608FB
:101BC800F4002030D7005708F50002309231D122B6
:101BD8008D3175082000DC007408DB000130DC362C
:101BE800DB0C890BF32D03302100D6005608F400D6
:101BF8002030D7005708F50007309231D1228D31B7
:101C080075082000DA007408D9000130DA36D90CDA
:101C1800890B0A2E973127278D3120002608EF00DF
:101C28002508EE0094318F248D3120002608ED0020
:101C38002508EC008A31A9228D3120006208A6000F
:101C48006108A50093312E238D3120002608D40089
:101C58002508D3005408B3005308B2008831B520D2
:101C68008D31200033082100C700200032082100F0
:101C7800C60046352000D5002100470D2000D600BB
:101C880095311F258D312000EB1D502EF730210096
:101C9800D60056082000EB056B1C812EFE30210073
:101CA800D60056082000EB056A0803197E2E20305E
:101CB800F1000130F2004030F3000130F4006A080E
:101CC8002100D600D7015608F5005708F6009E31C6
:101CD8005D268D3120006A082100D600D7015608FC
:101CE8002000B800210057082000B90020309231A8
:101CF80027228D319C31EB248D3100009E2DF80177
:101D0800F9017108F4007408FA00352F7308860089
:101D180087014030C03F0030C13F422F5C30860011
:101D28002330870042310108F400F501730886006A
:101D380087017408C03F7508C13F422F5C3084009A
:101D48002330850001310008F4005C308400233022
:101D580085007308860087010008C03F7408C13FEA
:101D6800422F5C308600233087004431730884009A
:101D78008501403F803F413F813F422F5C308600D4
:101D8800233087004631730884008501403F803F37
:101D9800413F813F422F5C30860023308700483125
:101DA800730884008501403F803F413F813F422FB7
:101DB80073088600870120006108C03F6208C13FA0
:101DC800422F73088600870120005F08C03F600823
:101DD800C13F422F73088600870120005D08C03F7D
:101DE8005E08C13F422F73088600870120005B0808
:101DF800C03F5C08C13F422F73088600870120005E
:101E08006E08C03F6F08C13F422F730886008701E4
:101E180020006C08C03F6D08C13F422F7308860040
:101E2800870120005908C03F5A08C13F422F730854
:101E38008600870121004608C03F4708C13F422F5E
:101E480073088600870120005508C03F5608C13F27
:101E5800422F730886008701AA30C03F5530C13F22
:101E6800422F7A08FF3E031C2D2F84000F300402F6
:101E780003182D2F98310435003E820010307A0265
:101E8800031C08004C307A02031808001030FA02CC
:101E98007A1C652F7A36F400F501F435F50DA23079
:101EA800F6002330F7007408760786007508773D3A
:101EB8008700730884008501403F803F413F813F90
:101EC80008007A36F400F501F435F50D6630F600B1
:101ED8002330F7007408760786007508773D870079
:101EE800730884008501403F803F413F813F0800DF
:101EF8002000AD01A71F8D2FA409A509A609A709D0
:101F0800A40A0319A50A0319A60A0319A70AAD0109
:101F1800AD0AAB1F9E2FA809A909AA09AB09A80AEF
:101F28000319A90A0319AA0A0319AB0A0130F9000F
:101F38007908AD060030B1000030B0000030AF00C5
:101F48000030AE0027082604250424040319E72FCF
:101F5800AC01AC0AA71BBC2F0130A435A50DA60DFA
:101F6800A70D890BB12F0130F9007908AC07AE2F06
:101F78000130AE35AF0DB00DB10D890BBD2F27085F
:101F88002B02031DD12F26082A02031DD12F250855
:101F98002902031DD12F24082802031CDC2F240842
:101FA800A8022508A93B2608AA3B2708AB3B2E1404
:101FB8000130A736A60CA50CA40C890BDD2F013027
:101FC800AC02031DBC2F2D080319F52FAE09AF096C
:101FD800B009B109AE0A0319AF0A0319B00A031907
:101FE800B10A3108A7003008A6002F08A5002E085E
:061FF800A400080008002F
:1020020010342734103427340030F1001F30F2002E
:102012009E31092690312030F1001F30F2009E31AE
:10202200092690314030F1001F30F2009E3109261E
:1020320090316030F1001F30F2009E31092690315C
:102042008030F1001F30F2009E3109260800F601AF
:10205200F7017108720403195728F801F80AF21BF4
:102062003C280130F135F20D890B33280130F5009F
:102072007508F80730280130F635F70D890B3D2831
:1020820072087402031D472871087302031C4E284C
:102092007108F3027208F43B76140130F236F10C47
:1020A200890B4F280130F802031D3C287708F20003
:1020B2007608F10008002C30F1000030F200200018
:1020C20028082607F8002908273DF9007808FE3E6F
:1020D200F300FF30793DF4000230F5000030F600E5
:1020E2009E315D26903120002708F2002608F1007B
:1020F2002808FE3EF300FF30293DF40092317B2296
:10210200903172082000AB007108AA002B082D063E
:10211200031D8D282A082C06031991280030080077
:10212200013008005C302000A6002330A700823076
:10213200A8000030A9009E319D26903190310520E3
:1021420090315C30F1002330F2008430F300003033
:10215200F400943101245C3086002330870044313E
:10216200403F2000D700413FD8005C30860023303A
:1021720087004631403F2100CA00413FCB005C301E
:102182008600233087004831403FC800413FC900E4
:1021920008000030F8001F30F90000308B1B0130BE
:1021A200F7008B13FA01FB0174087B02031DDB2885
:1021B20073087A020318FC28780823009100790832
:1021C200920015131514000000007A087107F5003B
:1021D2007B08723DF60075088600760887002300AA
:1021E200130881000130F8070030F93D0130FA0789
:1021F2000030FB3DD528770C031C8B1303188B177B
:10220200080022008C018E010F3021008C001F304B
:102212008E000F3023008E0017308C003B302400DC
:102222008C0030308E002100951325008C018E0128
:1022320000308B1B0130F1008B1355303C008F00B6
:10224200AA308F000F101508E039143895003D00B0
:102252001408F039043894001508F0390338950051
:102262002508F0390938A50055303C008F00AA3006
:102272008F000F14711C3F298B1708008B13080065
:102282002000AE002E08AD002D08AF002F088600FA
:10229200013087000108031908005C3086002330F2
:1022A200870042310108AD002F0886000130870007
:1022B2002D0881002C08031966298030AD002F0AF1
:1022C2008600013087002D0881072C08AD002F08F9
:1022D200023E8600013087002D0881002E08A600EC
:1022E2000130A7000330A8000030A9009E319D26CE
:1022F200913105302000AD002D08F1002E089E31ED
:102302007A260800F701F21F8D29F109F209F10A74
:102312000319F20AF701F70AF41F9829F309F409DD
:10232200F30A0319F40A0130F5007508F706F801FB
:10233200F901710872040319C729F601F60AF21BA2
:10234200AC290130F135F20D890BA3290130F500DA
:102352007508F607A0290130F835F90D890BAD296A
:1023620072087402031DB72971087302031CBE2987
:102372007108F3027208F43B78140130F236F10C62
:10238200890BBF290130F602031DAC297708031916
:10239200CF29F809F909F80A0319F90A7908F200AC
:1023A2007808F100080000302000A3000030A200ED
:1023B2000030A1000030A00074087304720471049C
:1023C20003191E2AA401A40AF41BF3290130F135D2
:1023D200F20DF30DF40D890BE8290130F9007908AB
:1023E200A407E5290130A035A10DA20DA30D890B8B
:1023F200F42974087802031D082A73087702031D62
:10240200082A72087602031D082A71087502031C45
:10241200132A7108F5027208F63B7308F73B740839
:10242200F83B20140130F436F30CF20CF10C890B5A
:10243200142A0130A402031DF3292308F400220800
:10244200F3002108F2002008F10008002000BD007E
:10245200BB013D08BA003A08BC005C30860023305C
:10246200870042313C0884000130850000080106E3
:102472000319422A3C088600013087000108031D27
:1024820008003D08A6000130A7003908A900380855
:10249200A80090315C209231003A03190800672AA3
:1024A20020003D0896316826080020003D088C3146
:1024B2001E24080020003D0893318F2308002000CD
:1024C200AC01AC0A3D0891314121080020003C0AD0
:1024D2008600013087000108033A0319512A053AA0
:1024E2000319562A163A03195B2A363A0319562A51
:1024F200602A0800FF302000A400FF30A500A001E0
:10250200A10174082102031D882A730820020318FE
:10251200CC2A710886007208870024080106A400EC
:102522002508A5000130F1070030F23DA201A30108
:10253200003023020830031922020318C72A241C80
:10254200B22A2508F6002408F500F636F50C7508BF
:10255200A4007608A50001302406A400A0302506B8
:10256200BB2A2508F6002408F500F636F50C750896
:10257200A4007608A5000130A2070030A33D003078
:102582002302083003192202031CA02A0130A007EB
:102592000030A13D822A2508F2002408F10008003B
:1025A2002000A000A301A401A501A60174089D3189
:1025B20058259231200020089D3144259231423025
:1025C200890BE12A003221009D149D18E62A413030
:1025D2007502031CF02A4030F6007608F500200050
:1025E200A101A2017508F600F70177082202031D76
:1025F200FC2A760821020318292B21009D149D181C
:10260200002B000021001C08F600F70176082000CC
:10261200A5007708A6000230A535A60D890B0D2B63
:1026220021001B08F6000630F636890B152B7608BA
:10263200F700F80177082000A5047808A604250809
:10264200A3072608A43D0130A1070030A23DF32ACA
:102652002408F5002308F400080000302000AA0036
:102662000030A9000030A8000030A700AB010530FF
:102672002B020318602B2B35023EAC3E86008701ED
:102682002B35AC3E84008501403F803F413F813F76
:102692002B35AC3E86008701403FFA00413FFB00EC
:1026A2007A08A7077B08A83D0030A93DAA3D013062
:1026B200FA007A08AB0705302B02031C3C2B2B35A2
:1026C200AC3E860087012508C03F2608C13F250889
:1026D200A7072608A83D0030A93DAA3D0030F40016
:1026E2000030F3000030F2000630F1002A08F80052
:1026F2002908F7002808F6002708F5009131D421AF
:1027020074082000AA007308A9007208A8007108C2
:10271200A7002808A6002708A50008002000AF008F
:102722002F08AC002C08B0005C30860023308700F4
:102732004231300884000130850000080106031D83
:1027420008003008860001308700010803190800DC
:1027520030088600013087000130433FAD00300869
:102762008600013087000130453FAE0003302E065F
:10277200031D080004302D06031D08003008063E24
:102782008400013085000008AC003008073E840058
:10279200013085005C308600233087004431000818
:1027A200C03F2C08C13F3008083E8400013085003C
:1027B2000008AC003008093E8400013085005C301E
:1027C20086002330870046310008C03F2C08C13FF5
:1027D20090319320933120002F08A6000130A700EA
:1027E2000630A8000030A9009E319D2693310830A2
:1027F2002000AC002C08F1002F089E317A26080038
:102802002000A301A4010030A7001F30A80000305F
:102812008B1B0130A200A9017408F6007308F500B1
:102822000530F636F50C890B122C7508A3007608D4
:10283200A4001F307305F50000307405F60075081A
:1028420076040319282C0130A3070030A43D8B1312
:10285200A501A601A001A10124082102031D332C18
:10286200230820020318892C230015131515951629
:102872002000A901203029020318812C27082300F7
:1028820091002000280823009200740820002602EC
:10289200031D4D2C730825020318592C25087107B6
:1028A20086002608723D87000108230093005B2CF6
:1028B2002300930101302000A5070030A63D23002C
:1028C20094011F3020002905F5001F307506031DF5
:1028D2006C2C23009512553023009600AA309600E6
:1028E20095140000000001302000A7070030A83D29
:1028F2000130F5007508A90720302902031C3F2C7E
:102902002300151101302000A0070030A13D2D2C1D
:10291200220C031C8B1303188B17080000302000B5
:10292200CA000030C9002E30C800E030C7005F087E
:10293200F1006008F200F301F4014A08F8004908C6
:10294200F7004808F6004708F5009E31CE2694317C
:1029520074082000CA007308C9007208C800710810
:10296200C70061082100B800200062082100B900F8
:10297200BA01BB013B08F4003A08F3003908F2003F
:102982003808F10020004A08F8004908F700480812
:10299200F6004708F5009131D421943174082000E3
:1029A200CA007308C9007208C8007108C7004A0843
:1029B200031DEC2C4908031DEC2CD03047020730D4
:1029C200483B0318EC2C0030CA000030C900073025
:1029D200C800D030C7004A08031DF82C4908031D5F
:1029E200F82CA93047026130483B031C002D00300F
:1029F200CA000030C9006130C800A830C7001830D2
:102A0200A900FC30AA00FF30AB00FF30AC00470841
:102A1200A9074808AA3D4908AB3D4A08AC3D2C0825
:102A2200CA002B08C9002A08C8002908C70047089D
:102A3200A5004808A600A701A8010800200059091E
:102A4200A0005A09A100A00A0319A10A55082007EB
:102A5200A4005608213DA5009630F1000030F20096
:102A62002508F4002408F30091318321953172087E
:102A72002000A3007108A20022082304031D622D76
:102A82002508803AA00080302002031D4A2D113013
:102A92002402031C512D01302000A2000030A300AB
:102AA20020002508803AA0007F302002031D5B2D04
:102AB200F03024020318622DFF302000A200FF3004
:102AC200A3002000220821004407C400200023089C
:102AD2002100453DC5000A30F1000030F20020001F
:102AE2005608F4005508F3009031282095317208F9
:102AF2002000A5007108A40021004408200024073A
:102B0200A400210045082000253DA5002508803AA3
:102B1200A00086302002031D902D2D302402031CBC
:102B2200972D2C302000A4000630A5002000250897
:102B3200803AA00080302002031DA12D053024021E
:102B42000318A82D05302000A4000030A5002000A5
:102B52002508F8002408F7009E31412608005C3061
:102B6200F1002330F2008430F3000030F4009031A1
:102B7200CA2095315C302000A6002330A7008430A3
:102B8200A8000030A90090315C2095312000AE00F1
:102B9200AF012E08B4002F08B50034083504031D18
:102BA20008005C308600233087005530C03F5D301E
:102BB200860023308700AA3081005E3086002330F1
:102BC200870001308100B601B701003037021E30A4
:102BD2000319360203183E2E3708F2003608F100B8
:102BE200D030F3000230F4009D31EE2595317108AA
:102BF200B83E2000AE002430723DAF003708B1006D
:102C02003608B000B035B10D6630B2002330B300E3
:102C12003008320786003108333D87002E08C03F56
:102C22002F08C13F3708F2003608F1004D30F3009B
:102C32000130F4009D31EE25953120003708AF00B8
:102C42003608AE00AE35AF0DA230B0002330B10071
:102C52002E08300786002F08313D87007108C03FDB
:102C62007208C13F0130B6070030B73D003037026D
:102C72001E3003193602031CED2D8030AE000C30DD
:102C8200AF005C3086002330870044312E08C03FFD
:102C92002F08C13F1430AE000030AF005C30860018
:102CA2002330870046312E08C03F2F08C13F053030
:102CB200AE000030AF005C30860023308700483120
:102CC2002E08C03F2F08C13F9031932008002000FA
:102CD200B500B001B101B4013508AC002C08B30055
:102CE2005C30860023308700423133088400013093
:102CF200850000080106031D080033088600013024
:102D020087000108031908003308023E86000130DB
:102D120087000108AC00AD012C08B0002D08B100FD
:102D22000830B035B10D890B922E3308033E860070
:102D3200013087000108AC00AD012C08B0042D0859
:102D4200B1043108AF003008AE003308860001300C
:102D520087000130453FB4000310B40D2130340226
:102D6200031CB72E2030AC002C08B400B20134088A
:102D720032020318EA2E2F08F2002E08F100363034
:102D8200AC002C08F3008E318326963120003708E0
:102D9200AC003208033E3507AD002D088600013035
:102DA20087002C0881003608AC003208043E350743
:102DB200AD002D088600013087002C088100320802
:102DC200023EAC002C08B2000130AE070030AF3D2D
:102DD200B82E5C3086002330870042310108AC00F7
:102DE20035088600013087002C0881000330AC00D2
:102DF200350A8600013087002C0881003408AC00B7
:102E02003508023E8600013087002C08810003301D
:102E1200AC002C08B4073508A6000130A70034081E
:102E2200AC00AD012C08A8002D08A9009E319D26FA
:102E3200963102302000AC002C08B4073408AC00F4
:102E42002C08F10035089E317A2608000030210056
:102E5200BB000430BA009330B900E030B800200063
:102E62005D08F1005E08F200F301F40121003B0865
:102E7200F8003A08F7003908F6003808F5009E31E4
:102E8200CE26973174082100BB007308BA0072087D
:102E9200B9007108B80020005B08C7005C08C800D0
:102EA200C901CA014A08F4004908F3004808F200BF
:102EB2004708F1000030F8000030F7000C30F6004F
:102EC2001C30F5009E31CE26973174082000CA00CE
:102ED2007308C9007208C8007108C7000030F40006
:102EE2000030F3000030F2006430F1004A08F800CC
:102EF2004908F7004808F6004708F5009131D42147
:102F0200973174082000CA007308C9007208C8000B
:102F12007108C7004708A9004808AA004908AB0081
:102F22004A08AC005D08AD005E08AE00AF01B0011A
:102F3200AD09AE09AF09B009AD0A0319AE0A03190A
:102F4200AF0A0319B00A2D08A9072E08AA3D2F08B7
:102F5200AB3D3008AC3D2C08CA002B08C9002A083A
:102F6200C8002908C7004A08F4004908F3004808C5
:102F7200F2004708F10021003B08F8003A08F70088
:102F82003908F6003808F5009131D42197317408D8
:102F92002000CA007308C9007208C8007108C7007F
:102FA2004A08031DE52F4908031DE52FD0304702CB
:102FB2000730483B0318E52F0030CA000030C90033
:102FC2000730C800D030C7004A08031DF12F490856
:102FD200031DF12FA93047026130483B031CF92F32
:102FE2000030CA000030C9006130C800A830C700F4
:102FF2004708A5004808A600A701A80108008E31CD
:103002008A2E8E31922E8E31A22E8E31B52E8E3197
:10301200C22E8E31CF2E8E31DC2E8E31E52E8E31A8
:10302200EE2E8E31F72E8F31002F8F31092F8F31F7
:10303200122F8F311B2F8F31242F30343134323401
:103042003334343435343634373438343934413423
:0C305200423443344434453446340034E6
:1039C00020001C15080081302200970008001630E6
:1039D0002100970008002000EA01FC01080072089D
:1039E0002000E4007108E3000800143400341434AB
:1039F00000340534003405340034013021009D00CA
:103A000063309E009F019B019C01080064008001BF
:103A100001310130FE020030FF3B7F087E040319B4
:103A20000034072DFE0012001E000130FE0200309F
:103A3000FF3B7F087E0403190034132D21009112EF
:103A40001112083023009F0090309D0024309E000A
:103A5000A0309B0001309C00210091162000111223
:103A600008004B3020009C007C309B009A01911094
:103A7000210091140030F1000030F2009C31EF245D
:103A80009D319C31E0240800F20021009D18452D55
:103A90007208F100F10DF10D1D08710683397106F0
:103AA0009D001D1463309E009F019B019C01080036
:103AB000F3008030F1007108F20004307302031C3F
:103AC000652D0330F1007108F3007308F1007108EF
:103AD000F204720822009700171B08006C2D0130B9
:103AE0003B009C009D019E019F01A00192010230BC
:103AF00091009401A0309300063096003F3095006D
:103B00009801013097009A01990190309B000800BC
:103B100001303B00AC00AD01AE01AF01B001A2012C
:103B20000230A100A401A030A3000630A6003F305F
:103B3000A500A8010130A700AA01A9019030AB009F
:103B400008003B001408F300F4017308F500740842
:103B5000F6000830F535F60D890BAA2D1308F30091
:103B6000F4017308F5047408F6047608F200750889
:103B7000F10008003B002408F300F4017308F5008D
:103B80007408F6000830F535F60D890BC32D2308AF
:103B9000F300F4017308F5047408F6047608F200E3
:103BA0007508F1000800913102219D318F31FE2707
:103BB0009D319C31E7249D319C31E3249D319D3121
:103BC0006F259D319D3188259D319C31FD249D318E
:103BD0009D3131259D319D311E250800F501F601ED
:103BE000711CF62D7308F5077408F63D0130F335A6
:103BF000F40D890BF72D0130F236F10C890BFC2DF9
:103C000071087204031DF02D7608F2007508F100AA
:103C1000080000308B1B0130F3008B137108230068
:103C2000910072089200151315161515553096005F
:103C3000AA30960095140000000023001511730CA3
:103C4000031C8B1303188B17080078082100D3007E
:103C50007708D2009D31A1259E317208FA007108C3
:103C6000F90078087A06031D372E770879060319BC
:103C700008003B009B1377089300780894009B177B
:103C8000080078082100D5007708D4009D31BA25B6
:103C90009E317208FA007108F90078087A06031D4F
:103CA000532E77087906031908003B00AB137708F9
:103CB000A3007808A400AB17080075087604031960
:103CC000080073088600740887000108F70071086F
:103CD000860072088700770881000130F307003002
:103CE000F43D0130F1070030F23D0130F5020030C3
:103CF000F63B5D2EF4007108F20072082000E60029
:103D000023009E1E9E16F30120006608730203180E
:103D100008002000111E892E73087407F200720833
:103D2000860001308700010823009A00000000008F
:103D30000130F2007208F307842E20002708F200F9
:103D40002608F1002908F4002808F30092317B22AC
:103D500072082000AB007108AA0028082607F700A7
:103D60002908273DF80077088600780887002A0888
:103D700081002B08F7002808013EF8000030293D9B
:103D8000F90078082607FA007908273DFB007A0831
:103D900086007B088700770881000800003020003B
:103DA000A3000030A2000030A1000030A000711C70
:103DB000E22E75082000A0077608A13D7708A23DF5
:103DC0007808A33D0130F535F60DF70DF80D890B98
:103DD000E32E0130F436F30CF20CF10C890BEA2ED1
:103DE0007408730472047104031DD72E2000230885
:103DF000F4002208F3002108F2002008F100080076
:00000001FF
