:0400000080317A28A9
:100008007E1480310B1F2F282100911C2F282000DF
:10001800911C2F289110DC140530E00AE10A6002D7
:10002800031C1828E0015C1532306102031C1E28ED
:10003800E101DC155D0803192828DD0A06305D0298
:10004800031C28285C14DD0101302100D007003092
:10005800D13DD23DD33D0B1F4E282100911E4E2885
:100068002000911E4E28911223009D1C3D281D1230
:100078001D161908F00040307C0203184B287C0834
:100088002A3E86000130870070088100FC0A013092
:100098002000DD000B1F63282100931E6328200029
:1000A800931E632893123B002D1C63282D102000FB
:1000B80065083B00A400200064083B00A3000B1F58
:1000C80078282100131E78282000131E7828131280
:1000D8003B001D1C78281D10200063083B0094007D
:1000E800200062083B0093007E10090080317C28C4
:1000F80084308400233085005C30FE00FF01973196
:10010800E12780314A30FC01840000308500183036
:10011800FE000030FF009731E1278031A0308400D5
:10012800003085003430FE000030FF009731E127B1
:10013800803120308400013085004A30FE000030D4
:10014800FF009731E1278031A0308400013085001D
:100158004030FE000030FF009731E1278031F83051
:1001680084008730850062308600003087000030C8
:10017800FF0004309731D52780310430840088305F
:100188008500D4308600003087000030FF0014302E
:100198009731D52780317E102000D22800002022F8
:1001A8008B170B178B3180238031C62780310106CE
:1001B800031DE52884308600AA3041310106031961
:1001C800E728DE0115290530DE008F31F52780315B
:1001D800403FC800413FC90048082100AC0020004A
:1001E80049082100AD008430AE01AF0186002330FC
:1001F80087004831AA278031B00020004908210033
:10020800B1008430B201B301860023308700463143
:10021800AA278031B400200049082100B500B601A2
:10022800B70120005C1DC8295C112030F301F30AD6
:10023800F4000630E821803174082000D5007308E6
:10024800D4000330F3002030F4000530E821803179
:1002580074082000D3007308D2000330F300203064
:10026800F4000430E821803174082000D1007308BC
:10027800D0000330D136D00CF3002030F400023027
:10028800E821803174082000CF007308CE000330C5
:10029800CF36CE0CF3002030F4000730E82180314F
:1002A80074082000D7007308D600D736D60C1A2356
:1002B800803128082100E300200027082100E200FF
:1002C800200026082100E100200025082100E00088
:1002D8008226803128082100E70020002708210015
:1002E800E600200026082100E5002000250821005E
:1002F800E4000000053020005E02031CA3298931B8
:100308001021803120005508FA005408F900CB224A
:100318007A08CD007908CC004D08B3004C08B2002B
:100328008A31442280313308DB003208DA005A353A
:10033800D8005B0DD900883118208031C829B7232F
:100348008031053020005E02031CC829C627C03F43
:1003580085308600AA30810084308600443121002F
:100368002C08C03F2D08C13F8F31E9278031300864
:10037800C03F3108C13F8F31E32780313408C03F87
:100388003508C13F102780312000DC19DC115C1CC6
:10039800E6295C107C080319E429A030F10001303B
:1003A800F2002A30F3000130F4007C08F500F60171
:1003B800F5267C08B800A030B9018D312A25803196
:1003C8006827803100001529F600F701F801730845
:1003D800BA2280317608AB2280310D30F500F50B5A
:1003E800F32941307402031CFB294030F400F90161
:1003F8007408790203181B2A21009D149D18022AEB
:10040800000021001C08FA00FB01FA35FB0DFA3543
:10041800FB0D1B08F5000630F536890B102A750808
:10042800FA047A08F7077B08F83DF90AFC297808E6
:10043800F4007708F30008003E2280313922803129
:10044800A822803135228031772280319022803174
:1004580031229731ED278031EA2F013021009D00AC
:10046800B92F8130220097000800783021009900C8
:100478009801080022008C018E010F3021008C00A9
:100488001F308E000F3023008E0017308C003B3059
:1004980024008C0030308E002100951325008C013B
:1004A8008E0100308B1B0130F1008B13CB2780317C
:1004B8000F101508E039143895003D001408F0397C
:1004C800043894001508F039033895002508F039E8
:1004D8000938A500CB2780310F14711C752A8B179A
:1004E80008008B13080001303B009C009D019E0111
:1004F8009F01A0019201023091009401A030930065
:10050800063096003F3095009801013097009A0117
:10051800990190309B0008000130AC00AD01AE019C
:10052800AF01B001A2010230A100A401A030A300D4
:100538000630A6003F30A500A8010130A700AA0197
:10054800A9019030AB000800163097000800F200AF
:1005580021009D18AC2A7208F100F10DF10D1D085B
:100568007106833971069D001D14B92FF200803081
:10057800F10004307202031CC32A0330F20072082F
:10058800F104710822009700171B0800C82AA70168
:10059800A801A901AA01AB012B35223E8600013032
:1005A80087002B35203E840001308500403F803F86
:1005B800413F813F2B35203E8600403FA500413F0B
:1005C800A6002508A7072608A83D0030A93DAA3D92
:1005D8000430AB0A2B02031CD02A2B35203E8600A0
:1005E8007908C03F7A08C13F7908A7077A08A83D6B
:1005F8000030A93DAA3D0530F100F201F301F401F4
:100608002A08F8002908F7002808F6002708F50046
:100618002A267408AA007308A9007208A80071089D
:10062800A7002808FA002708F90008000430B001DC
:10063800AF009330AE00E030AD005008F100510833
:10064800F200F301F4013008F8002F08F7002E0833
:10065800F6002D08F500022680317408B0007308F2
:10066800AF007208AE007108AD004E08B1004F0827
:10067800B2000C30B301B401F401F301F2004430CC
:10068800F1003408F8003308F7003208F6003108A2
:10069800F500022680317408B4007308B3007208AC
:1006A800B2007108B1006430F100F201F301F40105
:1006B8003408F8003308F7003208F6003108F5006E
:1006C8002A268031992780315008A9005108AA00AC
:1006D800AB01AC012908B1022A08B23B2B08B33B95
:1006E8002C08B43B3408F4003308F3003208F20055
:1006F8003108F1003008F8002F08F7002E08F6003E
:100708002D08F5002A268031992780313408031DE9
:100718009C2B3308031D9C2BD03031020730323B11
:1007280003189C2B0730B401B301B200D030B100DC
:100738003408031DA82B3308031DA82BA930310248
:100748006130323B031CAE2B6130B401B301B200FF
:10075800A830B1003408A8003308A7003208A60062
:100768003108A5000800210067082000B500210015
:1007780066082000B400210065082000B3002100AD
:1007880064082000B200210060082000B2022100A5
:1007980061082000B33B210062082000B43B21001F
:1007A80063082000B53B2E2DDF01B030F300043084
:1007B800F4006926803102302B2DB51B382D350801
:1007C800031DEF2B3408031DEF2B95303202113037
:1007D800333B031C382D0530F300F40169268031C2
:1007E80003302B2DB51B042C3508031D382D340878
:1007F800031D382DDC3032020530333B0318382D09
:1008080021004308BF004208BE004108BD0040085F
:10081800BC005308C3005208C2005108C100500868
:10082800C00020000530DF0A5F02031CD92B04300A
:100838002C2D21004308CB004208CA004108C900FA
:100848004008C8003C08C8023D08C93B3E08CA3BEE
:100858003F08CB3B05302000A400A5017627803156
:100868009625803127082100CB002000260821008A
:10087800CA00200025082100C90020002408210002
:10088800C80057082000AB00210056082000AA0025
:10089800210055082000A900210054082000A800C4
:1008A800210058082000A802210059082000A93B6F
:1008B80021005A082000AA3B21005B082000AB3B1E
:1008C8000230A400A501A601A701962580312708BA
:1008D8002100C700200026082100C60020002508A6
:1008E8002100C500200024082100C4000230CF01E7
:1008F800CE01CD005530CC004708F4004608F3007F
:100908004508F2004408F1000130F801F701F6004B
:100918003A30F500022680317408A7007308A60053
:100928007208A5007108A4000230F401F301F20076
:100938005530F1009C30F801F701F6004030F50021
:1009480002268031892780319625803127082100A9
:10095800BB00200026082100BA002000250821003D
:10096800B900200024082100B8006430F100F20129
:10097800F301F4013B08F8003A08F7003908F600DB
:100988003808F5000226803174082100BB0073087E
:10099800BA007208B9007108B8000E309227803189
:1009A8003B08F4003A08F3003908F2003808B22787
:1009B80080310226803189278031962580312708A9
:1009C8002100AF00200026082100AE0020002508E5
:1009D8002100AD00200024082100AC00143092272B
:1009E80080314B08F4004A08F3004908F20048082F
:1009F800B2278031022680318927803196258031BF
:100A080027082100B700200026082100B600200092
:100A180025082100B500200024082100B400083072
:100A28002000A400A501762780319625803127086B
:100A38002100B300200026082100B200200025086C
:100A48002100B100200024082100B000053020005A
:100A5800DE00382D5E088400063004020318382DA5
:100A6800903104351E3E820003305F02031C0800EB
:100A780021005708803AF90020003508803A7902A9
:100A88002100031D572D2000340821005602031DA4
:100A9800572D2000330821005502031D572D200033
:100AA8003208210054020318692D2000350821005E
:100AB800D700200034082100D60020003308210088
:100AC800D500200032082100D40020003508803AE3
:100AD800F90021005B08803A79022000031D842D6B
:100AE80021005A0820003402031D842D21005908D2
:100AF80020003302031D842D2100580820003202F3
:100B08000318080035082100DB0020003408210004
:100B1800DA00200033082100D90020003208210023
:100B2800D8000800AD01A71FA62DA409A509A6098C
:100B3800A709A40A0319A50A0319A60A0319A70AEB
:100B4800AD01AD0AAB1FB52DA809A909AA09AB09C2
:100B5800A80A0319A90A0319AA0A0319AB0A01303A
:100B6800AD06AE01AF01B001B10127082604250486
:100B780024040319EB2DAC01AC0AA71BC82DA4351E
:100B8800A50DA60DA70DC02DAE35AF0DB00DB10D3D
:100B980027082B02031DDA2D26082A02031DDA2D49
:100BA80025082902031DDA2D24082802031CE52D37
:100BB8002408A8022508A93B2608AA3B2708AB3B1E
:100BC8002E14A736A60CA50CA40CAC0BC82D2D080A
:100BD8000319F92DAE09AF09B009B109AE0A031915
:100BE800AF0A0319B00A0319B10A3108A70030087F
:100BF800A6002F08A5002E08A40008002000A001C8
:100C0800A101A201A301711C122E75082000A007E2
:100C18007608A13D7708A23D7808A33DF535F60D85
:100C2800F70DF80DF436F30CF20CF10C740873049C
:100C380072047104031D072E20002308F400220803
:100C4800F3002108F2002008F1000800A001A1012A
:100C5800A201A30174087304720471040319602EBD
:100C6800A401A40AF41B3D2EF135F20DF30DF40D89
:100C7800352EA035A10DA20DA30D74087802031D11
:100C88004F2E73087702031D4F2E72087602031D3C
:100C98004F2E71087502031C5A2E7108F50272084E
:100CA800F63B7308F73B7408F83B2014F436F30C52
:100CB800F20CF10CA40B3D2E2308F4002208F300DB
:100CC8002108F2002008F10008007408E300730806
:100CD800E200612780317208F6007108F500740897
:100CE8007606031D792E73087506031908009B13F1
:100CF80073089300740894009B17080020002E3096
:100D0800B001AF01AE00E030AD005208F100530869
:100D1800F200F301F4013008F8002F08F7002E085C
:100D2800F6002D08F500022680317408B00073081B
:100D3800AF007208AE007108AD005408A90055084C
:100D4800AA00AB01AC012C08F4002B08F3002A0818
:100D5800F2002908F1003008F8002F08F7002E08E3
:100D6800F6002D08F5002A2680317408B0007308B3
:100D7800AF007208AE007108AD003008031DD32E15
:100D88002F08031DD32ED0302D0207302E3B031819
:100D9800D32E0730B001AF01AE00D030AD0030081F
:100DA800031DDF2E2F08031DDF2EA9302D02613011
:100DB8002E3B031CE52E6130B001AF01AE00A83018
:100DC800AD001830AD07FC30AE3DFF30AF3DB03D53
:100DD8003008A8002F08A7002E08A6002D08A50097
:100DE800080075087604031908007308860074085B
:100DF80087000108F70071088600720887007708E5
:100E08008100F30A0319F40AF10A0319F20A0130FE
:100E1800F5020030F63BF52E84302000BF278031E4
:100E28001B2780314A278031A2278C31AC2C21081E
:100E3800F2002008F1002308F4002208F3008C31A6
:100E480044247208AA007108A90022082007A400F7
:100E58002308213DA50024088600250887002908C5
:100E680081002A08A40022082007A5002308213DA4
:100E7800A6002508013EA7000030263DA800270847
:100E88008600280887002408810008008030F100C7
:100E98001F30F200D1278031A030F1001F30F2005E
:100EA800D1278031C030F1001F30F200D1278031C6
:100EB800E030F1001F30F200D12F3B001408F2009F
:100EC800F1011308F1040800FC0123001D122100A0
:100ED80091122000911223001D1621009116200066
:100EE800DD010800A601A70121004B082000AB0086
:100EF80021004A082000AA00210049082000A90072
:100F0800210048082000A80008007408AB007308F6
:100F1800AA007208A9007108A80008002000A4000F
:100F2800A501A601A701210008007408B4007308F0
:100F3800B3007208B2007108B10008008430F100F3
:100F48002330F2005C30F300F4010800403F200039
:100F5800C800413FC900480821000800F1000A30D4
:100F6800F500F601F701F801080063309E009F01C3
:100F78009B019C010800A0002330A1005A30A20068
:100F8800A30108008430860023308700553455308B
:100F98003C008F00AA308F00080000308B1B013006
:100FA800F3008B1371082300910072089200151347
:100FB8001516151555309600AA30960095140000A0
:100FC800000023001511730C8D31252D08302300E6
:100FD8009F0090309D0024309E00A0309B0001307F
:100FE8009C002100911608000534003405340034B3
:10100800C034F234FC34FF3440340D34033400343B
:1010180014340034003400341034273400340034DD
:1010280010342734003400345908A3005808A200AB
:101038005608A2025708A33B9630F100F201230894
:10104800F4002208F300852088317208A100710895
:10105800A0002104031D4C280A218831031D3628CD
:1010680021302202031C3C282000A001A00AA10173
:1010780020002308803AF9007F307902031D4628B2
:10108800E030220203184C28FF302000A000A10005
:1010980020002008CA072108CB3D0A30F100F201E0
:1010A8005908F4005808F300C52088317208A300D5
:1010B8007108A2004A08A2074B08A33D2308803AFA
:1010C800F90086307902031D6B282D302202031C9B
:1010D80072282C302000A2000630A30020000A212C
:1010E8008831031D79280530220203187F2805302E
:1010F8002000A200A30120002308F4002208F30026
:10110800EA28F601F21F8F28F109F209F10A0319FA
:10111800F20AF601F60AF41F9828F309F409F30A0B
:101128000319F40A0130F606F701F8017108720490
:101138000319B828F501F50AF21BA528F135F20DB7
:101148009F28F735F80D72087402031DAD28710841
:101158007302031CB4287108F3027208F43B771475
:10116800F236F10CF50BA52876080319C028F70903
:10117800F809F70A0319F80A7808F2007708F10065
:101188000800F501F601710872040319E528F70152
:10119800F70AF21BD228F135F20DCC28F535F60DF9
:1011A80072087402031DDA2871087302031CE1280F
:1011B8007108F3027208F43B7514F236F10CF70B60
:1011C800D2287608F2007508F10008007408E500D6
:1011D8007308E400032188317208F6007108F500ED
:1011E80074087606031DFA287308750603190800A3
:1011F800AB137308A3007408A400AB1708003B00E6
:101208002408F200F1012308F10408002308803AB9
:10121800F900803079020800210067082000C70023
:10122800210066082000C600210065082000C500CE
:10123800210064082000C400210060082000C402C6
:10124800210061082000C53B210062082000C63B40
:10125800210063082000C73BD030B2000730B3003C
:10126800B401B5014408B2024508B33B4608B43B93
:101278004708B53B35083C228931A43086008701F0
:10128800403F2100A800413FA900423FAA00433F38
:10129800AB002308A7002208A6002108A500200803
:1012A800A400200047082100A300200046082100D0
:1012B800A200200045082100A100200044082100C8
:1012C800A000240820022000B20021002508213BAC
:1012D8002000B30021002608223B2000B400210092
:1012E8002708233B2000B500F4003408F300330836
:1012F800F2003208F10021003322863102268931BA
:101308007408B9007308B8007208B7007108B6000D
:10131800210037082000A700210036082000A60079
:10132800210035082000A500210034082000A40071
:1013380021002308F4002208F3002108F200200805
:10134800F100332286310226893187318927893194
:101358008531962589312708BD002608BC00250857
:10136800BB002408BA0036083A07B20037083B3DEC
:10137800B30038083C3DB40039083D3DB5003C2277
:101388002730A701A601A5001030A4004708AB002C
:101398004608AA004508A9004408A80085319625F2
:1013A80089312708C7002608C6002508C500240873
:1013B800C40021005C082000C40721005D0820004B
:1013C800C53D21005E082000C63D21005F082000C1
:1013D800C73D00002000C71B032A4708031DFD293D
:1013E8004608031DFD29B13044020430453B031C67
:1013F800032A0430C701C601C500B030C400C71BAA
:10140800122A4708031D172A4608031D172A4508EC
:10141800031D172A053044020318172A0530C40093
:10142800C501C601C70147082100DF0020004608A2
:101438002100DE00200045082100DD0020004408CE
:101448002100DC005D082000C30021005C082000AA
:10145800C2004308F4004208F3008631692E2F08C1
:10146800F8002E08F7002D08F6002C08F5000800F3
:10147800C7003408C6003308C5003208C400080095
:101488002400B4017C238A316B238A312400340878
:101498002000BA008E30BB01BA35BB0DBC0023302A
:1014A800BD003A083C0786003B083D3D8700403FA9
:1014B800BE00413FBF0039083F02031D652A3808B6
:1014C8003E020318732A24007C238A316B238A3155
:1014D80033083902031D7D2A320838027D2A240088
:1014E8007C238A316B238A313302031D7D2A380815
:1014F80032020318852A24001330B40A3402031C6C
:10150800462A133024003402031C8C2A1230B400FB
:1015180034082000B400B8306B238A31380824001E
:10152800A000200039082400A100A201A30134086A
:101538002000B400B6306B238A3138082400A80094
:10154800200039082400A900AA01AB017C238A31B4
:101558006B238A3138082400A400200039082400AD
:10156800A500A601A70134082000B4008E306B2323
:101578008A3138082400AC00200039082400AD0066
:10158800AE01AF012F082706031DD42A2E08260610
:10159800031DD42A2D082506031DD42A2C08240649
:1015A800031DDE2A29082000B30024002808200093
:1015B800B2000800200032082400B00020003308E0
:1015C8002400B100B201B3012C08B0022D08B13BD0
:1015D8002E08B23B2F08B33B2308F4002208F3007F
:1015E8002108F2002008F1002808F1022908F23B3E
:1015F8002A08F33B2B08F43B3308F8003208F700BD
:101608003108F6003008F500863102268A31740860
:101618002400B3007308B2007208B1007108B0006A
:1016280027082000A700240026082000A600240080
:1016380025082000A500240024082000A400240078
:101648002C082000A40224002D082000A53B24001B
:101658002E082000A63B24002F082000A73B2400CA
:1016680033082000AB00240032082000AA00240020
:1016780031082000A900240030082000A800853186
:1016880096258A3127082400B30020002608240064
:10169800B200200025082400B100200024082400FE
:1016A800B0002808B0072908B13D2A08B23D2B0828
:1016B800B33DB31F632BB001B101B201B3013108CF
:1016C8002000B300240030082000B2000800B50153
:1016D800B435B50DB6002330B70034083607860098
:1016E8003508373D8700403FB800413FB900080042
:1016F80034082000B40090348430F1002330F20024
:101708005C30F300F4017A248B3184302000A0008F
:101718002330A1005C30A200A30117248B31B10053
:10172800B2013204031D080084308600233087008C
:10173800FF30C03F85308600FF308100863086004C
:10174800FF308100B301B4013408F2003308F1001E
:10175800D030F3000230F40002248B317108003ECF
:10176800AB001930723DAC003408AE003308AD0050
:101778008E30AD35AE0DAF002330B0002D082F07E9
:1017880086002E08303D87002B08C03F2C08C13F3B
:101798003408F2003308F1004D30F3000130F40052
:1017A80002248B313408AC003308AB00B630AB35BB
:1017B800AC0DAD002330AE002B082D0786002C0899
:1017C8002E3D87007108C03F7208C13FB30A031954
:1017D800B40A00303402143003193302031CA82B56
:1017E80084308731BF278B3187311B278B31873175
:1017F8004A278B318731A2278B31AC2CF501F601B2
:10180800711C0A2C7308F5077408F63DF335F40DBE
:10181800F236F10C71087204031D042C7608F200EC
:101828007508F100080022082007F3002308213D6D
:10183800F400FE30F307031CF4032630F1000030F7
:10184800F2000230F500F6018631F5268B312108C9
:10185800F2002008F1002208FE3EF300FF30233D8D
:10186800F40044248B317208A5007108A4002508EF
:101878002706031D412C24082606031D00340134C5
:10188800FF30F900FA00F501F60174087602031D2D
:101898004F2C730875020318752C7108860072089E
:1018A80087000108F906F10A0319F20AF701F8019D
:1018B800791C652C0130FA36F90CF906A030FA06C5
:1018C800672CFA36F90CF70A0319F80A003078027F
:1018D800083003197702031C5C2CF50A0319F60A71
:1018E800492C7A08F2007908F10008008030FA00E3
:1018F8001F30FB0000308B1B0130F7008B13F80101
:10190800F90174087902031D8B2C730878020318F7
:10191800AA2C7A08230091007B089200151315144D
:101928000000000078087107F5007908723DF6009C
:101938007508860076088700230013088100FA0AD4
:101948000319FB0AF80A0319F90A852C770C252DC7
:1019580020008030A901AA01A7001F30A80000308C
:101968008B1B0130A2007408A4007308A300053083
:10197800A436A30C890BBC2C73081F390319C72C78
:10198800A30A0319A40A8B13A501A601A001A101AA
:1019980024082102031DD22C230820020318232D1A
:1019A80023001513151595162000A901AA0127086B
:1019B80023009100200028082300920074082000CA
:1019C8002602031DE92C730825020318F52C2508A7
:1019D800710786002608723D8700010823009300DE
:1019E800F72C230093012000A50A0319A60A230057
:1019F80094011F3020002905F5001F3A031D062D0C
:101A080023009512553023009600AA3096009514AD
:101A1800000000002000A70A0319A80AA90A031950
:101A2800AA0A00302A02203003192902031CDB2CE1
:101A3800230015112000A00A0319A10ACC2C220C9E
:101A4800252D031C8B1303188B170800BB00BA0045
:101A5800CA278D313A08D6278D310319382D3A080F
:101A6800FB278D31031D08003B08A0000130A100B1
:101A78003908A3003808A2008C3117248D31003AA8
:101A8800031908003A0AFB278D31033A0319542D2C
:101A9800053A0319562D203A0319562D582D0800DA
:101AA8003B085C2D3B087B2EAB01AB0A3B08702F33
:101AB800B200B101B000CA278D313008D6278D3168
:101AC800031D08003008860001308700010803194B
:101AD80008003008023E86000108AD00AE01AE00E5
:101AE800AD013008033E86000108AD042E08AC00A5
:101AF8002D08AB0030088600453FB1002130B135D4
:101B08003102031C892D2030B100AF0131082F02AA
:101B18000318AD2D2C08F2002B08F1003330F30028
:101B2800CF258D3120002F083207FB00033E8600A9
:101B380001308700340881002F083207FB00043E7B
:101B4800860033088100AF0AAF0AAB0A0319AC0A52
:101B58008A2D3208860001308700C227320A8600A3
:101B680001308700033081003208023E86003108C8
:101B780081000330B1073208A0000130A10031080C
:101B8800A200A30187311B278D31B10AB10A3108A0
:101B9800F1003208522F7108FA005A2E7308860095
:101BA80055308701C03FC13F672ECA278D310108D4
:101BB800F400F5017308860087017408C03F7508B2
:101BC800C13F672E8430840023308500013100082E
:101BD800F400843084002330850073088600870170
:101BE8000008C03F7408C13F672EF5278D31BA271A
:101BF8008D31672EE3278D31BA278D31672EE9277E
:101C08008D31BA278D31672E7308860087015408F5
:101C1800C03F5508C13F672E7308860087015208E8
:101C2800C03F5308C13F672E7308860087015008DC
:101C3800C03F5108C13F672E7308860087014E08D0
:101C4800C03F4F08C13F672E7308860087012100F7
:101C58006008C03F6108C13F672E7308860087018E
:101C680021006408C03F6508C13F672E73088600DD
:101C780087015608C03F5708C13F672E7308860082
:101C880087015A08C03F5B08C13F672E730886006A
:101C980087015808C03F5908C13F672E730886005E
:101CA800AA308701C03F5530C13F672E7A08FF3EF2
:101CB800031C522E84000F3004020318522E903158
:101CC8000435003E820010307A02031C08003830C8
:101CD8007A02031808001030FA027A1C772E7A3636
:101CE800F400B630A62F7A36F4008E30A62FB7004F
:101CF800AF01B400CA278D313408D6278D310319B6
:101D0800892ED0278D31031D0800843086002330AA
:101D18008700FD3042310106031D962ED0278D31F4
:101D2800031908003408023E8600013087000108C4
:101D3800B500B601B600B5013408033E86000108B7
:101D4800B5040230B60135063604031DB42E370833
:101D5800053E86000108AB008630EF278D31352F10
:101D6800033035063604031DC92EDC278D31AB0040
:101D78008530EF278D31843086003708053E840092
:101D8800013085000008C03F352F00303602103082
:101D980003193502031C08000030360238300319D5
:101DA8003502031808001030B5020030B63B351C68
:101DB800372FDC278D31B000B101B100B0013708F1
:101DC800053E86000108B0043608AC003508AB00B3
:101DD800B630AC36AB0C9A278D313008C03F31088D
:101DE800C13F3608AC003508AB008E30AC36AB0CC2
:101DF8009A278D314C08C03F4D08C13F370A8600ED
:101E08000130870026300106031D352F3608AC0047
:101E18003508AB00AC36AB0C2B08B2002C08B3006D
:101E2800B20A0319B30A003033021430031932021C
:101E38000318352F3308AC003208AB00B6309A27A8
:101E48008D313008C03F3108C13F3308AC0032083B
:101E5800AB008E309A278D314C08C03F4D08C13FEA
:101E6800142FAF01AF0A2F0803193D2F8731102710
:101E78008D31D0278D310319080037088600C22715
:101E88003708A0000130A1000630A200A301873165
:101E98001B278D310830F1003708522FF30023003B
:101EA8009E1E9E162000111E562FF4017108740202
:101EB80003186C2F2000111E5E2F74087307F200A0
:101EC800860001308700010823009A00F40A5A2F7F
:101ED8002000111A08006C2FAC00AD0086000130FC
:101EE80087000108031908002D088600C2278D31D4
:101EF8002B080319852F2D0A8600013087008030B2
:101F080081072D08023E8600013087002B088100DA
:101F18002C08A0000130A1000330A200A3018731E2
:101F28001B278D310530F1002C08522FAB35AC0D35
:101F3800AD002330AE002B082D0786002C082E3D5F
:101F480087000800F501F435F50DF6002330F70099
:101F58007408760786007508773D87007308840043
:101F68008501403F803F413F813F0800730884005E
:101F78008501403F803F413F813F08008430840015
:101F88002330850002310008810008008430860073
:101F9800233087004231080034088600013087006A
:101FA80001080800840001308500000801060800C7
:101FB8003708043E86000130870001080800843095
:101FC800860023308700463108008430860023309D
:101FD8008700483108008600233087002B088100DD
:101FE80008008430860023308700443108008600CA
:101FF80001308700010808008D31D22D8D31D92D8F
:102008008D31E62D8D31F92D8D31FE2D8E31032E3A
:102018008E31082E8E31102E8E31182E8E31202EB4
:102028008E31282E8E31312E8E313A2E8E31422E1F
:102038008E314A2E8331D82B8331D82B8331E12B33
:0C2048008331F62B84311D2C8531952D41
:102FAA00FE0012001E000130FE020030FF3B7F08C7
:102FBA007E0403190034D62F6400013080010131E8
:102FCA00FE020030FF3B7F087E0403190034E22F23
:102FDA004B3020009C007C309B009A01911021000C
:102FEA0091140030F101F201FC279731FD2F0800FE
:062FFA0020001C15080078
:020000040001F9
:04000E00E4FFFFFE0E
:00000001FF
