:020000040000FA
:0410000088318B2880
:101008007E1488310B1F36282100911C36282000B9
:10101800911C36289110EB140130F0007008E90794
:101028000130F0007008E80705306902031C1E282B
:10103800E9016B1532306802031C2428E801EB151E
:101048007C08031931280130F0007008FC070630CD
:101058007C02031C31286B14FC0101302100D207EB
:101068000030D33D0B1F5E282100911E5E28200012
:10107800911E5E28911223009D1C44281D121D16E6
:101088001908F00070082000E70020306A020318F1
:101098005A286708F0006A08403E86000130870039
:1010A800700881000130F0007008EA070130F00094
:1010B8007008FC002000111A0B1F84282100111E43
:1010C800842823009D1C6C281D121D169D129D1638
:1010D80020006608031980286508A03E86000130B4
:1010E8008700010823009A0001302000E602013041
:1010F800F0007008E5078428E601E50121001112D7
:101108002000931A9312131A13127E1009008831C3
:101118008D2803308400903085006C3086000030C4
:1011280087000030FF0004309C31212488310B30C7
:1011380084009C308500D430860000308700003061
:10114800FF000A309C31212488315C308400233030
:1011580085008430FE000030FF009C311524883162
:10116800FC0147308400003085002530FE00003047
:10117800FF009C3115248831A030840000308500A0
:101188003430FE000030FF009C31152488312030B7
:101198008400013085004030FE000030FF009C31A3
:1011A80015248831A0308400013085004030FE00CD
:1011B8000030FF009C3115247E1020008E31282E2F
:1011C80021005B08F2005A08F1005508F4005408A1
:1011D800F3009C31FD24883172082100C700710892
:1011E800C60020005F09B2006009B300B20A031903
:1011F800B30A21004608200032072100C40047082E
:101208002000333D2100C5005508F2005408F100C4
:101218004508F4004408F3009031AB208831720887
:101228002100C5007108C4005B08F2005A08F100EB
:1012380020006008F4005F08F3009D31EC25883138
:1012480072082100D5007108D40020006E08B20091
:101258006F08B300B401B501B209B309B409B509FF
:10126800B20A0319B30A0319B40A0319B50A6C08B8
:10127800B6006D08B700B801B9013608B2073708DB
:10128800B33D3808B43D3908B53D3508BD003408CC
:10129800BC003308BB003208BA00D030B2000730B7
:1012A800B3000030B4000030B5003A09B6003B097D
:1012B800B7003C09B8003D09B900B60A0319B70AD6
:1012C8000319B80A0319B90A3608B2073708B33D33
:1012D8003808B43D3908B53D3508BD003408BC00B0
:1012E8003308BB003208BA000430A03E86008701EC
:1012F800403F2100A800413FA900423FAA00433FC8
:10130800AB002308A7002208A6002108A500200892
:10131800A40020003D082100A30020003C08210073
:10132800A20020003B082100A10020003A0821006B
:10133800A00020082000B200210021082000B300EE
:10134800210022082000B400210023082000B50055
:10135800210024092000B600210025092000B7003B
:10136800210026092000B800210027092000B90023
:10137800B60A0319B70A0319B80A0319B90A3608CD
:10138800B2073708B33D3808B43D3908B53D3508CC
:10139800F4003408F3003308F2003208F1002100A9
:1013A8005008F5005108F600F701F8019D31BA25FB
:1013B800883174082000CE007308CD007208CC0074
:1013C8007108CB0021004E082000A40021004F081E
:1013D8002000A500A601A70121005008F10051082E
:1013E800F200F301F4012308F8002208F7002108AD
:1013F800F6002008F5009D31BA25883174082000D0
:10140800AB007308AA007208A9007108A8009331FC
:1014180029238831200027082100BF002000260842
:101428002100BE00200025082100BD00200024085E
:101438002100BC0020004B0821003C072000B2001E
:101448004C0821003D3D2000B3004D0821003E3DE1
:101458002000B4004E0821003F3D2000B5003508AB
:10146800BD003408BC003308BB003208BA000030A5
:10147800A7000030A6002730A5001030A4003D08C2
:10148800AB003C08AA003B08A9003A08A800933121
:101498002923883120002708BD002608BC0025081C
:1014A800BB002408BA00210056082000BA07210012
:1014B80057082000BB3D0030BC3DBD3D000020006A
:1014C800BD1B7A2A3D08031D722A3C08031D722A97
:1014D800B1303A0204303B3B031C7A2A0030BD008D
:1014E8000030BC000430BB00B030BA00BD1B892AF4
:1014F8003D08031D912A3C08031D912A3B08031D42
:10150800912A05303A020318912A0030BD000030B4
:10151800BC000030BB000530BA003B082100D700F2
:1015280020003A082100D60044082000B20021001B
:1015380045082000B3000030B31BFF30B400B500ED
:101548003208BA073308BB3D3408BC3D3508BD3DF9
:10155800BD1BC22A3D08031DBA2A3C08031DBA2A2E
:10156800B1303A0204303B3B031CC22A0030BD00B4
:101578000030BC000430BB00B030BA00BD1BD12A1B
:101588003D08031DD92A3C08031DD92A3B08031D21
:10159800D92A05303A020318D92A0030BD00003094
:1015A800BC000030BB000530BA003B08F8003A0820
:1015B800F7009D31342508002000C6011D30460281
:1015C8000318432B4608B400B501B435B50D3408EB
:1015D800023EB6000030353DB7006630B800233013
:1015E800B9003608380786003708393D8700403F7C
:1015F800BA00413FBB004608BC00BD01BC35BD0D6B
:101608006630BE002330BF003C083E0786003D0818
:101618003F3D8700403FC000413FC1003B084102B9
:10162800031D182B3A0840020318432B4608B40040
:10163800B501B435B50D3408023EB6000030353D6D
:10164800B7006630B8002330B9003608380786007E
:101658003708393D8700403FBA00413FBB00330897
:101668003B02031D392B32083A020318432B013081
:10167800B4003408C6071D304602031CE62A1D3094
:101688004602031C4B2B1C30B4003408C600460825
:10169800B400B501B435B50D3408023EB6000030CB
:1016A800353DB700A230B8002330B90036083807F6
:1016B80086003708393D8700403FBA00413FBB00EC
:1016C8003A082100C00020003B082100C100C201E7
:1016D800C30120004608B400B501B435B50DA230E9
:1016E800B6002330B7003408360786003508373D82
:1016F8008700403FB800413FB9003808CF0039089B
:10170800D000D101D2014608B400B501B435B50DF9
:101718003408023EB6000030353DB7006630B800E8
:101728002330B9003608380786003708393D870066
:10173800403FBA00413FBB003A082100BC002000EE
:101748003B082100BD00BE01BF0120004608B400CF
:10175800B501B435B50D6630B6002330B70034088E
:10176800360786003508373D8700403FB800413FBF
:10177800B9003808CB003908CC00CD01CE013208B9
:10178800B4003308B500B601B7014E08803AB80076
:101798003708803A3802031DDB2B36084D02031D3B
:1017A800DB2B35084C02031DDB2B34084B02031CD2
:1017B800E52B4608031DE52B5008B3004F08B2007F
:1017C80008004E08803AB40021003F08803A200003
:1017D8003402031DFF2B21003E0820004D02031D8B
:1017E800FF2B21003D0820004C02031DFF2B210088
:1017F8003C0820004B02031C062C5008B3004F087D
:10180800B20008004B09B4004C09B5004D09B600F8
:101818004E09B700B40A0319B50A0319B60A031921
:10182800B70A3208B8003308B900BA01BB01380852
:10183800B4073908B53D3A08B63D3B08B73D370807
:10184800C5003608C4003508C3003408C2002100AA
:1018580040082000B400210041082000B500210004
:1018680042082000B600210043082000B7004F09B5
:10187800B8005009B9005109BA005209BB00B80AAA
:101888000319B90A0319BA0A0319BB0A3808B407B5
:101898003908B53D3A08B63D3B08B73D3708F4006E
:1018A8003608F3003508F2003408F1004508F8005E
:1018B8004408F7004308F6004208F5009D31BA25B0
:1018C8008A3174082000C5007308C4007208C30078
:1018D8007108C20021003C082000B40021003D0826
:1018E8002000B50021003E082000B60021003F0876
:1018F8002000B7004B09B8004C09B9004D09BA00DF
:101908004E09BB00B80A0319B90A0319BA0A031920
:10191800BB0A3808B4073908B53D3A08B63D3B0854
:10192800B73D3708A7003608A6003508A5003408D3
:10193800A4004508AB004408AA004308A9004208CF
:10194800A800933129238A3120002708C5002608DA
:10195800C4002508C3002408C20042084F07B40089
:101968004308503DB5004408513DB6004508523D76
:10197800B7003708C5003608C4003508C300340866
:10198800C200C51FCF2C0030C5000030C400003095
:10199800C3000030C2004308B3004208B200080088
:1019A8002000B500B601B701B0013508AC002C081D
:1019B800B4005C308600233087004231340884004C
:1019C80001308500000801060319F12C340886004F
:1019D800013087000108031D08005C3086002330B1
:1019E80087004231FD300106031D012D34088600B1
:1019F800013087000108031908003408023E8600F8
:101A0800013087000108AC00AD012C08B6002D0894
:101A1800B7000830B635B70D890B0E2D3408033ED4
:101A28008600013087000108AC00AD012C08B6041F
:101A38002D08B704FF303605B60000303705B7006B
:101A4800023036063704031D372D3508053E86005B
:101A5800013087000108AC005E3086002330870023
:101A68002C088100F72D033036063704031D552D49
:101A78003508043E8600013087000108AC005D305F
:101A88008600233087002C0881005C3086002330D4
:101A980087003508053E8400013085000008C03FF6
:101AA800F72D00303702103003193602031C0800E6
:101AB800003037024C300319360203180800103082
:101AC800B6020030B73B361CF92D3508043E8600B7
:101AD800013087000108AC00AD012C08B1002D08C9
:101AE800B2000830B135B20D890B762D3508053EA8
:101AF8008600013087000108AC00AD012C08B10454
:101B08002D08B2043708AD003608AC00AD36AC0C71
:101B1800AC35AD0DA230AE002330AF002C082E0737
:101B280086002D082F3D87003108C03F3208C13F8D
:101B38003708AD003608AC00AD36AC0CAC35AD0D91
:101B48006630AE002330AF002C082E0786002D0823
:101B58002F3D87005308C03F5408C13F350A86000F
:101B68000130870026300106031DF72D3708AD0028
:101B78003608AC00AD36AC0C2C08013EAE002E0881
:101B8800B3001E3033020318F72D3308AC00AD0143
:101B9800AC35AD0DA230AE002330AF002C082E07B7
:101BA80086002D082F3D87003108C03F3208C13F0D
:101BB8003308AC00AD01AC35AD0D6630AE00233056
:101BC800AF002C082E0786002D082F3D87005308EC
:101BD800C03F5408C13F0130AC002C08B3071E3089
:101BE8003302031CC92DB001B00A30080319FF2DB8
:101BF8009E3120268C312000340886000130870071
:101C08000108031908005C30860023308700423140
:101C18000108AC0035088600013087002C088100D7
:101C28003508A6000130A7000630A8000030A9003A
:101C38009D3189258C3108302000AC002C08F80033
:101C480035089E31C52608000000AA302100DE00B4
:101C58005E083F00FF007F082100DE005E083F00AD
:101C6800FF009C31E2248E318B170B1723009E1244
:101C780095315A258E3155302100DE005E0822004C
:101C8800A000AA302100DE005E082200A100023078
:101C98002100DE005E08F80020309E31C5268E3116
:101CA80020006B1DFD2EFB302100DE005E082000A9
:101CB800EB05F401F40A20302100DE005E08F5008F
:101CC80006309131F9218E3175082000E000740842
:101CD800DF0003302100DE005E08F4002030DF0062
:101CE8005F08F50005309131F9218E317508200023
:101CF800DE007408DD0003302100DE005E08F40019
:101D08002030DF005F08F50004309131F9218E3171
:101D180075082000DC007408DB000130DC36DB0CC1
:101D2800890B922E03302100DE005E08F40020307B
:101D3800DF005F08F50002309131F9218E31750816
:101D48002000DA007408D9000130DA36D90C890B82
:101D5800A92E03302100DE005E08F4002030DF00E9
:101D68005F08F50007309131F9218E3175082000A0
:101D7800D8007408D7000130D836D70C890BC02E8C
:101D880096312E268E3120002608EF002508EE0019
:101D9800943139248E3120002608ED002508EC0006
:101DA8008831E4208E3120006008A6005F08A50075
:101DB800923156228E3120002608D4002508D300FF
:101DC8005408B3005308B2008A31E0228E31200053
:101DD80033082100CB00200032082100CA004A3510
:101DE8002000D50021004B0D2000D6009431C924D5
:101DF8008E312000EB1D062FF7302100DE005E0833
:101E08002000EB056B1C372FFE302100DE005E083A
:101E18002000EB056A080319342F2030F100013047
:101E2800F2004030F3000130F4006A082100DE00BF
:101E3800DF015E08F5005F08F6009D316C258E31E4
:101E480020006A082100DE00DF015E082000B800DB
:101E580021005F082000B900203091314F218E31D8
:101E68009B31FE238E310000542E2000B500B001B6
:101E7800B101B4013508AC002C08B3005C30860011
:101E88002330870042313308840001308500000880
:101E98000106031D08003308860001308700010889
:101EA800031908003308023E860001308700010844
:101EB800AC00AD012C08B0002D08B1000830B035D9
:101EC800B10D890B632F3308033E8600013087006C
:101ED8000108AC00AD012C08B0042D08B10431088C
:101EE800AF003008AE0033088600013087000130AB
:101EF800453FB4000310B40D21303402031C882F71
:101F08002030AC002C08B400B201340832020318A7
:101F1800BB2F2F08F2002E08F1003630AC002C0839
:101F2800F300973107278F3120003708AC003208BB
:101F3800033E3507AD002D088600013087002C08C8
:101F480081003608AC003208043E3507AD002D0884
:101F58008600013087002C0881003208023EAC0060
:101F68002C08B2000130AE070030AF3D892F5C303D
:101F780086002330870042310108AC00350886000E
:101F8800013087002C0881000330AC00350A860038
:101F9800013087002C0881003408AC003508023E67
:101FA8008600013087002C0881000330AC002C0823
:101FB800B4073508A6000130A7003408AC00AD010D
:101FC8002C08A8002D08A9009D3189258F310230E1
:101FD8002000AC002C08B4073408AC002C08F8002A
:101FE80035089E31C526080072082000E2007108F5
:061FF800E10008000800F2
:1020000020001C1508001034273410342734003009
:10201000F1001F30F2009D31182590312030F10081
:102020001F30F2009D31182590314030F1001F30F3
:10203000F2009D31182590316030F1001F30F20020
:102040009D31182590318030F1001F30F2009D3114
:102050001825080022008C018E010F3021008C0011
:102060001F308E000F3023008E0017308C003B3065
:1020700024008C0030308E002100951325008C0147
:102080008E0100308B1B0130F1008B1355303C006A
:102090008F00AA308F000F101508E0391438950012
:1020A0003D001408F039043894001508F03903385D
:1020B00095002508F0390938A50055303C008F00FF
:1020C000AA308F000F14711C67288B1708008B1320
:1020D00008002000AE002E08AD002D08AF002F082C
:1020E0008600013087000108031908005C30860073
:1020F0002330870042310108AD002F0886000130EF
:1021000087002D0881002C0803198E288030AD002F
:102110002F0A8600013087002D0881072C08AD00AA
:102120002F08023E8600013087002D0881002E080E
:10213000A6000130A7000330A8000030A9009D319F
:102140008925903105302000AD002D08F8002E08BB
:102150009E31C5260800F701F21FB528F109F209E2
:10216000F10A0319F20AF701F70AF41FC028F3096C
:10217000F409F30A0319F40A0130F5007508F706AB
:10218000F801F901710872040319EF28F601F60A43
:10219000F21BD4280130F135F20D890BCB28013028
:1021A000F5007508F607C8280130F835F90D890BD8
:1021B000D52872087402031DDF2871087302031CFE
:1021C000E6287108F3027208F43B78140130F23605
:1021D000F10C890BE7280130F602031DD42877089B
:1021E0000319F728F809F909F80A0319F90A79080F
:1021F000F2007808F100080000302000A300003051
:10220000A2000030A1000030A00074087304720422
:10221000710403194629A401A40AF41B1B290130E7
:10222000F135F20DF30DF40D890B10290130F90091
:102230007908A4070D290130A035A10DA20DA30D29
:10224000890B1C2974087802031D30297308770252
:10225000031D302972087602031D302971087502AA
:10226000031C3B297108F5027208F63B7308F73B23
:102270007408F83B20140130F436F30CF20CF10C26
:10228000890B3C290130A402031D1B292308F400FB
:102290002208F3002108F2002008F10008002000C5
:1022A000BD00BB013D08BA003A08BC005C308600A6
:1022B0002330870042313C0884000130850000084B
:1022C000010603196A293C088600013087000108CD
:1022D000031D08003D08A6000130A7003908A90029
:1022E0003808A8009E3156269131003A031908009B
:1022F0008F2920003D088F313927080020003D0834
:102300008C31D424080020003D089231B722080007
:102310002000AC01AC0A3D08903169200800200083
:102320003C0A8600013087000108033A0319792925
:10233000053A03197E29163A03198329363A0319F7
:102340007E2988290800FF302000A400FF30A50066
:10235000A001A10174082102031DB0297308200205
:102360000318F42971088600720887002408010602
:10237000A4002508A5000130F1070030F23DA201BC
:10238000A301003023020830031922020318EF29A9
:10239000241CDA292508F6002408F500F636F50C89
:1023A0007508A4007608A50001302406A400A0301A
:1023B0002506E3292508F6002408F500F636F50C75
:1023C0007508A4007608A5000130A2070030A33DDF
:1023D00000302302083003192202031CC8290130EF
:1023E000A0070030A13DAA292508F2002408F10029
:1023F00008002000A000A301A401A501A601740803
:102400009C3167249131200020089C315324913164
:102410004230890B092A003221009D149D180E2A92
:1024200041307502031C182A4030F6007608F5008A
:102430002000A101A2017508F600F7017708220229
:10244000031D242A760821020318512A21009D1415
:102450009D18282A000021001C08F600F7017608C4
:102460002000A5007708A6000230A535A60D890B2F
:10247000352A21001B08F6000630F636890B3D2A66
:102480007608F700F80177082000A5047808A6046C
:102490002508A3072608A43D0130A1070030A23D6E
:1024A0001B2A2408F5002308F4000800003020004F
:1024B000AA000030A9000030A8000030A700AB013E
:1024C00005302B020318882A2B35023EAC3E8600CD
:1024D00087012B35AC3E84008501403F803F413F62
:1024E000813F2B35AC3E86008701403FFA00413FDB
:1024F000FB007A08A7077B08A83D0030A93DAA3D4C
:102500000130FA007A08AB0705302B02031C642A5D
:102510002B35AC3E860087012508C03F2608C13F09
:102520002508A7072608A83D0030A93DAA3D003090
:10253000F4000030F3000030F2000630F1002A0809
:10254000F8002908F7002808F6002708F500903160
:10255000FC2074082000AA007308A9007208A800D3
:102560007108A7002808A6002708A5000800200079
:10257000AF002F08AC002C08B0005C308600233080
:1025800087004231300884000130850000080106D0
:10259000031D080030088600013087000108031978
:1025A000080030088600013087000130433FAD004D
:1025B00030088600013087000130453FAE0003300F
:1025C0002E06031D080004302D06031D08003008E8
:1025D000063E8400013085000008AC003008073E4C
:1025E0008400013085005C30860023308700443150
:1025F0000008C03F2C08C13F3008083E840001306D
:1026000085000008AC003008093E840001308500D8
:102610005C3086002330870046310008C03F2C081C
:10262000C13F9E312026923120002F08A6000130A4
:10263000A7000630A8000030A9009D3189259231FD
:1026400008302000AC002C08F8002F089E31C52669
:1026500008002000AD01A71F3A2BA409A509A6096F
:10266000A709A40A0319A50A0319A60A0319A70AA8
:10267000AD01AD0AAB1F4B2BA809A909AA09AB09EB
:10268000A80A0319A90A0319AA0A0319AB0A0130F7
:10269000F9007908AD060030B1000030B00000301C
:1026A000AF000030AE0027082604250424040319D7
:1026B000942BAC01AC0AA71B692B0130A435A50DE6
:1026C000A60DA70D890B5E2B0130F9007908AC0728
:1026D0005B2B0130AE35AF0DB00DB10D890B6A2B00
:1026E00027082B02031D7E2B26082A02031D7E2BA2
:1026F00025082902031D7E2B24082802031C892B90
:102700002408A8022508A93B2608AA3B2708AB3BBA
:102710002E140130A736A60CA50CA40C890B8A2B0D
:102720000130AC02031D692B2D080319A22BAE0941
:10273000AF09B009B109AE0A0319AF0A0319B00A0B
:102740000319B10A3108A7003008A6002F08A50018
:102750002E08A40008002000A301A4010030A70057
:102760001F30A80000308B1B0130A200A9017408A3
:10277000F6007308F5000530F636F50C890BBC2B16
:102780007508A3007608A4001F307305F50000301B
:102790007405F600750876040319D22B0130A307DF
:1027A0000030A43D8B13A501A601A001A1012408BE
:1027B0002102031DDD2B230820020318332C2300E4
:1027C0001513151595162000A901203029020318AC
:1027D0002B2C2708230091002000280823009200BA
:1027E000740820002602031DF72B73082502031826
:1027F000032C2508710786002608723D8700010812
:1028000023009300052C2300930101302000A5072D
:102810000030A63D230094011F3020002905F5005B
:102820001F307506031D162C23009512553023000A
:102830009600AA3096009514000000000130200098
:10284000A7070030A83D0130F5007508A907203022
:102850002902031CE92B2300151101302000A007D9
:102860000030A13DD72B220C031C8B1303188B17B0
:10287000080000302000CA000030C9002E30C80017
:10288000E030C7005D08F1005E08F200F301F401DA
:102890004A08F8004908F7004808F6004708F5001C
:1028A0009D31BA25943174082000CA007308C9000C
:1028B0007208C8007108C7005F082100B800200036
:1028C00060082100B900BA01BB013B08F4003A08D6
:1028D000F3003908F2003808F10020004A08F80037
:1028E0004908F7004808F6004708F5009031FC2039
:1028F000943174082000CA007308C9007208C80027
:102900007108C7004A08031D962C4908031D962C20
:10291000D03047020730483B0318962C0030CA00DD
:102920000030C9000730C800D030C7004A08031D76
:10293000A22C4908031DA22CA93047026130483B54
:10294000031CAA2C0030CA000030C9006130C80046
:10295000A830C7001830A900FC30AA00FF30AB0037
:10296000FF30AC004708A9074808AA3D4908AB3D1D
:102970004A08AC3D2C08CA002B08C9002A08C80028
:102980002908C7004708A5004808A600A701A80114
:10299000080020005709A0005809A100A00A031947
:1029A000A10A55082007A4005608213DA50096302D
:1029B000F1000030F2002508F4002408F300903103
:1029C000AB20943172082000A3007108A2002208F5
:1029D0002304031D0C2D2508803AA000803020021E
:1029E000031DF42C11302402031CFB2C01302000A9
:1029F000A2000030A30020002508803AA0007F300C
:102A00002002031D052DF030240203180C2DFF3089
:102A10002000A200FF30A300200022082100480768
:102A2000C800200023082100493DC9000A30F100F8
:102A30000030F20020005608F4005508F3009D31E4
:102A4000EC25943172082000A5007108A400210033
:102A5000480820002407A400210049082000253D43
:102A6000A5002508803AA00086302002031D3A2DDB
:102A70002D302402031C412D2C302000A4000630F0
:102A8000A50020002508803AA00080302002031D08
:102A90004B2D053024020318522D05302000A400D0
:102AA0000030A50020002508F8002408F7009D311B
:102AB000502508005C30F1002330F2008430F30030
:102AC0000030F4009E318D2695315C302000A60048
:102AD0002330A7008430A8000030A9009E3156267C
:102AE00095312000AE00AF012E08B4002F08B500CC
:102AF00034083504031D112E5C3086002330870016
:102B00005530C03F5D30860023308700AA308100F9
:102B10005E3086002330870001308100B601B701A6
:102B2000003037021E30031936020318E82D37082B
:102B3000F2003608F100D030F3000230F4009C318E
:102B4000FD2495317108B83E2000AE002430723D5E
:102B5000AF003708B1003608B000B035B10D6630AF
:102B6000B2002330B3003008320786003108333D0D
:102B700087002E08C03F2F08C13F3708F2003608F3
:102B8000F1004D30F3000130F4009C31FD2495310B
:102B900020003708AF003608AE00AE35AF0DA230CA
:102BA000B0002330B1002E08300786002F08313DD9
:102BB00087007108C03F7208C13F0130B60700307E
:102BC000B73D003037021E3003193602031C972D23
:102BD0008030AE000C30AF005C30860023308700C0
:102BE00044312E08C03F2F08C13F1430AE000030E2
:102BF000AF005C3086002330870046312E08C03F8E
:102C00002F08C13F0530AE000030AF005C308600B9
:102C10002330870048312E08C03F2F08C13F9E3126
:102C200020265C308600233087004431403F21005D
:102C3000D000413FD1005C30860023308700463110
:102C4000403FCE00413FCF005C30860023308700FC
:102C50004831403FCC00413FCD000800003021000A
:102C6000BB000430BA009330B900E030B800200057
:102C70005B08F1005C08F200F301F40121003B085D
:102C8000F8003A08F7003908F6003808F5009D31D9
:102C9000BA25963174082100BB007308BA00720887
:102CA000B9007108B80020005908C7005A08C800C8
:102CB000C901CA014A08F4004908F3004808F200B3
:102CC0004708F1000030F8000030F7000C30F60043
:102CD0001C30F5009D31BA25963174082000CA00D9
:102CE0007308C9007208C8007108C7000030F400FA
:102CF0000030F3000030F2006430F1004A08F800C0
:102D00004908F7004808F6004708F5009031FC2014
:102D1000963174082000CA007308C9007208C80000
:102D20007108C7004708A9004808AA004908AB0075
:102D30004A08AC005B08AD005C08AE00AF01B00112
:102D4000AD09AE09AF09B009AD0A0319AE0A0319FE
:102D5000AF0A0319B00A2D08A9072E08AA3D2F08AB
:102D6000AB3D3008AC3D2C08CA002B08C9002A082E
:102D7000C8002908C7004A08F4004908F3004808B9
:102D8000F2004708F10021003B08F8003A08F7007C
:102D90003908F6003808F5009031FC2096317408A7
:102DA0002000CA007308C9007208C8007108C70073
:102DB0004A08031DEC2E4908031DEC2ED0304702B3
:102DC0000730483B0318EC2E0030CA000030C90021
:102DD0000730C800D030C7004A08031DF82E490844
:102DE000031DF82EA93047026130483B031C002F19
:102DF0000030CA000030C9006130C800A830C700E8
:102E00004708A5004808A600A701A8010800F80186
:102E1000F9017108F4007408FA00B92F73088600EC
:102E200087014030C03F0030C13FC62F5C30860074
:102E30002330870042310108F400F5017308860051
:102E400087017408C03F7508C13FC62F5C308400FD
:102E50002330850001310008F4005C308400233009
:102E600085007308860087010008C03F7408C13FD1
:102E7000C62F5C30860023308700443173088400FD
:102E80008501403F803F413F813FC62F5C30860037
:102E9000233087004631730884008501403F803F1E
:102EA000413F813FC62F5C30860023308700483188
:102EB000730884008501403F803F413F813FC62F1A
:102EC00073088600870120005F08C03F6008C13F8B
:102ED000C62F73088600870120005D08C03F5E088A
:102EE000C13FC62F73088600870120005B08C03FE2
:102EF0005C08C13FC62F730886008701200059086F
:102F0000C03F5A08C13FC62F7308860087012000C2
:102F10006E08C03F6F08C13FC62F73088600870147
:102F200020006C08C03F6D08C13FC62F73088600A3
:102F3000870120005708C03F5808C13FC62F7308BB
:102F40008600870121004A08C03F4B08C13FC62FB9
:102F500073088600870120005508C03F5608C13F0E
:102F6000C62F730886008701AA30C03F5530C13F85
:102F7000C62F7A08FF3E031CB12F84000F300402D5
:102F80000318B12F98310435003E820010307A02C8
:102F9000031C08004C307A02031808001030FA02B3
:102FA0007A1CE92F7A36F400F501F435F50DA230DC
:102FB000F6002330F7007408760786007508773D21
:102FC0008700730884008501403F803F413F813F77
:102FD00008007A36F400F501F435F50D6630F60098
:102FE0002330F7007408760786007508773D870060
:102FF000730884008501403F803F413F813F0800C6
:1030000097310E2F9731162F9731262F9731392F61
:103010009731462F9731532F9731602F9731692F72
:103020009731722F97317B2F9731842F97318D2FC6
:103030009731962F97319F2F9731A82F3034313405
:103040003234333434343534363437343834393434
:0E305000413442344334443445344634003471
:1037EC008130220097000800163021009700080055
:1037FC002000EA01FC010800013021009D0063302B
:10380C009E009F019B019C01080014340034143469
:10381C0000341434003405340034053400346400AE
:10382C00800101310130FE020030FF3B7F087E0435
:10383C0003190034162CFE0012001E000130FE028B
:10384C000030FF3B7F087E0403190034222C21003A
:10385C0091121112083023009F0090309D002430EB
:10386C009E00A0309B0001309C002100911620008E
:10387C00111208004B3020009C007C309B009A01F8
:10388C009110210091140030F1000030F2008F31C2
:10389C00F8279C31903100200800F20021009D187F
:1038AC00542C7208F100F10DF10D1D0871068339CD
:1038BC0071069D001D1463309E009F019B019C01AD
:1038CC000800F3008030F1007108F200043073023C
:1038DC00031C742C0330F1007108F3007308F10021
:1038EC007108F204720822009700171B08007B2C49
:1038FC0001303B009C009D019E019F01A0019201A3
:10390C00023091009401A0309300063096003F30B5
:10391C0095009801013097009A01990190309B0015
:10392C00080001303B00AC00AD01AE01AF01B001AD
:10393C00A2010230A100A401A030A3000630A60011
:10394C003F30A500A8010130A700AA01A9019030C1
:10395C00AB0008003B001408F300F4017308F500F9
:10396C007408F6000830F535F60D890BB92C1308E0
:10397C00F300F4017308F5047408F6047608F200F9
:10398C007508F10008003B002408F300F4017308EB
:10399C00F5007408F6000830F535F60D890BD22CBD
:1039AC002308F300F4017308F5047408F604760890
:1039BC00F2007508F100080090312A209C318F31FB
:1039CC00FE279C319B31FA239C319B31F6239C3191
:1039DC009C317E249C319C3197249C319C31022457
:1039EC009C319C3140249C319C312D240800F501E4
:1039FC00F601711C052D7308F5077408F63D0130AE
:103A0C00F335F40D890B062D0130F236F10C890BD0
:103A1C000B2D71087204031DFF2C7608F20075083B
:103A2C00F100080000308B1B0130F3008B13710880
:103A3C0023009100720892001513151615155530B8
:103A4C009600AA3096009514000000002300151172
:103A5C00730C031C8B1303188B17080078082100B8
:103A6C00DB007708DA009C31B0249D317208FA0033
:103A7C007108F90078087A06031D462D7708790637
:103A8C00031908003B009B137708930078089400F7
:103A9C009B17080078082100DD007708DC009C31BA
:103AAC00C9249D317208FA007108F90078087A0669
:103ABC00031D622D77087906031908003B00AB1330
:103ACC007708A3007808A400AB17080075087604E3
:103ADC000319080073088600740887000108F700B2
:103AEC007108860072088700770881000130F3079F
:103AFC000030F43D0130F1070030F23D0130F502A9
:103B0C000030F63B6C2D20002708F2002608F1004F
:103B1C002908F4002808F3009131A3217208200031
:103B2C00AB007108AA0028082607F7002908273DD2
:103B3C00F80077088600780887002A0881002B088F
:103B4C00F7002808013EF8000030293DF9007808FC
:103B5C002607FA007908273DFB007A0886007B08C7
:103B6C00870077088100080000302000A300003097
:103B7C00A2000030A1000030A000711CCE2D7508F1
:103B8C002000A0077608A13D7708A23D7808A33D48
:103B9C000130F535F60DF70DF80D890BCF2D0130F1
:103BAC00F436F30CF20CF10C890BD62D740873045B
:103BBC0072047104031DC32D20002308F400220895
:103BCC00F3002108F2002008F1000800F601F701CB
:103BDC007108720403191B2EF801F80AF21B002E4F
:103BEC000130F135F20D890BF72D0130F500750818
:103BFC00F807F42D0130F635F70D890B012E7208FC
:103C0C007402031D0B2E71087302031C122E710813
:103C1C00F3027208F43B76140130F236F10C890B86
:103C2C00132E0130F802031D002E7708F2007608DF
:103C3C00F10008005C302000A6002330A700823081
:103C4C00A8000030A9009D3189259E3190310720B4
:103C5C009E315C30F1002330F2008430F3000030F0
:103C6C00F4009331AB235C30860023308700443161
:103C7C00403F2100D000413FD1005C308600233012
:103C8C0087004631403FCE00413FCF005C3086007C
:103C9C00233087004831403FCC00413FCD00080025
:103CAC002C30F1000030F200200028082607F80024
:103CBC002908273DF9007808FE3EF300FF30793DD6
:103CCC00F4000230F5000030F6009D316C259E3179
:103CDC0020002708F2002608F1002808FE3EF30019
:103CEC00FF30293DF4009131A3219E317208200050
:103CFC00AB007108AA002B082D06031D872E2A087D
:103D0C002C0603198B2E00300800013008000030FF
:103D1C00F8001F30F90000308B1B0130F7008B13BB
:103D2C00FA01FB0174087B02031D9E2E73087A02B4
:103D3C000318BF2E78082300910079089200151300
:103D4C001514000000007A087107F5007B08723D1D
:103D5C00F60075088600760887002300130881009A
:103D6C000130F8070030F93D0130FA070030FB3D17
:103D7C00982E770C031C8B1303188B170800FB0071
:103D8C0023009E1E9E1620006608031D080041306D
:103D9C007802031CD52E4030F9007908F800A030C9
:103DAC00F1000130F2007B08F3000130F4007808D8
:103DBC00F900FA017908F5007A08F6009D316C25B6
:103DCC009E317808031908002000111EEA2E2300EA
:103DDC0020089A007808F90079082000E6000130E4
:103DEC00E6020130F9007908E5072100111A0800F4
:043DFC001116080094
:00000001FF
