:0400000080314128E2
:100008007E148031AA303F007F06031D0D288831F9
:1000180004280B1F18282100111E18282000111E63
:1000280018288431BA2480310B1F23282100911EFF
:1000380023282000911E232884317B2480310B1F24
:100048003F282100911C3F282000911C3F28911037
:10005800210036083704031935280130B607003067
:10006800B73D00303702153003193602031C3F280C
:10007800B601B7017A147E100900803143282100A7
:100088008531B9258031D1008531BA258031D2003A
:100098008531BB258031D300403084002330850072
:1000A800A030FE000030FF00853198258031F8012E
:1000B800F901FA01A0308400003085001F30FE00ED
:1000C8000030FF00853198258031203084000130D0
:1000D80085003030FE000030FF00853198258031E2
:1000E800A0308400013085005030FE000030FF0051
:1000F800853198257E10200081317029000021303B
:100108002100BF003F082000A00021003A08FD3E62
:100118002000A100FF3003180030A20020308231F7
:10012800D0228031200020082100C0004008C300F0
:10013800000022002308031D672921082100BF00B1
:10014800C0013F08C1004008C2000830C135C20DD7
:10015800890BAA28220022082100BF00C0013F08FD
:10016800C1044008C2040130C236C10C890BB8284A
:100178004208B5004108B400083035063404031DB0
:10018800D5280130B4070030B53D3935A03E86008A
:10019800013087000030C03FC13F0130BF003F0839
:1001A800B907220020082100BF003F08BB003B0818
:1001B8000319672939085107BF0052080318520A62
:1001C800C00035084002031DEB2834083F0203181D
:1001D80016293935A03E860001308700FF30C03F20
:1001E8000330C13F0130BF003F08B9072030390252
:1001F800031CDE2852082000A70021005108200017
:10020800A600A0302100BF003F082000A8008331CD
:100218002623803120302100D1070030D23D203004
:10022800B902DE28C3013B084302031867294308C3
:10023800053E203E8600013087000108BF00C0014E
:100248003F08C1004008C2000830C135C20D890B03
:1002580029294308043E203E860001308700010812
:10026800BF00C0013F08C1044008C2043935A03EA0
:100278008600013087004108C03F4208C13F013075
:10028800BF003F08B90720303902031C6229520811
:100298002000A700210051082000A600A03021005E
:1002A800BF003F082000A80083312623803120307A
:1002B8002100D1070030D23D2030B9020230BF0002
:1002C8003F08C3071729F3013030F4000030F50068
:1002D80020308531092508002100CB01CC01CD0152
:1002E8005530C90049083F00FF007F082100C900B8
:1002F80049083F00FF0085317B2581318B170B179B
:100308000230F3001F30F4008431F0248131740886
:100318002100CD007308CC00FF304C05C900003027
:100328004D05CA00490A4A04031D062A8531A42539
:1003380081316B30F3008530F400843155248131EC
:1003480003302100CA000830C9007730890BAA2978
:10035800C90BAA29CA0BAA292030F3008530F4005A
:1003680084315524813115302100CA004B30C90031
:10037800BE30890BBD29C90BBD29CA0BBD29000098
:10038800C8302100CC000030CD00F9014C084D04E4
:100398000319F82902302100CA000430C900BA3014
:1003A800890BD429C90BD429CA0BD42900007A1C7B
:1003B800F229FE302100C9004908FA0540308600BC
:1003C80023308700793001060319F8294030860068
:1003D80023308700593001060319F829013021001C
:1003E800CC020030CD3BCA294C084D040319062A1B
:1003F80082310D2281312100C9004908CB004B0808
:100408000319052A00008B130B138831002880314B
:1004180041283430F3008530F4008431552482318A
:1004280005302100C7000F30C600F130890B1A2AA9
:10043800C60B1A2AC70B1A2A2100D301D30A003087
:10044800D1000830D200BB01B401B501BA01B9012D
:10045800362A1530332A83317623823106308531A6
:100468008A2582318331FE2382312100C600460865
:10047800C80048080319362AD301843048060319EE
:100488002F2A403086002330870004300106031DE0
:100498002D2A063085318A25823121003908031931
:1004A800732A08305202003003195102031C732AC0
:1004B8001F3052020030031951020318732A5208E0
:1004C8002000A100210051082000A000A030210038
:1004D800C60046082000A200823178228231063008
:1004E80085318A250130080000308B1B0130F60069
:1004F8008B1320002108F4002008F30084319E2487
:1005080082312300151315159516F701203077024F
:100518000318C82A20002008230091002000210881
:1005280023009200773520002207A30023088600C5
:100538000130870001082300930077352000220747
:10054800A3002308860001308700403FA400413FF4
:10055800A5002508230094001F307706031995127B
:1005680055309600AA30960095140000000001301E
:100578002000A0070030A13D0130A3002308F707A1
:1005880020307702031C8E2A23001511760C031CD9
:100598008B1303188B1708002000A5002208A4005D
:1005A8002108A30000302402023003192302031C8F
:1005B8001B2BA70120088600013087000108F600E0
:1005C8007608A6000130F6007608A00726088431D0
:1005D8002E248231F60076082000A700A70EF030FE
:1005E800A70520088600013087000108F600760874
:1005F800A6000130F6007608A007260884312E24CC
:10060800823120002707F6007608A7002708F600A1
:100618002508860001308700760881000130F60041
:100628007608A5070230A3020030A43BD62A220888
:10063800F7002108F600F736F60C7608A0007708D0
:10064800A100080020002708F4002608F3008431E0
:100658009E24833120002708A1002608A00028082E
:10066800A9002908A2008231782283312000EE01F6
:1006780020306E02031808006E082607F3002708CA
:100688000318270AF4008431F024833120006E35E2
:100698002E3E860087017308C03F7408C13F6E353F
:1006A8002807A9002908860001308700403FAA00D2
:1006B800413FAB006E352E3E86008701403FAC00BF
:1006C800413FAD002B082D06031D6C2B2A082C0674
:1006D8000319702B0000000001302000A900290830
:1006E800EE073C2B2000EF0103302100C400440832
:1006F8002000EF007908FF3E2100C400FF300318F6
:100708000030C5004508803A803C031D8E2B440804
:1007180020006F020318BD2B20006F08403E8600A2
:1007280087012330873D01082100C4003A08203E94
:100738008600013087004408810020006F08403E91
:10074800860087012330873D0A300106031DB22B3E
:100758008031822083312100BA01B72B013021007A
:10076800C4004408BA070130C40044082000EF0759
:100778007E2B0000080022008C018E010F30210022
:100788008C001F308E000F3023008E0017308C0035
:100798003B3024008C0030308E002100951325005A
:1007A8008C018E0100308B1B0130F3008B13553008
:1007B8003C008F00AA308F000F101508E03914385C
:1007C80095003D001408F039043894001508F039F4
:1007D800033895002508F0390938A50055303C0044
:1007E8008F00AA308F000F14731CFC2B8B17080086
:1007F8008B130800C830F4007408F5008531A4256F
:100808008331FE30F4007408FA05210053080319F7
:10081800112C153085318A2583313430F400F230BB
:10082800890B142CF40B142C7508031D7A18272C2B
:100838000B30F4006230890B1F2CF40B1F2C003294
:100848000130F502182C750803192C2C79080800BA
:1008580000300800F500F40130307502031C3B2C11
:100868003A30750203183B2C7508D03E502C4130A5
:100878007502031C462C473075020318462C750870
:10088800C93E502C61307502031C532C6730750229
:100898000318532C7508A93EF3007308F404740870
:1008A800080023009E1E9E167308840074088500A5
:1008B80012000319772C2000111E5F2C7308840086
:1008C80074088500000823009A000130F3070030FF
:1008D800F43D0000000000000000000000000000DF
:1008E80000000000582C2000111A0800772C230063
:1008F8009D1C802C1D121D161908F0007008F200AE
:10090800A0307902031808007908403EF000F10190
:100918002330F13D70088600710887007208810055
:100928000130F0007008F9070A302100B6000030E5
:10093800B700080000308B1B0130F5008B137308DB
:1009480023009100740892001513151615155530DB
:100958009600AA3096009514000000002300151197
:10096800750C031C8B1303188B170800103021001B
:1009780050020318D42C3E08A03E860087010108C7
:1009880023009A000130F00070082100BE071030E3
:100998003E020318BE010130F0007008D0070800BD
:1009A80011120800210091121112083023009F0033
:1009B80090309D0024309E00A0309B0001309C00A8
:1009C800F8012100BE011030F3007308D000BD010A
:1009D800BC01F9019116080000308B1B0130F500AD
:1009E8008B137308230091007408920015131514D3
:1009F80000000000750C031C8B1303188B172300D1
:100A08001408F4001308F3000800F7000130F4029A
:100A18000030F53B740A0319750A031908007308B6
:100A2800F6007708860001308700760881000130DB
:100A3800F6007608F7070A2D75347034643461348B
:100A4800743465342034613470347034203466343E
:100A580077343F3479342F346E340D340A3400340B
:100A6800733465346E34643420342A342E34683454
:100A7800653478342034663469346C3465342E3403
:100A88000D340A3400344A3020009C0018309B0092
:100A98009A019110210091140030F3000030F40005
:100AA8008531AA2585318531BC250800303431349B
:100AB80032343334343435343634373438343934E2
:100AC8004134423443344434453446340034623487
:100AD8006F346F3474346C3461346F346434653417
:100AE80072342E342E342E340D340A3400348331CB
:100AF800BF2385318531B02585318531B5258531CF
:100B08008531472585318431D6240800F300230038
:100B18009E1E9E162000111E8E2D730823009A001B
:100B28002000111A0800942D640080010131013061
:100B3800FE020030FF3B7F087E0403190034992D24
:100B4800F90121009116B601B701080074082100C7
:100B5800CF007308CE0008007A3021009900980170
:100B680008001630210097000800003408340134CA
:060B780020001C1508001E
:0410000088318B2880
:101008007E1488310B1F36282100911C36282000B9
:10101800911C36289110EB140130F0007008E90794
:101028000130F0007008E80705306902031C1E282B
:10103800E9016B1532306802031C2428E801EB151E
:101048007C08031931280130F0007008FC070630CD
:101058007C02031C31286B14FC0101302100D207EB
:101068000030D33D0B1F5E282100911E5E28200012
:10107800911E5E28911223009D1C44281D121D16E6
:101088001908F00070082000E70020306A020318F1
:101098005A286708F0006A08403E86000130870039
:1010A800700881000130F0007008EA070130F00094
:1010B8007008FC002000111A0B1F84282100111E43
:1010C800842823009D1C6C281D121D169D129D1638
:1010D80020006608031980286508A03E86000130B4
:1010E8008700010823009A0001302000E602013041
:1010F800F0007008E5078428E601E50121001112D7
:101108002000931A9312131A13127E1009008831C3
:101118008D28743084009C3085006C308600003047
:1011280087000030FF0004309C31942488317E30E1
:1011380084009C308500D430860000308700003061
:10114800FF000A309C31942488315C3084002330BD
:1011580085008430FE000030FF009C3188248831EF
:10116800FC0147308400003085002530FE00003047
:10117800FF009C3188248831A0308400003085002D
:101188003430FE000030FF009C3188248831203044
:101198008400013085004030FE000030FF009C31A3
:1011A80088248831A0308400013085004030FE005A
:1011B8000030FF009C3188247E1020008D31BA2D2C
:1011C8002000C6011D304602031847294608B4000E
:1011D800B501B435B50D3408023EB6000030353DD2
:1011E800B7006630B8002330B900360838078600E3
:1011F8003708393D8700403FBA00413FBB004608E9
:10120800BC00BD01BC35BD0D6630BE002330BF003B
:101218003C083E0786003D083F3D8700403FC00030
:10122800413FC1003B084102031D1C293A08400206
:10123800031847294608B400B501B435B50D34087C
:10124800023EB6000030353DB7006630B8002330A6
:10125800B9003608380786003708393D8700403F0F
:10126800BA00413FBB0033083B02031D3D29320849
:101278003A02031847290130B4003408C6071D3064
:101288004602031CEA281D304602031C4F291C3065
:10129800B4003408C6004608B400B501B435B50D2D
:1012A8003408023EB6000030353DB700A230B80021
:1012B8002330B9003608380786003708393D8700DB
:1012C800403FBA00413FBB003A082100C00020005F
:1012D8003B082100C100C201C30120004608B40038
:1012E800B501B435B50DA230B6002330B7003408C7
:1012F800360786003508373D8700403FB800413F34
:10130800B9003808CF003908D000D101D201460809
:10131800B400B501B435B50D3408023EB60000304E
:10132800353DB7006630B8002330B90036083807B5
:1013380086003708393D8700403FBA00413FBB006F
:101348003A082100BC0020003B082100BD00BE0176
:10135800BF0120004608B400B501B435B50D6630AC
:10136800B6002330B7003408360786003508373D05
:101378008700403FB800413FB9003808CB00390822
:10138800CC00CD01CE013208B4003308B500B60157
:10139800B7014E08803AB8003708803A3802031D72
:1013A800DF2936084D02031DDF2935084C02031DCD
:1013B800DF2934084B02031CE9294608031DE929E3
:1013C8005008B3004F08B20008004E08803AB40035
:1013D80021003F08803A20003402031D032A21001F
:1013E8003E0820004D02031D032A21003D0820006D
:1013F8004C02031D032A21003C0820004B02031C59
:101408000A2A5008B3004F08B20008004B09B4007C
:101418004C09B5004D09B6004E09B700B40A0319C6
:10142800B50A0319B60A0319B70A3208B80033080F
:10143800B900BA01BB013808B4073908B53D3A0804
:10144800B63D3B08B73D3708C5003608C400350827
:10145800C3003408C200210040082000B400210065
:1014680041082000B500210042082000B6002100F4
:1014780043082000B7004F09B8005009B9005109C6
:10148800BA005209BB00B80A0319B90A0319BA0A03
:101498000319BB0A3808B4073908B53D3A08B63D00
:1014A8003B08B73D3708F4003608F3003508F2006A
:1014B8003408F1004508F8004408F7004308F6002E
:1014C8004208F5009E312D26883174082000C50099
:1014D8007308C4007208C3007108C20021003C08E8
:1014E8002000B40021003D082000B50021003E087E
:1014F8002000B60021003F082000B7004B09B800C3
:101508004C09B9004D09BA004E09BB00B80A0319C5
:10151800B90A0319BA0A0319BB0A3808B407390803
:10152800B53D3A08B63D3B08B73D3708A700360831
:10153800A6003508A5003408A4004508AB004408F7
:10154800AA004308A9004208A80093316323883100
:1015580020002708C5002608C4002508C300240861
:10156800C20042084F07B4004308503DB500440884
:10157800513DB6004508523DB7003708C50036084A
:10158800C4003508C3003408C200C51FD32A003080
:10159800C5000030C4000030C3000030C20043085A
:1015A800B3004208B200080020006E08B2006F08BD
:1015B800B300B401B501B209B309B409B509B20A57
:1015C8000319B30A0319B40A0319B50A6C08B6005B
:1015D8006D08B700B801B9013608B2073708B33D3E
:1015E8003808B43D3908B53D3508BD003408BC009D
:1015F8003308BB003208BA00D030B2000730B3005D
:101608000030B4000030B5003A09B6003B09B70015
:101618003C09B8003D09B900B60A0319B70A03190D
:10162800B80A0319B90A3608B2073708B33D3808AB
:10163800B43D3908B53D3508BD003408BC00330851
:10164800BB003208BA000430A03E86008701403F44
:101658002100A800413FA900423FAA00433FAB0038
:101668002308A7002208A6002108A5002008A40036
:1016780020003D082100A30020003C082100A20012
:1016880020003B082100A10020003A082100A0000A
:1016980020082000B200210021082000B30021000A
:1016A80022082000B400210023082000B5002100F2
:1016B80024092000B600210025092000B7002100D8
:1016C80026092000B800210027092000B900B60A21
:1016D8000319B70A0319B80A0319B90A3608B20771
:1016E8003708B33D3808B43D3908B53D3508F4002E
:1016F8003408F3003308F2003208F10021005008E2
:10170800F5005108F600F701F8019E312D268A31BF
:1017180074082000CE007308CD007208CC00710850
:10172800CB0021004E082000A40021004F08200013
:10173800A500A601A70121005008F1005108F200F8
:10174800F301F4012308F8002208F7002108F60045
:101758002008F5009E312D268A3174082000AB0040
:101768007308AA007208A9007108A80093316323BE
:101778008A31200027082100BF0020002608210008
:10178800BE00200025082100BD00200024082100FB
:10179800BC0000302000D2000030D1000030D00062
:1017A8000030CF004F08B2005008B3005108B40011
:1017B8005208B5004B0821003C072000B6004C0831
:1017C80021003D3D2000B7004D0821003E3D20008E
:1017D800B8004E0821003F3D2000B9003608B20786
:1017E8003708B33D3808B43D3908B53D3508BD0064
:1017F8003408BC003308BB003208BA000030A70028
:101808000030A6002730A5001030A4003D08AB002A
:101818003C08AA003B08A9003A08A80093316323B2
:101828008A3120002708BD002608BC002508BB0017
:101838002408BA00210056082000BA0721005708DA
:101848002000BB3D0030BC3DBD3D00002000BD1B5D
:10185800412C3D08031D392C3C08031D392CB1309F
:101868003A0204303B3B031C412C0030BD000030E1
:10187800BC000430BB00B030BA00BD1B502C3D0882
:10188800031D582C3C08031D582C3B08031D582CDD
:1018980005303A020318582C0030BD000030BC0057
:1018A8000030BB000530BA003B082100D7002000FB
:1018B8003A082100D6005708F8005608F7009D316D
:1018C800A72508002000B500B601B701B00135080A
:1018D800AC002C08B4005C3086002330870042310D
:1018E8003408840001308500000801060319832CA0
:1018F80034088600013087000108031D08005C30A9
:101908008600233087004231FD300106031D932CE9
:1019180034088600013087000108031908003408DC
:10192800023E8600013087000108AC00AD012C089A
:10193800B6002D08B7000830B635B70D890BA02CB6
:101948003408033E8600013087000108AC00AD0171
:101958002C08B6042D08B704FF303605B600003051
:101968003705B700023036063704031DC92C350881
:10197800053E8600013087000108AC005E30860015
:10198800233087002C088100892D03303606370460
:10199800031DE72C3508043E860001308700010846
:1019A800AC005D308600233087002C0881005C3055
:1019B8008600233087003508053E84000130850005
:1019C8000008C03F892D0030370210300319360255
:1019D800031C0800003037024C3003193602031884
:1019E80008001030B6020030B73B361C8B2D350886
:1019F800043E8600013087000108AC00AD012C08C8
:101A0800B1002D08B2000830B135B20D890B082D90
:101A18003508053E8600013087000108AC00AD019D
:101A28002C08B1042D08B2043708AD003608AC0004
:101A3800AD36AC0CAC35AD0DA230AE002330AF00E6
:101A48002C082E0786002D082F3D87003108C03F3F
:101A58003208C13F3708AD003608AC00AD36AC0CD3
:101A6800AC35AD0D6630AE002330AF002C082E0724
:101A780086002D082F3D87005308C03F5408C13FFA
:101A8800350A86000130870026300106031D892D9E
:101A98003708AD003608AC00AD36AC0C2C08013E5A
:101AA800AE002E08B3001E3033020318892D330808
:101AB800AC00AD01AC35AD0DA230AE002330AF00A7
:101AC8002C082E0786002D082F3D87003108C03FBF
:101AD8003208C13F3308AC00AD01AC35AD0D6630FE
:101AE800AE002330AF002C082E0786002D082F3DAE
:101AF80087005308C03F5408C13F0130AC002C0890
:101B0800B3071E303302031C5B2DB001B00A300846
:101B18000319912D9E3193268C31200034088600BC
:101B2800013087000108031908005C308600233063
:101B3800870042310108AC00350886000130870073
:101B48002C0881003508A6000130A7000630A8003F
:101B58000030A9009D31FC258C3108302000AC00F4
:101B68002C08F80035088F31C42708000000AA3077
:101B78002100DE005E083F00FF007F082100DE0034
:101B88005E083F00FF009D3155258D318B170B17DF
:101B980023009E12963153268D3155302100DE00E8
:101BA8005E082200A000AA302100DE005E082200A4
:101BB800A10002302100DE005E08F80020308F31DD
:101BC800C4278D3120006B1D8F2EFB302100DE00D5
:101BD8005E082000EB05F401F40A20302100DE0045
:101BE8005E08F5000630923133228D3175082000E9
:101BF800E0007408DF0003302100DE005E08F40016
:101C08002030DF005F08F5000530923133228D3136
:101C180075082000DE007408DD0003302100DE00B6
:101C28005E08F4002030DF005F08F50004309231D0
:101C380033228D3175082000DC007408DB00013088
:101C4800DC36DB0C890B242E03302100DE005E0815
:101C5800F4002030DF005F08F500023092313322B3
:101C68008D3175082000DA007408D9000130DA36A1
:101C7800D90C890B3B2E03302100DE005E08F400EE
:101C88002030DF005F08F5000730923133228D31B4
:101C980075082000D8007408D7000130D836D70C52
:101CA800890B522E973127278D3120002608EF0007
:101CB8002508EE00943173248D3120002608ED00AC
:101CC8002508EC008A31D8228D3120006008A60052
:101CD8005F08A500923190228D3120002608D4009B
:101CE8002508D3005408B3005308B2008831E42013
:101CF8008D31200033082100CB002000320821005C
:101D0800CA004A352000D50021004B0D2000D6001E
:101D1800953103258D312000EB1D982EF7302100D9
:101D2800DE005E082000EB056B1CC92EFE3021008A
:101D3800DE005E082000EB056A080319C62E203075
:101D4800F1000130F2004030F3000130F4006A087D
:101D58002100DE00DF015E08F5005F08F6009D3116
:101D6800DF258D3120006A082100DE00DF015E08D2
:101D78002000B80021005F082000B9002030913110
:101D880089218D319C3170248D310000E62DF801B8
:101D9800F9017108F4007408FA007D2F73088600B1
:101DA80087014030C03F0030C13F8A2F5C30860039
:101DB8002330870042310108F400F50173088600DA
:101DC80087017408C03F7508C13F8A2F5C308400C2
:101DD8002330850001310008F4005C308400233092
:101DE80085007308860087010008C03F7408C13F5A
:101DF8008A2F5C30860023308700443173088400C2
:101E08008501403F803F413F813F8A2F5C308600FB
:101E1800233087004631730884008501403F803FA6
:101E2800413F813F8A2F5C3086002330870048314C
:101E3800730884008501403F803F413F813F8A2FDE
:101E480073088600870120005F08C03F6008C13F13
:101E58008A2F73088600870120005D08C03F5E084E
:101E6800C13F8A2F73088600870120005B08C03FA6
:101E78005C08C13F8A2F7308860087012000590833
:101E8800C03F5A08C13F8A2F730886008701200087
:101E98006E08C03F6F08C13F8A2F7308860087010C
:101EA80020006C08C03F6D08C13F8A2F7308860068
:101EB800870120005708C03F5808C13F8A2F730880
:101EC8008600870121004A08C03F4B08C13F8A2F7E
:101ED80073088600870120005508C03F5608C13F97
:101EE8008A2F730886008701AA30C03F5530C13F4A
:101EF8008A2F7A08FF3E031C752F84000F300402D6
:101F08000318752F98310435003E820010307A028C
:101F1800031C08004C307A02031808001030FA023B
:101F28007A1CAD2F7A36F400F501F435F50DA230A0
:101F3800F6002330F7007408760786007508773DA9
:101F48008700730884008501403F803F413F813FFF
:101F580008007A36F400F501F435F50D6630F60020
:101F68002330F7007408760786007508773D8700E8
:101F7800730884008501403F803F413F813F08004E
:101F8800FB0023009E1E9E1620006608031D080005
:101F980041307802031CD42F4030F9007908F8004A
:101FA800A030F1000130F2007B08F3000130F400AA
:101FB8007808F900FA017908F5007A08F6009D31E9
:101FC800DF258F317808031908002000111EE92F3A
:101FD800230020089A007808F90079082000E60014
:101FE8000130E6020130F9007908E5072100111AED
:101FF8000800111608000800013021009D00633018
:102008009E009F019B019C0108000030F1001F30D9
:10201800F2009D318B2590312030F1001F30F20005
:102028009D318B2590314030F1001F30F2009D31F9
:102038008B2590316030F1001F30F2009D318B25E7
:1020480090318030F1001F30F2009D318B2508005F
:102058000030F8001F30F90000308B1B0130F7000A
:102068008B13FA01FB0174087B02031D3D287308DA
:102078007A0203185E2878082300910079089200F4
:1020880015131514000000007A087107F5007B0885
:10209800723DF6007508860076088700230013084D
:1020A80081000130F8070030F93D0130FA070030AF
:1020B800FB3D3728770C031C8B1303188B1708007C
:1020C80022008C018E010F3021008C001F308E0001
:1020D8000F3023008E0017308C003B3024008C001A
:1020E80030308E002100951325008C018E010030C0
:1020F8008B1B0130F1008B1355303C008F00AA3048
:102108008F000F101508E039143895003D001408A9
:10211800F039043894001508F0390338950025087B
:10212800F0390938A50055303C008F00AA308F00DF
:102138000F14711CA1288B1708008B1308002000AE
:10214800AE002E08AD002D08AF002F088600013024
:1021580087000108031908005C30860023308700D7
:1021680042310108AD002F088600013087002D0894
:1021780081002C080319C8288030AD002F0A86007A
:10218800013087002D0881072C08AD002F08023E7A
:102198008600013087002D0881002E08A600013036
:1021A800A7000330A8000030A9009D31FC2590311C
:1021B80005302000AD002D08F8002E088F31C42707
:1021C8000800F701F21FEF28F109F209F10A0319D3
:1021D800F20AF701F70AF41FFA28F309F409F30AD7
:1021E8000319F40A0130F5007508F706F801F9013A
:1021F8007108720403192929F601F60AF21B0E293F
:102208000130F135F20D890B05290130F50075080B
:10221800F60702290130F835F90D890B0F297208E4
:102228007402031D192971087302031C20297108FF
:10223800F3027208F43B78140130F236F10C890B82
:1022480021290130F602031D0E29770803193129C7
:10225800F809F909F80A0319F90A7908F20078085F
:10226800F100080000302000A3000030A200003078
:10227800A1000030A00074087304720471040319EB
:102288008029A401A40AF41B55290130F135F20D67
:10229800F30DF40D890B4A290130F9007908A407D8
:1022A80047290130A035A10DA20DA30D890B562990
:1022B80074087802031D6A2973087702031D6A29C6
:1022C80072087602031D6A2971087502031C7529B4
:1022D8007108F5027208F63B7308F73B7408F83B7F
:1022E80020140130F436F30CF20CF10C890B76292A
:1022F8000130A402031D55292308F4002208F30025
:102308002108F2002008F10008002000BD00BB01F0
:102318003D08BA003A08BC005C30860023308700CC
:1023280042313C0884000130850000080106031989
:10233800A4293C088600013087000108031D080015
:102348003D08A6000130A7003908A9003808A800F0
:102358009E31C9269131003A03190800C929200085
:102368003D0895319425080020003D088C316624ED
:10237800080020003D089231F12208002000AC013D
:10238800AC0A3D089031A320080020003C0A8600D2
:10239800013087000108033A0319B329053A0319E4
:1023A800B829163A0319BD29363A0319B829C2299A
:1023B8000800FF302000A400FF30A500A001A10103
:1023C80074082102031DEA297308200203182E2A23
:1023D800710886007208870024080106A4002508F1
:1023E800A5000130F1070030F23DA201A301003041
:1023F80023020830031922020318292A241C142A4C
:102408002508F6002408F500F636F50C7508A40032
:102418007608A50001302406A400A03025061D2A50
:102428002508F6002408F500F636F50C7508A40012
:102438007608A5000130A2070030A33D0030230232
:10244800083003192202031C022A0130A0070030B9
:10245800A13DE4292508F2002408F1000800200025
:10246800A000A301A401A501A60174089C31DA24E7
:102478009231200020089C31C62492314230890BC9
:10248800432A003221009D149D18482A41307502C4
:10249800031C522A4030F6007608F5002000A101FE
:1024A800A2017508F600F70177082202031D5E2ACB
:1024B8007608210203188B2A21009D149D18622A90
:1024C800000021001C08F600F70176082000A5008E
:1024D8007708A6000230A535A60D890B6F2A2100C2
:1024E8001B08F6000630F636890B772A7608F700BF
:1024F800F80177082000A5047808A6042508A30792
:102508002608A43D0130A1070030A23D552A240821
:10251800F5002308F400080000302000AA0000306D
:10252800A9000030A8000030A700AB0105302B023D
:102538000318C22A2B35023EAC3E860087012B3594
:10254800AC3E84008501403F803F413F813F2B35B1
:10255800AC3E86008701403FFA00413FFB007A0805
:10256800A7077B08A83D0030A93DAA3D0130FA0025
:102578007A08AB0705302B02031C9E2A2B35AC3E8C
:10258800860087012508C03F2608C13F2508A70700
:102598002608A83D0030A93DAA3D0030F4000030CF
:1025A800F3000030F2000630F1002A08F80029088C
:1025B800F7002808F6002708F5009131362174083D
:1025C8002000AA007308A9007208A8007108A700D3
:1025D8002808A6002708A50008002000AF002F083B
:1025E800AC002C08B0005C308600233087004231F4
:1025F800300884000130850000080106031D08002A
:1026080030088600013087000108031908003008E7
:102618008600013087000130433FAD003008860056
:10262800013087000130453FAE0003302E06031D00
:10263800080004302D06031D08003008063E8400FB
:10264800013085000008AC003008073E84000130E6
:1026580085005C3086002330870044310008C03F85
:102668002C08C13F3008083E84000130850000086E
:10267800AC003008093E8400013085005C308600DB
:102688002330870046310008C03F2C08C13F9E31E7
:102698009326923120002F08A6000130A7000630AB
:1026A800A8000030A9009D31FC2592310830200097
:1026B800AC002C08F8002F088F31C4270800200030
:1026C800AD01A71F742BA409A509A609A709A40A87
:1026D8000319A50A0319A60A0319A70AAD01AD0A29
:1026E800AB1F852BA809A909AA09AB09A80A0319D0
:1026F800A90A0319AA0A0319AB0A0130F9007908D3
:10270800AD060030B1000030B0000030AF0000303E
:10271800AE0027082604250424040319CE2BAC0197
:10272800AC0AA71BA32B0130A435A50DA60DA70D38
:10273800890B982B0130F9007908AC07952B0130EB
:10274800AE35AF0DB00DB10D890BA42B27082B02A8
:10275800031DB82B26082A02031DB82B25082902B9
:10276800031DB82B24082802031CC32B2408A80225
:102778002508A93B2608AA3B2708AB3B2E140130A5
:10278800A736A60CA50CA40C890BC42B0130AC02EF
:10279800031DA32B2D080319DC2BAE09AF09B009C3
:1027A800B109AE0A0319AF0A0319B00A0319B10A2D
:1027B8003108A7003008A6002F08A5002E08A4009D
:1027C80008002000A301A4010030A7001F30A800C2
:1027D80000308B1B0130A200A9017408F6007308B1
:1027E800F5000530F636F50C890BF62B7508A300B5
:1027F8007608A4001F307305F50000307405F60054
:102808007508760403190C2C0130A3070030A43D89
:102818008B13A501A601A001A10124082102031D13
:10282800172C2308200203186D2C230015131515E7
:1028380095162000A901203029020318652C2708C5
:10284800230091002000280823009200740820002B
:102858002602031D312C7308250203183D2C250878
:10286800710786002608723D87000108230093003F
:102878003F2C2300930101302000A5070030A63D1E
:10288800230094011F3020002905F5001F3075062C
:10289800031D502C23009512553023009600AA30B2
:1028A800960095140000000001302000A7070030B2
:1028B800A83D0130F5007508A90720302902031C3E
:1028C800232C2300151101302000A0070030A13D62
:1028D800112C220C031C8B1303188B1708000030D3
:1028E8002000CA000030C9002E30C800E030C70000
:1028F8005D08F1005E08F200F301F4014A08F800EF
:102908004908F7004808F6004708F5009E312D26CB
:10291800943174082000CA007308C9007208C800FE
:102928007108C7005F082100B80020006008210076
:10293800B900BA01BB013B08F4003A08F3003908B2
:10294800F2003808F10020004A08F8004908F700AA
:102958004808F6004708F50091313621943174088B
:102968002000CA007308C9007208C8007108C700AF
:102978004A08031DD02C4908031DD02CD03047022B
:102988000730483B0318D02C0030CA000030C9007B
:102998000730C800D030C7004A08031DDC2C49089E
:1029A800031DDC2CA93047026130483B031CE42C92
:1029B8000030CA000030C9006130C800A830C70024
:1029C8001830A900FC30AA00FF30AB00FF30AC0083
:1029D8004708A9074808AA3D4908AB3D4A08AC3D45
:1029E8002C08CA002B08C9002A08C8002908C700F3
:1029F8004708A5004808A600A701A801080020006C
:102A08005709A0005809A100A00A0319A10A5508EE
:102A18002007A4005608213DA5009630F10000309B
:102A2800F2002508F4002408F3009031E5209531E0
:102A380072082000A3007108A20022082304031DC5
:102A4800462D2508803AA00080302002031D2E2D37
:102A580011302402031C352D01302000A200003063
:102A6800A30020002508803AA0007F302002031D23
:102A78003F2DF03024020318462DFF302000A2001D
:102A8800FF30A3002000220821004807C8002000CA
:102A980023082100493DC9000A30F1000030F20046
:102AA80020005608F4005508F3009E315F26953142
:102AB80072082000A5007108A40021004808200021
:102AC8002407A400210049082000253DA500250869
:102AD800803AA00086302002031D742D2D30240278
:102AE800031C7B2D2C302000A4000630A5002000FC
:102AF8002508803AA00080302002031D852D05306E
:102B0800240203188C2D05302000A4000030A500F5
:102B180020002508F8002408F7009D31C325080087
:102B28002000B500B001B101B4013508AC002C0893
:102B3800B3005C30860023308700423133088400BC
:102B48000130850000080106031D080033088600CF
:102B5800013087000108031908003308023E860087
:102B6800013087000108AC00AD012C08B0002D0829
:102B7800B1000830B035B10D890BBE2D3308033EC6
:102B88008600013087000108AC00AD012C08B004B4
:102B98002D08B1043108AF003008AE0033088600B4
:102BA800013087000130453FB4000310B40D2130D7
:102BB8003402031CE32D2030AC002C08B400B20111
:102BC800340832020318162E2F08F2002E08F100DE
:102BD8003630AC002C08F3008E31CB26953120001E
:102BE8003708AC003208033E3507AD002D088600D3
:102BF800013087002C0881003608AC003208043EFA
:102C08003507AD002D088600013087002C088100AB
:102C18003208023EAC002C08B2000130AE0700308A
:102C2800AF3DE42D5C308600233087004231010837
:102C3800AC0035088600013087002C08810003307D
:102C4800AC00350A8600013087002C088100340862
:102C5800AC003508023E8600013087002C08810050
:102C68000330AC002C08B4073508A6000130A700D3
:102C78003408AC00AD012C08A8002D08A9009D312E
:102C8800FC25953102302000AC002C08B40734082C
:102C9800AC002C08F80035088F31C42708005C30D8
:102CA800F1002330F2008430F3000030F40090315A
:102CB8002C2096315C302000A6002330A7008430F9
:102CC800A8000030A9009E31C92696312000AE0028
:102CD800AF012E08B4002F08B50034083504031DD1
:102CE8000A2F5C308600233087005530C03F5D30A6
:102CF800860023308700AA3081005E3086002330AA
:102D0800870001308100B601B701003037021E305C
:102D1800031936020318E12E3708F2003608F100CD
:102D2800D030F3000230F4009D31702596317108DF
:102D3800B83E2000AE002430723DAF003708B10025
:102D48003608B000B035B10D6630B2002330B3009C
:102D58003008320786003108333D87002E08C03F0F
:102D68002F08C13F3708F2003608F1004D30F30054
:102D78000130F4009D317025963120003708AF00EE
:102D88003608AE00AE35AF0DA230B0002330B1002A
:102D98002E08300786002F08313D87007108C03F94
:102DA8007208C13F0130B6070030B73D0030370226
:102DB8001E3003193602031C902E8030AE000C30F2
:102DC800AF005C3086002330870044312E08C03FB6
:102DD8002F08C13F1430AE000030AF005C308600D1
:102DE8002330870046312E08C03F2F08C13F0530E9
:102DF800AE000030AF005C308600233087004831D9
:102E08002E08C03F2F08C13F9E3193265C308600B4
:102E1800233087004431403F2100D000413FD1009A
:102E28005C308600233087004631403FCE00413F6A
:102E3800CF005C308600233087004831403FCC000B
:102E4800413FCD00080000302100BB000430BA002B
:102E58009330B900E030B80020005B08F1005C084E
:102E6800F200F301F40121003B08F8003A08F700EA
:102E78003908F6003808F5009E312D269731740878
:102E88002100BB007308BA007208B9007108B800C5
:102E980020005908C7005A08C800C901CA014A08D1
:102EA800F4004908F3004808F2004708F100003030
:102EB800F8000030F7000C30F6001C30F5009E31A9
:102EC8002D26973174082000CA007308C9007208BB
:102ED800C8007108C7000030F4000030F30000306B
:102EE800F2006430F1004A08F8004908F700480881
:102EF800F6004708F5009131362197317408200013
:102F0800CA007308C9007208C8007108C7004708DA
:102F1800A9004808AA004908AB004A08AC005B08A9
:102F2800AD005C08AE00AF01B001AD09AE09AF0954
:102F3800B009AD0A0319AE0A0319AF0A0319B00A9A
:102F48002D08A9072E08AA3D2F08AB3D3008AC3D37
:102F58002C08CA002B08C9002A08C8002908C7007D
:102F68004A08F4004908F3004808F2004708F1004D
:102F780021003B08F8003A08F7003908F60038083D
:102F8800F50091313621973174082000CA00730882
:102F9800C9007208C8007108C7004A08031DE52F58
:102FA8004908031DE52FD03047020730483B031876
:102FB800E52F0030CA000030C9000730C800D03003
:102FC800C7004A08031DF12F4908031DF12FA93036
:102FD80047026130483B031CF92F0030CA0000301B
:102FE800C9006130C800A830C7004708A5004808D4
:102FF800A600A701A80108008E31D22E8E31DA2E44
:103008008E31EA2E8E31FD2E8F310A2F8F31172FF8
:103018008F31242F8F312D2F8F31362F8F313F2F26
:103028008F31482F8F31512F8F315A2F8F31632F86
:103038008F316C2F303431343234333434343534C6
:1030480036343734383439344134423443344434F0
:063058004534463400344B
:1038CA0020001C15080081302200970008001630DD
:1038DA002100970008002000EA01FC0108001034CA
:1038EA0027341034273472082000E2007108E100FE
:1038FA000800183400341434003414340034053405
:10390A000034053400346400800101310130FE02C4
:10391A000030FF3B7F087E0403190034892CFE0027
:10392A0012001E000130FE020030FF3B7F087E04B9
:10393A0003190034952C210091121112083023002A
:10394A009F0090309D0024309E00A0309B000130E3
:10395A009C00210091162000111208004B30200013
:10396A009C007C309B009A01911021009114003038
:10397A00F1000030F2009C3178249C319C3165249E
:10398A000800F20021009D18C72C7208F100F10D01
:10399A00F10D1D087106833971069D001D146330EF
:1039AA009E009F019B019C010800F3008030F100FA
:1039BA007108F20004307302031CE72C0330F10093
:1039CA007108F3007308F1007108F204720822000A
:1039DA009700171B0800EE2C01303B009C009D014C
:1039EA009E019F01A0019201023091009401A03032
:1039FA009300063096003F309500980101309700F9
:103A0A009A01990190309B00080001303B00AC00FC
:103A1A00AD01AE01AF01B001A2010230A100A401C3
:103A2A00A030A3000630A6003F30A500A80101304F
:103A3A00A700AA01A9019030AB0008003B001408B6
:103A4A00F300F4017308F5007408F6000830F53540
:103A5A00F60D890B2C2D1308F300F4017308F504F5
:103A6A007408F6047608F2007508F10008003B00B5
:103A7A002408F300F4017308F5007408F60008300E
:103A8A00F535F60D890B452D2308F300F40173086B
:103A9A00F5047408F6047608F2007508F1000800C7
:103AAA00903164209D318F31FF279D319C316C24E8
:103ABA009D319C3168249D319C31F1249D319D3189
:103ACA000A259D31903100209D319C31B3249D31CE
:103ADA009C31A0240800F501F601711C782D7308A9
:103AEA00F5077408F63D0130F335F40D890B792D8D
:103AFA000130F236F10C890B7E2D71087204031D18
:103B0A00722D7608F2007508F100080000308B1B50
:103B1A000130F3008B1371082300910072089200A0
:103B2A0015131516151555309600AA3096009514DA
:103B3A000000000023001511730C031C8B130318DB
:103B4A008B17080078082100DB007708DA009D311E
:103B5A0023259D317208FA007108F90078087A065F
:103B6A00031DB92D77087906031908003B009B133A
:103B7A0077089300780894009B17080078082100BA
:103B8A00DD007708DC009D313C259D317208FA0082
:103B9A007108F90078087A06031DD52D7708790689
:103BAA00031908003B00AB137708A3007808A400A8
:103BBA00AB17080075087604031908007308860015
:103BCA00740887000108F7007108860072088700E8
:103BDA00770881000130F3070030F43D0130F10726
:103BEA000030F23D0130F5020030F63BDF2D2000B7
:103BFA002708F2002608F1002908F4002808F30033
:103C0A009131DD2172082000AB007108AA00280852
:103C1A002607F7002908273DF80077088600780864
:103C2A0087002A0881002B08F7002808013EF800BF
:103C3A000030293DF90078082607FA007908273D5F
:103C4A00FB007A0886007B08870077088100080055
:103C5A0000302000A3000030A2000030A100003094
:103C6A00A000711C412E75082000A0077608A13D0E
:103C7A007708A23D7808A33D0130F535F60DF70D1A
:103C8A00F80D890B422E0130F436F30CF20CF10CCC
:103C9A00890B492E7408730472047104031D362EAD
:103CAA0020002308F4002208F3002108F20020086B
:103CBA00F1000800F601F7017108720403198E2E4B
:103CCA00F801F80AF21B732E0130F135F20D890B57
:103CDA006A2E0130F5007508F807672E0130F635AF
:103CEA00F70D890B742E72087402031D7E2E71085B
:103CFA007302031C852E7108F3027208F43B7614D2
:103D0A000130F236F10C890B862E0130F802031DC0
:103D1A00732E7708F2007608F10008005C30200064
:103D2A00A6002330A7008230A8000030A9009D31E8
:103D3A00FC259E31903109209E315C30F100233000
:103D4A00F2008430F3000030F4009331E5235C3054
:103D5A008600233087004431403F2100D000413F94
:103D6A00D1005C308600233087004631403FCE00C8
:103D7A00413FCF005C308600233087004831403F06
:103D8A00CC00413FCD0008002C30F1000030F20099
:103D9A00200028082607F8002908273DF900780896
:103DAA00FE3EF300FF30793DF4000230F5000030AA
:103DBA00F6009D31DF259E3120002708F2002608F3
:103DCA00F1002808FE3EF300FF30293DF40091314E
:103DDA00DD219E3172082000AB007108AA002B0871
:103DEA002D06031DFA2E2A082C060319FE2E003072
:063DFA0008000130080082
:020000040001F9
:04000E00E4FFFBFE12
:00000001FF
