:0400000080315028D3
:100008007E1480310B1F2F282100911C2F282000DF
:10001800911C2F289110E1140530E50AE60A6502C3
:10002800031C1828E501611532306602031C1E28DE
:10003800E601E115620803192828E20A063062027F
:10004800031C28286114E20101302100CC0700308C
:10005800CD3DCE3DCF3D0B1F4E282100911E4E2891
:100068002000911E4E28911223009D1C3D281D1230
:100078001D161908F00040307C0203184B287C0834
:10008800A03E86000130870070088100FC0A01301C
:100098002000E2007E100900803152284D30FC011A
:1000A8008400003085001A308831B9208031A030B2
:1000B80084000030850030308831B920803120300C
:1000C80084000130850034308831B9208031A03077
:1000D80084000130850040308831B92080312030DB
:1000E80084000230850040308831B9208031BF302B
:1000F800840088308500673086000030870006302D
:100108008831B3208031EE30840087308500D030CC
:1001180086000030870010308831B32080317E108F
:10012800200096280000C5218B170B170A30F30012
:10013800F4018A31252280318E31422680315530B2
:1001480022002006031DAC28AA3021060319AF2877
:100158002000E301D02805302000E3002200240815
:100168002000CD00220025082000CE00CF01D001BC
:10017800220028082100AC00220029082100AD0037
:10018800AE01AF01220026082100B0002200270896
:100198002100B100B201B3012000611D6D29611178
:1001A8002030F301F30AF40006308D218031740801
:1001B8002000DC007308DB000330F3002030F4007B
:1001C80005308D21803174082000DA007308D900C9
:1001D8000330F3001030F40004308D2180317408AE
:1001E8002000D8007308D7000330F3001030F40063
:1001F80002308D21803174082000D6007308D500A4
:100208001030F301F30AF40007308D2180317408AF
:100218002000DE007308DD0006262808EA0027080B
:10022800E9002608E8002508E7008831D820803151
:1002380028082100DF00200027082100DE00200018
:1002480026082100DD00200025082100DC00000030
:10025800053020006302031C47298A31412280317E
:100268006E2280312508D4002408D3005408B30036
:100278005308B200C9223308E0003208DF00893190
:100288004C2180316D299F23803105302000630285
:10029800031C6D2955302200A000AA30A1002000BF
:1002A8004E082200A50020004D082200A4002100CD
:1002B8002D082200A90021002C082200A8002100F6
:1002C80031082200A700210030082200A600FD26E0
:1002D80080312000E119E111611C8B2961107C0833
:1002E800031989292030F1000230F200A030F30010
:1002F8000130F4007C08F500F601E2267C08B50020
:100308002030B6018C3150248031B4278031000070
:10031800D028F600F701F80173085D2280317608CD
:100328004E2280310D30F500F50B982941307402CA
:10033800031CA0294030F400F9017408790203185D
:10034800C02921009D149D18A729000021001C0820
:10035800FA00FB01FA35FB0DFA35FB0D1B08F50019
:100368000630F536890BB5297508FA047A08F707B7
:100378007B08F83DF90AA1297808F4007708F3000A
:100388000800E3218031DE2180314B228031DA21DF
:1003980080311C22803134228031D6218831C52019
:1003A8008031C22F013021009D00832F813022002F
:1003B8009700080078302100990098010800220071
:1003C8008C018E010F3021008C001F308E000F3001
:1003D80023008E0017308C003B3024008C00303016
:1003E8008E002100951325008C018E0100308B1B97
:1003F8000130F1008B13902780310F101508E03978
:10040800143895003D001408F03904389400150894
:10041800F039033895002508F0390938A5009027E8
:1004280080310F14711C1A2A8B1708008B130800CF
:100438003B009C019D019E0180309F00A00192011C
:1004480091019401A0309300063096003F3095004A
:100458009801013097009A01990190309B0008009B
:10046800AC01AD01AE018030AF00B001A201A10125
:10047800A401A030A3000630A6003F30A500A801C3
:100488000130A700AA01A9019030AB00080016307E
:1004980097000800F20021009D184F2A7208F10009
:1004A800F10DF10D1D087106833971069D001D14AB
:1004B800832FF2008030F10004307202031C662A98
:1004C8000330F2007208F104710822009700171B2C
:1004D80008006B2A20005C08AB005B08AA005D30AE
:1004E8002B02C13003192A02031C7E2AC030AA003D
:1004F8005D30AB0019302B02003003192A020318B3
:10050800882A1930AA01AB002A08A6002B08A700E0
:10051800A801A9012A08F1002B08F200F301F4014F
:100528002908F8002808F7002708F6002608F5002B
:10053800DE2580317408A9007308A8007208A70096
:100548007108A6000030A602A73B7130A83B023014
:10055800A93B0D30A936A80CA70CA60C890BAE2A0E
:100568002908031DBB2A01302802031CC02AFF30BA
:10057800A901A801A700A6002708AB002608AA0021
:100588002B08A5002A08A4000800CC014C352C3EF5
:100598005E2780314C352A3E8600403FB600413FF9
:1005A800B70035083702031DDB2A34083602031862
:1005B800E72A4C352A3E5E2780313302031DF12A93
:1005C80034083202F12A4C352A3E5E27803133083E
:1005D8003502031DF12A32083402031CF82A0830B8
:1005E800CC0A4C02031CCA2A4C08031DCC03093050
:1005F8004C0208300318CC004C35403E5E27803151
:100608003408B8003508B900BA01BB014C353E3E84
:1006180066278031C0003508C100C201C3014C35CE
:100628002C3E66278031BC003508BD00BE01BF01E5
:100638004C352A3E66278031C4003508C500C601FE
:10064800C70147083F06031D332B46083E06031D16
:10065800332B45083D06031D332B44083C06031D78
:100668003A2B4108B3004008B20008003208C8001D
:100678003308C900CA01CB014408C8024508C93B70
:100688004608CA3B4708CB3B3B08F4003A08F3004E
:100698003908F2003808F1004008F1024108F23B3D
:1006A8004208F33B4308F43B4B08F8004A08F700BC
:1006B8004908F6004808F500DE2580317408CB00AB
:1006C8007308CA007208C9007108C8003F08A7006B
:1006D8003E08A6003D08A5003C08A4004408A40262
:1006E8004508A53B4608A63B4708A73B4B08AB0077
:1006F8004A08AA004908A9004808A80072258031BC
:100708002708CB002608CA002508C9002408C80005
:100718004008C8074108C93D4208CA3D4308CB3DC7
:10072800CB1F9A2BC801C901CA01CB014908B300E4
:100738004808B200080021005F082000B500210029
:100748005E082000B40021005D082000B3002100ED
:100758005C082000B2006708B2026808B33B690869
:10076800B43B6A08B53B0A2DE401B030F30004300D
:10077800F4008C31152480310230072DB51B142D5F
:100788003508031DD02B3408031DD02B89303202C5
:100798001330333B031C142D0530F300F4018C3166
:1007A800152480310330072DB51BE62B3508031DB2
:1007B800142D3408031D142DD03032020730333B7A
:1007C8000318142D21003F08BB003E08BA003D085D
:1007D800B9003C08B8004F08BF004E08BE004D08DD
:1007E800BD004C08BC0020000530E40A6402031C6C
:1007F800B92B0430082D21003F08C7003E08C60069
:100808003D08C5003C08C4003808C4023908C53B87
:100818003A08C63B3B08C73B05302000A400A501A9
:100828004B2780317225803127082100C70020001E
:1008380026082100C600200025082100C500200048
:1008480024082100C40053082000AB0021005208EE
:100858002000AA00210051082000A900210050080A
:100868002000A800210054082000A80221005508F3
:100878002000A93B210056082000AA3B2100570868
:100888002000AB3B0230A400A501A601A7017225F8
:10089800803127082100C300200026082100C2005B
:1008A800200025082100C100200024082100C000E4
:1008B8000230CB01CA01C9005530C8004308F40012
:1008C8004208F3004108F2004008F1000130F80145
:1008D800F701F6003A30F500DE2580317408A700EC
:1008E8007308A6007208A5007108A4000230F4017C
:1008F800F301F2005530F1009C30F801F701F600E1
:100908004030F500DE258031422780317225803164
:1009180027082100B700200026082100B600200083
:1009280025082100B500200024082100B400643007
:10093800F100F201F301F4013708F8003608F70076
:100948003508F6003408F500DE25803174082100EA
:10095800B7007308B6007208B5007108B4000A3011
:1009680020006D2780313708F4003608F300350879
:10097800F20034087C278031DE258031422780311F
:10098800722580312708D0002608CF002508CE0020
:100998002408CD0028306D2780314708F400460828
:1009A800F3004508F20044087C278031DE258031B9
:1009B800422780317225803127082100B3002000AA
:1009C80026082100B200200025082100B1002000DF
:1009D80024082100B00008302000A400A5014B27FE
:1009E80080317225803127082100AF0020002608B9
:1009F8002100AE00200025082100AD0020002408B9
:100A08002100AC0005302000E300142D63088400A9
:100A1800063004020318142D88310435003E820084
:100A280003306402031C080021005308803AF900CF
:100A380020003508803A79022100031D332D20005B
:100A4800340821005202031D332D200033082100F1
:100A58005102031D332D20003208210050020318D3
:100A6800452D200035082100D3002000340821003E
:100A7800D200200033082100D100200032082100D4
:100A8800D00020003508803AF90021005708803A44
:100A980079022000031D602D210056082000340231
:100AA800031D602D2100550820003302031D602D11
:100AB80021005408200032020318080035082100DC
:100AC800D700200034082100D60020003308210078
:100AD800D500200032082100D4000800AD01A71F6E
:100AE800822DA409A509A609A709A40A0319A50A1C
:100AF8000319A60A0319A70AAD01AD0AAB1F912D68
:100B0800A809A909AA09AB09A80A0319A90A031976
:100B1800AA0A0319AB0A0130AD06AE01AF01B00154
:100B2800B10127082604250424040319C72DAC01A4
:100B3800AC0AA71BA42DA435A50DA60DA70D9C2DA9
:100B4800AE35AF0DB00DB10D27082B02031DB62D24
:100B580026082A02031DB62D25082902031DB62DD5
:100B680024082802031CC12D2408A8022508A93B33
:100B78002608AA3B2708AB3B2E14A736A60CA50CC3
:100B8800A40CAC0BA42D2D080319D52DAE09AF0963
:100B9800B009B109AE0A0319AF0A0319B00A03195B
:100BA800B10A3108A7003008A6002F08A5002E08B2
:100BB800A40008002000A001A101A201A301711C4A
:100BC800EE2D75082000A0077608A13D7708A23D04
:100BD8007808A33DF535F60DF70DF80DF436F30C4E
:100BE800F20CF10C7408730472047104031DE32DF4
:100BF80020002308F4002208F3002108F20020084E
:100C0800F10008000430B001AF009330AE00E030CE
:100C1800AD005708F1005808F200F301F40130085C
:100C2800F8002F08F7002E08F6002D08F500DE253D
:100C380080317408B0007308AF007208AE00710804
:100C4800AD005508B1005608B2000C30B301B4012C
:100C5800F401F301F2004430F1003408F8003308DD
:100C6800F7003208F6003108F500DE2580317408F7
:100C7800B4007308B3007208B2007108B1006430A0
:100C8800F100F201F301F4013408F8003308F70029
:100C98003208F6003108F500A32680317327803129
:100CA8005708A9005808AA00AB01AC012908B102ED
:100CB8002A08B23B2B08B33B2C08B43B3408F40099
:100CC8003308F3003208F2003108F1003008F80068
:100CD8002F08F7002E08F6002D08F500A32680310E
:100CE800732780313408031D882E3308031D882E8E
:100CF800D03031020730323B0318882E0730B40158
:100D0800B301B200D030B1003408031D942E33086B
:100D1800031D942EA93031026130323B031C9A2EF8
:100D28006130B401B301B200A830B1003408A800A2
:100D38003308A7003208A6003108A5000800A00162
:100D4800A101A201A30174087304720471040319B8
:100D5800D92EA401A40AF41BB62EF135F20DF30D19
:100D6800F40DAE2EA035A10DA20DA30D74087802C6
:100D7800031DC82E73087702031DC82E7208760259
:100D8800031DC82E71087502031CD32E7108F502C5
:100D98007208F63B7308F73B7408F83B2014F436E6
:100DA800F30CF20CF10CA40BB62E2308F400220865
:100DB800F3002108F2002008F10008007508760405
:100DC8000319080073088600740887000108F700F3
:100DD800710886007208870077088100F30A0319F2
:100DE800F40AF10A0319F20A0130F5020030F63B61
:100DF800E22E2030200089278031082780313727CC
:100E0800803196278F313A2F2108F2002008F1000F
:100E18002308F4002208F3008E31D5267208AA00B0
:100E28007108A90022082007A4002308213DA50075
:100E38002408860025088700290881002A08A400BC
:100E480022082007A5002308213DA6002508013E09
:100E5800A7000030263DA80027088600280887003C
:100E68002408810008008030F1001F30F2009B2721
:100E78008031A030F1001F30F2009B2F7408AB00C6
:100E88007308AA007208A9007108A8000800A60142
:100E9800A701210047082000AB00210046082000D8
:100EA800AA00210045082000A900210044082000CC
:100EB800A8000800860001308700403FB400413F89
:100EC800B50008008600403FB400413FB500340833
:100ED8000800A400A501A601A701210008007408C4
:100EE800B4007308B3007208B2007108B1000800BA
:100EF800F1000A30F500F601F701F8010800633047
:100F08009E009F019B019C010800A0000130A100E8
:100F18003230A200A301080055303C008F00AA30EF
:100F28008F0008003430F1002030F2010800003052
:100F38008B1B0130F3008B1371082300910072089A
:100F4800920015131516151555309600AA309600FF
:100F580095140000000023001511730C8F31CE2F5B
:100F6800FC0123001D122100911220009112230080
:100F78001D16210091162000E20108000830230008
:100F88009F0090309D0024309E00A0309B000130CF
:100F98009C002100911608008C31F22C8C31F92C20
:100FA8008D31052D8D310E2D8D31172D8D31202D43
:100FB8008D31292D8D31312D8D31392D8D31412DA9
:100FC8008D31492D8D31512D8D315A2D8D31622D17
:100FD8008D316A2DC034F234FC34FF3440340D3482
:100FE800033400341434003400340034103427340B
:040FF800003400348D
:101000008331B82B8331B82B8331C22B8331D82B5A
:081010008331FF2B8531712DA6
:10116600FE0012001E00FE0BB4280034640080014D
:101176000131890BBA280034103427340034003486
:10118600103400344B3020009C007C309B009A01C8
:101196009110210091140030F101F201D420883120
:1011A600D528080020001C1508002E30B001AF011C
:1011B600AE00E030AD005908F1005A08F200F30124
:1011C600F4013008F8002F08F7002E08F6002D0865
:1011D600F5008531DE2588317408B0007308AF004C
:1011E6007208AE007108AD005B08A9005C08AA0091
:1011F600AB01AC012C08F4002B08F3002A08F2001E
:101206002908F1003008F8002F08F7002E08F6002C
:101216002D08F5008631A32688317408B0007308BE
:10122600AF007208AE007108AD003008031D2A2910
:101236002F08031D2A29D0302D0207302E3B031814
:101246002A290730B001AF01AE00D030AD0030081A
:10125600031D36292F08031D3629A9302D026130BA
:101266002E3B031C3C296130B001AF01AE00A83013
:10127600AD001830AD07FC30AE3DFF30AF3DB03DA0
:101286003008A8002F08A7002E08A6002D08A500E4
:1012960008006008A3005F08A2005D08A2025E08BD
:1012A600A33B6430F100F2012308F4002208F300A6
:1012B600C02189317208A1007108A0002104031D14
:1012C60083292308803AF90080307902031D6D29AD
:1012D60021302202031C73292000A001A00AA101CB
:1012E60020002308803AF9007F307902031D7D290A
:1012F600E030220203188329FF302000A000A1005D
:1013060020002008D1072108D23D0C30F100F2015F
:101316006008F4005F08F300002289317208A30018
:101326007108A20051082207EB005208233DEC0089
:10133600803AF90086307902031DA3292D306B020D
:10134600031CAA292C302000EB000630EC002000FC
:101356006C08803AF90080307902031DB429023006
:101366006B020318BA2902302000EB00EC012000C2
:101376006C08F4006B08F300252AF601F21FCA294F
:10138600F109F209F10A0319F20AF601F60AF41F45
:10139600D329F309F409F30A0319F40A0130F6060E
:1013A600F701F801710872040319F329F501F50A2A
:1013B600F21BE029F135F20DDA29F735F80D72083E
:1013C6007402031DE82971087302031CEF297108D2
:1013D600F3027208F43B7714F236F10CF50BE029B0
:1013E60076080319FB29F709F809F70A0319F80A19
:1013F6007808F2007708F1000800F501F601710897
:1014060072040319202AF701F70AF21B0D2AF13597
:10141600F20D072AF535F60D72087402031D152A1A
:1014260071087302031C1C2A7108F3027208F43B4C
:101436007514F236F10CF70B0D2A7608F2007508D2
:10144600F10008003A2289317208F6007108F500A9
:1014560074087606031D312A7308750603190800F9
:10146600AB137308A3007408A400AB1708003B0075
:101476002408F200F1012308F104080021005F08A6
:101486002200E90021005E082200E80021005D0834
:101496002200E70021005C082200E6002000670821
:1014A6002200E602200068082200E73B20006908C7
:1014B6002200E83B20006A082200E93BD0302000E9
:1014C600B2000730B300B401B5012200660820005F
:1014D600B202220067082000B33B22006808200001
:1014E600B43B220069082000B53B350841248A3107
:1014F600A43086008701403F2100A800413FA90093
:10150600423FAA00433FAB002308A7002208A600DB
:101516002108A5002008A400220069082100A300D4
:10152600220068082100A200220067082100A1000D
:10153600220066082100A000240820022000B20034
:1015460021002508213B2000B30021002608223B6C
:101556002000B40021002708233B2000B5003124D9
:101566008531DE258A3174082200D7007308D6003B
:101576007208D5007108D400210033082000A700A6
:10158600210032082000A600210031082000A50015
:10159600210030082000A40021002308F4002208BE
:1015A600F3002108F2002008F10020005008F8009E
:1015B6004F08F7004E08F6004D08F5008531DE2588
:1015C6008A31873142278A31853172258A31270847
:1015D6002200DB00200026082200DA002000250871
:1015E6002200D900200024082200D800210020086B
:1015F6002000B200210021082000B30021002208AB
:101606002000B400210023082000B5002100240892
:101616002000B600210025082000B700210026087A
:101626002000B800210027082000B900B635B70D04
:10163600B80DB90D210028082000BA00210029089C
:101646002000BB0021002A082000BC0021002B0836
:101656002000BD003608BA023708BB3B3808BC3B41
:101666003908BD3B3A08B2073B08B33D3C08B43DD8
:101676003D08B53D350831248531DE258A317408AB
:101686002200E3007308E2007208E1007108E0003E
:1016960078302000A400A501A601A7012200630856
:1016A600F4006208F3006108F2006008F10021000E
:1016B6002F08F8002E08F7002D08F6002C08F50074
:1016C6008531DE258A31873142278A318531722577
:1016D6008A3127082200DF00200026082200DE00CB
:1016E600200025082200DD00200024082200DC005E
:1016F600540858072000B20022005508593D200022
:10170600B300220056085A3D2000B40022005708B4
:101716005B3D2000B50041245C08E6075D08E73D17
:101726005E08E83D5F08E93D20002730A701A601D5
:10173600A5001030A400220069082000AB0022009A
:1017460068082000AA00220067082000A9002200DD
:1017560066082000A800853172258A3127082200F4
:10176600E900200026082200E800200025082200C3
:10177600E700200024082200E60021005808220085
:10178600E607210059082200E73D21005A082200F9
:10179600E83D21005B082200E93D00002200E91B2C
:1017A600E62B6908031DE02B6808031DE02BB1300A
:1017B60066020430673B031CE62B0430E901E801AE
:1017C600E700B030E600E91BF52B6908031DFA2B8C
:1017D6006808031DFA2B6708031DFA2B05306602FD
:1017E6000318FA2B0530E600E701E801E90169086C
:1017F6002100DB00220068082100DA0022006708C9
:101806002100D900220066082100D80059082200CC
:10181600E500210058082200E4006508F400640889
:10182600F300152C2A248A317208F6007108F50097
:1018360074087606031D212C730875060319080023
:101846009B1373089300740894009B1708003B00D1
:101856001408F200F1011308F1040800F40034083A
:10186600F3003308F2003208F1005008F8004F0880
:10187600F7004E08F6004D08F50008002200E900C2
:10188600200034082200E800200033082200E70088
:10189600200032082200E6000800B800B700BF2783
:1018A6008C3103195C2C2000370886000108031DC3
:1018B600080020003808A0000230A1003608A30066
:1018C6003508A200A8268C31003A03190800370A09
:1018D6008600023087000108033A0319772C053A7F
:1018E6000319792C7B2C080038087F2C38089B2D8F
:1018F600AB01AB0A3808D32FB200B101B000BF2745
:101906008C31031D080020003008860001080319E9
:1019160008003008023E86000108AD00AE01AE00A8
:10192600AD013008033E86000108AD042E08AC0068
:101936002D08AB0030088600453FB1002130B13597
:101946003102031CA82C2030B100AF0131082F0250
:101956000318CC2C2C08F2002B08F1003330F300CE
:10196600EF248C3120002F083207FB00033E86004F
:1019760002308700340881002F083207FB00043E3E
:10198600860033088100AF0AAF0AAB0A0319AC0A16
:10199600A92C320886000230870022002208810026
:1019A6002000320A8600033081003208023E86009B
:1019B600310881000330B1073208A0000230A100CF
:1019C6003108A200A301873108278C31B10AB10A78
:1019D6003108F1003208242E7108F8007A2D7308B8
:1019E600860055308701C03FC13F872D220022085F
:1019F600F400F5017308860087017408C03F750876
:101A0600C13F872D73088600870122002008C03F4A
:101A16002108C13F872D730886008701220024080C
:101A2600C03F2508C13F872D730886008701220025
:101A36002608C03F2708C13F872D73088600870107
:101A460022002808C03F2908C13F872D7308860059
:101A560087015B08C03F5C08C13F872D730886007D
:101A660087015908C03F5A08C13F872D7308860071
:101A760087015708C03F5808C13F872D7308860065
:101A860087015508C03F5608C13F872D7308860059
:101A960087016708C03F6808C13F872D7308860025
:101AA600870121005C08C03F5D08C13F872D730890
:101AB600860087015D08C03F5E08C13F872D730819
:101AC600860087015308C03F5408C13F872D73081D
:101AD600860087015F08C03F6008C13F872D7308F5
:101AE6008600AA308701C03F5530C13F872D780850
:101AF600FF3E031C722D84000F3004020318722D62
:101B060087310435D03E820010307802031C08006D
:101B160024307802031808001030F802781C972D3C
:101B2600783609073E3EB42F783609072A3EB42F89
:101B3600B400B001B100BF278C31031D080020009E
:101B46003108023E86000108B200B301B300B201BB
:101B56003108033E86000108B204FF30B2050230A8
:101B6600B30132063304031DBE2D34088600453FFB
:101B76002200A200042E033032063304031DD12DA9
:101B86003408860002308700443F2200A10020006E
:101B960034088600453F2200A000042E00303302A0
:101BA600103003193202031C0800003033022430BF
:101BB60003193202031808001030B2020030B33B9A
:101BC600321C072E3408043E8600023087000108C6
:101BD600AE00AF01AF00AE013408053E8600010835
:101BE600AE043308AD003208AC00AD36AC0C2C08A0
:101BF60009073E3E8600013087002E08C03F2F08A9
:101C0600C13F2000B001B00A300803190D2E8631FD
:101C1600FD268C3131088600023087000108031941
:101C260008003408FA273408A0000230A100063064
:101C3600A200A301873108278C310830F10034084F
:101C4600242EF30023009E1E9E162000111E282E11
:101C5600F4017108740203183E2E2000111E302E66
:101C660074087307F200860002308700010823001B
:101C76009A00F40A2C2E2000111A08003E2E343049
:101C8600F1002030F2010B278C3120302000A0001B
:101C96000130A1003430A200A301A8268C31AC008B
:101CA600AD012D04031D0800FF302200A000A10095
:101CB600A2012000AE01AF012F08F2002E08F100AC
:101CC6009930F3001930F40093268C312E352A3ED4
:101CD600C6278C312F08F2002E08F100B030F30031
:101CE6000430F40093268C312E353E3EC6278C31C7
:101CF600AE0A0319AF0A00302F020A3003192E026A
:101D0600031C5F2E2030873189278C3187310827C5
:101D16008C31873137278C31873196278C313A2F92
:101D2600F501F601711C9B2E7308F5077408F63D44
:101D3600F335F40DF236F10C71087204031D952E7D
:101D46007608F2007508F100080022082007F30063
:101D56002308213DF400FE30F307031CF40326306C
:101D6600F1000030F2000230F500F6018631E2267D
:101D76008C312108F2002008F1002208FE3EF30013
:101D8600FF30233DF400D5268C317208A50071087A
:101D9600A40025082706031DD22E24082606031DA7
:101DA60000340134FF30F900FA00F501F601740839
:101DB6007602031DE02E730875020318062F7108BC
:101DC6008600720887000108F906F10A0319F20A6B
:101DD600F701F801791CF62E0130FA36F90CF906EE
:101DE600A030FA06F82EFA36F90CF70A0319F80AA3
:101DF60000307802083003197702031CED2EF50A2D
:101E06000319F60ADA2E7A08F2007908F1000800BA
:101E1600F5008030F8001F30F90000308B1B0130D0
:101E2600F4008B13F601F70172087702031D1D2FCC
:101E3600710876020318382F780823009100790874
:101E46009200151315140000000076087507F300BC
:101E5600860001308700230013088100F80A031961
:101E6600F90AF60A0319F70A172F740CCE2F200069
:101E7600A5008030AA01AB01A8001F30A9000030E0
:101E86008B1B0130A2007208A4007108A300053064
:101E9600A436A30C890B4B2F71081F390319562F33
:101EA600A30A0319A40A8B13A601A701A001A10185
:101EB60024082102031D612F230820020318B22FD4
:101EC60023001513151595162000AA01AB01280845
:101ED60023009100200029082300920072082000A8
:101EE6002702031D782F710826020318842F26085F
:101EF6002507F300860001308700010823009300C0
:101F0600862F230093012000A60A0319A70A23009F
:101F160094011F3020002A05F3001F3A031D952F58
:101F260023009512553023009600AA30960095148A
:101F3600000000002000A80A0319A90AAA0A03192A
:101F4600AB0A00302B02203003192A02031C6A2F29
:101F5600230015112000A00A0319A10A5B2F220CE9
:101F6600CE2F860001308700730884008501403F2C
:101F7600803F413F813F080086000230870001080C
:101F86002200220608008600013087007108C03F43
:101F96007208C13F0800031C8B1303188B17080037
:101FA600AC00AD0086000230870001080319080066
:101FB6002D08FA278C312B080319E52F2D0A8600E8
:101FC600803081072D08023E8600023087002B08EC
:101FD60081002C08A0000230A1000330A200A3015A
:101FE600873108278C310530F1002C08242E860015
:0A1FF60022002208810020000800EC
:020000040001F9
:04000E00E4FFFFFE0E
:00000001FF
