:0410000088316C289F
:101008007E14883120007F08F1000B1F3928210049
:10101800911C39282000911C39289110EB140130BB
:10102800F0007008FA070130F0007008E907053091
:101038007A02031C2128FA016B1532306902031C5D
:101048002728E901EB157B08031934280130F00043
:101058007008FB0706307B02031C34286B14FB0165
:1010680001302100CE070030CF3D0B1F6128210041
:10107800911E61282000911E6128911223009D1C59
:1010880047281D121D161908F00070082000E800F6
:1010980020306A0203185D286808F0006A08403E9C
:1010A800860001308700700881000130F000700868
:1010B800EA070130F0007008FB002000111A111235
:1010C800931A9312131A13127108FF007E10090065
:1010D80088316E28F83084009C3085006C3086009A
:1010E800003087000030FF0004309D311F25883113
:1010F800023084009D308500D030860000308700A3
:101108000030FF0008309D311F2588315C30840095
:10111800233085008430FE000030FF009D31132508
:101128008831FA01FB014A30840000308500223002
:10113800FE000030FF009D3113258831A030840067
:10114800003085003030FE000030FF009D3113254F
:10115800883120308400013085004030FE000030A6
:10116800FF009D3113257E1020008D31792D200040
:10117800C7011D30470203181E294708B500B601EC
:10118800B535B60D3508023EB7000030363DB8001B
:101198006630B9002330BA003708390786003808A6
:1011A8003A3D8700403FBB00413FBC004708BD00B7
:1011B800BE01BD35BE0D6630BF002330C0003D08FE
:1011C8003F0786003E08403D8700403FC100413F41
:1011D800C2003C084202031DF3283B0841020318E1
:1011E8001E294708B500B601B535B60D3508023ECB
:1011F800B7000030363DB8006630B9002330BA0079
:1012080037083907860038083A3D8700403FBB0059
:10121800413FBC0034083C02031D142933083B023B
:1012280003181E290130B5003508C7071D304702CD
:10123800031CC1281D304702031C26291C30B50099
:101248003508C7004708B500B601B535B60D3508ED
:10125800023EB7000030363DB800A230B900233056
:10126800BA0037083907860038083A3D8700403FFA
:10127800BB00413FBC003B082100C00020003C08E7
:101288002100C100C201C30120004708B500B60112
:10129800B535B60DA230B7002330B800350837078A
:1012A80086003608383D8700403FB900413FBA0004
:1012B8003908D2003A08D300D401D5014708B5004F
:1012C800B601B535B60D3508023EB7000030363DDB
:1012D800B8006630B9002330BA00370839078600ED
:1012E80038083A3D8700403FBB00413FBC003B08FF
:1012F8002100BC0020003C082100BD00BE01BF0148
:1013080020004708B500B601B535B60D6630B70000
:101318002330B8003508370786003608383D87007F
:10132800403FB900413FBA003908CE003A08CF0023
:10133800D001D1013308B5003408B600B701B801AF
:101348005108803AB9003808803A3902031DB62995
:1013580037085002031DB62936084F02031DB62967
:1013680035084E02031CC0294708031DC02953082D
:10137800B4005208B30008005108803AB5002100B3
:101388003F08803A20003502031DDA2921003E0873
:1013980020005002031DDA2921003D0820004F02D9
:1013A800031DDA2921003C0820004E02031CE12914
:1013B8005308B4005208B30008004E09B5004F099D
:1013C800B6005009B7005109B800B50A0319B60AA2
:1013D8000319B70A0319B80A3308B9003408BA0060
:1013E800BB01BC013908B5073A08B63D3B08B73D13
:1013F8003C08B83D3808C6003708C5003608C400A0
:101408003508C300210040082000B500210041082C
:101418002000B600210042082000B7002100430840
:101428002000B8005209B9005309BA005409BB009A
:101438005509BC00B90A0319BA0A0319BB0A0319EA
:10144800BC0A3908B5073A08B63D3B08B73D3C0821
:10145800B83D3808F5003708F4003608F3003508B9
:10146800F2004608F9004508F8004408F700430868
:10147800F60090310020883175082000C6007408F5
:10148800C5007308C4007208C30021003C0820008E
:10149800B50021003D082000B60021003E082000CC
:1014A800B70021003F082000B8004E09B9004F09D5
:1014B800BA005009BB005109BC00B90A0319BA0A9D
:1014C8000319BB0A0319BC0A3908B5073A08B63D1F
:1014D8003B08B73D3C08B83D3808A7003708A600C8
:1014E8003608A5003508A4004608AB004508AA0040
:1014F8004408A9004308A80094311024883120002A
:101508002708C6002608C5002508C4002408C3000B
:1015180043085207B5004408533DB6004508543DFA
:10152800B7004608553DB8003808C6003708C5005A
:101538003608C4003508C300C61FAA2A0030C600F2
:101548000030C5000030C4000030C3004408B400B7
:101558004308B300080020006E08B3006F08B40009
:10156800B501B601B309B409B509B609B30A031937
:10157800B40A0319B50A0319B60A6C08B7006D084E
:10158800B800B901BA013708B3073808B43D3908BB
:10159800B53D3A08B63D3608BE003508BD003408EA
:1015A800BC003308BB00D030B3000730B4000030B3
:1015B800B5000030B6003B09B7003C09B8003D094A
:1015C800B9003E09BA00B70A0319B80A0319B90ADB
:1015D8000319BA0A3708B3073808B43D3908B53DC6
:1015E8003A08B63D3608BE003508BD003408BC00D0
:1015F8003308BB000430A03E86008701403F21002D
:10160800A800413FA900423FAA00433FAB0023087E
:10161800A7002208A6002108A5002008A400200091
:101628003E082100A30020003D082100A200200060
:101638003C082100A10020003B082100A000200850
:101648002000B300210021082000B4002100220856
:101658002000B500210023082000B600210024093D
:101668002000B700210025092000B8002100260924
:101678002000B900210027092000BA00B70A031981
:10168800B80A0319B90A0319BA0A3708B307380898
:10169800B43D3908B53D3A08B63D3608F500350879
:1016A800F4003408F3003308F20021004C08F60077
:1016B8004D08F700F801F901903100208A317508CA
:1016C8002000D1007408D0007308CF007208CE0043
:1016D80021004A082000A40021004B082000A50092
:1016E800A601A70121004C08F2004D08F300F401FF
:1016F800F5012308F9002208F8002108F70020085E
:10170800F600903100208A3175082000AB0074087B
:10171800AA007308A9007208A800943110248A311D
:10172800200027082100BF00200026082100BE0055
:10173800200025082100BD00200024082100BC004D
:1017480020004E0821003C072000B3004F0821006C
:101758003D3D2000B400500821003E3D2000B5006A
:10176800510821003F3D2000B6003608BE0035086C
:10177800BD003408BC003308BB000030A7000030AF
:10178800A6002730A5001030A4003E08AB003D0895
:10179800AA003C08A9003B08A800943110248A310B
:1017A80020002708BE002608BD002508BC00240824
:1017B800BB00210050082000BB0721005108200071
:1017C800BC3D0030BD3DBE3D00002000BE1B002CCE
:1017D8003E08031DF82B3D08031DF82BB1303B02D2
:1017E80004303C3B031C002C0030BE000030BD0020
:1017F8000430BC00B030BB00BE1B0F2C3E08031DDC
:10180800172C3D08031D172C3C08031D172C053009
:101818003B020318172C0030BE000030BD0000301A
:10182800BC000530BB003C082100D10020003B086B
:101838002100D0005108F9005008F8009E314F26C9
:1018480008002000B800B901BA01B3013808AF0098
:101858002F08B7005C3086002330870042313708F4
:10186800840001308500000801060319422C37085E
:101878008600013087000108031D08005C308600DF
:10188800233087004231FD300106031D522C3708F2
:101898008600013087000108031908003708023E56
:1018A8008600013087000108AF00B0012F08B90099
:1018B8003008BA000830B935BA0D890B5F2C3708E3
:1018C800033E8600013087000108AF00B0012F08F1
:1018D800B9043008BA04FF303905B90000303A05B8
:1018E800BA00023039063A04031D882C3808053E30
:1018F8008600013087000108AF005E308600233083
:1019080087002F088100482D033039063A04031D4B
:10191800A62C3808043E8600013087000108AF0075
:101928005D308600233087002F0881005C308600F8
:10193800233087003808053E840001308500000800
:10194800C03F482D00303A02103003193902031CF9
:10195800080000303A024C30031939020318080015
:101968001030B9020030BA3B391C4A2D3808043E01
:101978008600013087000108AF00B0012F08B400CD
:101988003008B5000830B435B50D890BC72C3808B8
:10199800053E8600013087000108AF00B0012F081E
:1019A800B4043008B5043A08B0003908AF00B036BE
:1019B800AF0CAF35B00DA230B1002330B2002F0804
:1019C800310786003008323D87003408C03F3508AB
:1019D800C13F3A08B0003908AF00B036AF0CAF3598
:1019E800B00D6630B1002330B2002F0831078600F1
:1019F8003008323D87005608C03F5708C13F380AB3
:101A080086000130870026300106031D482D3A085C
:101A1800B0003908AF00B036AF0C2F08013EB10056
:101A28003108B6001E3036020318482D3608AF00BC
:101A3800B001AF35B00DA230B1002330B2002F088D
:101A4800310786003008323D87003408C03F35082A
:101A5800C13F3608AF00B001AF35B00D6630B100F8
:101A68002330B2002F08310786003008323D870046
:101A78005608C03F5708C13F0130AF002F08B607CE
:101A88001E303602031C1A2DB301B30A330803199A
:101A9800502D903166208C312000370886000130A7
:101AA80087000108031908005C308600233087008E
:101AB80042310108AF0038088600013087002F083E
:101AC80081003808A6000130A7000630A8000030C1
:101AD800A9009E31CF268C3108302000AF002F0896
:101AE800F20038089E31892608000000AA3020003C
:101AF800C80048083F00FF007F082000C8004808C9
:101B08003F00FF009D31E0258D318B170B17230017
:101B18009E129531B0258D3155302000C8004808F7
:101B28002200A000AA302000C80048082200A10016
:101B380002302000C8004808F20020309E31892673
:101B48008D3120006B1D472EFB30C8004808EB057F
:101B5800F501F50A2030C8004808F6000630923131
:101B6800E0228D3176082000E3007508E20003309A
:101B7800C8004808F5002030C9004908F6000530BB
:101B88009231E0228D3176082000E1007508E000EE
:101B98000330C8004808F5002030C9004908F6009D
:101BA80004309231E0228D3176082000DF0075087C
:101BB800DE000130DF36DE0C890BDE2D0330C80075
:101BC8004808F5002030C9004908F6000230923173
:101BD800E0228D3176082000DD007508DC00013038
:101BE800DD36DC0C890BF42D0330C8004808F500FD
:101BF8002030C9004908F60007309231E0228D31C3
:101C080076082000DB007508DA000130DB36DA0CD4
:101C1800890B0A2E973127278D3120002708EF00DE
:101C28002608EE00953120258D3120002708ED008B
:101C38002608EC008A31AF228D3120006308A70006
:101C48006208A60093313D238D3120002708D70074
:101C58002608D6005708B4005608B3008831BB20C0
:101C68008D31200034082100C700200033082100EE
:101C7800C60046352000D8002100470D2000D900B5
:101C88008F316E278D312000EB1D4E2EF730C800A6
:101C98004808EB056B1C782EFE30C8004808EB0599
:101CA8006A080319752E2030F2000130F300403025
:101CB800F4000130F5006A08C800C9014808F600B8
:101CC8004908F7009E3132268D3120006A08C80085
:101CD800C9014808BB004908BC00203092313622AF
:101CE8008D319C31F4248D310000A52D2000A001F8
:101CF800A1017208F5007508A200262F7408860055
:101D080087014030C03F0030C13F332F5C30860030
:101D18002330870042310108F500F6017408860077
:101D280087017508C03F7608C13F332F5C308400B7
:101D38002330850001310008F5005C308400233031
:101D480085007408860087010008C03F7508C13FF8
:101D5800332F5C30860023308700443174088400B8
:101D68008501403F803F413F813F332F5C308600F3
:101D7800233087004631740884008501403F803F46
:101D8800413F813F332F5C30860023308700483144
:101D9800740884008501403F803F413F813F332FD5
:101DA8007408860087016208C03F6308C13F332F6B
:101DB8007408860087016008C03F6108C13F332F5F
:101DC8007408860087015E08C03F5F08C13F332F53
:101DD8007408860087015C08C03F5D08C13F332F47
:101DE8007408860087016E08C03F6F08C13F332F13
:101DF8007408860087016C08C03F6D08C13F332F07
:101E08007408860087015A08C03F5B08C13F332F1A
:101E180074088600870121004608C03F4708C13F73
:101E2800332F74088600870120005808C03F5908DE
:101E3800C13F332F740886008701AA30C03F553050
:101E4800C13F332F2208FF3E031C1E2F84000F3092
:101E5800040203181E2F98310435003E820010300A
:101E680020002202031C08004C302202031808003C
:101E78001030A202221C572F2236F500F601F53544
:101E8800F60DA230F7002330F800750877078600B2
:101E98007608783D8700740884008501403F803FBC
:101EA800413F813F08002236F500F601F535F60D71
:101EB8006630F7002330F800750877078600760843
:101EC800783D8700740884008501403F803F413F8A
:101ED800813F080020005A09A4005B09A500A40A54
:101EE8000319A50A58082407A8005908253DA90080
:101EF8009630F2000030F3002908F5002808F400B5
:101F0800913191218F3173082000A7007208A60033
:101F180026082704031DB12F2908803AA400803021
:101F28002402031D992F11302802031CA02F013011
:101F38002000A6000030A70020002908803AA4004D
:101F48007F302402031DAA2FF03028020318B12F76
:101F5800FF302000A600FF30A7002000260821003F
:101F68004407C400200027082100453DC5000A3069
:101F7800F2000030F30020005908F5005808F4007A
:101F8800903132208F3173082000A9007208A80010
:101F98002100440820002807A80021004508200047
:101FA800293DA9002908803AA40086302402031D8F
:101FB800DF2F2D302802031CE62F2C302000A8002C
:101FC8000630A90020002908803AA40080302402A5
:101FD800031DF02F053028020318F72F05302000C5
:101FE800A8000030A90020002908F9002808F800F6
:101FF8009E316C260800080000302000A300003045
:10200800A2000030A1000030A000721C142876083D
:102018002000A0077708A13D7808A23D7908A33DD4
:102028000130F635F70DF80DF90D890B152801303B
:10203800F536F40CF30CF20C890B1C2875087404A3
:1020480073047204031D092820002308F5002208E0
:10205800F4002108F3002008F2000800F701F80155
:102068007208730403196128F901F90AF31B462859
:102078000130F235F30D890B3D280130F600760862
:10208800F9073A280130F735F80D890B4728730806
:102098007502031D512872087402031C582872081F
:1020A800F4027308F53B77140130F336F20C890B10
:1020B80059280130F902031D46287808F3007708EB
:1020C800F20008005C302000A6002330A700823010
:1020D800A8000030A9009E31CF2690319E31AC2651
:1020E80090315C30F2002330F3008430F40000308B
:1020F800F500943192245C30860023308700443107
:10210800403F2100CC00413FCD005C3086002330A9
:1021180087004631403FCA00413FCB005C30860013
:10212800233087004831403FC800413FC9000800BC
:102138002E30F2000030F300200028082607AA00FD
:102148002908273DAB002A08FE3EF400FF302B3D4E
:10215800F5000230F6000030F7009E31322690314B
:1021680020002708F3002608F2002808FE3EF400A5
:10217800FF30293DF50092318A2290317308200002
:10218800AD007208AC002D082F06031DCD282C08C1
:102198002E060319D128003008000130080000304D
:1021A8002000A1001F30A20000308B1B0130A000CE
:1021B8008B13A301A40175082402031DE5287408E4
:1021C800230203180A29210823009100200022086D
:1021D80023009200151315140000000020002308A6
:1021E8007207F6002408733DF70076088600770822
:1021F800870023001308810001302000A107003068
:10220800A23D0130A3070030A43DDF28200C031CA9
:102218008B1303188B17080022008C018E010F30D6
:1022280021008C001F308E000F3023008E001730E5
:102238008C003B3024008C0030308E002100951338
:1022480025008C018E0100308B1B0130F2008B13AE
:1022580055303C008F00AA308F000F101508E03968
:10226800143895003D001408F03904389400150816
:10227800F039033895002508F0390938A50055309C
:102288003C008F00AA308F000F14721C4D298B1749
:1022980008008B1308002000B1003108B000300896
:1022A800B2003208860001308700010803190800CF
:1022B8005C3086002330870042310108B0003208C4
:1022C800860001308700300881002F08031974291F
:1022D8008030B000320A860001308700300881075C
:1022E8002F08B0003208023E86000130870030080F
:1022F80081003108A6000130A7000330A800003093
:10230800A9009E31CF26913105302000B000300859
:10231800F20031089E31892608002000A101F31F30
:102328009C29F209F309F20A0319F30AA101A10A87
:10233800F51FA729F409F509F40A0319F50A01306C
:10234800F6007608A106A201A30172087304031916
:10235800D629A001A00AF31BBB290130F235F30DE1
:10236800890BB2290130F6007608A007AF290130A1
:10237800A235A30D890BBC2973087502031DC62954
:1023880072087402031CCD297208F4027308F53B25
:1023980022140130F336F20C890BCE290130A00249
:1023A800031DBB2921080319DE29A209A309A20AD2
:1023B8000319A30A2308F3002208F20008000030DA
:1023C8002000A4000030A3000030A2000030A100CB
:1023D800750874047304720403192D2AA501A50A4B
:1023E800F51B022A0130F235F30DF40DF50D890BBA
:1023F800F7290130A0002008A507F4290130A135EC
:10240800A20DA30DA40D890B032A75087902031DDB
:10241800172A74087802031D172A73087702031D08
:10242800172A72087602031C222A7208F602730819
:10243800F73B7408F83B7508F93B21140130F53671
:10244800F40CF30CF20C890B232A0130A502031DAE
:10245800022A2408F5002308F4002208F3002108C2
:10246800F20008002000C000BE014008BD003D0881
:10247800BF005C3086002330870042313F0884006B
:1024880001308500000801060319512A3F0886001B
:10249800013087000108031D08004008A60001302C
:1024A800A7003C08A9003B08A80090319C20923165
:1024B800003A03190800762A200040089631682659
:1024C8000800200040088C3125240800200040081E
:1024D80093319E2308002000AF01AF0A40089131D4
:1024E8004F21080020003F0A8600013087000108BC
:1024F800033A0319602A053A0319652A163A03199B
:102508006A2A363A0319652A6F2A0800FF30200024
:10251800A400FF30A500A001A10175082102031D38
:10252800972A740820020318DB2A720886007308A9
:10253800870024080106A4002508A5000130F20739
:102548000030F33DA201A301003023020830031933
:1025580022020318D62A241CC12A2508F7002408B9
:10256800F600F736F60C7608A4007708A5000130C7
:102578002406A400A0302506CA2A2508F700240846
:10258800F600F736F60C7608A4007708A5000130A7
:10259800A2070030A33D00302302083003192202AD
:1025A800031CAF2A0130A0070030A13D912A25085D
:1025B800F3002408F20008002000A000A301A401F1
:1025C800A501A60175089D316525923120002008D6
:1025D8009D31512592314230890BF02A0032210079
:1025E8009D149D18F52A41307602031CFF2A4030BD
:1025F800F7007708F6002000A101A2017608F7008D
:10260800F80178082202031D0B2B77082102031812
:10261800382B21009D149D180F2B000021001C0849
:10262800F700F80177082000A5007808A600023016
:10263800A535A60D890B1C2B21001B08F7000630B9
:10264800F736890B242B7708F800F9017808200061
:10265800A5047908A6042508A3072608A43D013087
:10266800A1070030A23D022B2408F6002308F5003C
:10267800080000302000AD000030AC000030AB0096
:102688000030AA00AE0105302E0203186F2B2E353C
:10269800023EAC3E860087012E35AC3E84008501A3
:1026A800403F803F413F813F2E35AC3E8600870149
:1026B800403FA800413FA9002808AA072908AB3DC8
:1026C8000030AC3DAD3D0130A8002808AE0705300C
:1026D8002E02031C4B2B2E35AC3E860087012608A4
:1026E800C03F2708C13F2608AA072708AB3D00308E
:1026F800AC3DAD3D0030F5000030F4000030F30093
:102708000630F2002D08F9002C08F8002B08F70015
:102718002A08F6009131E32175082000AD007408FD
:10272800AC007308AB007208AA002B08A7002A089F
:10273800A60008002000B2003208AF002F08B3003E
:102748005C30860023308700423133088400013032
:10275800850000080106031D0800330886000130C3
:102768008700010803190800330886000130870034
:102778000130433FB0003308860001308700013044
:10278800453FB10003303106031D08000430300610
:10279800031D08003308063E840001308500000848
:1027A800AF003308073E8400013085005C308600A6
:1027B8002330870044310008C03F2F08C13F330849
:1027C800083E8400013085000008AF003308093E48
:1027D8008400013085005C30860023308700463154
:1027E8000008C03F2F08C13F903166209331200078
:1027F8003208A6000130A7000630A8000030A90062
:102808009E31CF26933108302000AF002F08F20008
:1028180032089E31892608002000AE01A71F212C0E
:10282800A409A509A609A709A40A0319A50A031951
:10283800A60A0319A70AAE01AE0AAB1F322CA809D3
:10284800A909AA09AB09A80A0319A90A0319AA0A16
:102858000319AB0A0130AC002C08AE060030B200F8
:102868000030B1000030B0000030AF002708260467
:102878002504240403197B2CAD01AD0AA71B502C99
:102888000130A435A50DA60DA70D890B452C0130E7
:10289800AC002C08AD07422C0130AF35B00DB10D9E
:1028A800B20D890B512C27082B02031D652C260815
:1028B8002A02031D652C25082902031D652C2408FE
:1028C8002802031C702C2408A8022508A93B260806
:1028D800AA3B2708AB3B2F140130A736A60CA50C42
:1028E800A40C890B712C0130AD02031D502C2E084D
:1028F8000319892CAF09B009B109B209AF0A031944
:10290800B00A0319B10A0319B20A3208A70031083C
:10291800A6003008A5002F08A40008002000A30185
:10292800A4010030A7001F30A80000308B1B013025
:10293800A200A9017508F7007408F6000530F736FB
:10294800F60C890BA32C7608A3007708A4001F3087
:102958007405F60000307505F7007608770403194A
:10296800B92C0130A3070030A43D8B13A501A601A3
:10297800A001A10124082102031DC42C2308200260
:1029880003181A2D23001513151595162000A901F3
:10299800203029020318122D270823009100200057
:1029A800280823009200750820002602031DDE2C4B
:1029B800740825020318EA2C2508720786002608E1
:1029C800733D8700010823009300EC2C230093013A
:1029D80001302000A5070030A63D230094011F30D8
:1029E80020002905F6001F307606031DFD2C230064
:1029F8009512553023009600AA30960095140000D1
:102A0800000001302000A7070030A83D0130F60083
:102A18007608A90720302902031CD02C23001511A1
:102A280001302000A0070030A13DBE2C220C031C61
:102A38008B1303188B17080000302000CD000030DE
:102A4800CC002E30CB00E030CA006008F2006108EC
:102A5800F300F401F5014D08F9004C08F8004B08A3
:102A6800F7004A08F60090310020953175082000DB
:102A7800CD007408CC007308CB007208CA00620845
:102A88002100B800200063082100B900BA01BB0189
:102A98003B08F5003A08F4003908F3003808F2005A
:102AA80020004D08F9004C08F8004B08F7004A08C8
:102AB800F6009131E321953175082000CD007408A6
:102AC800CC007308CB007208CA004D08031D7D2D89
:102AD8004C08031D7D2DD0304A0207304B3B0318AC
:102AE8007D2D0030CD000030CC000730CB00D03039
:102AF800CA004D08031D892D4C08031D892DA930D6
:102B08004A0261304B3B031C912D0030CD00003050
:102B1800CC006130CB00A830CA001830AA00FC30C5
:102B2800AB00FF30AC00FF30AD004A08AA074B08E5
:102B3800AB3D4C08AC3D4D08AD3D2D08CD002C08F3
:102B4800CC002B08CB002A08CA004A08A6004B086C
:102B5800A700A801A90108005C30F2002330F300A7
:102B68008430F4000030F5009031D32095315C308A
:102B78002000A6002330A7008430A8000030A90058
:102B880090319C2095312000B000B1013008B6008A
:102B98003108B70036083704031D08005C3086008A
:102BA800233087005530C03F5D30860023308700D2
:102BB800AA3081005E308600233087000130810012
:102BC800B801B901003039021E3003193802031860
:102BD8003E2E3908F3003808F200D030F4000230F5
:102BE800F5009D31FB2595317208003E2000B000AC
:102BF8001930733DB1003908B3003808B200B23556
:102C0800B30D6630B4002330B500320834078600AF
:102C18003308353D87003008C03F3108C13F3908C7
:102C2800F3003808F2004D30F4000130F5009D3112
:102C3800FB25953120003908B1003808B000B035BF
:102C4800B10DA230B2002330B3003008320786003D
:102C58003108333D87007208C03F7308C13F013017
:102C6800B8070030B93D003039021E300319380268
:102C7800031CED2D8030B0000C30B1005C308600B4
:102C88002330870044313008C03F3108C13F143039
:102C9800B0000030B1005C30860023308700463138
:102CA8003008C03F3108C13F0530B0000030B100E6
:102CB8005C3086002330870048313008C03F310837
:102CC800C13F9031662008002000B800B301B4016C
:102CD800B7013808AF002F08B6005C3086002330F3
:102CE800870042313608840001308500000801065B
:102CF800031D080036088600013087000108031903
:102D080008003608023E8600013087000108AF003F
:102D1800B0012F08B3003008B4000830B335B40D43
:102D2800890B922E3608033E860001308700010881
:102D3800AF00B0012F08B3043008B4043408B2005F
:102D48003308B10036088600013087000130453F5E
:102D5800B7000310B70D21303702031CB72E2030FF
:102D6800AF002F08B700B501370835020318EA2E5F
:102D78003208F3003108F2003930AF002F08F400B0
:102D88008E317A26963120003A08AF003508033E86
:102D98003807B00030088600013087002F0881000E
:102DA8003908AF003508043E3807B00030088600FF
:102DB800013087002F0881003508023EAF002F0838
:102DC800B5000130B1070030B23DB82E5C30860046
:102DD8002330870042310108AF00380886000130EF
:102DE80087002F0881000330AF00380A86000130C1
:102DF80087002F0881003708AF003808023E860098
:102E0800013087002F0881000330AF002F08B70773
:102E18003808A6000130A7003708AF00B0012F0816
:102E2800A8003008A9009E31CF2696310230200034
:102E3800AF002F08B7073708AF002F08F20038088F
:102E48009E318926080000302100BB000430BA00FA
:102E58009330B900E030B80020005E08F2005F0847
:102E6800F300F401F50121003B08F9003A08F800E5
:102E78003908F7003808F6009031002097317508B6
:102E88002100BB007408BA007308B9007208B800C2
:102E980020005C08CA005D08CB00CC01CD014D08BC
:102EA800F5004C08F4004B08F3004A08F200003023
:102EB800F9000030F8000C30F7001C30F6009031B3
:102EC8000020973175082000CD007408CC007308E5
:102ED800CB007208CA000030F5000030F400003062
:102EE800F3006430F2004D08F9004C08F8004B0874
:102EF800F7004A08F6009131E32197317508200060
:102F0800CD007408CC007308CB007208CA004A08C8
:102F1800AA004B08AB004C08AC004D08AD005E0899
:102F2800AE005F08AF00B001B101AE09AF09B0094A
:102F3800B109AE0A0319AF0A0319B00A0319B10A95
:102F48002E08AA072F08AB3D3008AC3D3108AD3D2F
:102F58002D08CD002C08CC002B08CB002A08CA006D
:102F68004D08F5004C08F4004B08F3004A08F2003D
:102F780021003B08F9003A08F8003908F70038083A
:102F8800F6009131E321973175082000CD007408CF
:102F9800CC007308CB007208CA004D08031DE52F4A
:102FA8004C08031DE52FD0304A0207304B3B03186D
:102FB800E52F0030CD000030CC000730CB00D030FA
:102FC800CA004D08031DF12F4C08031DF12FA9302D
:102FD8004A0261304B3B031CF92F0030CD00003012
:102FE800CC006130CB00A830CA004A08A6004B08C4
:102FF800A700A801A90108008E31822E8E318A2EE1
:103008008E319A2E8E31AD2E8E31BA2E8E31C72E3C
:103018008E31D42E8E31DC2E8E31E42E8E31EC2E74
:103028008E31F42E8E31FC2E8F31042F8F310C2FE0
:103038008F31152F3034313432343334343435341D
:1030480036343734383439344134423443344434F0
:063058004534463400344B
:1039D20020001C15080081302200970008001630D4
:1039E2002100970008002000EA01FB0108001034C2
:1039F20027341034273473082000E5007208E400ED
:103A0200080014340034143400340534003405340E
:103A12000034013021009D0063309E009F019B0114
:103A22009C0108006400800101310130FE02003077
:103A3200FF3B7F087E0403190034142DFE001200A0
:103A42001E000130FE020030FF3B7F087E04031996
:103A52000034202D210091121112083023009F0002
:103A620090309D0024309E00A0309B0001309C00CD
:103A7200210091162000111208004B3020009C00FA
:103A82007C309B009A019110210091140030F200C9
:103A92000030F3009C31FC249D319C31E924080064
:103AA200F30021009D18522D7308F200F20DF20D61
:103AB2001D087206833972069D001D1463309E0034
:103AC2009F019B019C010800F4008030F200720803
:103AD200F30004307402031C722D0330F2007208EA
:103AE200F4007408F2007208F304730822009700CD
:103AF200171B0800792D01303B009C009D019E019F
:103B02009F01A0019201023091009401A030930024
:103B1200063096003F3095009801013097009A01D7
:103B2200990190309B00080001303B00AC00AD01D0
:103B3200AE01AF01B001A2010230A100A401A03088
:103B4200A3000630A6003F30A500A8010130A7005F
:103B5200AA01A9019030AB0008003B001408F40050
:103B6200F5017408F6007508F7000830F635F70D10
:103B7200890BB72D1308F400F5017408F6047508D3
:103B8200F7047708F3007608F20008003B002408E7
:103B9200F400F5017408F6007508F7000830F635F0
:103BA200F70D890BD02D2308F400F5017408F604F3
:103BB2007508F7047708F3007608F20008009131DF
:103BC20010219D318F31FF279D319C31F0249D3191
:103BD2009C31EC249D319D317C259D319D31952573
:103BE2009D319D310A259D319D313E259D319D316D
:103BF2002B250800F601F701721C032E7408F60744
:103C02007508F73D0130F435F50D890B042E0130AE
:103C1200F336F20C890B092E72087304031DFD2D75
:103C22007708F3007608F200080000308B1B0130A1
:103C3200F4008B137208230091007308920015138D
:103C42001516151555309600AA30960095140000E9
:103C5200000023001511740C031C8B1303188B171F
:103C620008007608770403190800740886007508AE
:103C720087000108F8007208860073088700780838
:103C820081000130F4070030F53D0130F2070030C9
:103C9200F33D0130F6020030F73B322E7908210065
:103CA200D5007808D4009D31AE259E3173082000DE
:103CB200A1007208A00079082106031D622E78086F
:103CC2002006031908003B009B137808930079082B
:103CD20094009B17080079082100D7007808D600C5
:103CE2009D31C7259E3173082000A1007208A000F3
:103CF20079082106031D7F2E780820060319080083
:103D02003B00AB137808A3007908A400AB170800A6
:103D1200F5007208F30073082000E70023009E1EDE
:103D22009E16F401200067087402031808002000A0
:103D3200111E982E74087507F3007308860001306F
:103D42008700010823009A00000000000130F30000
:103D52007308F407932E0030F2001F30F3009E31F7
:103D620016269E312030F2001F30F3009E311626B7
:103D72009E314030F2001F30F3009E3116269E31F4
:103D82006030F2001F30F3009E3116269E318030E3
:103D9200F2001F30F3009E3116260800200027088B
:103DA200F3002608F2002908F5002808F4009231F1
:103DB2008A227308F9007208F800200028082607F2
:103DC200AA002908273DAB002A0886002B08870095
:103DD200780881007908AA002808013EAB0000306B
:103DE200293DAC002B082607AD002C08273DAE006C
:0E3DF2002D0886002E0887002A088100080090
:00000001FF
