:020000040000FA
:0400000080314128E2
:100008007E148031AA303F007F06031D0D288831F9
:1000180004280B1F18282100111E18282000111E63
:1000280018288431BA2480310B1F23282100911EFF
:1000380023282000911E232884317B2480310B1F24
:100048003F282100911C3F282000911C3F28911037
:10005800210036083704031935280130B607003067
:10006800B73D00303702153003193602031C3F280C
:10007800B601B7017A147E100900803143282100A7
:100088008531B9258031D1008531BA258031D2003A
:100098008531BB258031D300403084002330850072
:1000A800A030FE000030FF00853198258031F8012E
:1000B800F901FA01A0308400003085001F30FE00ED
:1000C8000030FF00853198258031203084000130D0
:1000D80085003030FE000030FF00853198258031E2
:1000E800A0308400013085005030FE000030FF0051
:1000F800853198257E10200081317029000021303B
:100108002100BF003F082000A00021003A08FD3E62
:100118002000A100FF3003180030A20020308231F7
:10012800D0228031200020082100C0004008C300F0
:10013800000022002308031D672921082100BF00B1
:10014800C0013F08C1004008C2000830C135C20DD7
:10015800890BAA28220022082100BF00C0013F08FD
:10016800C1044008C2040130C236C10C890BB8284A
:100178004208B5004108B400083035063404031DB0
:10018800D5280130B4070030B53D3935A03E86008A
:10019800013087000030C03FC13F0130BF003F0839
:1001A800B907220020082100BF003F08BB003B0818
:1001B8000319672939085107BF0052080318520A62
:1001C800C00035084002031DEB2834083F0203181D
:1001D80016293935A03E860001308700FF30C03F20
:1001E8000330C13F0130BF003F08B9072030390252
:1001F800031CDE2852082000A70021005108200017
:10020800A600A0302100BF003F082000A8008331CD
:100218002623803120302100D1070030D23D203004
:10022800B902DE28C3013B084302031867294308C3
:10023800053E203E8600013087000108BF00C0014E
:100248003F08C1004008C2000830C135C20D890B03
:1002580029294308043E203E860001308700010812
:10026800BF00C0013F08C1044008C2043935A03EA0
:100278008600013087004108C03F4208C13F013075
:10028800BF003F08B90720303902031C6229520811
:100298002000A700210051082000A600A03021005E
:1002A800BF003F082000A80083312623803120307A
:1002B8002100D1070030D23D2030B9020230BF0002
:1002C8003F08C3071729F3013030F4000030F50068
:1002D80020308531092508002100CB01CC01CD0152
:1002E8005530C90049083F00FF007F082100C900B8
:1002F80049083F00FF0085317B2581318B170B179B
:100308000230F3001F30F4008431F0248131740886
:100318002100CD007308CC00FF304C05C900003027
:100328004D05CA00490A4A04031D062A8531A42539
:1003380081316B30F3008530F400843155248131EC
:1003480003302100CA000830C9007730890BAA2978
:10035800C90BAA29CA0BAA292030F3008530F4005A
:1003680084315524813115302100CA004B30C90031
:10037800BE30890BBD29C90BBD29CA0BBD29000098
:10038800C8302100CC000030CD00F9014C084D04E4
:100398000319F82902302100CA000430C900BA3014
:1003A800890BD429C90BD429CA0BD42900007A1C7B
:1003B800F229FE302100C9004908FA0540308600BC
:1003C80023308700793001060319F8294030860068
:1003D80023308700593001060319F829013021001C
:1003E800CC020030CD3BCA294C084D040319062A1B
:1003F80082310D2281312100C9004908CB004B0808
:100408000319052A00008B130B138831002880314B
:1004180041283430F3008530F4008431552482318A
:1004280005302100C7000F30C600F130890B1A2AA9
:10043800C60B1A2AC70B1A2A2100D301D30A003087
:10044800D1000830D200BB01B401B501BA01B9012D
:10045800362A1530332A83317623823106308531A6
:100468008A2582318331FE2382312100C600460865
:10047800C80048080319362AD301843048060319EE
:100488002F2A403086002330870004300106031DE0
:100498002D2A063085318A25823121003908031931
:1004A800732A08305202003003195102031C732AC0
:1004B8001F3052020030031951020318732A5208E0
:1004C8002000A100210051082000A000A030210038
:1004D800C60046082000A200823178228231063008
:1004E80085318A250130080000308B1B0130F60069
:1004F8008B1320002108F4002008F30084319E2487
:1005080082312300151315159516F701203077024F
:100518000318C82A20002008230091002000210881
:1005280023009200773520002207A30023088600C5
:100538000130870001082300930077352000220747
:10054800A3002308860001308700403FA400413FF4
:10055800A5002508230094001F307706031995127B
:1005680055309600AA30960095140000000001301E
:100578002000A0070030A13D0130A3002308F707A1
:1005880020307702031C8E2A23001511760C031CD9
:100598008B1303188B1708002000A5002208A4005D
:1005A8002108A30000302402023003192302031C8F
:1005B8001B2BA70120088600013087000108F600E0
:1005C8007608A6000130F6007608A00726088431D0
:1005D8002E248231F60076082000A700A70EF030FE
:1005E800A70520088600013087000108F600760874
:1005F800A6000130F6007608A007260884312E24CC
:10060800823120002707F6007608A7002708F600A1
:100618002508860001308700760881000130F60041
:100628007608A5070230A3020030A43BD62A220888
:10063800F7002108F600F736F60C7608A0007708D0
:10064800A100080020002708F4002608F3008431E0
:100658009E24833120002708A1002608A00028082E
:10066800A9002908A2008231782283312000EE01F6
:1006780020306E02031808006E082607F3002708CA
:100688000318270AF4008431F024833120006E35E2
:100698002E3E860087017308C03F7408C13F6E353F
:1006A8002807A9002908860001308700403FAA00D2
:1006B800413FAB006E352E3E86008701403FAC00BF
:1006C800413FAD002B082D06031D6C2B2A082C0674
:1006D8000319702B0000000001302000A900290830
:1006E800EE073C2B2000EF0103302100C400440832
:1006F8002000EF007908FF3E2100C400FF300318F6
:100708000030C5004508803A803C031D8E2B440804
:1007180020006F020318BD2B20006F08403E8600A2
:1007280087012330873D01082100C4003A08203E94
:100738008600013087004408810020006F08403E91
:10074800860087012330873D0A300106031DB22B3E
:100758008031822083312100BA01B72B013021007A
:10076800C4004408BA070130C40044082000EF0759
:100778007E2B0000080022008C018E010F30210022
:100788008C001F308E000F3023008E0017308C0035
:100798003B3024008C0030308E002100951325005A
:1007A8008C018E0100308B1B0130F3008B13553008
:1007B8003C008F00AA308F000F101508E03914385C
:1007C80095003D001408F039043894001508F039F4
:1007D800033895002508F0390938A50055303C0044
:1007E8008F00AA308F000F14731CFC2B8B17080086
:1007F8008B130800C830F4007408F5008531A4256F
:100808008331FE30F4007408FA05210053080319F7
:10081800112C153085318A2583313430F400F230BB
:10082800890B142CF40B142C7508031D7A18272C2B
:100838000B30F4006230890B1F2CF40B1F2C003294
:100848000130F502182C750803192C2C79080800BA
:1008580000300800F500F40130307502031C3B2C11
:100868003A30750203183B2C7508D03E502C4130A5
:100878007502031C462C473075020318462C750870
:10088800C93E502C61307502031C532C6730750229
:100898000318532C7508A93EF3007308F404740870
:1008A800080023009E1E9E167308840074088500A5
:1008B80012000319772C2000111E5F2C7308840086
:1008C80074088500000823009A000130F3070030FF
:1008D800F43D0000000000000000000000000000DF
:1008E80000000000582C2000111A0800772C230063
:1008F8009D1C802C1D121D161908F0007008F200AE
:10090800A0307902031808007908403EF000F10190
:100918002330F13D70088600710887007208810055
:100928000130F0007008F9070A302100B6000030E5
:10093800B700080000308B1B0130F5008B137308DB
:1009480023009100740892001513151615155530DB
:100958009600AA3096009514000000002300151197
:10096800750C031C8B1303188B170800103021001B
:1009780050020318D42C3E08A03E860087010108C7
:1009880023009A000130F00070082100BE071030E3
:100998003E020318BE010130F0007008D0070800BD
:1009A80011120800210091121112083023009F0033
:1009B80090309D0024309E00A0309B0001309C00A8
:1009C800F8012100BE011030F3007308D000BD010A
:1009D800BC01F9019116080000308B1B0130F500AD
:1009E8008B137308230091007408920015131514D3
:1009F80000000000750C031C8B1303188B172300D1
:100A08001408F4001308F3000800F7000130F4029A
:100A18000030F53B740A0319750A031908007308B6
:100A2800F6007708860001308700760881000130DB
:100A3800F6007608F7070A2D75347034643461348B
:100A4800743465342034613470347034203466343E
:100A580077343F3479342F346E340D340A3400340B
:100A6800733465346E34643420342A342E34683454
:100A7800653478342034663469346C3465342E3403
:100A88000D340A3400344A3020009C0018309B0092
:100A98009A019110210091140030F3000030F40005
:100AA8008531AA2585318531BC250800303431349B
:100AB80032343334343435343634373438343934E2
:100AC8004134423443344434453446340034623487
:100AD8006F346F3474346C3461346F346434653417
:100AE80072342E342E342E340D340A3400348331CB
:100AF800BF2385318531B02585318531B5258531CF
:100B08008531472585318431D6240800F300230038
:100B18009E1E9E162000111E8E2D730823009A001B
:100B28002000111A0800942D640080010131013061
:100B3800FE020030FF3B7F087E0403190034992D24
:100B4800F90121009116B601B701080074082100C7
:100B5800CF007308CE0008007A3021009900980170
:100B680008001630210097000800003408340134CA
:060B780020001C1508001E
:020000040001F9
:04000E00E4FFFBFE12
:00000001FF
