:0400000080314728DC
:100008007E14803120007F08F300AA303F007F066D
:10001800031D1028883104280B1F1B282100111EDE
:100028001B282000111E1B288431E12480310B1F5E
:1000380026282100911E26282000911E262884317A
:10004800A02480310B1F42282100911C4228200047
:10005800911C4228911021003608370403193828CA
:100068000130B6070030B73D0030370215300319AC
:100078003602031C4228B601B70179147308200020
:10008800FF007E1009008031492821008531E425D0
:100098008031C1008531E5258031C2008531E625F2
:1000A8008031C3004030840023308500A030FE003A
:1000B8000030FF008531C3258031F601F701F801D2
:1000C800F901A0308400003085001E30FE000030A9
:1000D800FF008531C3258031203084000130850040
:1000E8003030FE000030FF008531C3258031A0305C
:1000F8008400013085005030FE000030FF0085315B
:10010800C3257E102000813188290000213020007D
:10011800B1003108A20021003A08FD3E2000A300EA
:10012800FF3003180030A40020308331442380318D
:1001380020002208B2003208B5000000220023087F
:10014800031D7E2921082000B100B2013108B30047
:100158003208B4000830B335B40D890BAF2822003B
:1001680022082000B100B2013108B3043208B404F7
:100178000130B436B30C890BBD2834082100B50012
:10018800200033082100B400083035063404031D6C
:10019800DF280130B4070030B53D3935A03E860070
:1001A800013087000030C03FC13F01302000B1005E
:1001B80031082100B907220020082000B1003108C9
:1001C8002100BB003B0803197E293908410720009C
:1001D800B100210042080318420A2000B2002100A1
:1001E800350820003202031DFD28210034082000B4
:1001F80031020318292921003935A03E8600013033
:100208008700FF30C03F0330C13F01302000B100FC
:1002180031082100B90720303902031CE9284208B7
:100228002000AA00210041082000A900A030B10048
:100238003108AB008231ED22803120302100C10726
:100248000030C23D2030B902E928B50121003B0841
:100258002000350203187E293508053E203E860019
:10026800013087000108B100B2013108B30032083B
:10027800B4000830B335B40D890B3E293508043E67
:10028800203E8600013087000108B100B201310824
:10029800B3043208B40421003935A03E8600013089
:1002A800870020003308C03F3408C13F0130B10047
:1002B80031082100B90720303902031C7829420887
:1002C8002000AA00210041082000A900A030B100A8
:1002D8003108AB008231ED22803120302100C10786
:1002E8000030C23D2030B90202302000B100310890
:1002F800B5072A292000A0013030A1000030A20053
:1003080020308531322508002000BE01BF01C00120
:100318005530BC003C083F00FF007F082000BC00AF
:100328003C083F00FF008531A62581318B170B174C
:100338000230F4001F30F5008431FD248131750846
:100348002000C0007408BF00FF303F05BC0000302B
:100358004005BD003C0A3D04031D1E2A8531CF25FA
:1003680081319630F4008530F50084317A2481316A
:1003780003302000BD000830BC007730890BC2294B
:10038800BC0BC229BD0BC2294B30F4008530F500E7
:1003980084317A24813115302000BD004B30BC00F7
:1003A800BE30890BD529BC0BD529BD0BD52900003A
:1003B800C8302000BF000030C000F8013F084004EA
:1003C8000319102A02302000BD000430BC00BA30E6
:1003D800890BEC29BC0BEC29BD0BEC290000791C1E
:1003E8000A2AFE302000BC003C08F905403086008F
:1003F80023308700793001060319102A403086001F
:1004080023308700593001060319102A01302000D3
:10041800BF020030C03BE2293F08400403191E2AEE
:100428008231252281312000BC003C08BE003E08F4
:1004380003191D2A00008B130B1388310028803103
:1004480047285F30F4008530F50084317A24823102
:1004580005302000BA000F30B900F130890B322A7C
:10046800B90B322ABA0B322A2100C301C30A003061
:10047800C1000830C200BB01B401B501BA01B9011D
:100488004E2A15304B2A83319A2382310630853122
:10049800B525823184311F2482312000B900390802
:1004A800BB003B0803194E2A2100C30184302000F9
:1004B8003B060319472A4030860023308700043062
:1004C8000106031D452A06308531B52582312100F4
:1004D800390803198B2A08304202003003194102F7
:1004E800031C8B2A1F3042020030031941020318F3
:1004F8008B2A42082000A200210041082000A10008
:10050800A030B9003908A300823190228231063028
:100518008531B5250130080000308B1B01302000E3
:10052800A7008B132208F5002108F4008431C324A6
:10053800823123001513151595162000A8012030C7
:1005480028020318E42A2108230091002000220829
:1005580023009200200028352307A40024088600E1
:100568000130870001082300930020002835230765
:10057800A4002408860001308700403FA500413FC1
:10058800A6002608230094001F3020002806031D1B
:10059800CF2A23009512553023009600AA309600E2
:1005A80095140000000001302000A1070030A23D92
:1005B8000130A4002408A80720302802031CA72A19
:1005C800230015112000270C031C8B1303188B170D
:1005D800080020002A08F5002908F4008431C32403
:1005E800823120002A08A2002908A1002B08AC00AB
:1005F8002C08A3008231902282312400E0012030AF
:10060800600203180800600820002907F4002A087F
:1006180003182A0AF5008431FD248231240060354C
:10062800203E8600023087007408C03F7508C13F2D
:10063800603520002B07AC002C08860001308700AD
:10064800403FAD00413FAE0024006035203E8600AB
:1006580002308700403F2000AF00413FB0002E0825
:100668003006031D392B2D082F0603193D2B0000DA
:10067800000001302000AC002C082400E007032B08
:100688002000A9002408A8002308A7000030280299
:10069800023003192702031C8F2BAB0122088600A6
:1006A800013087000108A5002508AA000130A5002F
:1006B8002508A2072A088431522483312000A50086
:1006C8002508AB00AB0EF030AB05220886000130E0
:1006D80087000108A5002508AA000130A500250803
:1006E800A2072A0884315224833120002B07A50051
:1006F8002508AB002B08A5002908860001308700D3
:10070800250881000130A5002508A9070230A702A5
:100718000030A83B4A2B2408A6002308A500A636CB
:10072800A50C2508A2002608A30008002000B8018F
:100738000330B6003608B8007808FF3EB600FF3030
:1007480003180030B7003708803A803C031DAE2BF1
:10075800360838020318DE2B20003808403E860091
:1007680087012330873D0108B60021003A08203E62
:100778008600013087002000360881003808403E96
:10078800860087012330873D0A300106031DD22BDE
:100798008031892083312100BA01D82B0130200013
:1007A800B60036082100BA0701302000B600360826
:1007B800B807A02B0000080022008C018E010F3022
:1007C80021008C001F308E000F3023008E00173060
:1007D8008C003B3024008C0030308E0021009513B3
:1007E80025008C018E0100308B1B0130F4008B1327
:1007F80055303C008F00AA308F000F101508E039E3
:10080800143895003D001408F03904389400150890
:10081800F039033895002508F0390938A500553016
:100828003C008F00AA308F000F14741C1D2C8B17EE
:1008380008008B130800C830F50075082000A000D8
:100848008531CF258431FE30F5007508F905210082
:1008580043080319332C15308531B52584313430DC
:10086800F500F230890B362CF50B362C20002008C9
:10087800031D79184B2C0B30F5006230890B422C84
:10088800F50B422C003201302000A0023A2C20083F
:100898000319502C78080800003008002000A10037
:1008A800A00130302102031C602C3A3021020318C9
:1008B800602C2108D03E752C41302102031C6B2C82
:1008C8004730210203186B2C2108C93E752C613072
:1008D8002102031C782C673021020318782C210888
:1008E800A93EF4007408A0042008080023009E1EF6
:1008F8009E167408840075088500120003199C2C44
:100908002000111E842C74088400750885000008D6
:1009180023009A000130F4070030F53D0000000084
:1009280000000000000000000000000000007D2C16
:100938002000111A08009C2C23009D1CA52C1D12B8
:100948001D161908F0007008F200A030780203188C
:1009580008007808403EF000F1012330F13D7008AE
:10096800860071088700720881000130F000700865
:10097800F8070A302100B6000030B7000800003040
:100988008B1B01302000A0008B13740823009100FA
:100998007508920015131516151555309600AA30CE
:1009A8009600951400000000230015112000200C6B
:1009B800031C8B1303188B1708001030210040020A
:1009C8000318FB2C7608A03E860087010108230047
:1009D8009A000130F0007008F6071030760203180C
:1009E800F6010130F00070082100C007080011125C
:1009F800080000308B1B01302000A0008B13740806
:100A080023009100750892001513151400000000CA
:100A18002000200C031C8B1303188B1723001408C9
:100A2800F5001308F4000800210091121112083093
:100A380023009F0090309D0024309E00A0309B0032
:100A480001309C00F701F6011030F4007408210011
:100A5800C000BD01BC01F80191160800F500013085
:100A68002000A1020030A23B210A0319220A03191F
:100A7800080020002008F40075088600013087006F
:100A8800740881000130F4007408F507332D7534BB
:100A980070346434613474346534203461347034AF
:100AA80070342034663477343F3479342F346E34DC
:100AB8000D340A340034733465346E3464342034AD
:100AC8002A342E34683465347834203466346934F2
:100AD8006C3465342E340D340A3400344A30200026
:100AE8009C0018309B009A0191102100911400304D
:100AF800F4000030F5008531D52585318531E725AD
:100B08000800303431343234333434343534363404
:100B18003734383439344134423443344434453436
:100B28004634003462346F346F3474346C34613456
:100B38006F346434653472342E342E342E340D34CC
:100B48000A3400348331E02385318531DB25853152
:100B58008531E02585318531722585318531182526
:100B68000800F40023009E1E9E162000111EB92DB9
:100B7800740823009A002000111A0800BF2D640091
:100B8800800101310130FE020030FF3B7F087E0406
:100B980003190034C42DF80121009116B601B701DC
:100BA800080075082100BF007408BE0008007A30EC
:100BB80021009900980108001630210097000800CC
:0C0BC80000340834013420001C15080023
:020000040001F9
:04000E00E4FFFBFE12
:00000001FF
