:0400000080314728DC
:100008007E14803120007F08F300AA303F007F066D
:10001800031D1028883104280B1F1B282100111EDE
:100028001B282000111E1B288431D92480310B1F66
:1000380026282100911E26282000911E262884317A
:10004800982480310B1F42282100911C422820004F
:10005800911C4228911021003608370403193828CA
:100068000130B6070030B73D0030370215300319AC
:100078003602031C4228B601B70179147308200020
:10008800FF007E1009008031492821008531DC25D8
:100098008031C1008531DD258031C2008531DE2502
:1000A8008031C3004030840023308500A030FE003A
:1000B8000030FF008531BB258031F601F701F801DA
:1000C800F901A0308400003085001E30FE000030A9
:1000D800FF008531BB258031203084000130850048
:1000E8003030FE000030FF008531BB258031A03064
:1000F8008400013085005030FE000030FF0085315B
:10010800BB257E1020008131882900002130200085
:10011800B1003108A20021003A08FD3E2000A300EA
:10012800FF3003180030A400203083313C23803195
:1001380020002208B2003208B5000000220023087F
:10014800031D7E2921082000B100B2013108B30047
:100158003208B4000830B335B40D890BAF2822003B
:1001680022082000B100B2013108B3043208B404F7
:100178000130B436B30C890BBD2834082100B50012
:10018800200033082100B400083035063404031D6C
:10019800DF280130B4070030B53D3935A03E860070
:1001A800013087000030C03FC13F01302000B1005E
:1001B80031082100B907220020082000B1003108C9
:1001C8002100BB003B0803197E293908410720009C
:1001D800B100210042080318420A2000B2002100A1
:1001E800350820003202031DFD28210034082000B4
:1001F80031020318292921003935A03E8600013033
:100208008700FF30C03F0330C13F01302000B100FC
:1002180031082100B90720303902031CE9284208B7
:100228002000AA00210041082000A900A030B10048
:100238003108AB008231E522803120302100C1072E
:100248000030C23D2030B902E928B50121003B0841
:100258002000350203187E293508053E203E860019
:10026800013087000108B100B2013108B30032083B
:10027800B4000830B335B40D890B3E293508043E67
:10028800203E8600013087000108B100B201310824
:10029800B3043208B40421003935A03E8600013089
:1002A800870020003308C03F3408C13F0130B10047
:1002B80031082100B90720303902031C7829420887
:1002C8002000AA00210041082000A900A030B100A8
:1002D8003108AB008231E522803120302100C1078E
:1002E8000030C23D2030B90202302000B100310890
:1002F800B5072A292000A0013030A1000030A20053
:10030800203085312A2508002000BE01BF01C00128
:100318005530BC003C083F00FF0085319E258131E7
:100328008B170B170230F4001F30F5008431F524C9
:10033800813175082000C0007408BF00FF303F05F8
:10034800BC0000304005BD003C0A3D04031D182ACE
:100358008531C72581318E30F4008530F500843130
:100368007224813103302000BD000830BC00773092
:10037800890BBC29BC0BBC29BD0BBC294330F4003C
:100388008530F50084317224813115302000BD009C
:100398004B30BC00BE30890BCF29BC0BCF29BD0B1D
:1003A800CF290000C8302000BF000030C000F8018D
:1003B8003F08400403190A2A02302000BD00043017
:1003C800BC00BA30890BE629BC0BE629BD0BE6292F
:1003D8000000791C042AFE302000BC003C08F90506
:1003E80040308600233087007930010603190A2A35
:1003F80040308600233087005930010603190A2A45
:1004080001302000BF020030C03BDC293F08400417
:100418000319182A82311D2281312000BC003C08B2
:10042800BE003E080319172A0000883100288031D1
:1004380047285730F4008530F50084317224823122
:1004480005302000BA000F30B900F130890B2A2A94
:10045800B90B2A2ABA0B2A2A2100C301C30A003081
:10046800C1000830C200BB01B401B501BA01B9012D
:10047800462A1530432A833192238231063085314A
:10048800AD2582318431172482312000B900390822
:10049800BB003B080319462A2100C3018430200011
:1004A8003B0603193F2A403086002330870004307A
:1004B8000106031D3D2A06308531AD258231210014
:1004C80039080319832A083042020030031941020F
:1004D800031C832A1F30420200300319410203180B
:1004E800832A42082000A200210041082000A10020
:1004F800A030B9003908A300823188228231063041
:100508008531AD250130080000308B1B01302000FB
:10051800A7008B132208F5002108F4008431BB24BE
:10052800823123001513151595162000A8012030D7
:1005380028020318DC2A2108230091002000220841
:1005480023009200200028352307A40024088600F1
:100558000130870001082300930020002835230775
:10056800A4002408860001308700403FA500413FD1
:10057800A6002608230094001F3020002806031D2B
:10058800C72A23009512553023009600AA309600FA
:1005980095140000000001302000A1070030A23DA2
:1005A8000130A4002408A80720302802031C9F2A31
:1005B800230015112000270C031C8B1303188B171D
:1005C800080020002A08F5002908F4008431BB241B
:1005D800823120002A08A2002908A1002B08AC00BB
:1005E8002C08A3008231882282312400E0012030C7
:1005F800600203180800600820002907F4002A0890
:1006080003182A0AF5008431F52482312400603564
:10061800203E8600023087007408C03F7508C13F3D
:10062800603520002B07AC002C08860001308700BD
:10063800403FAD00413FAE0024006035203E8600BB
:1006480002308700403F2000AF00413FB0002E0835
:100658003006031D312B2D082F060319352B0000FA
:10066800000001302000AC002C082400E007FB2A21
:100678002000A9002408A8002308A70000302802A9
:10068800023003192702031C872BAB0122088600BE
:10069800013087000108A5002508AA000130A5003F
:1006A8002508A2072A0884314A2483312000A5009E
:1006B8002508AB00AB0EF030AB05220886000130F0
:1006C80087000108A5002508AA000130A500250813
:1006D800A2072A0884314A24833120002B07A50069
:1006E8002508AB002B08A5002908860001308700E3
:1006F800250881000130A5002508A9070230A702B6
:100708000030A83B422B2408A6002308A500A636E3
:10071800A50C2508A2002608A30008002000B8019F
:100728000330B6003608B8007808FF3EB600FF3040
:1007380003180030B7003708803A803C031DA62B09
:10074800360838020318D62B20003808403E8600A9
:1007580087012330873D0108B60021003A08203E72
:100768008600013087002000360881003808403EA6
:10077800860087012330873D0A300106031DCA2BF6
:100788008031892083312100BA01D02B013020002B
:10079800B60036082100BA0701302000B600360836
:1007A800B807982B0000080022008C018E010F303A
:1007B80021008C001F308E000F3023008E00173070
:1007C8008C003B3024008C0030308E0021009513C3
:1007D80025008C018E0100308B1B0130F4008B1337
:1007E80055303C008F00AA308F000F101508E039F3
:1007F800143895003D001408F039043894001508A1
:10080800F039033895002508F0390938A500553026
:100818003C008F00AA308F000F14741C152C8B1706
:1008280008008B130800C830F50075082000A000E8
:100838008531C7258431FE30F5007508F90521009A
:10084800430803192B2C15308531AD2584313430FC
:10085800F500F230890B2E2CF50B2E2C20002008E9
:10086800031D7918432C0B30F5006230890B3A2CA4
:10087800F50B3A2C003201302000A002322C20085F
:100888000319482C78080800003008002000A1004F
:10089800A00130302102031C582C3A3021020318E1
:1008A800582C2108D03E6D2C41302102031C632CAA
:1008B800473021020318632C2108C93E6D2C613092
:1008C8002102031C702C673021020318702C2108A8
:1008D800A93EF4007408A0042008080023009E1E06
:1008E8009E16740884007508850012000319942C5C
:1008F8002000111E7C2C74088400750885000008EF
:1009080023009A000130F4070030F53D0000000094
:100918000000000000000000000000000000752C2E
:100928002000111A0800942C23009D1C9D2C1D12D8
:100938001D161908F0007008F200A030780203189C
:1009480008007808403EF000F1012330F13D7008BE
:10095800860071088700720881000130F000700875
:10096800F8070A302100B6000030B7000800003050
:100978008B1B01302000A0008B137408230091000A
:100988007508920015131516151555309600AA30DE
:100998009600951400000000230015112000200C7B
:1009A800031C8B1303188B1708001030210040021A
:1009B8000318F32C7608A03E86008701010823005F
:1009C8009A000130F0007008F6071030760203181C
:1009D800F6010130F00070082100C007080011126C
:1009E800080000308B1B01302000A0008B13740816
:1009F80023009100750892001513151400000000DB
:100A08002000200C031C8B1303188B1723001408D9
:100A1800F5001308F40008002100911211120830A3
:100A280023009F0090309D0024309E00A0309B0042
:100A380001309C00F701F6011030F4007408210021
:100A4800C000BD01BC01F80191160800F500013095
:100A58002000A1020030A23B210A0319220A03192F
:100A6800080020002008F40075088600013087007F
:100A7800740881000130F4007408F5072B2D7534D3
:100A880070346434613474346534203461347034BF
:100A980070342034663477343F3479342F346E34EC
:100AA8000D340A340034733465346E3464342034BD
:100AB8002A342E3468346534783420346634693402
:100AC8006C3465342E340D340A3400344A30200036
:100AD8009C0018309B009A0191102100911400305D
:100AE800F4000030F5008531CD2585318531DF25CD
:100AF8000800303431343234333434343534363415
:100B08003734383439344134423443344434453446
:100B18004634003462346F346F3474346C34613466
:100B28006F346434653472342E342E342E340D34DC
:100B38000A3400348331D82385318531D325853172
:100B48008531D825853185316A258531853110254E
:100B58000800F40023009E1E9E162000111EB12DD1
:100B6800740823009A002000111A0800B72D6400A9
:100B7800800101310130FE020030FF3B7F087E0416
:100B880003190034BC2DF80121009116B601B701F4
:100B9800080075082100BF007408BE0008007A30FC
:100BA80021009900980108001630210097000800DC
:0C0BB80000340834013420001C15080033
:020000040001F9
:04000E00E4FFFBFE12
:00000001FF
